{
    "_format": "hh-sol-artifact-1",
    "contractName": "EarlyBirdV1",
    "sourceName": "contracts/EarlyBirdV1.sol",
    "abi": [
        {
            "inputs": [],
            "name": "AllOccupied",
            "type": "error"
        },
        {
            "inputs": [],
            "name": "AlreadyExists",
            "type": "error"
        },
        {
            "inputs": [
                {
                    "internalType": "uint8",
                    "name": "",
                    "type": "uint8"
                }
            ],
            "name": "UnknownValidState",
            "type": "error"
        },
        {
            "anonymous": false,
            "inputs": [
                {
                    "indexed": false,
                    "internalType": "uint8",
                    "name": "version",
                    "type": "uint8"
                }
            ],
            "name": "Initialized",
            "type": "event"
        },
        {
            "inputs": [],
            "name": "amountOfFreeTokenForEarlyBird",
            "outputs": [
                {
                    "internalType": "uint256",
                    "name": "",
                    "type": "uint256"
                }
            ],
            "stateMutability": "view",
            "type": "function"
        },
        {
            "inputs": [],
            "name": "currentEarlyBirdCount",
            "outputs": [
                {
                    "internalType": "uint32",
                    "name": "",
                    "type": "uint32"
                }
            ],
            "stateMutability": "view",
            "type": "function"
        },
        {
            "inputs": [
                {
                    "internalType": "uint32",
                    "name": "_numOfEarlyBirdsAllowed",
                    "type": "uint32"
                },
                {
                    "internalType": "uint256",
                    "name": "_amountOfFreeTokenForEarlyBird",
                    "type": "uint256"
                }
            ],
            "name": "initialize",
            "outputs": [],
            "stateMutability": "nonpayable",
            "type": "function"
        },
        {
            "inputs": [],
            "name": "numOfEarlyBirdsAllowed",
            "outputs": [
                {
                    "internalType": "uint32",
                    "name": "",
                    "type": "uint32"
                }
            ],
            "stateMutability": "view",
            "type": "function"
        },
        {
            "inputs": [],
            "name": "owner",
            "outputs": [
                {
                    "internalType": "address",
                    "name": "",
                    "type": "address"
                }
            ],
            "stateMutability": "view",
            "type": "function"
        },
        {
            "inputs": [
                {
                    "internalType": "address",
                    "name": "_newOwner",
                    "type": "address"
                }
            ],
            "name": "setNewOwner",
            "outputs": [],
            "stateMutability": "nonpayable",
            "type": "function"
        },
        {
            "inputs": [
                {
                    "internalType": "address",
                    "name": "sureToken",
                    "type": "address"
                }
            ],
            "name": "snapUp",
            "outputs": [],
            "stateMutability": "payable",
            "type": "function"
        },
        {
            "inputs": [
                {
                    "internalType": "address",
                    "name": "_address",
                    "type": "address"
                }
            ],
            "name": "validate",
            "outputs": [
                {
                    "internalType": "uint8",
                    "name": "",
                    "type": "uint8"
                }
            ],
            "stateMutability": "view",
            "type": "function"
        }
    ],
    "bytecode": "0x608060405234801561001057600080fd5b50610c4b806100206000396000f3fe60806040526004361061007b5760003560e01c8063a9dc0fc31161004e578063a9dc0fc31461013c578063da289c0b14610158578063e6ebee0f14610183578063f5a1f5b4146101ae5761007b565b8063207c64fb14610080578063282558d9146100bd5780638da5cb5b146100e6578063925fc14a14610111575b600080fd5b34801561008c57600080fd5b506100a760048036038101906100a291906107c8565b6101d7565b6040516100b49190610811565b60405180910390f35b3480156100c957600080fd5b506100e460048036038101906100df919061089e565b61027e565b005b3480156100f257600080fd5b506100fb61041f565b60405161010891906108ed565b60405180910390f35b34801561011d57600080fd5b50610126610445565b6040516101339190610917565b60405180910390f35b610156600480360381019061015191906107c8565b61045b565b005b34801561016457600080fd5b5061016d610652565b60405161017a9190610941565b60405180910390f35b34801561018f57600080fd5b50610198610658565b6040516101a59190610917565b60405180910390f35b3480156101ba57600080fd5b506101d560048036038101906101d091906107c8565b61066e565b005b6000600260009054906101000a900463ffffffff1663ffffffff16600260049054906101000a900463ffffffff1663ffffffff16106102195760029050610279565b600360008373ffffffffffffffffffffffffffffffffffffffff1673ffffffffffffffffffffffffffffffffffffffff16815260200190815260200160002060009054906101000a900460ff16156102745760039050610279565b600190505b919050565b60008060019054906101000a900460ff161590508080156102af5750600160008054906101000a900460ff1660ff16105b806102dc57506102be30610742565b1580156102db5750600160008054906101000a900460ff1660ff16145b5b61031b576040517f08c379a0000000000000000000000000000000000000000000000000000000008152600401610312906109df565b60405180910390fd5b60016000806101000a81548160ff021916908360ff1602179055508015610358576001600060016101000a81548160ff0219169083151502179055505b82600260006101000a81548163ffffffff021916908363ffffffff1602179055508160018190555033600460006101000a81548173ffffffffffffffffffffffffffffffffffffffff021916908373ffffffffffffffffffffffffffffffffffffffff160217905550801561041a5760008060016101000a81548160ff0219169083151502179055507f7f26b83ff96e1f2b6a682f133852f6798a09c465da95921460cefb384740249860016040516104119190610a44565b60405180910390a15b505050565b600460009054906101000a900473ffffffffffffffffffffffffffffffffffffffff1681565b600260009054906101000a900463ffffffff1681565b6000610466336101d7565b905060018160ff1603610597576001600260048282829054906101000a900463ffffffff166104959190610a8e565b92506101000a81548163ffffffff021916908363ffffffff1602179055506001600360003373ffffffffffffffffffffffffffffffffffffffff1673ffffffffffffffffffffffffffffffffffffffff16815260200190815260200160002060006101000a81548160ff02191690831515021790555060003390508273ffffffffffffffffffffffffffffffffffffffff1663a9059cbb826001546040518363ffffffff1660e01b815260040161054d929190610b1b565b6020604051808303816000875af115801561056c573d6000803e3d6000fd5b505050506040513d601f19601f820116820180604052508101906105909190610b7c565b505061064e565b60028160ff16036105d4576040517f99662e5d00000000000000000000000000000000000000000000000000000000815260040160405180910390fd5b60038160ff1603610611576040517f23369fa600000000000000000000000000000000000000000000000000000000815260040160405180910390fd5b806040517fc8c2d48c0000000000000000000000000000000000000000000000000000000081526004016106459190610811565b60405180910390fd5b5050565b60015481565b600260049054906101000a900463ffffffff1681565b600460009054906101000a900473ffffffffffffffffffffffffffffffffffffffff1673ffffffffffffffffffffffffffffffffffffffff163373ffffffffffffffffffffffffffffffffffffffff16146106fe576040517f08c379a00000000000000000000000000000000000000000000000000000000081526004016106f590610bf5565b60405180910390fd5b80600460006101000a81548173ffffffffffffffffffffffffffffffffffffffff021916908373ffffffffffffffffffffffffffffffffffffffff16021790555050565b6000808273ffffffffffffffffffffffffffffffffffffffff163b119050919050565b600080fd5b600073ffffffffffffffffffffffffffffffffffffffff82169050919050565b60006107958261076a565b9050919050565b6107a58161078a565b81146107b057600080fd5b50565b6000813590506107c28161079c565b92915050565b6000602082840312156107de576107dd610765565b5b60006107ec848285016107b3565b91505092915050565b600060ff82169050919050565b61080b816107f5565b82525050565b60006020820190506108266000830184610802565b92915050565b600063ffffffff82169050919050565b6108458161082c565b811461085057600080fd5b50565b6000813590506108628161083c565b92915050565b6000819050919050565b61087b81610868565b811461088657600080fd5b50565b60008135905061089881610872565b92915050565b600080604083850312156108b5576108b4610765565b5b60006108c385828601610853565b92505060206108d485828601610889565b9150509250929050565b6108e78161078a565b82525050565b600060208201905061090260008301846108de565b92915050565b6109118161082c565b82525050565b600060208201905061092c6000830184610908565b92915050565b61093b81610868565b82525050565b60006020820190506109566000830184610932565b92915050565b600082825260208201905092915050565b7f496e697469616c697a61626c653a20636f6e747261637420697320616c72656160008201527f647920696e697469616c697a6564000000000000000000000000000000000000602082015250565b60006109c9602e8361095c565b91506109d48261096d565b604082019050919050565b600060208201905081810360008301526109f8816109bc565b9050919050565b6000819050919050565b6000819050919050565b6000610a2e610a29610a24846109ff565b610a09565b6107f5565b9050919050565b610a3e81610a13565b82525050565b6000602082019050610a596000830184610a35565b92915050565b7f4e487b7100000000000000000000000000000000000000000000000000000000600052601160045260246000fd5b6000610a998261082c565b9150610aa48361082c565b9250828201905063ffffffff811115610ac057610abf610a5f565b5b92915050565b6000610ae1610adc610ad78461076a565b610a09565b61076a565b9050919050565b6000610af382610ac6565b9050919050565b6000610b0582610ae8565b9050919050565b610b1581610afa565b82525050565b6000604082019050610b306000830185610b0c565b610b3d6020830184610932565b9392505050565b60008115159050919050565b610b5981610b44565b8114610b6457600080fd5b50565b600081519050610b7681610b50565b92915050565b600060208284031215610b9257610b91610765565b5b6000610ba084828501610b67565b91505092915050565b7f556e617574686f72697a65640000000000000000000000000000000000000000600082015250565b6000610bdf600c8361095c565b9150610bea82610ba9565b602082019050919050565b60006020820190508181036000830152610c0e81610bd2565b905091905056fea2646970667358221220b0ae699bf4789dfc5e2c565048064bad9f5d42d478095a7a09ae775710b6378564736f6c63430008120033",
    "linkReferences": {},
    "deployedLinkReferences": {}
}