{
    "_format": "hh-sol-artifact-1",
    "contractName": "PredictionWorld4",
    "sourceName": "contracts/PredictionWorld4.sol",
    "abi": [
        {
            "anonymous": false,
            "inputs": [
                {
                    "indexed": false,
                    "internalType": "uint8",
                    "name": "version",
                    "type": "uint8"
                }
            ],
            "name": "Initialized",
            "type": "event"
        },
        {
            "anonymous": false,
            "inputs": [
                {
                    "indexed": false,
                    "internalType": "uint256",
                    "name": "id",
                    "type": "uint256"
                },
                {
                    "indexed": false,
                    "internalType": "string",
                    "name": "market",
                    "type": "string"
                },
                {
                    "indexed": false,
                    "internalType": "uint256",
                    "name": "timestamp",
                    "type": "uint256"
                },
                {
                    "indexed": false,
                    "internalType": "address",
                    "name": "createdBy",
                    "type": "address"
                },
                {
                    "indexed": false,
                    "internalType": "string",
                    "name": "creatorImageHash",
                    "type": "string"
                },
                {
                    "indexed": false,
                    "internalType": "uint256",
                    "name": "totalAmount",
                    "type": "uint256"
                },
                {
                    "indexed": false,
                    "internalType": "uint256",
                    "name": "totalYesAmount",
                    "type": "uint256"
                },
                {
                    "indexed": false,
                    "internalType": "uint256",
                    "name": "totalNoAmount",
                    "type": "uint256"
                }
            ],
            "name": "MarketCreated",
            "type": "event"
        },
        {
            "inputs": [
                {
                    "internalType": "address",
                    "name": "_address",
                    "type": "address"
                }
            ],
            "name": "addAdminUser",
            "outputs": [],
            "stateMutability": "nonpayable",
            "type": "function"
        },
        {
            "inputs": [
                {
                    "internalType": "uint256",
                    "name": "_marketId",
                    "type": "uint256"
                },
                {
                    "internalType": "uint256",
                    "name": "_value",
                    "type": "uint256"
                }
            ],
            "name": "addNoBet",
            "outputs": [],
            "stateMutability": "payable",
            "type": "function"
        },
        {
            "inputs": [
                {
                    "internalType": "uint256",
                    "name": "_marketId",
                    "type": "uint256"
                },
                {
                    "internalType": "uint256",
                    "name": "_value",
                    "type": "uint256"
                }
            ],
            "name": "addYesBet",
            "outputs": [],
            "stateMutability": "payable",
            "type": "function"
        },
        {
            "inputs": [],
            "name": "commissionAddress",
            "outputs": [
                {
                    "internalType": "address",
                    "name": "",
                    "type": "address"
                }
            ],
            "stateMutability": "view",
            "type": "function"
        },
        {
            "inputs": [
                {
                    "internalType": "string",
                    "name": "_question",
                    "type": "string"
                },
                {
                    "internalType": "string",
                    "name": "_creatorImageHash",
                    "type": "string"
                },
                {
                    "internalType": "string",
                    "name": "_description",
                    "type": "string"
                },
                {
                    "internalType": "string",
                    "name": "_resolverUrl",
                    "type": "string"
                },
                {
                    "internalType": "uint256",
                    "name": "_endTimestamp",
                    "type": "uint256"
                },
                {
                    "internalType": "bool",
                    "name": "isTest",
                    "type": "bool"
                }
            ],
            "name": "createMarket",
            "outputs": [],
            "stateMutability": "nonpayable",
            "type": "function"
        },
        {
            "inputs": [
                {
                    "internalType": "uint256",
                    "name": "_marketId",
                    "type": "uint256"
                },
                {
                    "internalType": "bool",
                    "name": "_eventOutcome",
                    "type": "bool"
                }
            ],
            "name": "distributeWinningAmount",
            "outputs": [],
            "stateMutability": "payable",
            "type": "function"
        },
        {
            "inputs": [
                {
                    "internalType": "uint256",
                    "name": "cursor",
                    "type": "uint256"
                },
                {
                    "internalType": "uint256",
                    "name": "size",
                    "type": "uint256"
                },
                {
                    "internalType": "bool",
                    "name": "withTest",
                    "type": "bool"
                }
            ],
            "name": "fetchMarkets",
            "outputs": [
                {
                    "components": [
                        {
                            "internalType": "uint256",
                            "name": "id",
                            "type": "uint256"
                        },
                        {
                            "components": [
                                {
                                    "internalType": "string",
                                    "name": "question",
                                    "type": "string"
                                },
                                {
                                    "internalType": "uint256",
                                    "name": "timestamp",
                                    "type": "uint256"
                                },
                                {
                                    "internalType": "uint256",
                                    "name": "endTimestamp",
                                    "type": "uint256"
                                },
                                {
                                    "internalType": "address",
                                    "name": "createdBy",
                                    "type": "address"
                                },
                                {
                                    "internalType": "string",
                                    "name": "creatorImageHash",
                                    "type": "string"
                                },
                                {
                                    "internalType": "string",
                                    "name": "description",
                                    "type": "string"
                                },
                                {
                                    "internalType": "string",
                                    "name": "resolverUrl",
                                    "type": "string"
                                },
                                {
                                    "internalType": "bool",
                                    "name": "isTest",
                                    "type": "bool"
                                }
                            ],
                            "internalType": "struct PredictionWorld4.Info",
                            "name": "info",
                            "type": "tuple"
                        },
                        {
                            "components": [
                                {
                                    "internalType": "address",
                                    "name": "user",
                                    "type": "address"
                                },
                                {
                                    "internalType": "uint256",
                                    "name": "amount",
                                    "type": "uint256"
                                },
                                {
                                    "internalType": "uint256",
                                    "name": "timestamp",
                                    "type": "uint256"
                                }
                            ],
                            "internalType": "struct PredictionWorld4.Bet[]",
                            "name": "yesBets",
                            "type": "tuple[]"
                        },
                        {
                            "components": [
                                {
                                    "internalType": "address",
                                    "name": "user",
                                    "type": "address"
                                },
                                {
                                    "internalType": "uint256",
                                    "name": "amount",
                                    "type": "uint256"
                                },
                                {
                                    "internalType": "uint256",
                                    "name": "timestamp",
                                    "type": "uint256"
                                }
                            ],
                            "internalType": "struct PredictionWorld4.Bet[]",
                            "name": "noBets",
                            "type": "tuple[]"
                        },
                        {
                            "internalType": "uint256",
                            "name": "totalAmount",
                            "type": "uint256"
                        },
                        {
                            "internalType": "uint256",
                            "name": "totalYesAmount",
                            "type": "uint256"
                        },
                        {
                            "internalType": "uint256",
                            "name": "totalNoAmount",
                            "type": "uint256"
                        },
                        {
                            "internalType": "bool",
                            "name": "marketClosed",
                            "type": "bool"
                        },
                        {
                            "internalType": "bool",
                            "name": "outcome",
                            "type": "bool"
                        }
                    ],
                    "internalType": "struct PredictionWorld4.Market[]",
                    "name": "values",
                    "type": "tuple[]"
                },
                {
                    "internalType": "uint256",
                    "name": "nextCursor",
                    "type": "uint256"
                }
            ],
            "stateMutability": "view",
            "type": "function"
        },
        {
            "inputs": [
                {
                    "internalType": "uint256",
                    "name": "_marketId",
                    "type": "uint256"
                }
            ],
            "name": "getBets",
            "outputs": [
                {
                    "components": [
                        {
                            "internalType": "address",
                            "name": "user",
                            "type": "address"
                        },
                        {
                            "internalType": "uint256",
                            "name": "amount",
                            "type": "uint256"
                        },
                        {
                            "internalType": "uint256",
                            "name": "timestamp",
                            "type": "uint256"
                        }
                    ],
                    "internalType": "struct PredictionWorld4.Bet[]",
                    "name": "",
                    "type": "tuple[]"
                },
                {
                    "components": [
                        {
                            "internalType": "address",
                            "name": "user",
                            "type": "address"
                        },
                        {
                            "internalType": "uint256",
                            "name": "amount",
                            "type": "uint256"
                        },
                        {
                            "internalType": "uint256",
                            "name": "timestamp",
                            "type": "uint256"
                        }
                    ],
                    "internalType": "struct PredictionWorld4.Bet[]",
                    "name": "",
                    "type": "tuple[]"
                }
            ],
            "stateMutability": "view",
            "type": "function"
        },
        {
            "inputs": [
                {
                    "internalType": "address",
                    "name": "_sureToken",
                    "type": "address"
                }
            ],
            "name": "initialize",
            "outputs": [],
            "stateMutability": "nonpayable",
            "type": "function"
        },
        {
            "inputs": [
                {
                    "internalType": "address",
                    "name": "_address",
                    "type": "address"
                }
            ],
            "name": "isAdminUser",
            "outputs": [
                {
                    "internalType": "bool",
                    "name": "",
                    "type": "bool"
                }
            ],
            "stateMutability": "view",
            "type": "function"
        },
        {
            "inputs": [
                {
                    "internalType": "uint256",
                    "name": "",
                    "type": "uint256"
                }
            ],
            "name": "markets",
            "outputs": [
                {
                    "internalType": "uint256",
                    "name": "id",
                    "type": "uint256"
                },
                {
                    "components": [
                        {
                            "internalType": "string",
                            "name": "question",
                            "type": "string"
                        },
                        {
                            "internalType": "uint256",
                            "name": "timestamp",
                            "type": "uint256"
                        },
                        {
                            "internalType": "uint256",
                            "name": "endTimestamp",
                            "type": "uint256"
                        },
                        {
                            "internalType": "address",
                            "name": "createdBy",
                            "type": "address"
                        },
                        {
                            "internalType": "string",
                            "name": "creatorImageHash",
                            "type": "string"
                        },
                        {
                            "internalType": "string",
                            "name": "description",
                            "type": "string"
                        },
                        {
                            "internalType": "string",
                            "name": "resolverUrl",
                            "type": "string"
                        },
                        {
                            "internalType": "bool",
                            "name": "isTest",
                            "type": "bool"
                        }
                    ],
                    "internalType": "struct PredictionWorld4.Info",
                    "name": "info",
                    "type": "tuple"
                },
                {
                    "internalType": "uint256",
                    "name": "totalAmount",
                    "type": "uint256"
                },
                {
                    "internalType": "uint256",
                    "name": "totalYesAmount",
                    "type": "uint256"
                },
                {
                    "internalType": "uint256",
                    "name": "totalNoAmount",
                    "type": "uint256"
                },
                {
                    "internalType": "bool",
                    "name": "marketClosed",
                    "type": "bool"
                },
                {
                    "internalType": "bool",
                    "name": "outcome",
                    "type": "bool"
                }
            ],
            "stateMutability": "view",
            "type": "function"
        },
        {
            "inputs": [],
            "name": "owner",
            "outputs": [
                {
                    "internalType": "address",
                    "name": "",
                    "type": "address"
                }
            ],
            "stateMutability": "view",
            "type": "function"
        },
        {
            "inputs": [
                {
                    "internalType": "address",
                    "name": "_address",
                    "type": "address"
                }
            ],
            "name": "removeAdminUser",
            "outputs": [],
            "stateMutability": "nonpayable",
            "type": "function"
        },
        {
            "inputs": [
                {
                    "internalType": "address",
                    "name": "_newOwner",
                    "type": "address"
                }
            ],
            "name": "setNewOwner",
            "outputs": [],
            "stateMutability": "nonpayable",
            "type": "function"
        },
        {
            "inputs": [],
            "name": "sureToken",
            "outputs": [
                {
                    "internalType": "address",
                    "name": "",
                    "type": "address"
                }
            ],
            "stateMutability": "view",
            "type": "function"
        },
        {
            "inputs": [],
            "name": "totalMarkets",
            "outputs": [
                {
                    "internalType": "uint256",
                    "name": "",
                    "type": "uint256"
                }
            ],
            "stateMutability": "view",
            "type": "function"
        }
    ],
    "bytecode": "0x608060405234801561001057600080fd5b50613bf7806100206000396000f3fe6080604052600436106100f35760003560e01c8063931742d31161008a578063c4d66de811610059578063c4d66de814610328578063eb3f75e214610351578063ee81e4dd1461036d578063f5a1f5b414610398576100f3565b8063931742d31461027557806394743ae8146102a0578063b1283e77146102c9578063bf01fe001461030c576100f3565b80636323580d116100c65780636323580d146101c6578063724ba40b146102035780638162486b1461021f5780638da5cb5b1461024a576100f3565b80630aa69fa1146100f85780631ccf6955146101215780631de6ebd81461015f57806359f0713414610188575b600080fd5b34801561010457600080fd5b5061011f600480360381019061011a91906129bf565b6103c1565b005b34801561012d57600080fd5b5061014860048036038101906101439190612abc565b6105cc565b604051610156929190612c2a565b60405180910390f35b34801561016b57600080fd5b5061018660048036038101906101819190612c8d565b61077e565b005b34801561019457600080fd5b506101af60048036038101906101aa9190612cba565b610860565b6040516101bd929190613073565b60405180910390f35b3480156101d257600080fd5b506101ed60048036038101906101e89190612c8d565b610e73565b6040516101fa91906130b2565b60405180910390f35b61021d600480360381019061021891906130cd565b610ec9565b005b34801561022b57600080fd5b506102346118dc565b604051610241919061310d565b60405180910390f35b34801561025657600080fd5b5061025f6118e2565b60405161026c9190613137565b60405180910390f35b34801561028157600080fd5b5061028a611908565b6040516102979190613137565b60405180910390f35b3480156102ac57600080fd5b506102c760048036038101906102c29190612c8d565b61192e565b005b3480156102d557600080fd5b506102f060048036038101906102eb9190612abc565b611a6b565b6040516103039796959493929190613217565b60405180910390f35b6103266004803603810190610321919061328d565b611d9f565b005b34801561033457600080fd5b5061034f600480360381019061034a9190612c8d565b612035565b005b61036b6004803603810190610366919061328d565b6122cb565b005b34801561037957600080fd5b50610382612561565b60405161038f9190613137565b60405180910390f35b3480156103a457600080fd5b506103bf60048036038101906103ba9190612c8d565b612587565b005b600760003373ffffffffffffffffffffffffffffffffffffffff1673ffffffffffffffffffffffffffffffffffffffff16815260200190815260200160002060009054906101000a900460ff1661044d576040517f08c379a00000000000000000000000000000000000000000000000000000000081526004016104449061332a565b60405180910390fd5b6000429050600060046000600354815260200190815260200160002090506003600081548092919061047e90613379565b9190505581600001819055508781600101600001908161049e91906135cd565b50868160010160040190816104b391906135cd565b50818160010160010181905550338160010160030160006101000a81548173ffffffffffffffffffffffffffffffffffffffff021916908373ffffffffffffffffffffffffffffffffffffffff160217905550828160010160070160006101000a81548160ff021916908315150217905550600081600b0181905550600081600c0181905550600081600d01819055508581600101600501908161055791906135cd565b508481600101600601908161056c91906135cd565b508381600101600201819055507fe51b4ce9e60c0c010fcdef22c23537f954e056004aed674362555a9d11d037386003548984338b60008060006040516105ba989796959493929190613713565b60405180910390a15050505050505050565b60608060006004600085815260200190815260200160002090508060090181600a0181805480602002602001604051908101604052809291908181526020016000905b828210156106ab57838290600052602060002090600302016040518060600160405290816000820160009054906101000a900473ffffffffffffffffffffffffffffffffffffffff1673ffffffffffffffffffffffffffffffffffffffff1673ffffffffffffffffffffffffffffffffffffffff168152602001600182015481526020016002820154815250508152602001906001019061060f565b50505050915080805480602002602001604051908101604052809291908181526020016000905b8282101561076e57838290600052602060002090600302016040518060600160405290816000820160009054906101000a900473ffffffffffffffffffffffffffffffffffffffff1673ffffffffffffffffffffffffffffffffffffffff1673ffffffffffffffffffffffffffffffffffffffff16815260200160018201548152602001600282015481525050815260200190600101906106d2565b5050505090509250925050915091565b600160009054906101000a900473ffffffffffffffffffffffffffffffffffffffff1673ffffffffffffffffffffffffffffffffffffffff163373ffffffffffffffffffffffffffffffffffffffff161461080e576040517f08c379a00000000000000000000000000000000000000000000000000000000081526004016108059061332a565b60405180910390fd5b600760008273ffffffffffffffffffffffffffffffffffffffff1673ffffffffffffffffffffffffffffffffffffffff16815260200190815260200160002060006101000a81549060ff021916905550565b606060008061087086868661265b565b90508067ffffffffffffffff81111561088c5761088b612826565b5b6040519080825280602002602001820160405280156108c557816020015b6108b2612706565b8152602001906001900390816108aa5790505b50925060008060008890505b600354811015610e55578615801561090c57506004600082815260200190815260200160002060010160070160009054906101000a900460ff165b610e4257600460008281526020019081526020016000206040518061012001604052908160008201548152602001600182016040518061010001604052908160008201805461095a906133f0565b80601f0160208091040260200160405190810160405280929190818152602001828054610986906133f0565b80156109d35780601f106109a8576101008083540402835291602001916109d3565b820191906000526020600020905b8154815290600101906020018083116109b657829003601f168201915b5050505050815260200160018201548152602001600282015481526020016003820160009054906101000a900473ffffffffffffffffffffffffffffffffffffffff1673ffffffffffffffffffffffffffffffffffffffff1673ffffffffffffffffffffffffffffffffffffffff168152602001600482018054610a56906133f0565b80601f0160208091040260200160405190810160405280929190818152602001828054610a82906133f0565b8015610acf5780601f10610aa457610100808354040283529160200191610acf565b820191906000526020600020905b815481529060010190602001808311610ab257829003601f168201915b50505050508152602001600582018054610ae8906133f0565b80601f0160208091040260200160405190810160405280929190818152602001828054610b14906133f0565b8015610b615780601f10610b3657610100808354040283529160200191610b61565b820191906000526020600020905b815481529060010190602001808311610b4457829003601f168201915b50505050508152602001600682018054610b7a906133f0565b80601f0160208091040260200160405190810160405280929190818152602001828054610ba6906133f0565b8015610bf35780601f10610bc857610100808354040283529160200191610bf3565b820191906000526020600020905b815481529060010190602001808311610bd657829003601f168201915b505050505081526020016007820160009054906101000a900460ff161515151581525050815260200160098201805480602002602001604051908101604052809291908181526020016000905b82821015610cdc57838290600052602060002090600302016040518060600160405290816000820160009054906101000a900473ffffffffffffffffffffffffffffffffffffffff1673ffffffffffffffffffffffffffffffffffffffff1673ffffffffffffffffffffffffffffffffffffffff1681526020016001820154815260200160028201548152505081526020019060010190610c40565b505050508152602001600a8201805480602002602001604051908101604052809291908181526020016000905b82821015610da557838290600052602060002090600302016040518060600160405290816000820160009054906101000a900473ffffffffffffffffffffffffffffffffffffffff1673ffffffffffffffffffffffffffffffffffffffff1673ffffffffffffffffffffffffffffffffffffffff1681526020016001820154815260200160028201548152505081526020019060010190610d09565b505050508152602001600b8201548152602001600c8201548152602001600d8201548152602001600e820160009054906101000a900460ff16151515158152602001600e820160019054906101000a900460ff161515151581525050868480610e0d90613379565b955081518110610e2057610e1f61379f565b5b60200260200101819052508180610e3690613379565b92505087821015610e55575b8080610e4d90613379565b9150506108d1565b85600182610e6391906137ce565b9550955050505050935093915050565b6000600760008373ffffffffffffffffffffffffffffffffffffffff1673ffffffffffffffffffffffffffffffffffffffff16815260200190815260200160002060009054906101000a900460ff169050919050565b600760003373ffffffffffffffffffffffffffffffffffffffff1673ffffffffffffffffffffffffffffffffffffffff16815260200190815260200160002060009054906101000a900460ff16610f55576040517f08c379a0000000000000000000000000000000000000000000000000000000008152600401610f4c9061332a565b60405180910390fd5b6000606390506000606490506000600460008681526020019081526020016000209050831561140f576000828483600d0154610f919190613802565b610f9b9190613873565b90506000805b836009018054905081101561119157600084600c0154856009018381548110610fcd57610fcc61379f565b5b90600052602060002090600302016001015485610fea9190613802565b610ff49190613873565b9050808361100291906137ce565b925084600901828154811061101a5761101961379f565b5b9060005260206000209060030201600101548161103791906137ce565b600560008760090185815481106110515761105061379f565b5b906000526020600020906003020160000160009054906101000a900473ffffffffffffffffffffffffffffffffffffffff1673ffffffffffffffffffffffffffffffffffffffff1673ffffffffffffffffffffffffffffffffffffffff16815260200190815260200160002060008282546110cc91906137ce565b9250508190555060068560090183815481106110eb576110ea61379f565b5b906000526020600020906003020160000160009054906101000a900473ffffffffffffffffffffffffffffffffffffffff169080600181540180825580915050600190039060005260206000200160009091909190916101000a81548173ffffffffffffffffffffffffffffffffffffffff021916908373ffffffffffffffffffffffffffffffffffffffff16021790555050808061118990613379565b915050610fa1565b5060005b60068054905081101561131c576000600682815481106111b8576111b761379f565b5b9060005260206000200160009054906101000a900473ffffffffffffffffffffffffffffffffffffffff169050600260009054906101000a900473ffffffffffffffffffffffffffffffffffffffff1673ffffffffffffffffffffffffffffffffffffffff1663a9059cbb82600560008573ffffffffffffffffffffffffffffffffffffffff1673ffffffffffffffffffffffffffffffffffffffff168152602001908152602001600020546040518363ffffffff1660e01b81526004016112819291906138f9565b6020604051808303816000875af11580156112a0573d6000803e3d6000fd5b505050506040513d601f19601f820116820180604052508101906112c49190613937565b50600560008273ffffffffffffffffffffffffffffffffffffffff1673ffffffffffffffffffffffffffffffffffffffff1681526020019081526020016000206000905550808061131490613379565b915050611195565b5060008184600d015461132f9190613964565b905060008060029054906101000a900473ffffffffffffffffffffffffffffffffffffffff169050600260009054906101000a900473ffffffffffffffffffffffffffffffffffffffff1673ffffffffffffffffffffffffffffffffffffffff1663a9059cbb82846040518363ffffffff1660e01b81526004016113b49291906138f9565b6020604051808303816000875af11580156113d3573d6000803e3d6000fd5b505050506040513d601f19601f820116820180604052508101906113f79190613937565b5060066000611406919061275c565b5050505061189c565b6000828483600c01546114229190613802565b61142c9190613873565b90506000805b83600a018054905081101561162257600084600d015485600a01838154811061145e5761145d61379f565b5b9060005260206000209060030201600101548561147b9190613802565b6114859190613873565b9050808361149391906137ce565b925084600a0182815481106114ab576114aa61379f565b5b906000526020600020906003020160010154816114c891906137ce565b6005600087600a0185815481106114e2576114e161379f565b5b906000526020600020906003020160000160009054906101000a900473ffffffffffffffffffffffffffffffffffffffff1673ffffffffffffffffffffffffffffffffffffffff1673ffffffffffffffffffffffffffffffffffffffff168152602001908152602001600020600082825461155d91906137ce565b92505081905550600685600a01838154811061157c5761157b61379f565b5b906000526020600020906003020160000160009054906101000a900473ffffffffffffffffffffffffffffffffffffffff169080600181540180825580915050600190039060005260206000200160009091909190916101000a81548173ffffffffffffffffffffffffffffffffffffffff021916908373ffffffffffffffffffffffffffffffffffffffff16021790555050808061161a90613379565b915050611432565b5060005b6006805490508110156117ad576000600682815481106116495761164861379f565b5b9060005260206000200160009054906101000a900473ffffffffffffffffffffffffffffffffffffffff169050600260009054906101000a900473ffffffffffffffffffffffffffffffffffffffff1673ffffffffffffffffffffffffffffffffffffffff1663a9059cbb82600560008573ffffffffffffffffffffffffffffffffffffffff1673ffffffffffffffffffffffffffffffffffffffff168152602001908152602001600020546040518363ffffffff1660e01b81526004016117129291906138f9565b6020604051808303816000875af1158015611731573d6000803e3d6000fd5b505050506040513d601f19601f820116820180604052508101906117559190613937565b50600560008273ffffffffffffffffffffffffffffffffffffffff1673ffffffffffffffffffffffffffffffffffffffff168152602001908152602001600020600090555080806117a590613379565b915050611626565b5060008184600c01546117c09190613964565b905060008060029054906101000a900473ffffffffffffffffffffffffffffffffffffffff169050600260009054906101000a900473ffffffffffffffffffffffffffffffffffffffff1673ffffffffffffffffffffffffffffffffffffffff1663a9059cbb82846040518363ffffffff1660e01b81526004016118459291906138f9565b6020604051808303816000875af1158015611864573d6000803e3d6000fd5b505050506040513d601f19601f820116820180604052508101906118889190613937565b5060066000611897919061275c565b505050505b8381600e0160016101000a81548160ff021916908315150217905550600181600e0160006101000a81548160ff0219169083151502179055505050505050565b60035481565b600160009054906101000a900473ffffffffffffffffffffffffffffffffffffffff1681565b600060029054906101000a900473ffffffffffffffffffffffffffffffffffffffff1681565b600160009054906101000a900473ffffffffffffffffffffffffffffffffffffffff1673ffffffffffffffffffffffffffffffffffffffff163373ffffffffffffffffffffffffffffffffffffffff16146119be576040517f08c379a00000000000000000000000000000000000000000000000000000000081526004016119b59061332a565b60405180910390fd5b600760008273ffffffffffffffffffffffffffffffffffffffff1673ffffffffffffffffffffffffffffffffffffffff16815260200190815260200160002060009054906101000a900460ff16611a68576001600760008373ffffffffffffffffffffffffffffffffffffffff1673ffffffffffffffffffffffffffffffffffffffff16815260200190815260200160002060006101000a81548160ff0219169083151502179055505b50565b60046020528060005260406000206000915090508060000154908060010160405180610100016040529081600082018054611aa5906133f0565b80601f0160208091040260200160405190810160405280929190818152602001828054611ad1906133f0565b8015611b1e5780601f10611af357610100808354040283529160200191611b1e565b820191906000526020600020905b815481529060010190602001808311611b0157829003601f168201915b5050505050815260200160018201548152602001600282015481526020016003820160009054906101000a900473ffffffffffffffffffffffffffffffffffffffff1673ffffffffffffffffffffffffffffffffffffffff1673ffffffffffffffffffffffffffffffffffffffff168152602001600482018054611ba1906133f0565b80601f0160208091040260200160405190810160405280929190818152602001828054611bcd906133f0565b8015611c1a5780601f10611bef57610100808354040283529160200191611c1a565b820191906000526020600020905b815481529060010190602001808311611bfd57829003601f168201915b50505050508152602001600582018054611c33906133f0565b80601f0160208091040260200160405190810160405280929190818152602001828054611c5f906133f0565b8015611cac5780601f10611c8157610100808354040283529160200191611cac565b820191906000526020600020905b815481529060010190602001808311611c8f57829003601f168201915b50505050508152602001600682018054611cc5906133f0565b80601f0160208091040260200160405190810160405280929190818152602001828054611cf1906133f0565b8015611d3e5780601f10611d1357610100808354040283529160200191611d3e565b820191906000526020600020905b815481529060010190602001808311611d2157829003601f168201915b505050505081526020016007820160009054906101000a900460ff1615151515815250509080600b01549080600c01549080600d01549080600e0160009054906101000a900460ff169080600e0160019054906101000a900460ff16905087565b600260009054906101000a900473ffffffffffffffffffffffffffffffffffffffff1673ffffffffffffffffffffffffffffffffffffffff1663dd62ed3e33306040518363ffffffff1660e01b8152600401611dfc929190613998565b602060405180830381865afa158015611e19573d6000803e3d6000fd5b505050506040513d601f19601f82011682018060405250810190611e3d91906139d6565b811115611e7f576040517f08c379a0000000000000000000000000000000000000000000000000000000008152600401611e7690613a75565b60405180910390fd5b6000600460008481526020019081526020016000209050600260009054906101000a900473ffffffffffffffffffffffffffffffffffffffff1673ffffffffffffffffffffffffffffffffffffffff166323b872dd3330856040518463ffffffff1660e01b8152600401611ef593929190613a95565b6020604051808303816000875af1158015611f14573d6000803e3d6000fd5b505050506040513d601f19601f82011682018060405250810190611f389190613937565b50600060405180606001604052803373ffffffffffffffffffffffffffffffffffffffff1681526020018481526020014281525090508282600d016000828254611f8291906137ce565b925050819055508282600b016000828254611f9d91906137ce565b9250508190555081600a0181908060018154018082558091505060019003906000526020600020906003020160009091909190915060008201518160000160006101000a81548173ffffffffffffffffffffffffffffffffffffffff021916908373ffffffffffffffffffffffffffffffffffffffff1602179055506020820151816001015560408201518160020155505050505050565b60008060019054906101000a900460ff161590508080156120665750600160008054906101000a900460ff1660ff16105b806120935750612075306126e3565b1580156120925750600160008054906101000a900460ff1660ff16145b5b6120d2576040517f08c379a00000000000000000000000000000000000000000000000000000000081526004016120c990613b3e565b60405180910390fd5b60016000806101000a81548160ff021916908360ff160217905550801561210f576001600060016101000a81548160ff0219169083151502179055505b81600260006101000a81548173ffffffffffffffffffffffffffffffffffffffff021916908373ffffffffffffffffffffffffffffffffffffffff16021790555033600160006101000a81548173ffffffffffffffffffffffffffffffffffffffff021916908373ffffffffffffffffffffffffffffffffffffffff160217905550600160009054906101000a900473ffffffffffffffffffffffffffffffffffffffff16600060026101000a81548173ffffffffffffffffffffffffffffffffffffffff021916908373ffffffffffffffffffffffffffffffffffffffff160217905550600160076000600160009054906101000a900473ffffffffffffffffffffffffffffffffffffffff1673ffffffffffffffffffffffffffffffffffffffff1673ffffffffffffffffffffffffffffffffffffffff16815260200190815260200160002060006101000a81548160ff02191690831515021790555080156122c75760008060016101000a81548160ff0219169083151502179055507f7f26b83ff96e1f2b6a682f133852f6798a09c465da95921460cefb384740249860016040516122be9190613ba6565b60405180910390a15b5050565b600260009054906101000a900473ffffffffffffffffffffffffffffffffffffffff1673ffffffffffffffffffffffffffffffffffffffff1663dd62ed3e33306040518363ffffffff1660e01b8152600401612328929190613998565b602060405180830381865afa158015612345573d6000803e3d6000fd5b505050506040513d601f19601f8201168201806040525081019061236991906139d6565b8111156123ab576040517f08c379a00000000000000000000000000000000000000000000000000000000081526004016123a290613a75565b60405180910390fd5b6000600460008481526020019081526020016000209050600260009054906101000a900473ffffffffffffffffffffffffffffffffffffffff1673ffffffffffffffffffffffffffffffffffffffff166323b872dd3330856040518463ffffffff1660e01b815260040161242193929190613a95565b6020604051808303816000875af1158015612440573d6000803e3d6000fd5b505050506040513d601f19601f820116820180604052508101906124649190613937565b50600060405180606001604052803373ffffffffffffffffffffffffffffffffffffffff1681526020018481526020014281525090508282600c0160008282546124ae91906137ce565b925050819055508282600b0160008282546124c991906137ce565b925050819055508160090181908060018154018082558091505060019003906000526020600020906003020160009091909190915060008201518160000160006101000a81548173ffffffffffffffffffffffffffffffffffffffff021916908373ffffffffffffffffffffffffffffffffffffffff1602179055506020820151816001015560408201518160020155505050505050565b600260009054906101000a900473ffffffffffffffffffffffffffffffffffffffff1681565b600160009054906101000a900473ffffffffffffffffffffffffffffffffffffffff1673ffffffffffffffffffffffffffffffffffffffff163373ffffffffffffffffffffffffffffffffffffffff1614612617576040517f08c379a000000000000000000000000000000000000000000000000000000000815260040161260e9061332a565b60405180910390fd5b80600160006101000a81548173ffffffffffffffffffffffffffffffffffffffff021916908373ffffffffffffffffffffffffffffffffffffffff16021790555050565b60008060008590505b6003548110156126d6578315801561269f57506004600082815260200190815260200160002060010160070160009054906101000a900460ff165b6126c35781806126ae90613379565b9250508482106126c25781925050506126dc565b5b80806126ce90613379565b915050612664565b50809150505b9392505050565b6000808273ffffffffffffffffffffffffffffffffffffffff163b119050919050565b6040518061012001604052806000815260200161272161277d565b815260200160608152602001606081526020016000815260200160008152602001600081526020016000151581526020016000151581525090565b508054600082559060005260206000209081019061277a91906127da565b50565b604051806101000160405280606081526020016000815260200160008152602001600073ffffffffffffffffffffffffffffffffffffffff1681526020016060815260200160608152602001606081526020016000151581525090565b5b808211156127f35760008160009055506001016127db565b5090565b6000604051905090565b600080fd5b600080fd5b600080fd5b600080fd5b6000601f19601f8301169050919050565b7f4e487b7100000000000000000000000000000000000000000000000000000000600052604160045260246000fd5b61285e82612815565b810181811067ffffffffffffffff8211171561287d5761287c612826565b5b80604052505050565b60006128906127f7565b905061289c8282612855565b919050565b600067ffffffffffffffff8211156128bc576128bb612826565b5b6128c582612815565b9050602081019050919050565b82818337600083830152505050565b60006128f46128ef846128a1565b612886565b9050828152602081018484840111156129105761290f612810565b5b61291b8482856128d2565b509392505050565b600082601f8301126129385761293761280b565b5b81356129488482602086016128e1565b91505092915050565b6000819050919050565b61296481612951565b811461296f57600080fd5b50565b6000813590506129818161295b565b92915050565b60008115159050919050565b61299c81612987565b81146129a757600080fd5b50565b6000813590506129b981612993565b92915050565b60008060008060008060c087890312156129dc576129db612801565b5b600087013567ffffffffffffffff8111156129fa576129f9612806565b5b612a0689828a01612923565b965050602087013567ffffffffffffffff811115612a2757612a26612806565b5b612a3389828a01612923565b955050604087013567ffffffffffffffff811115612a5457612a53612806565b5b612a6089828a01612923565b945050606087013567ffffffffffffffff811115612a8157612a80612806565b5b612a8d89828a01612923565b9350506080612a9e89828a01612972565b92505060a0612aaf89828a016129aa565b9150509295509295509295565b600060208284031215612ad257612ad1612801565b5b6000612ae084828501612972565b91505092915050565b600081519050919050565b600082825260208201905092915050565b6000819050602082019050919050565b600073ffffffffffffffffffffffffffffffffffffffff82169050919050565b6000612b4082612b15565b9050919050565b612b5081612b35565b82525050565b612b5f81612951565b82525050565b606082016000820151612b7b6000850182612b47565b506020820151612b8e6020850182612b56565b506040820151612ba16040850182612b56565b50505050565b6000612bb38383612b65565b60608301905092915050565b6000602082019050919050565b6000612bd782612ae9565b612be18185612af4565b9350612bec83612b05565b8060005b83811015612c1d578151612c048882612ba7565b9750612c0f83612bbf565b925050600181019050612bf0565b5085935050505092915050565b60006040820190508181036000830152612c448185612bcc565b90508181036020830152612c588184612bcc565b90509392505050565b612c6a81612b35565b8114612c7557600080fd5b50565b600081359050612c8781612c61565b92915050565b600060208284031215612ca357612ca2612801565b5b6000612cb184828501612c78565b91505092915050565b600080600060608486031215612cd357612cd2612801565b5b6000612ce186828701612972565b9350506020612cf286828701612972565b9250506040612d03868287016129aa565b9150509250925092565b600081519050919050565b600082825260208201905092915050565b6000819050602082019050919050565b600081519050919050565b600082825260208201905092915050565b60005b83811015612d73578082015181840152602081019050612d58565b60008484015250505050565b6000612d8a82612d39565b612d948185612d44565b9350612da4818560208601612d55565b612dad81612815565b840191505092915050565b612dc181612987565b82525050565b6000610100830160008301518482036000860152612de58282612d7f565b9150506020830151612dfa6020860182612b56565b506040830151612e0d6040860182612b56565b506060830151612e206060860182612b47565b5060808301518482036080860152612e388282612d7f565b91505060a083015184820360a0860152612e528282612d7f565b91505060c083015184820360c0860152612e6c8282612d7f565b91505060e0830151612e8160e0860182612db8565b508091505092915050565b600082825260208201905092915050565b6000612ea882612ae9565b612eb28185612e8c565b9350612ebd83612b05565b8060005b83811015612eee578151612ed58882612ba7565b9750612ee083612bbf565b925050600181019050612ec1565b5085935050505092915050565b600061012083016000830151612f146000860182612b56565b5060208301518482036020860152612f2c8282612dc7565b91505060408301518482036040860152612f468282612e9d565b91505060608301518482036060860152612f608282612e9d565b9150506080830151612f756080860182612b56565b5060a0830151612f8860a0860182612b56565b5060c0830151612f9b60c0860182612b56565b5060e0830151612fae60e0860182612db8565b50610100830151612fc3610100860182612db8565b508091505092915050565b6000612fda8383612efb565b905092915050565b6000602082019050919050565b6000612ffa82612d0d565b6130048185612d18565b93508360208202850161301685612d29565b8060005b8581101561305257848403895281516130338582612fce565b945061303e83612fe2565b925060208a0199505060018101905061301a565b50829750879550505050505092915050565b61306d81612951565b82525050565b6000604082019050818103600083015261308d8185612fef565b905061309c6020830184613064565b9392505050565b6130ac81612987565b82525050565b60006020820190506130c760008301846130a3565b92915050565b600080604083850312156130e4576130e3612801565b5b60006130f285828601612972565b9250506020613103858286016129aa565b9150509250929050565b60006020820190506131226000830184613064565b92915050565b61313181612b35565b82525050565b600060208201905061314c6000830184613128565b92915050565b60006101008301600083015184820360008601526131708282612d7f565b91505060208301516131856020860182612b56565b5060408301516131986040860182612b56565b5060608301516131ab6060860182612b47565b50608083015184820360808601526131c38282612d7f565b91505060a083015184820360a08601526131dd8282612d7f565b91505060c083015184820360c08601526131f78282612d7f565b91505060e083015161320c60e0860182612db8565b508091505092915050565b600060e08201905061322c600083018a613064565b818103602083015261323e8189613152565b905061324d6040830188613064565b61325a6060830187613064565b6132676080830186613064565b61327460a08301856130a3565b61328160c08301846130a3565b98975050505050505050565b600080604083850312156132a4576132a3612801565b5b60006132b285828601612972565b92505060206132c385828601612972565b9150509250929050565b600082825260208201905092915050565b7f556e617574686f72697a65640000000000000000000000000000000000000000600082015250565b6000613314600c836132cd565b915061331f826132de565b602082019050919050565b6000602082019050818103600083015261334381613307565b9050919050565b7f4e487b7100000000000000000000000000000000000000000000000000000000600052601160045260246000fd5b600061338482612951565b91507fffffffffffffffffffffffffffffffffffffffffffffffffffffffffffffffff82036133b6576133b561334a565b5b600182019050919050565b7f4e487b7100000000000000000000000000000000000000000000000000000000600052602260045260246000fd5b6000600282049050600182168061340857607f821691505b60208210810361341b5761341a6133c1565b5b50919050565b60008190508160005260206000209050919050565b60006020601f8301049050919050565b600082821b905092915050565b6000600883026134837fffffffffffffffffffffffffffffffffffffffffffffffffffffffffffffffff82613446565b61348d8683613446565b95508019841693508086168417925050509392505050565b6000819050919050565b60006134ca6134c56134c084612951565b6134a5565b612951565b9050919050565b6000819050919050565b6134e4836134af565b6134f86134f0826134d1565b848454613453565b825550505050565b600090565b61350d613500565b6135188184846134db565b505050565b5b8181101561353c57613531600082613505565b60018101905061351e565b5050565b601f8211156135815761355281613421565b61355b84613436565b8101602085101561356a578190505b61357e61357685613436565b83018261351d565b50505b505050565b600082821c905092915050565b60006135a460001984600802613586565b1980831691505092915050565b60006135bd8383613593565b9150826002028217905092915050565b6135d682612d39565b67ffffffffffffffff8111156135ef576135ee612826565b5b6135f982546133f0565b613604828285613540565b600060209050601f8311600181146136375760008415613625578287015190505b61362f85826135b1565b865550613697565b601f19841661364586613421565b60005b8281101561366d57848901518255600182019150602085019450602081019050613648565b8683101561368a5784890151613686601f891682613593565b8355505b6001600288020188555050505b505050505050565b60006136aa82612d39565b6136b481856132cd565b93506136c4818560208601612d55565b6136cd81612815565b840191505092915050565b6000819050919050565b60006136fd6136f86136f3846136d8565b6134a5565b612951565b9050919050565b61370d816136e2565b82525050565b600061010082019050613729600083018b613064565b818103602083015261373b818a61369f565b905061374a6040830189613064565b6137576060830188613128565b8181036080830152613769818761369f565b905061377860a0830186613704565b61378560c0830185613704565b61379260e0830184613704565b9998505050505050505050565b7f4e487b7100000000000000000000000000000000000000000000000000000000600052603260045260246000fd5b60006137d982612951565b91506137e483612951565b92508282019050808211156137fc576137fb61334a565b5b92915050565b600061380d82612951565b915061381883612951565b925082820261382681612951565b9150828204841483151761383d5761383c61334a565b5b5092915050565b7f4e487b7100000000000000000000000000000000000000000000000000000000600052601260045260246000fd5b600061387e82612951565b915061388983612951565b92508261389957613898613844565b5b828204905092915050565b60006138bf6138ba6138b584612b15565b6134a5565b612b15565b9050919050565b60006138d1826138a4565b9050919050565b60006138e3826138c6565b9050919050565b6138f3816138d8565b82525050565b600060408201905061390e60008301856138ea565b61391b6020830184613064565b9392505050565b60008151905061393181612993565b92915050565b60006020828403121561394d5761394c612801565b5b600061395b84828501613922565b91505092915050565b600061396f82612951565b915061397a83612951565b92508282039050818111156139925761399161334a565b5b92915050565b60006040820190506139ad6000830185613128565b6139ba6020830184613128565b9392505050565b6000815190506139d08161295b565b92915050565b6000602082840312156139ec576139eb612801565b5b60006139fa848285016139c1565b91505092915050565b7f4e6f7420616c6c6f77656420746f207370656e64207468697320616d6f756e7460008201527f2e00000000000000000000000000000000000000000000000000000000000000602082015250565b6000613a5f6021836132cd565b9150613a6a82613a03565b604082019050919050565b60006020820190508181036000830152613a8e81613a52565b9050919050565b6000606082019050613aaa6000830186613128565b613ab76020830185613128565b613ac46040830184613064565b949350505050565b7f496e697469616c697a61626c653a20636f6e747261637420697320616c72656160008201527f647920696e697469616c697a6564000000000000000000000000000000000000602082015250565b6000613b28602e836132cd565b9150613b3382613acc565b604082019050919050565b60006020820190508181036000830152613b5781613b1b565b9050919050565b6000819050919050565b600060ff82169050919050565b6000613b90613b8b613b8684613b5e565b6134a5565b613b68565b9050919050565b613ba081613b75565b82525050565b6000602082019050613bbb6000830184613b97565b9291505056fea26469706673582212200621016d09a4c13402b89feb335c056473fb257b0fde88ccb5fd9c3c3cd9b84164736f6c63430008120033",
    "linkReferences": {},
    "deployedLinkReferences": {}
}