{
  "_format": "hh-sol-artifact-1",
  "contractName": "PredictionWorld3",
  "sourceName": "contracts/PredictionWorld3.sol",
  "abi": [
    {
      "inputs": [
        {
          "internalType": "address",
          "name": "_sureToken",
          "type": "address"
        }
      ],
      "stateMutability": "nonpayable",
      "type": "constructor"
    },
    {
      "anonymous": false,
      "inputs": [
        {
          "indexed": false,
          "internalType": "uint256",
          "name": "id",
          "type": "uint256"
        },
        {
          "indexed": false,
          "internalType": "string",
          "name": "market",
          "type": "string"
        },
        {
          "indexed": false,
          "internalType": "uint256",
          "name": "timestamp",
          "type": "uint256"
        },
        {
          "indexed": false,
          "internalType": "address",
          "name": "createdBy",
          "type": "address"
        },
        {
          "indexed": false,
          "internalType": "string",
          "name": "creatorImageHash",
          "type": "string"
        },
        {
          "indexed": false,
          "internalType": "uint256",
          "name": "totalAmount",
          "type": "uint256"
        },
        {
          "indexed": false,
          "internalType": "uint256",
          "name": "totalYesAmount",
          "type": "uint256"
        },
        {
          "indexed": false,
          "internalType": "uint256",
          "name": "totalNoAmount",
          "type": "uint256"
        }
      ],
      "name": "MarketCreated",
      "type": "event"
    },
    {
      "inputs": [
        {
          "internalType": "uint256",
          "name": "_marketId",
          "type": "uint256"
        },
        {
          "internalType": "uint256",
          "name": "_value",
          "type": "uint256"
        }
      ],
      "name": "addNoBet",
      "outputs": [],
      "stateMutability": "payable",
      "type": "function"
    },
    {
      "inputs": [
        {
          "internalType": "uint256",
          "name": "_marketId",
          "type": "uint256"
        },
        {
          "internalType": "uint256",
          "name": "_value",
          "type": "uint256"
        }
      ],
      "name": "addYesBet",
      "outputs": [],
      "stateMutability": "payable",
      "type": "function"
    },
    {
      "inputs": [
        {
          "internalType": "string",
          "name": "_question",
          "type": "string"
        },
        {
          "internalType": "string",
          "name": "_creatorImageHash",
          "type": "string"
        },
        {
          "internalType": "string",
          "name": "_description",
          "type": "string"
        },
        {
          "internalType": "string",
          "name": "_resolverUrl",
          "type": "string"
        },
        {
          "internalType": "uint256",
          "name": "_endTimestamp",
          "type": "uint256"
        }
      ],
      "name": "createMarket",
      "outputs": [],
      "stateMutability": "nonpayable",
      "type": "function"
    },
    {
      "inputs": [
        {
          "internalType": "uint256",
          "name": "_marketId",
          "type": "uint256"
        },
        {
          "internalType": "bool",
          "name": "eventOutcome",
          "type": "bool"
        }
      ],
      "name": "distributeWinningAmount",
      "outputs": [],
      "stateMutability": "payable",
      "type": "function"
    },
    {
      "inputs": [
        {
          "internalType": "uint256",
          "name": "_marketId",
          "type": "uint256"
        }
      ],
      "name": "getBets",
      "outputs": [
        {
          "components": [
            {
              "internalType": "address",
              "name": "user",
              "type": "address"
            },
            {
              "internalType": "uint256",
              "name": "amount",
              "type": "uint256"
            },
            {
              "internalType": "uint256",
              "name": "timestamp",
              "type": "uint256"
            }
          ],
          "internalType": "struct PredictionWorld3.Bet[]",
          "name": "",
          "type": "tuple[]"
        },
        {
          "components": [
            {
              "internalType": "address",
              "name": "user",
              "type": "address"
            },
            {
              "internalType": "uint256",
              "name": "amount",
              "type": "uint256"
            },
            {
              "internalType": "uint256",
              "name": "timestamp",
              "type": "uint256"
            }
          ],
          "internalType": "struct PredictionWorld3.Bet[]",
          "name": "",
          "type": "tuple[]"
        }
      ],
      "stateMutability": "view",
      "type": "function"
    },
    {
      "inputs": [
        {
          "internalType": "uint256",
          "name": "",
          "type": "uint256"
        }
      ],
      "name": "markets",
      "outputs": [
        {
          "internalType": "uint256",
          "name": "id",
          "type": "uint256"
        },
        {
          "internalType": "string",
          "name": "question",
          "type": "string"
        },
        {
          "internalType": "uint256",
          "name": "timestamp",
          "type": "uint256"
        },
        {
          "internalType": "uint256",
          "name": "endTimestamp",
          "type": "uint256"
        },
        {
          "internalType": "address",
          "name": "createdBy",
          "type": "address"
        },
        {
          "internalType": "string",
          "name": "creatorImageHash",
          "type": "string"
        },
        {
          "internalType": "uint256",
          "name": "totalAmount",
          "type": "uint256"
        },
        {
          "internalType": "uint256",
          "name": "totalYesAmount",
          "type": "uint256"
        },
        {
          "internalType": "uint256",
          "name": "totalNoAmount",
          "type": "uint256"
        },
        {
          "internalType": "bool",
          "name": "marketClosed",
          "type": "bool"
        },
        {
          "internalType": "string",
          "name": "description",
          "type": "string"
        },
        {
          "internalType": "string",
          "name": "resolverUrl",
          "type": "string"
        }
      ],
      "stateMutability": "view",
      "type": "function"
    },
    {
      "inputs": [],
      "name": "owner",
      "outputs": [
        {
          "internalType": "address",
          "name": "",
          "type": "address"
        }
      ],
      "stateMutability": "view",
      "type": "function"
    },
    {
      "inputs": [],
      "name": "sureToken",
      "outputs": [
        {
          "internalType": "address",
          "name": "",
          "type": "address"
        }
      ],
      "stateMutability": "view",
      "type": "function"
    },
    {
      "inputs": [],
      "name": "totalMarkets",
      "outputs": [
        {
          "internalType": "uint256",
          "name": "",
          "type": "uint256"
        }
      ],
      "stateMutability": "view",
      "type": "function"
    },
    {
      "inputs": [
        {
          "internalType": "uint256",
          "name": "",
          "type": "uint256"
        }
      ],
      "name": "winAddresses",
      "outputs": [
        {
          "internalType": "address",
          "name": "",
          "type": "address"
        }
      ],
      "stateMutability": "view",
      "type": "function"
    },
    {
      "inputs": [
        {
          "internalType": "address",
          "name": "",
          "type": "address"
        }
      ],
      "name": "winAmounts",
      "outputs": [
        {
          "internalType": "uint256",
          "name": "",
          "type": "uint256"
        }
      ],
      "stateMutability": "view",
      "type": "function"
    }
  ],
  "bytecode": "0x608060405260006002553480156200001657600080fd5b506040516200268d3803806200268d83398181016040528101906200003c91906200012e565b336000806101000a81548173ffffffffffffffffffffffffffffffffffffffff021916908373ffffffffffffffffffffffffffffffffffffffff16021790555080600160006101000a81548173ffffffffffffffffffffffffffffffffffffffff021916908373ffffffffffffffffffffffffffffffffffffffff1602179055505062000160565b600080fd5b600073ffffffffffffffffffffffffffffffffffffffff82169050919050565b6000620000f682620000c9565b9050919050565b6200010881620000e9565b81146200011457600080fd5b50565b6000815190506200012881620000fd565b92915050565b600060208284031215620001475762000146620000c4565b5b6000620001578482850162000117565b91505092915050565b61251d80620001706000396000f3fe60806040526004361061009c5760003560e01c80639229cca9116100645780639229cca91461017a578063b1283e77146101b7578063bf01fe00146101ff578063d5ea664f1461021b578063eb3f75e214610258578063ee81e4dd146102745761009c565b80631ccf6955146100a15780633f4a5d0a146100df578063724ba40b146101085780638162486b146101245780638da5cb5b1461014f575b600080fd5b3480156100ad57600080fd5b506100c860048036038101906100c391906116c7565b61029f565b6040516100d6929190611835565b60405180910390f35b3480156100eb57600080fd5b50610106600480360381019061010191906119b2565b610451565b005b610122600480360381019061011d9190611ad5565b610629565b005b34801561013057600080fd5b50610139610dbf565b6040516101469190611b24565b60405180910390f35b34801561015b57600080fd5b50610164610dc5565b6040516101719190611b4e565b60405180910390f35b34801561018657600080fd5b506101a1600480360381019061019c91906116c7565b610de9565b6040516101ae9190611b4e565b60405180910390f35b3480156101c357600080fd5b506101de60048036038101906101d991906116c7565b610e28565b6040516101f69c9b9a99989796959493929190611bf7565b60405180910390f35b61021960048036038101906102149190611ccd565b6110d5565b005b34801561022757600080fd5b50610242600480360381019061023d9190611d39565b61136b565b60405161024f9190611b24565b60405180910390f35b610272600480360381019061026d9190611ccd565b611383565b005b34801561028057600080fd5b50610289611619565b6040516102969190611b4e565b60405180910390f35b6060806000600360008581526020019081526020016000209050806006018160070181805480602002602001604051908101604052809291908181526020016000905b8282101561037e57838290600052602060002090600302016040518060600160405290816000820160009054906101000a900473ffffffffffffffffffffffffffffffffffffffff1673ffffffffffffffffffffffffffffffffffffffff1673ffffffffffffffffffffffffffffffffffffffff16815260200160018201548152602001600282015481525050815260200190600101906102e2565b50505050915080805480602002602001604051908101604052809291908181526020016000905b8282101561044157838290600052602060002090600302016040518060600160405290816000820160009054906101000a900473ffffffffffffffffffffffffffffffffffffffff1673ffffffffffffffffffffffffffffffffffffffff1673ffffffffffffffffffffffffffffffffffffffff16815260200160018201548152602001600282015481525050815260200190600101906103a5565b5050505090509250925050915091565b60008054906101000a900473ffffffffffffffffffffffffffffffffffffffff1673ffffffffffffffffffffffffffffffffffffffff163373ffffffffffffffffffffffffffffffffffffffff16146104df576040517f08c379a00000000000000000000000000000000000000000000000000000000081526004016104d690611db2565b60405180910390fd5b6000429050600060036000600254815260200190815260200160002090506002600081548092919061051090611e01565b9190505581600001819055508681600101908161052d9190612055565b508581600501908161053f9190612055565b50818160020181905550338160040160006101000a81548173ffffffffffffffffffffffffffffffffffffffff021916908373ffffffffffffffffffffffffffffffffffffffff1602179055506000816008018190555060008160090181905550600081600a01819055508481600c0190816105bb9190612055565b508381600d0190816105cd9190612055565b508281600301819055507fe51b4ce9e60c0c010fcdef22c23537f954e056004aed674362555a9d11d037386002548884338a6000806000604051610618989796959493929190612162565b60405180910390a150505050505050565b60008054906101000a900473ffffffffffffffffffffffffffffffffffffffff1673ffffffffffffffffffffffffffffffffffffffff163373ffffffffffffffffffffffffffffffffffffffff16146106b7576040517f08c379a00000000000000000000000000000000000000000000000000000000081526004016106ae90611db2565b60405180910390fd5b60006003600084815260200190815260200160002090508115610a5c5760005b81600601805490508110156108bd5760008260090154836006018381548110610703576107026121ee565b5b90600052602060002090600302016001015461071f919061224c565b83600a015461072e919061227d565b9050826006018281548110610746576107456121ee565b5b9060005260206000209060030201600101548161076391906122bf565b6004600085600601858154811061077d5761077c6121ee565b5b906000526020600020906003020160000160009054906101000a900473ffffffffffffffffffffffffffffffffffffffff1673ffffffffffffffffffffffffffffffffffffffff1673ffffffffffffffffffffffffffffffffffffffff16815260200190815260200160002060008282546107f891906122bf565b925050819055506005836006018381548110610817576108166121ee565b5b906000526020600020906003020160000160009054906101000a900473ffffffffffffffffffffffffffffffffffffffff169080600181540180825580915050600190039060005260206000200160009091909190916101000a81548173ffffffffffffffffffffffffffffffffffffffff021916908373ffffffffffffffffffffffffffffffffffffffff1602179055505080806108b590611e01565b9150506106d7565b5060005b600580549050811015610a48576000600582815481106108e4576108e36121ee565b5b9060005260206000200160009054906101000a900473ffffffffffffffffffffffffffffffffffffffff169050600160009054906101000a900473ffffffffffffffffffffffffffffffffffffffff1673ffffffffffffffffffffffffffffffffffffffff1663a9059cbb82600460008573ffffffffffffffffffffffffffffffffffffffff1673ffffffffffffffffffffffffffffffffffffffff168152602001908152602001600020546040518363ffffffff1660e01b81526004016109ad929190612348565b6020604051808303816000875af11580156109cc573d6000803e3d6000fd5b505050506040513d601f19601f820116820180604052508101906109f09190612386565b50600460008273ffffffffffffffffffffffffffffffffffffffff1673ffffffffffffffffffffffffffffffffffffffff16815260200190815260200160002060009055508080610a4090611e01565b9150506108c1565b5060056000610a57919061163f565b610d9d565b60005b8160070180549050811015610c4557600082600a0154836007018381548110610a8b57610a8a6121ee565b5b906000526020600020906003020160010154610aa7919061224c565b8360090154610ab6919061227d565b9050826007018281548110610ace57610acd6121ee565b5b90600052602060002090600302016001015481610aeb91906122bf565b60046000856007018581548110610b0557610b046121ee565b5b906000526020600020906003020160000160009054906101000a900473ffffffffffffffffffffffffffffffffffffffff1673ffffffffffffffffffffffffffffffffffffffff1673ffffffffffffffffffffffffffffffffffffffff1681526020019081526020016000206000828254610b8091906122bf565b925050819055506005836007018381548110610b9f57610b9e6121ee565b5b906000526020600020906003020160000160009054906101000a900473ffffffffffffffffffffffffffffffffffffffff169080600181540180825580915050600190039060005260206000200160009091909190916101000a81548173ffffffffffffffffffffffffffffffffffffffff021916908373ffffffffffffffffffffffffffffffffffffffff160217905550508080610c3d90611e01565b915050610a5f565b5060005b600580549050811015610d8d57600060058281548110610c6c57610c6b6121ee565b5b9060005260206000200160009054906101000a900473ffffffffffffffffffffffffffffffffffffffff169050600160009054906101000a900473ffffffffffffffffffffffffffffffffffffffff1673ffffffffffffffffffffffffffffffffffffffff1663a9059cbb82600460008573ffffffffffffffffffffffffffffffffffffffff1673ffffffffffffffffffffffffffffffffffffffff168152602001908152602001600020546040518363ffffffff1660e01b8152600401610d35929190612348565b6020604051808303816000875af1158015610d54573d6000803e3d6000fd5b505050506040513d601f19601f82011682018060405250810190610d789190612386565b50508080610d8590611e01565b915050610c49565b5060056000610d9c919061163f565b5b600181600b0160006101000a81548160ff021916908315150217905550505050565b60025481565b60008054906101000a900473ffffffffffffffffffffffffffffffffffffffff1681565b60058181548110610df957600080fd5b906000526020600020016000915054906101000a900473ffffffffffffffffffffffffffffffffffffffff1681565b6003602052806000526040600020600091509050806000015490806001018054610e5190611e78565b80601f0160208091040260200160405190810160405280929190818152602001828054610e7d90611e78565b8015610eca5780601f10610e9f57610100808354040283529160200191610eca565b820191906000526020600020905b815481529060010190602001808311610ead57829003601f168201915b5050505050908060020154908060030154908060040160009054906101000a900473ffffffffffffffffffffffffffffffffffffffff1690806005018054610f1190611e78565b80601f0160208091040260200160405190810160405280929190818152602001828054610f3d90611e78565b8015610f8a5780601f10610f5f57610100808354040283529160200191610f8a565b820191906000526020600020905b815481529060010190602001808311610f6d57829003601f168201915b50505050509080600801549080600901549080600a01549080600b0160009054906101000a900460ff169080600c018054610fc490611e78565b80601f0160208091040260200160405190810160405280929190818152602001828054610ff090611e78565b801561103d5780601f106110125761010080835404028352916020019161103d565b820191906000526020600020905b81548152906001019060200180831161102057829003601f168201915b50505050509080600d01805461105290611e78565b80601f016020809104026020016040519081016040528092919081815260200182805461107e90611e78565b80156110cb5780601f106110a0576101008083540402835291602001916110cb565b820191906000526020600020905b8154815290600101906020018083116110ae57829003601f168201915b505050505090508c565b600160009054906101000a900473ffffffffffffffffffffffffffffffffffffffff1673ffffffffffffffffffffffffffffffffffffffff1663dd62ed3e33306040518363ffffffff1660e01b81526004016111329291906123b3565b602060405180830381865afa15801561114f573d6000803e3d6000fd5b505050506040513d601f19601f8201168201806040525081019061117391906123f1565b8111156111b5576040517f08c379a00000000000000000000000000000000000000000000000000000000081526004016111ac90612490565b60405180910390fd5b6000600360008481526020019081526020016000209050600160009054906101000a900473ffffffffffffffffffffffffffffffffffffffff1673ffffffffffffffffffffffffffffffffffffffff166323b872dd3330856040518463ffffffff1660e01b815260040161122b939291906124b0565b6020604051808303816000875af115801561124a573d6000803e3d6000fd5b505050506040513d601f19601f8201168201806040525081019061126e9190612386565b50600060405180606001604052803373ffffffffffffffffffffffffffffffffffffffff1681526020018481526020014281525090508282600a0160008282546112b891906122bf565b92505081905550828260080160008282546112d391906122bf565b925050819055508160070181908060018154018082558091505060019003906000526020600020906003020160009091909190915060008201518160000160006101000a81548173ffffffffffffffffffffffffffffffffffffffff021916908373ffffffffffffffffffffffffffffffffffffffff1602179055506020820151816001015560408201518160020155505050505050565b60046020528060005260406000206000915090505481565b600160009054906101000a900473ffffffffffffffffffffffffffffffffffffffff1673ffffffffffffffffffffffffffffffffffffffff1663dd62ed3e33306040518363ffffffff1660e01b81526004016113e09291906123b3565b602060405180830381865afa1580156113fd573d6000803e3d6000fd5b505050506040513d601f19601f8201168201806040525081019061142191906123f1565b811115611463576040517f08c379a000000000000000000000000000000000000000000000000000000000815260040161145a90612490565b60405180910390fd5b6000600360008481526020019081526020016000209050600160009054906101000a900473ffffffffffffffffffffffffffffffffffffffff1673ffffffffffffffffffffffffffffffffffffffff166323b872dd3330856040518463ffffffff1660e01b81526004016114d9939291906124b0565b6020604051808303816000875af11580156114f8573d6000803e3d6000fd5b505050506040513d601f19601f8201168201806040525081019061151c9190612386565b50600060405180606001604052803373ffffffffffffffffffffffffffffffffffffffff1681526020018481526020014281525090508282600901600082825461156691906122bf565b925050819055508282600801600082825461158191906122bf565b925050819055508160060181908060018154018082558091505060019003906000526020600020906003020160009091909190915060008201518160000160006101000a81548173ffffffffffffffffffffffffffffffffffffffff021916908373ffffffffffffffffffffffffffffffffffffffff1602179055506020820151816001015560408201518160020155505050505050565b600160009054906101000a900473ffffffffffffffffffffffffffffffffffffffff1681565b508054600082559060005260206000209081019061165d9190611660565b50565b5b80821115611679576000816000905550600101611661565b5090565b6000604051905090565b600080fd5b600080fd5b6000819050919050565b6116a481611691565b81146116af57600080fd5b50565b6000813590506116c18161169b565b92915050565b6000602082840312156116dd576116dc611687565b5b60006116eb848285016116b2565b91505092915050565b600081519050919050565b600082825260208201905092915050565b6000819050602082019050919050565b600073ffffffffffffffffffffffffffffffffffffffff82169050919050565b600061174b82611720565b9050919050565b61175b81611740565b82525050565b61176a81611691565b82525050565b6060820160008201516117866000850182611752565b5060208201516117996020850182611761565b5060408201516117ac6040850182611761565b50505050565b60006117be8383611770565b60608301905092915050565b6000602082019050919050565b60006117e2826116f4565b6117ec81856116ff565b93506117f783611710565b8060005b8381101561182857815161180f88826117b2565b975061181a836117ca565b9250506001810190506117fb565b5085935050505092915050565b6000604082019050818103600083015261184f81856117d7565b9050818103602083015261186381846117d7565b90509392505050565b600080fd5b600080fd5b6000601f19601f8301169050919050565b7f4e487b7100000000000000000000000000000000000000000000000000000000600052604160045260246000fd5b6118bf82611876565b810181811067ffffffffffffffff821117156118de576118dd611887565b5b80604052505050565b60006118f161167d565b90506118fd82826118b6565b919050565b600067ffffffffffffffff82111561191d5761191c611887565b5b61192682611876565b9050602081019050919050565b82818337600083830152505050565b600061195561195084611902565b6118e7565b90508281526020810184848401111561197157611970611871565b5b61197c848285611933565b509392505050565b600082601f8301126119995761199861186c565b5b81356119a9848260208601611942565b91505092915050565b600080600080600060a086880312156119ce576119cd611687565b5b600086013567ffffffffffffffff8111156119ec576119eb61168c565b5b6119f888828901611984565b955050602086013567ffffffffffffffff811115611a1957611a1861168c565b5b611a2588828901611984565b945050604086013567ffffffffffffffff811115611a4657611a4561168c565b5b611a5288828901611984565b935050606086013567ffffffffffffffff811115611a7357611a7261168c565b5b611a7f88828901611984565b9250506080611a90888289016116b2565b9150509295509295909350565b60008115159050919050565b611ab281611a9d565b8114611abd57600080fd5b50565b600081359050611acf81611aa9565b92915050565b60008060408385031215611aec57611aeb611687565b5b6000611afa858286016116b2565b9250506020611b0b85828601611ac0565b9150509250929050565b611b1e81611691565b82525050565b6000602082019050611b396000830184611b15565b92915050565b611b4881611740565b82525050565b6000602082019050611b636000830184611b3f565b92915050565b600081519050919050565b600082825260208201905092915050565b60005b83811015611ba3578082015181840152602081019050611b88565b60008484015250505050565b6000611bba82611b69565b611bc48185611b74565b9350611bd4818560208601611b85565b611bdd81611876565b840191505092915050565b611bf181611a9d565b82525050565b600061018082019050611c0d600083018f611b15565b8181036020830152611c1f818e611baf565b9050611c2e604083018d611b15565b611c3b606083018c611b15565b611c48608083018b611b3f565b81810360a0830152611c5a818a611baf565b9050611c6960c0830189611b15565b611c7660e0830188611b15565b611c84610100830187611b15565b611c92610120830186611be8565b818103610140830152611ca58185611baf565b9050818103610160830152611cba8184611baf565b90509d9c50505050505050505050505050565b60008060408385031215611ce457611ce3611687565b5b6000611cf2858286016116b2565b9250506020611d03858286016116b2565b9150509250929050565b611d1681611740565b8114611d2157600080fd5b50565b600081359050611d3381611d0d565b92915050565b600060208284031215611d4f57611d4e611687565b5b6000611d5d84828501611d24565b91505092915050565b7f556e617574686f72697a65640000000000000000000000000000000000000000600082015250565b6000611d9c600c83611b74565b9150611da782611d66565b602082019050919050565b60006020820190508181036000830152611dcb81611d8f565b9050919050565b7f4e487b7100000000000000000000000000000000000000000000000000000000600052601160045260246000fd5b6000611e0c82611691565b91507fffffffffffffffffffffffffffffffffffffffffffffffffffffffffffffffff8203611e3e57611e3d611dd2565b5b600182019050919050565b7f4e487b7100000000000000000000000000000000000000000000000000000000600052602260045260246000fd5b60006002820490506001821680611e9057607f821691505b602082108103611ea357611ea2611e49565b5b50919050565b60008190508160005260206000209050919050565b60006020601f8301049050919050565b600082821b905092915050565b600060088302611f0b7fffffffffffffffffffffffffffffffffffffffffffffffffffffffffffffffff82611ece565b611f158683611ece565b95508019841693508086168417925050509392505050565b6000819050919050565b6000611f52611f4d611f4884611691565b611f2d565b611691565b9050919050565b6000819050919050565b611f6c83611f37565b611f80611f7882611f59565b848454611edb565b825550505050565b600090565b611f95611f88565b611fa0818484611f63565b505050565b5b81811015611fc457611fb9600082611f8d565b600181019050611fa6565b5050565b601f82111561200957611fda81611ea9565b611fe384611ebe565b81016020851015611ff2578190505b612006611ffe85611ebe565b830182611fa5565b50505b505050565b600082821c905092915050565b600061202c6000198460080261200e565b1980831691505092915050565b6000612045838361201b565b9150826002028217905092915050565b61205e82611b69565b67ffffffffffffffff81111561207757612076611887565b5b6120818254611e78565b61208c828285611fc8565b600060209050601f8311600181146120bf57600084156120ad578287015190505b6120b78582612039565b86555061211f565b601f1984166120cd86611ea9565b60005b828110156120f5578489015182556001820191506020850194506020810190506120d0565b86831015612112578489015161210e601f89168261201b565b8355505b6001600288020188555050505b505050505050565b6000819050919050565b600061214c61214761214284612127565b611f2d565b611691565b9050919050565b61215c81612131565b82525050565b600061010082019050612178600083018b611b15565b818103602083015261218a818a611baf565b90506121996040830189611b15565b6121a66060830188611b3f565b81810360808301526121b88187611baf565b90506121c760a0830186612153565b6121d460c0830185612153565b6121e160e0830184612153565b9998505050505050505050565b7f4e487b7100000000000000000000000000000000000000000000000000000000600052603260045260246000fd5b7f4e487b7100000000000000000000000000000000000000000000000000000000600052601260045260246000fd5b600061225782611691565b915061226283611691565b9250826122725761227161221d565b5b828204905092915050565b600061228882611691565b915061229383611691565b92508282026122a181611691565b915082820484148315176122b8576122b7611dd2565b5b5092915050565b60006122ca82611691565b91506122d583611691565b92508282019050808211156122ed576122ec611dd2565b5b92915050565b600061230e61230961230484611720565b611f2d565b611720565b9050919050565b6000612320826122f3565b9050919050565b600061233282612315565b9050919050565b61234281612327565b82525050565b600060408201905061235d6000830185612339565b61236a6020830184611b15565b9392505050565b60008151905061238081611aa9565b92915050565b60006020828403121561239c5761239b611687565b5b60006123aa84828501612371565b91505092915050565b60006040820190506123c86000830185611b3f565b6123d56020830184611b3f565b9392505050565b6000815190506123eb8161169b565b92915050565b60006020828403121561240757612406611687565b5b6000612415848285016123dc565b91505092915050565b7f4e6f7420616c6c6f77656420746f207370656e64207468697320616d6f756e7460008201527f2e00000000000000000000000000000000000000000000000000000000000000602082015250565b600061247a602183611b74565b91506124858261241e565b604082019050919050565b600060208201905081810360008301526124a98161246d565b9050919050565b60006060820190506124c56000830186611b3f565b6124d26020830185611b3f565b6124df6040830184611b15565b94935050505056fea2646970667358221220edf3f9c4977eb27a7f70b6f69292be503e4efcf49ac0a68b6d39357e75fdf0a064736f6c63430008120033",
  "linkReferences": {},
  "deployedLinkReferences": {}
}