{
  "_format": "hh-sol-artifact-1",
  "contractName": "PredictionWorld3",
  "sourceName": "contracts/PredictionWorld3.sol",
  "abi": [
    {
      "inputs": [
        {
          "internalType": "address",
          "name": "_sureToken",
          "type": "address"
        },
        {
          "internalType": "uint32",
          "name": "_numOfEarlyBirdsAllowed",
          "type": "uint32"
        },
        {
          "internalType": "uint256",
          "name": "_amountOfFreeTokenForEarlyBird",
          "type": "uint256"
        }
      ],
      "stateMutability": "nonpayable",
      "type": "constructor"
    },
    {
      "anonymous": false,
      "inputs": [
        {
          "indexed": false,
          "internalType": "uint256",
          "name": "id",
          "type": "uint256"
        },
        {
          "indexed": false,
          "internalType": "string",
          "name": "market",
          "type": "string"
        },
        {
          "indexed": false,
          "internalType": "uint256",
          "name": "timestamp",
          "type": "uint256"
        },
        {
          "indexed": false,
          "internalType": "address",
          "name": "createdBy",
          "type": "address"
        },
        {
          "indexed": false,
          "internalType": "string",
          "name": "creatorImageHash",
          "type": "string"
        },
        {
          "indexed": false,
          "internalType": "uint256",
          "name": "totalAmount",
          "type": "uint256"
        },
        {
          "indexed": false,
          "internalType": "uint256",
          "name": "totalYesAmount",
          "type": "uint256"
        },
        {
          "indexed": false,
          "internalType": "uint256",
          "name": "totalNoAmount",
          "type": "uint256"
        }
      ],
      "name": "MarketCreated",
      "type": "event"
    },
    {
      "inputs": [
        {
          "internalType": "uint256",
          "name": "_marketId",
          "type": "uint256"
        },
        {
          "internalType": "uint256",
          "name": "_value",
          "type": "uint256"
        }
      ],
      "name": "addNoBet",
      "outputs": [],
      "stateMutability": "payable",
      "type": "function"
    },
    {
      "inputs": [
        {
          "internalType": "uint256",
          "name": "_marketId",
          "type": "uint256"
        },
        {
          "internalType": "uint256",
          "name": "_value",
          "type": "uint256"
        }
      ],
      "name": "addYesBet",
      "outputs": [],
      "stateMutability": "payable",
      "type": "function"
    },
    {
      "inputs": [],
      "name": "amountOfFreeTokenForEarlyBird",
      "outputs": [
        {
          "internalType": "uint256",
          "name": "",
          "type": "uint256"
        }
      ],
      "stateMutability": "view",
      "type": "function"
    },
    {
      "inputs": [],
      "name": "checkEarlyBird",
      "outputs": [
        {
          "internalType": "bool",
          "name": "",
          "type": "bool"
        }
      ],
      "stateMutability": "nonpayable",
      "type": "function"
    },
    {
      "inputs": [
        {
          "internalType": "string",
          "name": "_question",
          "type": "string"
        },
        {
          "internalType": "string",
          "name": "_creatorImageHash",
          "type": "string"
        },
        {
          "internalType": "string",
          "name": "_description",
          "type": "string"
        },
        {
          "internalType": "string",
          "name": "_resolverUrl",
          "type": "string"
        },
        {
          "internalType": "uint256",
          "name": "_endTimestamp",
          "type": "uint256"
        }
      ],
      "name": "createMarket",
      "outputs": [],
      "stateMutability": "nonpayable",
      "type": "function"
    },
    {
      "inputs": [],
      "name": "currentEarlyBirdCount",
      "outputs": [
        {
          "internalType": "uint32",
          "name": "",
          "type": "uint32"
        }
      ],
      "stateMutability": "view",
      "type": "function"
    },
    {
      "inputs": [
        {
          "internalType": "uint256",
          "name": "_marketId",
          "type": "uint256"
        },
        {
          "internalType": "bool",
          "name": "eventOutcome",
          "type": "bool"
        }
      ],
      "name": "distributeWinningAmount",
      "outputs": [],
      "stateMutability": "payable",
      "type": "function"
    },
    {
      "inputs": [
        {
          "internalType": "uint256",
          "name": "_marketId",
          "type": "uint256"
        }
      ],
      "name": "getBets",
      "outputs": [
        {
          "components": [
            {
              "internalType": "address",
              "name": "user",
              "type": "address"
            },
            {
              "internalType": "uint256",
              "name": "amount",
              "type": "uint256"
            },
            {
              "internalType": "uint256",
              "name": "timestamp",
              "type": "uint256"
            }
          ],
          "internalType": "struct PredictionWorld3.Bet[]",
          "name": "",
          "type": "tuple[]"
        },
        {
          "components": [
            {
              "internalType": "address",
              "name": "user",
              "type": "address"
            },
            {
              "internalType": "uint256",
              "name": "amount",
              "type": "uint256"
            },
            {
              "internalType": "uint256",
              "name": "timestamp",
              "type": "uint256"
            }
          ],
          "internalType": "struct PredictionWorld3.Bet[]",
          "name": "",
          "type": "tuple[]"
        }
      ],
      "stateMutability": "view",
      "type": "function"
    },
    {
      "inputs": [
        {
          "internalType": "uint256",
          "name": "",
          "type": "uint256"
        }
      ],
      "name": "markets",
      "outputs": [
        {
          "internalType": "uint256",
          "name": "id",
          "type": "uint256"
        },
        {
          "internalType": "string",
          "name": "question",
          "type": "string"
        },
        {
          "internalType": "uint256",
          "name": "timestamp",
          "type": "uint256"
        },
        {
          "internalType": "uint256",
          "name": "endTimestamp",
          "type": "uint256"
        },
        {
          "internalType": "address",
          "name": "createdBy",
          "type": "address"
        },
        {
          "internalType": "string",
          "name": "creatorImageHash",
          "type": "string"
        },
        {
          "internalType": "uint256",
          "name": "totalAmount",
          "type": "uint256"
        },
        {
          "internalType": "uint256",
          "name": "totalYesAmount",
          "type": "uint256"
        },
        {
          "internalType": "uint256",
          "name": "totalNoAmount",
          "type": "uint256"
        },
        {
          "internalType": "bool",
          "name": "marketClosed",
          "type": "bool"
        },
        {
          "internalType": "string",
          "name": "description",
          "type": "string"
        },
        {
          "internalType": "string",
          "name": "resolverUrl",
          "type": "string"
        }
      ],
      "stateMutability": "view",
      "type": "function"
    },
    {
      "inputs": [],
      "name": "numOfEarlyBirdsAllowed",
      "outputs": [
        {
          "internalType": "uint32",
          "name": "",
          "type": "uint32"
        }
      ],
      "stateMutability": "view",
      "type": "function"
    },
    {
      "inputs": [],
      "name": "owner",
      "outputs": [
        {
          "internalType": "address",
          "name": "",
          "type": "address"
        }
      ],
      "stateMutability": "view",
      "type": "function"
    },
    {
      "inputs": [],
      "name": "sureToken",
      "outputs": [
        {
          "internalType": "address",
          "name": "",
          "type": "address"
        }
      ],
      "stateMutability": "view",
      "type": "function"
    },
    {
      "inputs": [],
      "name": "totalMarkets",
      "outputs": [
        {
          "internalType": "uint256",
          "name": "",
          "type": "uint256"
        }
      ],
      "stateMutability": "view",
      "type": "function"
    },
    {
      "inputs": [
        {
          "internalType": "uint256",
          "name": "",
          "type": "uint256"
        }
      ],
      "name": "winAddresses",
      "outputs": [
        {
          "internalType": "address",
          "name": "",
          "type": "address"
        }
      ],
      "stateMutability": "view",
      "type": "function"
    },
    {
      "inputs": [
        {
          "internalType": "address",
          "name": "",
          "type": "address"
        }
      ],
      "name": "winAmounts",
      "outputs": [
        {
          "internalType": "uint256",
          "name": "",
          "type": "uint256"
        }
      ],
      "stateMutability": "view",
      "type": "function"
    }
  ],
  "bytecode": "0x608060405260006002553480156200001657600080fd5b5060405162002dd238038062002dd283398181016040528101906200003c9190620001d4565b336000806101000a81548173ffffffffffffffffffffffffffffffffffffffff021916908373ffffffffffffffffffffffffffffffffffffffff16021790555082600160006101000a81548173ffffffffffffffffffffffffffffffffffffffff021916908373ffffffffffffffffffffffffffffffffffffffff16021790555081600360006101000a81548163ffffffff021916908363ffffffff1602179055508060048190555050505062000230565b600080fd5b600073ffffffffffffffffffffffffffffffffffffffff82169050919050565b60006200012082620000f3565b9050919050565b620001328162000113565b81146200013e57600080fd5b50565b600081519050620001528162000127565b92915050565b600063ffffffff82169050919050565b620001738162000158565b81146200017f57600080fd5b50565b600081519050620001938162000168565b92915050565b6000819050919050565b620001ae8162000199565b8114620001ba57600080fd5b50565b600081519050620001ce81620001a3565b92915050565b600080600060608486031215620001f057620001ef620000ee565b5b6000620002008682870162000141565b9350506020620002138682870162000182565b92505060406200022686828701620001bd565b9150509250925092565b612b9280620002406000396000f3fe6080604052600436106100e85760003560e01c8063b1283e771161008a578063e1215b7511610059578063e1215b75146102fa578063e6ebee0f14610325578063eb3f75e214610350578063ee81e4dd1461036c576100e8565b8063b1283e771461022e578063bf01fe0014610276578063d5ea664f14610292578063da289c0b146102cf576100e8565b80638162486b116100c65780638162486b146101705780638da5cb5b1461019b5780639229cca9146101c6578063925fc14a14610203576100e8565b80631ccf6955146100ed5780633f4a5d0a1461012b578063724ba40b14610154575b600080fd5b3480156100f957600080fd5b50610114600480360381019061010f9190611c71565b610397565b604051610122929190611ddf565b60405180910390f35b34801561013757600080fd5b50610152600480360381019061014d9190611f5c565b610549565b005b61016e6004803603810190610169919061207f565b610721565b005b34801561017c57600080fd5b50610185610fc4565b60405161019291906120ce565b60405180910390f35b3480156101a757600080fd5b506101b0610fca565b6040516101bd91906120f8565b60405180910390f35b3480156101d257600080fd5b506101ed60048036038101906101e89190611c71565b610fee565b6040516101fa91906120f8565b60405180910390f35b34801561020f57600080fd5b5061021861102d565b6040516102259190612132565b60405180910390f35b34801561023a57600080fd5b5061025560048036038101906102509190611c71565b611043565b60405161026d9c9b9a999897969594939291906121db565b60405180910390f35b610290600480360381019061028b91906122b1565b6112f0565b005b34801561029e57600080fd5b506102b960048036038101906102b4919061231d565b61163d565b6040516102c691906120ce565b60405180910390f35b3480156102db57600080fd5b506102e4611655565b6040516102f191906120ce565b60405180910390f35b34801561030657600080fd5b5061030f61165b565b60405161031c919061234a565b60405180910390f35b34801561033157600080fd5b5061033a611798565b6040516103479190612132565b60405180910390f35b61036a600480360381019061036591906122b1565b6117ae565b005b34801561037857600080fd5b50610381611afb565b60405161038e91906120f8565b60405180910390f35b6060806000600660008581526020019081526020016000209050806006018160070181805480602002602001604051908101604052809291908181526020016000905b8282101561047657838290600052602060002090600302016040518060600160405290816000820160009054906101000a900473ffffffffffffffffffffffffffffffffffffffff1673ffffffffffffffffffffffffffffffffffffffff1673ffffffffffffffffffffffffffffffffffffffff16815260200160018201548152602001600282015481525050815260200190600101906103da565b50505050915080805480602002602001604051908101604052809291908181526020016000905b8282101561053957838290600052602060002090600302016040518060600160405290816000820160009054906101000a900473ffffffffffffffffffffffffffffffffffffffff1673ffffffffffffffffffffffffffffffffffffffff1673ffffffffffffffffffffffffffffffffffffffff168152602001600182015481526020016002820154815250508152602001906001019061049d565b5050505090509250925050915091565b60008054906101000a900473ffffffffffffffffffffffffffffffffffffffff1673ffffffffffffffffffffffffffffffffffffffff163373ffffffffffffffffffffffffffffffffffffffff16146105d7576040517f08c379a00000000000000000000000000000000000000000000000000000000081526004016105ce906123b1565b60405180910390fd5b6000429050600060066000600254815260200190815260200160002090506002600081548092919061060890612400565b919050558160000181905550868160010190816106259190612654565b50858160050190816106379190612654565b50818160020181905550338160040160006101000a81548173ffffffffffffffffffffffffffffffffffffffff021916908373ffffffffffffffffffffffffffffffffffffffff1602179055506000816008018190555060008160090181905550600081600a01819055508481600c0190816106b39190612654565b508381600d0190816106c59190612654565b508281600301819055507fe51b4ce9e60c0c010fcdef22c23537f954e056004aed674362555a9d11d037386002548884338a6000806000604051610710989796959493929190612761565b60405180910390a150505050505050565b60008054906101000a900473ffffffffffffffffffffffffffffffffffffffff1673ffffffffffffffffffffffffffffffffffffffff163373ffffffffffffffffffffffffffffffffffffffff16146107af576040517f08c379a00000000000000000000000000000000000000000000000000000000081526004016107a6906123b1565b60405180910390fd5b60006006600084815260200190815260200160002090508115610c615760005b8160060180549050811015610ac257600082600901548360060183815481106107fb576107fa6127ed565b5b90600052602060002090600302016001015484600a015461081c919061281c565b610826919061288d565b905082600601828154811061083e5761083d6127ed565b5b9060005260206000209060030201600101548161085b91906128be565b60076000856006018581548110610875576108746127ed565b5b906000526020600020906003020160000160009054906101000a900473ffffffffffffffffffffffffffffffffffffffff1673ffffffffffffffffffffffffffffffffffffffff1673ffffffffffffffffffffffffffffffffffffffff16815260200190815260200160002060008282546108f091906128be565b92505081905550610a046040518060400160405280600981526020017f25732077696e2025730000000000000000000000000000000000000000000000815250846006018481548110610946576109456127ed565b5b906000526020600020906003020160000160009054906101000a900473ffffffffffffffffffffffffffffffffffffffff1660076000876006018781548110610992576109916127ed565b5b906000526020600020906003020160000160009054906101000a900473ffffffffffffffffffffffffffffffffffffffff1673ffffffffffffffffffffffffffffffffffffffff1673ffffffffffffffffffffffffffffffffffffffff16815260200190815260200160002054611b21565b6008836006018381548110610a1c57610a1b6127ed565b5b906000526020600020906003020160000160009054906101000a900473ffffffffffffffffffffffffffffffffffffffff169080600181540180825580915050600190039060005260206000200160009091909190916101000a81548173ffffffffffffffffffffffffffffffffffffffff021916908373ffffffffffffffffffffffffffffffffffffffff160217905550508080610aba90612400565b9150506107cf565b5060005b600880549050811015610c4d57600060088281548110610ae957610ae86127ed565b5b9060005260206000200160009054906101000a900473ffffffffffffffffffffffffffffffffffffffff169050600160009054906101000a900473ffffffffffffffffffffffffffffffffffffffff1673ffffffffffffffffffffffffffffffffffffffff1663a9059cbb82600760008573ffffffffffffffffffffffffffffffffffffffff1673ffffffffffffffffffffffffffffffffffffffff168152602001908152602001600020546040518363ffffffff1660e01b8152600401610bb2929190612947565b6020604051808303816000875af1158015610bd1573d6000803e3d6000fd5b505050506040513d601f19601f82011682018060405250810190610bf59190612985565b50600760008273ffffffffffffffffffffffffffffffffffffffff1673ffffffffffffffffffffffffffffffffffffffff16815260200190815260200160002060009055508080610c4590612400565b915050610ac6565b5060086000610c5c9190611be9565b610fa2565b60005b8160070180549050811015610e4a57600082600a0154836007018381548110610c9057610c8f6127ed565b5b9060005260206000209060030201600101548460090154610cb1919061281c565b610cbb919061288d565b9050826007018281548110610cd357610cd26127ed565b5b90600052602060002090600302016001015481610cf091906128be565b60076000856007018581548110610d0a57610d096127ed565b5b906000526020600020906003020160000160009054906101000a900473ffffffffffffffffffffffffffffffffffffffff1673ffffffffffffffffffffffffffffffffffffffff1673ffffffffffffffffffffffffffffffffffffffff1681526020019081526020016000206000828254610d8591906128be565b925050819055506008836007018381548110610da457610da36127ed565b5b906000526020600020906003020160000160009054906101000a900473ffffffffffffffffffffffffffffffffffffffff169080600181540180825580915050600190039060005260206000200160009091909190916101000a81548173ffffffffffffffffffffffffffffffffffffffff021916908373ffffffffffffffffffffffffffffffffffffffff160217905550508080610e4290612400565b915050610c64565b5060005b600880549050811015610f9257600060088281548110610e7157610e706127ed565b5b9060005260206000200160009054906101000a900473ffffffffffffffffffffffffffffffffffffffff169050600160009054906101000a900473ffffffffffffffffffffffffffffffffffffffff1673ffffffffffffffffffffffffffffffffffffffff1663a9059cbb82600760008573ffffffffffffffffffffffffffffffffffffffff1673ffffffffffffffffffffffffffffffffffffffff168152602001908152602001600020546040518363ffffffff1660e01b8152600401610f3a929190612947565b6020604051808303816000875af1158015610f59573d6000803e3d6000fd5b505050506040513d601f19601f82011682018060405250810190610f7d9190612985565b50508080610f8a90612400565b915050610e4e565b5060086000610fa19190611be9565b5b600181600b0160006101000a81548160ff021916908315150217905550505050565b60025481565b60008054906101000a900473ffffffffffffffffffffffffffffffffffffffff1681565b60088181548110610ffe57600080fd5b906000526020600020016000915054906101000a900473ffffffffffffffffffffffffffffffffffffffff1681565b600360009054906101000a900463ffffffff1681565b600660205280600052604060002060009150905080600001549080600101805461106c90612477565b80601f016020809104026020016040519081016040528092919081815260200182805461109890612477565b80156110e55780601f106110ba576101008083540402835291602001916110e5565b820191906000526020600020905b8154815290600101906020018083116110c857829003601f168201915b5050505050908060020154908060030154908060040160009054906101000a900473ffffffffffffffffffffffffffffffffffffffff169080600501805461112c90612477565b80601f016020809104026020016040519081016040528092919081815260200182805461115890612477565b80156111a55780601f1061117a576101008083540402835291602001916111a5565b820191906000526020600020905b81548152906001019060200180831161118857829003601f168201915b50505050509080600801549080600901549080600a01549080600b0160009054906101000a900460ff169080600c0180546111df90612477565b80601f016020809104026020016040519081016040528092919081815260200182805461120b90612477565b80156112585780601f1061122d57610100808354040283529160200191611258565b820191906000526020600020905b81548152906001019060200180831161123b57829003601f168201915b50505050509080600d01805461126d90612477565b80601f016020809104026020016040519081016040528092919081815260200182805461129990612477565b80156112e65780601f106112bb576101008083540402835291602001916112e6565b820191906000526020600020905b8154815290600101906020018083116112c957829003601f168201915b505050505090508c565b600160009054906101000a900473ffffffffffffffffffffffffffffffffffffffff1673ffffffffffffffffffffffffffffffffffffffff1663dd62ed3e33306040518363ffffffff1660e01b815260040161134d9291906129b2565b602060405180830381865afa15801561136a573d6000803e3d6000fd5b505050506040513d601f19601f8201168201806040525081019061138e91906129f0565b8111156113d0576040517f08c379a00000000000000000000000000000000000000000000000000000000081526004016113c790612a8f565b60405180910390fd5b6113d861165b565b15611487576000339050600160009054906101000a900473ffffffffffffffffffffffffffffffffffffffff1673ffffffffffffffffffffffffffffffffffffffff1663a9059cbb826004546040518363ffffffff1660e01b8152600401611441929190612947565b6020604051808303816000875af1158015611460573d6000803e3d6000fd5b505050506040513d601f19601f820116820180604052508101906114849190612985565b50505b6000600660008481526020019081526020016000209050600160009054906101000a900473ffffffffffffffffffffffffffffffffffffffff1673ffffffffffffffffffffffffffffffffffffffff166323b872dd3330856040518463ffffffff1660e01b81526004016114fd93929190612aaf565b6020604051808303816000875af115801561151c573d6000803e3d6000fd5b505050506040513d601f19601f820116820180604052508101906115409190612985565b50600060405180606001604052803373ffffffffffffffffffffffffffffffffffffffff1681526020018481526020014281525090508282600a01600082825461158a91906128be565b92505081905550828260080160008282546115a591906128be565b925050819055508160070181908060018154018082558091505060019003906000526020600020906003020160009091909190915060008201518160000160006101000a81548173ffffffffffffffffffffffffffffffffffffffff021916908373ffffffffffffffffffffffffffffffffffffffff1602179055506020820151816001015560408201518160020155505050505050565b60076020528060005260406000206000915090505481565b60045481565b6000600360009054906101000a900463ffffffff1663ffffffff16600560009054906101000a900463ffffffff1663ffffffff161061169d5760009050611795565b600960003373ffffffffffffffffffffffffffffffffffffffff1673ffffffffffffffffffffffffffffffffffffffff16815260200190815260200160002060009054906101000a900460ff16156116f85760009050611795565b6001600560008282829054906101000a900463ffffffff1661171a9190612ae6565b92506101000a81548163ffffffff021916908363ffffffff1602179055506001600960003373ffffffffffffffffffffffffffffffffffffffff1673ffffffffffffffffffffffffffffffffffffffff16815260200190815260200160002060006101000a81548160ff021916908315150217905550600190505b90565b600560009054906101000a900463ffffffff1681565b600160009054906101000a900473ffffffffffffffffffffffffffffffffffffffff1673ffffffffffffffffffffffffffffffffffffffff1663dd62ed3e33306040518363ffffffff1660e01b815260040161180b9291906129b2565b602060405180830381865afa158015611828573d6000803e3d6000fd5b505050506040513d601f19601f8201168201806040525081019061184c91906129f0565b81111561188e576040517f08c379a000000000000000000000000000000000000000000000000000000000815260040161188590612a8f565b60405180910390fd5b61189661165b565b15611945576000339050600160009054906101000a900473ffffffffffffffffffffffffffffffffffffffff1673ffffffffffffffffffffffffffffffffffffffff1663a9059cbb826004546040518363ffffffff1660e01b81526004016118ff929190612947565b6020604051808303816000875af115801561191e573d6000803e3d6000fd5b505050506040513d601f19601f820116820180604052508101906119429190612985565b50505b6000600660008481526020019081526020016000209050600160009054906101000a900473ffffffffffffffffffffffffffffffffffffffff1673ffffffffffffffffffffffffffffffffffffffff166323b872dd3330856040518463ffffffff1660e01b81526004016119bb93929190612aaf565b6020604051808303816000875af11580156119da573d6000803e3d6000fd5b505050506040513d601f19601f820116820180604052508101906119fe9190612985565b50600060405180606001604052803373ffffffffffffffffffffffffffffffffffffffff16815260200184815260200142815250905082826009016000828254611a4891906128be565b9250508190555082826008016000828254611a6391906128be565b925050819055508160060181908060018154018082558091505060019003906000526020600020906003020160009091909190915060008201518160000160006101000a81548173ffffffffffffffffffffffffffffffffffffffff021916908373ffffffffffffffffffffffffffffffffffffffff1602179055506020820151816001015560408201518160020155505050505050565b600160009054906101000a900473ffffffffffffffffffffffffffffffffffffffff1681565b611bbb838383604051602401611b3993929190612b1e565b6040516020818303038152906040527f0d26b925000000000000000000000000000000000000000000000000000000007bffffffffffffffffffffffffffffffffffffffffffffffffffffffff19166020820180517bffffffffffffffffffffffffffffffffffffffffffffffffffffffff8381831617835250505050611bc0565b505050565b60008151905060006a636f6e736f6c652e6c6f679050602083016000808483855afa5050505050565b5080546000825590600052602060002090810190611c079190611c0a565b50565b5b80821115611c23576000816000905550600101611c0b565b5090565b6000604051905090565b600080fd5b600080fd5b6000819050919050565b611c4e81611c3b565b8114611c5957600080fd5b50565b600081359050611c6b81611c45565b92915050565b600060208284031215611c8757611c86611c31565b5b6000611c9584828501611c5c565b91505092915050565b600081519050919050565b600082825260208201905092915050565b6000819050602082019050919050565b600073ffffffffffffffffffffffffffffffffffffffff82169050919050565b6000611cf582611cca565b9050919050565b611d0581611cea565b82525050565b611d1481611c3b565b82525050565b606082016000820151611d306000850182611cfc565b506020820151611d436020850182611d0b565b506040820151611d566040850182611d0b565b50505050565b6000611d688383611d1a565b60608301905092915050565b6000602082019050919050565b6000611d8c82611c9e565b611d968185611ca9565b9350611da183611cba565b8060005b83811015611dd2578151611db98882611d5c565b9750611dc483611d74565b925050600181019050611da5565b5085935050505092915050565b60006040820190508181036000830152611df98185611d81565b90508181036020830152611e0d8184611d81565b90509392505050565b600080fd5b600080fd5b6000601f19601f8301169050919050565b7f4e487b7100000000000000000000000000000000000000000000000000000000600052604160045260246000fd5b611e6982611e20565b810181811067ffffffffffffffff82111715611e8857611e87611e31565b5b80604052505050565b6000611e9b611c27565b9050611ea78282611e60565b919050565b600067ffffffffffffffff821115611ec757611ec6611e31565b5b611ed082611e20565b9050602081019050919050565b82818337600083830152505050565b6000611eff611efa84611eac565b611e91565b905082815260208101848484011115611f1b57611f1a611e1b565b5b611f26848285611edd565b509392505050565b600082601f830112611f4357611f42611e16565b5b8135611f53848260208601611eec565b91505092915050565b600080600080600060a08688031215611f7857611f77611c31565b5b600086013567ffffffffffffffff811115611f9657611f95611c36565b5b611fa288828901611f2e565b955050602086013567ffffffffffffffff811115611fc357611fc2611c36565b5b611fcf88828901611f2e565b945050604086013567ffffffffffffffff811115611ff057611fef611c36565b5b611ffc88828901611f2e565b935050606086013567ffffffffffffffff81111561201d5761201c611c36565b5b61202988828901611f2e565b925050608061203a88828901611c5c565b9150509295509295909350565b60008115159050919050565b61205c81612047565b811461206757600080fd5b50565b60008135905061207981612053565b92915050565b6000806040838503121561209657612095611c31565b5b60006120a485828601611c5c565b92505060206120b58582860161206a565b9150509250929050565b6120c881611c3b565b82525050565b60006020820190506120e360008301846120bf565b92915050565b6120f281611cea565b82525050565b600060208201905061210d60008301846120e9565b92915050565b600063ffffffff82169050919050565b61212c81612113565b82525050565b60006020820190506121476000830184612123565b92915050565b600081519050919050565b600082825260208201905092915050565b60005b8381101561218757808201518184015260208101905061216c565b60008484015250505050565b600061219e8261214d565b6121a88185612158565b93506121b8818560208601612169565b6121c181611e20565b840191505092915050565b6121d581612047565b82525050565b6000610180820190506121f1600083018f6120bf565b8181036020830152612203818e612193565b9050612212604083018d6120bf565b61221f606083018c6120bf565b61222c608083018b6120e9565b81810360a083015261223e818a612193565b905061224d60c08301896120bf565b61225a60e08301886120bf565b6122686101008301876120bf565b6122766101208301866121cc565b8181036101408301526122898185612193565b905081810361016083015261229e8184612193565b90509d9c50505050505050505050505050565b600080604083850312156122c8576122c7611c31565b5b60006122d685828601611c5c565b92505060206122e785828601611c5c565b9150509250929050565b6122fa81611cea565b811461230557600080fd5b50565b600081359050612317816122f1565b92915050565b60006020828403121561233357612332611c31565b5b600061234184828501612308565b91505092915050565b600060208201905061235f60008301846121cc565b92915050565b7f556e617574686f72697a65640000000000000000000000000000000000000000600082015250565b600061239b600c83612158565b91506123a682612365565b602082019050919050565b600060208201905081810360008301526123ca8161238e565b9050919050565b7f4e487b7100000000000000000000000000000000000000000000000000000000600052601160045260246000fd5b600061240b82611c3b565b91507fffffffffffffffffffffffffffffffffffffffffffffffffffffffffffffffff820361243d5761243c6123d1565b5b600182019050919050565b7f4e487b7100000000000000000000000000000000000000000000000000000000600052602260045260246000fd5b6000600282049050600182168061248f57607f821691505b6020821081036124a2576124a1612448565b5b50919050565b60008190508160005260206000209050919050565b60006020601f8301049050919050565b600082821b905092915050565b60006008830261250a7fffffffffffffffffffffffffffffffffffffffffffffffffffffffffffffffff826124cd565b61251486836124cd565b95508019841693508086168417925050509392505050565b6000819050919050565b600061255161254c61254784611c3b565b61252c565b611c3b565b9050919050565b6000819050919050565b61256b83612536565b61257f61257782612558565b8484546124da565b825550505050565b600090565b612594612587565b61259f818484612562565b505050565b5b818110156125c3576125b860008261258c565b6001810190506125a5565b5050565b601f821115612608576125d9816124a8565b6125e2846124bd565b810160208510156125f1578190505b6126056125fd856124bd565b8301826125a4565b50505b505050565b600082821c905092915050565b600061262b6000198460080261260d565b1980831691505092915050565b6000612644838361261a565b9150826002028217905092915050565b61265d8261214d565b67ffffffffffffffff81111561267657612675611e31565b5b6126808254612477565b61268b8282856125c7565b600060209050601f8311600181146126be57600084156126ac578287015190505b6126b68582612638565b86555061271e565b601f1984166126cc866124a8565b60005b828110156126f4578489015182556001820191506020850194506020810190506126cf565b86831015612711578489015161270d601f89168261261a565b8355505b6001600288020188555050505b505050505050565b6000819050919050565b600061274b61274661274184612726565b61252c565b611c3b565b9050919050565b61275b81612730565b82525050565b600061010082019050612777600083018b6120bf565b8181036020830152612789818a612193565b905061279860408301896120bf565b6127a560608301886120e9565b81810360808301526127b78187612193565b90506127c660a0830186612752565b6127d360c0830185612752565b6127e060e0830184612752565b9998505050505050505050565b7f4e487b7100000000000000000000000000000000000000000000000000000000600052603260045260246000fd5b600061282782611c3b565b915061283283611c3b565b925082820261284081611c3b565b91508282048414831517612857576128566123d1565b5b5092915050565b7f4e487b7100000000000000000000000000000000000000000000000000000000600052601260045260246000fd5b600061289882611c3b565b91506128a383611c3b565b9250826128b3576128b261285e565b5b828204905092915050565b60006128c982611c3b565b91506128d483611c3b565b92508282019050808211156128ec576128eb6123d1565b5b92915050565b600061290d61290861290384611cca565b61252c565b611cca565b9050919050565b600061291f826128f2565b9050919050565b600061293182612914565b9050919050565b61294181612926565b82525050565b600060408201905061295c6000830185612938565b61296960208301846120bf565b9392505050565b60008151905061297f81612053565b92915050565b60006020828403121561299b5761299a611c31565b5b60006129a984828501612970565b91505092915050565b60006040820190506129c760008301856120e9565b6129d460208301846120e9565b9392505050565b6000815190506129ea81611c45565b92915050565b600060208284031215612a0657612a05611c31565b5b6000612a14848285016129db565b91505092915050565b7f4e6f7420616c6c6f77656420746f207370656e64207468697320616d6f756e7460008201527f2e00000000000000000000000000000000000000000000000000000000000000602082015250565b6000612a79602183612158565b9150612a8482612a1d565b604082019050919050565b60006020820190508181036000830152612aa881612a6c565b9050919050565b6000606082019050612ac460008301866120e9565b612ad160208301856120e9565b612ade60408301846120bf565b949350505050565b6000612af182612113565b9150612afc83612113565b9250828201905063ffffffff811115612b1857612b176123d1565b5b92915050565b60006060820190508181036000830152612b388186612193565b9050612b4760208301856120e9565b612b5460408301846120bf565b94935050505056fea2646970667358221220903683739041c98004d8830d33c2054ce8b0e533d08c48ba640675fce96cf4d764736f6c63430008120033",
  "linkReferences": {},
  "deployedLinkReferences": {}
}