{
    "_format": "hh-sol-artifact-1",
    "contractName": "PredictionWorld6",
    "sourceName": "contracts/PredictionWorld6.sol",
    "abi": [
        {
            "inputs": [],
            "name": "MarketClosed",
            "type": "error"
        },
        {
            "inputs": [],
            "name": "MarketEnded",
            "type": "error"
        },
        {
            "inputs": [],
            "name": "MarketSuspended",
            "type": "error"
        },
        {
            "anonymous": false,
            "inputs": [
                {
                    "indexed": false,
                    "internalType": "uint8",
                    "name": "version",
                    "type": "uint8"
                }
            ],
            "name": "Initialized",
            "type": "event"
        },
        {
            "anonymous": false,
            "inputs": [
                {
                    "indexed": false,
                    "internalType": "uint256",
                    "name": "id",
                    "type": "uint256"
                },
                {
                    "indexed": false,
                    "internalType": "string",
                    "name": "market",
                    "type": "string"
                },
                {
                    "indexed": false,
                    "internalType": "uint256",
                    "name": "timestamp",
                    "type": "uint256"
                },
                {
                    "indexed": false,
                    "internalType": "address",
                    "name": "createdBy",
                    "type": "address"
                },
                {
                    "indexed": false,
                    "internalType": "string",
                    "name": "creatorImageHash",
                    "type": "string"
                },
                {
                    "indexed": false,
                    "internalType": "uint256",
                    "name": "totalAmount",
                    "type": "uint256"
                },
                {
                    "indexed": false,
                    "internalType": "uint256",
                    "name": "totalYesAmount",
                    "type": "uint256"
                },
                {
                    "indexed": false,
                    "internalType": "uint256",
                    "name": "totalNoAmount",
                    "type": "uint256"
                }
            ],
            "name": "MarketCreated",
            "type": "event"
        },
        {
            "inputs": [
                {
                    "internalType": "address",
                    "name": "_address",
                    "type": "address"
                }
            ],
            "name": "addAdminUser",
            "outputs": [],
            "stateMutability": "nonpayable",
            "type": "function"
        },
        {
            "inputs": [
                {
                    "internalType": "uint256",
                    "name": "_marketId",
                    "type": "uint256"
                },
                {
                    "internalType": "uint256",
                    "name": "_value",
                    "type": "uint256"
                }
            ],
            "name": "addNoBet",
            "outputs": [],
            "stateMutability": "payable",
            "type": "function"
        },
        {
            "inputs": [
                {
                    "internalType": "uint256",
                    "name": "_marketId",
                    "type": "uint256"
                },
                {
                    "internalType": "uint256",
                    "name": "_value",
                    "type": "uint256"
                }
            ],
            "name": "addYesBet",
            "outputs": [],
            "stateMutability": "payable",
            "type": "function"
        },
        {
            "inputs": [],
            "name": "commissionAddress",
            "outputs": [
                {
                    "internalType": "address",
                    "name": "",
                    "type": "address"
                }
            ],
            "stateMutability": "view",
            "type": "function"
        },
        {
            "inputs": [
                {
                    "internalType": "string",
                    "name": "_question",
                    "type": "string"
                },
                {
                    "internalType": "string",
                    "name": "_creatorImageHash",
                    "type": "string"
                },
                {
                    "internalType": "string",
                    "name": "_description",
                    "type": "string"
                },
                {
                    "internalType": "string",
                    "name": "_resolverUrl",
                    "type": "string"
                },
                {
                    "internalType": "uint256",
                    "name": "_endTimestamp",
                    "type": "uint256"
                },
                {
                    "internalType": "bool",
                    "name": "_isTest",
                    "type": "bool"
                }
            ],
            "name": "createMarket",
            "outputs": [],
            "stateMutability": "nonpayable",
            "type": "function"
        },
        {
            "inputs": [
                {
                    "internalType": "uint256",
                    "name": "_marketId",
                    "type": "uint256"
                },
                {
                    "internalType": "bool",
                    "name": "_eventOutcome",
                    "type": "bool"
                }
            ],
            "name": "distributeWinningAmount",
            "outputs": [],
            "stateMutability": "payable",
            "type": "function"
        },
        {
            "inputs": [
                {
                    "internalType": "uint256",
                    "name": "cursor",
                    "type": "uint256"
                },
                {
                    "internalType": "uint256",
                    "name": "size",
                    "type": "uint256"
                },
                {
                    "internalType": "bool",
                    "name": "withTest",
                    "type": "bool"
                }
            ],
            "name": "fetchMarkets",
            "outputs": [
                {
                    "components": [
                        {
                            "internalType": "uint256",
                            "name": "id",
                            "type": "uint256"
                        },
                        {
                            "components": [
                                {
                                    "internalType": "string",
                                    "name": "question",
                                    "type": "string"
                                },
                                {
                                    "internalType": "uint256",
                                    "name": "timestamp",
                                    "type": "uint256"
                                },
                                {
                                    "internalType": "uint256",
                                    "name": "endTimestamp",
                                    "type": "uint256"
                                },
                                {
                                    "internalType": "address",
                                    "name": "createdBy",
                                    "type": "address"
                                },
                                {
                                    "internalType": "string",
                                    "name": "creatorImageHash",
                                    "type": "string"
                                },
                                {
                                    "internalType": "string",
                                    "name": "description",
                                    "type": "string"
                                },
                                {
                                    "internalType": "string",
                                    "name": "resolverUrl",
                                    "type": "string"
                                },
                                {
                                    "internalType": "bool",
                                    "name": "isTest",
                                    "type": "bool"
                                }
                            ],
                            "internalType": "struct PredictionWorld6.Info",
                            "name": "info",
                            "type": "tuple"
                        },
                        {
                            "components": [
                                {
                                    "internalType": "address",
                                    "name": "user",
                                    "type": "address"
                                },
                                {
                                    "internalType": "uint256",
                                    "name": "amount",
                                    "type": "uint256"
                                },
                                {
                                    "internalType": "uint256",
                                    "name": "timestamp",
                                    "type": "uint256"
                                }
                            ],
                            "internalType": "struct PredictionWorld6.Bet[]",
                            "name": "yesBets",
                            "type": "tuple[]"
                        },
                        {
                            "components": [
                                {
                                    "internalType": "address",
                                    "name": "user",
                                    "type": "address"
                                },
                                {
                                    "internalType": "uint256",
                                    "name": "amount",
                                    "type": "uint256"
                                },
                                {
                                    "internalType": "uint256",
                                    "name": "timestamp",
                                    "type": "uint256"
                                }
                            ],
                            "internalType": "struct PredictionWorld6.Bet[]",
                            "name": "noBets",
                            "type": "tuple[]"
                        },
                        {
                            "internalType": "uint256",
                            "name": "totalAmount",
                            "type": "uint256"
                        },
                        {
                            "internalType": "uint256",
                            "name": "totalYesAmount",
                            "type": "uint256"
                        },
                        {
                            "internalType": "uint256",
                            "name": "totalNoAmount",
                            "type": "uint256"
                        },
                        {
                            "internalType": "bool",
                            "name": "marketClosed",
                            "type": "bool"
                        },
                        {
                            "internalType": "bool",
                            "name": "outcome",
                            "type": "bool"
                        },
                        {
                            "internalType": "bool",
                            "name": "isSuspended",
                            "type": "bool"
                        }
                    ],
                    "internalType": "struct PredictionWorld6.Market[]",
                    "name": "values",
                    "type": "tuple[]"
                },
                {
                    "internalType": "uint256",
                    "name": "nextCursor",
                    "type": "uint256"
                }
            ],
            "stateMutability": "view",
            "type": "function"
        },
        {
            "inputs": [
                {
                    "internalType": "uint256",
                    "name": "_marketId",
                    "type": "uint256"
                }
            ],
            "name": "getBets",
            "outputs": [
                {
                    "components": [
                        {
                            "internalType": "address",
                            "name": "user",
                            "type": "address"
                        },
                        {
                            "internalType": "uint256",
                            "name": "amount",
                            "type": "uint256"
                        },
                        {
                            "internalType": "uint256",
                            "name": "timestamp",
                            "type": "uint256"
                        }
                    ],
                    "internalType": "struct PredictionWorld6.Bet[]",
                    "name": "yesBets",
                    "type": "tuple[]"
                },
                {
                    "components": [
                        {
                            "internalType": "address",
                            "name": "user",
                            "type": "address"
                        },
                        {
                            "internalType": "uint256",
                            "name": "amount",
                            "type": "uint256"
                        },
                        {
                            "internalType": "uint256",
                            "name": "timestamp",
                            "type": "uint256"
                        }
                    ],
                    "internalType": "struct PredictionWorld6.Bet[]",
                    "name": "noBets",
                    "type": "tuple[]"
                }
            ],
            "stateMutability": "view",
            "type": "function"
        },
        {
            "inputs": [
                {
                    "internalType": "address",
                    "name": "_userAddress",
                    "type": "address"
                },
                {
                    "internalType": "uint256",
                    "name": "_marketId",
                    "type": "uint256"
                }
            ],
            "name": "getUserBets",
            "outputs": [
                {
                    "components": [
                        {
                            "internalType": "address",
                            "name": "user",
                            "type": "address"
                        },
                        {
                            "internalType": "uint256",
                            "name": "amount",
                            "type": "uint256"
                        },
                        {
                            "internalType": "uint256",
                            "name": "timestamp",
                            "type": "uint256"
                        }
                    ],
                    "internalType": "struct PredictionWorld6.Bet[]",
                    "name": "yesBets",
                    "type": "tuple[]"
                },
                {
                    "components": [
                        {
                            "internalType": "address",
                            "name": "user",
                            "type": "address"
                        },
                        {
                            "internalType": "uint256",
                            "name": "amount",
                            "type": "uint256"
                        },
                        {
                            "internalType": "uint256",
                            "name": "timestamp",
                            "type": "uint256"
                        }
                    ],
                    "internalType": "struct PredictionWorld6.Bet[]",
                    "name": "noBets",
                    "type": "tuple[]"
                }
            ],
            "stateMutability": "view",
            "type": "function"
        },
        {
            "inputs": [
                {
                    "internalType": "address",
                    "name": "_sureToken",
                    "type": "address"
                }
            ],
            "name": "initialize",
            "outputs": [],
            "stateMutability": "nonpayable",
            "type": "function"
        },
        {
            "inputs": [
                {
                    "internalType": "address",
                    "name": "_address",
                    "type": "address"
                }
            ],
            "name": "isAdminUser",
            "outputs": [
                {
                    "internalType": "bool",
                    "name": "",
                    "type": "bool"
                }
            ],
            "stateMutability": "view",
            "type": "function"
        },
        {
            "inputs": [
                {
                    "internalType": "uint256",
                    "name": "",
                    "type": "uint256"
                }
            ],
            "name": "markets",
            "outputs": [
                {
                    "internalType": "uint256",
                    "name": "id",
                    "type": "uint256"
                },
                {
                    "components": [
                        {
                            "internalType": "string",
                            "name": "question",
                            "type": "string"
                        },
                        {
                            "internalType": "uint256",
                            "name": "timestamp",
                            "type": "uint256"
                        },
                        {
                            "internalType": "uint256",
                            "name": "endTimestamp",
                            "type": "uint256"
                        },
                        {
                            "internalType": "address",
                            "name": "createdBy",
                            "type": "address"
                        },
                        {
                            "internalType": "string",
                            "name": "creatorImageHash",
                            "type": "string"
                        },
                        {
                            "internalType": "string",
                            "name": "description",
                            "type": "string"
                        },
                        {
                            "internalType": "string",
                            "name": "resolverUrl",
                            "type": "string"
                        },
                        {
                            "internalType": "bool",
                            "name": "isTest",
                            "type": "bool"
                        }
                    ],
                    "internalType": "struct PredictionWorld6.Info",
                    "name": "info",
                    "type": "tuple"
                },
                {
                    "internalType": "uint256",
                    "name": "totalAmount",
                    "type": "uint256"
                },
                {
                    "internalType": "uint256",
                    "name": "totalYesAmount",
                    "type": "uint256"
                },
                {
                    "internalType": "uint256",
                    "name": "totalNoAmount",
                    "type": "uint256"
                },
                {
                    "internalType": "bool",
                    "name": "marketClosed",
                    "type": "bool"
                },
                {
                    "internalType": "bool",
                    "name": "outcome",
                    "type": "bool"
                },
                {
                    "internalType": "bool",
                    "name": "isSuspended",
                    "type": "bool"
                }
            ],
            "stateMutability": "view",
            "type": "function"
        },
        {
            "inputs": [],
            "name": "owner",
            "outputs": [
                {
                    "internalType": "address",
                    "name": "",
                    "type": "address"
                }
            ],
            "stateMutability": "view",
            "type": "function"
        },
        {
            "inputs": [
                {
                    "internalType": "address",
                    "name": "_address",
                    "type": "address"
                }
            ],
            "name": "removeAdminUser",
            "outputs": [],
            "stateMutability": "nonpayable",
            "type": "function"
        },
        {
            "inputs": [
                {
                    "internalType": "uint256",
                    "name": "_marketId",
                    "type": "uint256"
                },
                {
                    "internalType": "string",
                    "name": "_question",
                    "type": "string"
                },
                {
                    "internalType": "string",
                    "name": "_creatorImageHash",
                    "type": "string"
                },
                {
                    "internalType": "string",
                    "name": "_description",
                    "type": "string"
                },
                {
                    "internalType": "string",
                    "name": "_resolverUrl",
                    "type": "string"
                },
                {
                    "internalType": "uint256",
                    "name": "_endTimestamp",
                    "type": "uint256"
                },
                {
                    "internalType": "bool",
                    "name": "_isTest",
                    "type": "bool"
                }
            ],
            "name": "setMarketInfo",
            "outputs": [],
            "stateMutability": "nonpayable",
            "type": "function"
        },
        {
            "inputs": [
                {
                    "internalType": "uint256",
                    "name": "_marketId",
                    "type": "uint256"
                },
                {
                    "internalType": "string",
                    "name": "_description",
                    "type": "string"
                }
            ],
            "name": "setMarketInfoDescription",
            "outputs": [],
            "stateMutability": "nonpayable",
            "type": "function"
        },
        {
            "inputs": [
                {
                    "internalType": "uint256",
                    "name": "_marketId",
                    "type": "uint256"
                },
                {
                    "internalType": "uint256",
                    "name": "_endTimestamp",
                    "type": "uint256"
                }
            ],
            "name": "setMarketInfoEndTimestamp",
            "outputs": [],
            "stateMutability": "nonpayable",
            "type": "function"
        },
        {
            "inputs": [
                {
                    "internalType": "uint256",
                    "name": "_marketId",
                    "type": "uint256"
                },
                {
                    "internalType": "string",
                    "name": "_Image",
                    "type": "string"
                }
            ],
            "name": "setMarketInfoImage",
            "outputs": [],
            "stateMutability": "nonpayable",
            "type": "function"
        },
        {
            "inputs": [
                {
                    "internalType": "uint256",
                    "name": "_marketId",
                    "type": "uint256"
                },
                {
                    "internalType": "bool",
                    "name": "_isTest",
                    "type": "bool"
                }
            ],
            "name": "setMarketInfoIsTest",
            "outputs": [],
            "stateMutability": "nonpayable",
            "type": "function"
        },
        {
            "inputs": [
                {
                    "internalType": "uint256",
                    "name": "_marketId",
                    "type": "uint256"
                },
                {
                    "internalType": "string",
                    "name": "_question",
                    "type": "string"
                }
            ],
            "name": "setMarketInfoQuestion",
            "outputs": [],
            "stateMutability": "nonpayable",
            "type": "function"
        },
        {
            "inputs": [
                {
                    "internalType": "uint256",
                    "name": "_marketId",
                    "type": "uint256"
                },
                {
                    "internalType": "string",
                    "name": "_resolverUrl",
                    "type": "string"
                }
            ],
            "name": "setMarketInfoResolverUrl",
            "outputs": [],
            "stateMutability": "nonpayable",
            "type": "function"
        },
        {
            "inputs": [
                {
                    "internalType": "uint256",
                    "name": "_marketId",
                    "type": "uint256"
                },
                {
                    "internalType": "bool",
                    "name": "_isSuspended",
                    "type": "bool"
                }
            ],
            "name": "setMarketIsSuspended",
            "outputs": [],
            "stateMutability": "nonpayable",
            "type": "function"
        },
        {
            "inputs": [
                {
                    "internalType": "address",
                    "name": "_newOwner",
                    "type": "address"
                }
            ],
            "name": "setNewOwner",
            "outputs": [],
            "stateMutability": "nonpayable",
            "type": "function"
        },
        {
            "inputs": [],
            "name": "sureToken",
            "outputs": [
                {
                    "internalType": "address",
                    "name": "",
                    "type": "address"
                }
            ],
            "stateMutability": "view",
            "type": "function"
        },
        {
            "inputs": [],
            "name": "totalMarkets",
            "outputs": [
                {
                    "internalType": "uint256",
                    "name": "",
                    "type": "uint256"
                }
            ],
            "stateMutability": "view",
            "type": "function"
        },
        {
            "inputs": [
                {
                    "internalType": "address",
                    "name": "_userAddress",
                    "type": "address"
                },
                {
                    "internalType": "uint256",
                    "name": "_marketId",
                    "type": "uint256"
                }
            ],
            "name": "updateUserBets",
            "outputs": [],
            "stateMutability": "nonpayable",
            "type": "function"
        }
    ],
    "bytecode": "0x608060405234801561001057600080fd5b5061593180620000216000396000f3fe6080604052600436106101805760003560e01c80638da5cb5b116100d1578063bf01fe001161008a578063cd811c2511610064578063cd811c2514610550578063eb3f75e21461058e578063ee81e4dd146105aa578063f5a1f5b4146105d557610180565b8063bf01fe00146104e2578063c4d66de8146104fe578063c985649d1461052757610180565b80638da5cb5b146103cd578063931742d3146103f857806394743ae814610423578063a2023c8b1461044c578063a937df6314610475578063b1283e771461049e57610180565b80635034a6471161013e5780636323580d116101185780636323580d146103205780636dc84ad81461035d578063724ba40b146103865780638162486b146103a257610180565b80635034a6471461029057806359f07134146102b95780635cc993ba146102f757610180565b806203369814610185578063053550fa146101ae5780630aa69fa1146101d75780631ccf6955146102005780631de6ebd81461023e578063303cd7ca14610267575b600080fd5b34801561019157600080fd5b506101ac60048036038101906101a79190614449565b6105fe565b005b3480156101ba57600080fd5b506101d560048036038101906101d091906144ee565b6106bc565b005b3480156101e357600080fd5b506101fe60048036038101906101f9919061454e565b610776565b005b34801561020c57600080fd5b506102276004803603810190610222919061465e565b610991565b6040516102359291906147cc565b60405180910390f35b34801561024a57600080fd5b506102656004803603810190610260919061482f565b610eb8565b005b34801561027357600080fd5b5061028e600480360381019061028991906144ee565b610f9a565b005b34801561029c57600080fd5b506102b760048036038101906102b29190614449565b611054565b005b3480156102c557600080fd5b506102e060048036038101906102db919061485c565b611115565b6040516102ee929190614c3b565b60405180910390f35b34801561030357600080fd5b5061031e600480360381019061031991906144ee565b611743565b005b34801561032c57600080fd5b506103476004803603810190610342919061482f565b6117fd565b6040516103549190614c7a565b60405180910390f35b34801561036957600080fd5b50610384600480360381019061037f9190614c95565b611853565b005b6103a0600480360381019061039b9190614449565b611901565b005b3480156103ae57600080fd5b506103b761235d565b6040516103c49190614cd5565b60405180910390f35b3480156103d957600080fd5b506103e2612363565b6040516103ef9190614cff565b60405180910390f35b34801561040457600080fd5b5061040d612389565b60405161041a9190614cff565b60405180910390f35b34801561042f57600080fd5b5061044a6004803603810190610445919061482f565b6123af565b005b34801561045857600080fd5b50610473600480360381019061046e91906144ee565b6124ec565b005b34801561048157600080fd5b5061049c60048036038101906104979190614d1a565b6125a6565b005b3480156104aa57600080fd5b506104c560048036038101906104c0919061465e565b612edd565b6040516104d9989796959493929190614e1f565b60405180910390f35b6104fc60048036038101906104f79190614c95565b613224565b005b34801561050a57600080fd5b506105256004803603810190610520919061482f565b613671565b005b34801561053357600080fd5b5061054e60048036038101906105499190614ea4565b613907565b005b34801561055c57600080fd5b5061057760048036038101906105729190614d1a565b613a3f565b6040516105859291906147cc565b60405180910390f35b6105a860048036038101906105a39190614c95565b613c73565b005b3480156105b657600080fd5b506105bf6140c0565b6040516105cc9190614cff565b60405180910390f35b3480156105e157600080fd5b506105fc60048036038101906105f7919061482f565b6140e6565b005b600760003373ffffffffffffffffffffffffffffffffffffffff1673ffffffffffffffffffffffffffffffffffffffff16815260200190815260200160002060009054906101000a900460ff1661068a576040517f08c379a000000000000000000000000000000000000000000000000000000000815260040161068190615025565b60405180910390fd5b8060046000848152602001908152602001600020600e0160026101000a81548160ff0219169083151502179055505050565b600760003373ffffffffffffffffffffffffffffffffffffffff1673ffffffffffffffffffffffffffffffffffffffff16815260200190815260200160002060009054906101000a900460ff16610748576040517f08c379a000000000000000000000000000000000000000000000000000000000815260040161073f90615025565b60405180910390fd5b818160046000868152602001908152602001600020600101600401918261077092919061528b565b50505050565b600760003373ffffffffffffffffffffffffffffffffffffffff1673ffffffffffffffffffffffffffffffffffffffff16815260200190815260200160002060009054906101000a900460ff16610802576040517f08c379a00000000000000000000000000000000000000000000000000000000081526004016107f990615025565b60405180910390fd5b600042905060006004600060035481526020019081526020016000209050600360008154809291906108339061538a565b9190505581600001819055508b8b82600101600001918261085592919061528b565b50898982600101600401918261086c92919061528b565b50818160010160010181905550338160010160030160006101000a81548173ffffffffffffffffffffffffffffffffffffffff021916908373ffffffffffffffffffffffffffffffffffffffff160217905550828160010160070160006101000a81548160ff021916908315150217905550600081600b0181905550600081600c0181905550600081600d0181905550878782600101600501918261091292919061528b565b50858582600101600601918261092992919061528b565b508381600101600201819055507fe51b4ce9e60c0c010fcdef22c23537f954e056004aed674362555a9d11d037386003548d8d85338f8f600080600060405161097b9a99989796959493929190615449565b60405180910390a1505050505050505050505050565b606080600060046000858152602001908152602001600020604051806101400160405290816000820154815260200160018201604051806101000160405290816000820180546109e0906150ae565b80601f0160208091040260200160405190810160405280929190818152602001828054610a0c906150ae565b8015610a595780601f10610a2e57610100808354040283529160200191610a59565b820191906000526020600020905b815481529060010190602001808311610a3c57829003601f168201915b5050505050815260200160018201548152602001600282015481526020016003820160009054906101000a900473ffffffffffffffffffffffffffffffffffffffff1673ffffffffffffffffffffffffffffffffffffffff1673ffffffffffffffffffffffffffffffffffffffff168152602001600482018054610adc906150ae565b80601f0160208091040260200160405190810160405280929190818152602001828054610b08906150ae565b8015610b555780601f10610b2a57610100808354040283529160200191610b55565b820191906000526020600020905b815481529060010190602001808311610b3857829003601f168201915b50505050508152602001600582018054610b6e906150ae565b80601f0160208091040260200160405190810160405280929190818152602001828054610b9a906150ae565b8015610be75780601f10610bbc57610100808354040283529160200191610be7565b820191906000526020600020905b815481529060010190602001808311610bca57829003601f168201915b50505050508152602001600682018054610c00906150ae565b80601f0160208091040260200160405190810160405280929190818152602001828054610c2c906150ae565b8015610c795780601f10610c4e57610100808354040283529160200191610c79565b820191906000526020600020905b815481529060010190602001808311610c5c57829003601f168201915b505050505081526020016007820160009054906101000a900460ff161515151581525050815260200160098201805480602002602001604051908101604052809291908181526020016000905b82821015610d6257838290600052602060002090600302016040518060600160405290816000820160009054906101000a900473ffffffffffffffffffffffffffffffffffffffff1673ffffffffffffffffffffffffffffffffffffffff1673ffffffffffffffffffffffffffffffffffffffff1681526020016001820154815260200160028201548152505081526020019060010190610cc6565b505050508152602001600a8201805480602002602001604051908101604052809291908181526020016000905b82821015610e2b57838290600052602060002090600302016040518060600160405290816000820160009054906101000a900473ffffffffffffffffffffffffffffffffffffffff1673ffffffffffffffffffffffffffffffffffffffff1673ffffffffffffffffffffffffffffffffffffffff1681526020016001820154815260200160028201548152505081526020019060010190610d8f565b505050508152602001600b8201548152602001600c8201548152602001600d8201548152602001600e820160009054906101000a900460ff16151515158152602001600e820160019054906101000a900460ff16151515158152602001600e820160029054906101000a900460ff1615151515815250509050806040015181606001519250925050915091565b600160009054906101000a900473ffffffffffffffffffffffffffffffffffffffff1673ffffffffffffffffffffffffffffffffffffffff163373ffffffffffffffffffffffffffffffffffffffff1614610f48576040517f08c379a0000000000000000000000000000000000000000000000000000000008152600401610f3f90615025565b60405180910390fd5b600760008273ffffffffffffffffffffffffffffffffffffffff1673ffffffffffffffffffffffffffffffffffffffff16815260200190815260200160002060006101000a81549060ff021916905550565b600760003373ffffffffffffffffffffffffffffffffffffffff1673ffffffffffffffffffffffffffffffffffffffff16815260200190815260200160002060009054906101000a900460ff16611026576040517f08c379a000000000000000000000000000000000000000000000000000000000815260040161101d90615025565b60405180910390fd5b818160046000868152602001908152602001600020600101600501918261104e92919061528b565b50505050565b600760003373ffffffffffffffffffffffffffffffffffffffff1673ffffffffffffffffffffffffffffffffffffffff16815260200190815260200160002060009054906101000a900460ff166110e0576040517f08c379a00000000000000000000000000000000000000000000000000000000081526004016110d790615025565b60405180910390fd5b806004600084815260200190815260200160002060010160070160006101000a81548160ff0219169083151502179055505050565b60606000806111258686866141ba565b90508067ffffffffffffffff81111561114157611140615050565b5b60405190808252806020026020018201604052801561117a57816020015b611167614265565b81526020019060019003908161115f5790505b50925060008060008890505b60035481101561172557861580156111c157506004600082815260200190815260200160002060010160070160009054906101000a900460ff165b61171257600460008281526020019081526020016000206040518061014001604052908160008201548152602001600182016040518061010001604052908160008201805461120f906150ae565b80601f016020809104026020016040519081016040528092919081815260200182805461123b906150ae565b80156112885780601f1061125d57610100808354040283529160200191611288565b820191906000526020600020905b81548152906001019060200180831161126b57829003601f168201915b5050505050815260200160018201548152602001600282015481526020016003820160009054906101000a900473ffffffffffffffffffffffffffffffffffffffff1673ffffffffffffffffffffffffffffffffffffffff1673ffffffffffffffffffffffffffffffffffffffff16815260200160048201805461130b906150ae565b80601f0160208091040260200160405190810160405280929190818152602001828054611337906150ae565b80156113845780601f1061135957610100808354040283529160200191611384565b820191906000526020600020905b81548152906001019060200180831161136757829003601f168201915b5050505050815260200160058201805461139d906150ae565b80601f01602080910402602001604051908101604052809291908181526020018280546113c9906150ae565b80156114165780601f106113eb57610100808354040283529160200191611416565b820191906000526020600020905b8154815290600101906020018083116113f957829003601f168201915b5050505050815260200160068201805461142f906150ae565b80601f016020809104026020016040519081016040528092919081815260200182805461145b906150ae565b80156114a85780601f1061147d576101008083540402835291602001916114a8565b820191906000526020600020905b81548152906001019060200180831161148b57829003601f168201915b505050505081526020016007820160009054906101000a900460ff161515151581525050815260200160098201805480602002602001604051908101604052809291908181526020016000905b8282101561159157838290600052602060002090600302016040518060600160405290816000820160009054906101000a900473ffffffffffffffffffffffffffffffffffffffff1673ffffffffffffffffffffffffffffffffffffffff1673ffffffffffffffffffffffffffffffffffffffff16815260200160018201548152602001600282015481525050815260200190600101906114f5565b505050508152602001600a8201805480602002602001604051908101604052809291908181526020016000905b8282101561165a57838290600052602060002090600302016040518060600160405290816000820160009054906101000a900473ffffffffffffffffffffffffffffffffffffffff1673ffffffffffffffffffffffffffffffffffffffff1673ffffffffffffffffffffffffffffffffffffffff16815260200160018201548152602001600282015481525050815260200190600101906115be565b505050508152602001600b8201548152602001600c8201548152602001600d8201548152602001600e820160009054906101000a900460ff16151515158152602001600e820160019054906101000a900460ff16151515158152602001600e820160029054906101000a900460ff1615151515815250508684806116dd9061538a565b9550815181106116f0576116ef6154d9565b5b602002602001018190525081806117069061538a565b92505087821015611725575b808061171d9061538a565b915050611186565b856001826117339190615508565b9550955050505050935093915050565b600760003373ffffffffffffffffffffffffffffffffffffffff1673ffffffffffffffffffffffffffffffffffffffff16815260200190815260200160002060009054906101000a900460ff166117cf576040517f08c379a00000000000000000000000000000000000000000000000000000000081526004016117c690615025565b60405180910390fd5b81816004600086815260200190815260200160002060010160060191826117f792919061528b565b50505050565b6000600760008373ffffffffffffffffffffffffffffffffffffffff1673ffffffffffffffffffffffffffffffffffffffff16815260200190815260200160002060009054906101000a900460ff169050919050565b600760003373ffffffffffffffffffffffffffffffffffffffff1673ffffffffffffffffffffffffffffffffffffffff16815260200190815260200160002060009054906101000a900460ff166118df576040517f08c379a00000000000000000000000000000000000000000000000000000000081526004016118d690615025565b60405180910390fd5b8060046000848152602001908152602001600020600101600201819055505050565b600760003373ffffffffffffffffffffffffffffffffffffffff1673ffffffffffffffffffffffffffffffffffffffff16815260200190815260200160002060009054906101000a900460ff1661198d576040517f08c379a000000000000000000000000000000000000000000000000000000000815260040161198490615025565b60405180910390fd5b600060639050600060649050600060046000868152602001908152602001600020905080600e0160009054906101000a900460ff16156119f9576040517f0b5f6bf000000000000000000000000000000000000000000000000000000000815260040160405180910390fd5b8315611e90576000828483600d0154611a12919061553c565b611a1c91906155ad565b90506000805b8360090180549050811015611c1257600084600c0154856009018381548110611a4e57611a4d6154d9565b5b90600052602060002090600302016001015485611a6b919061553c565b611a7591906155ad565b90508083611a839190615508565b9250846009018281548110611a9b57611a9a6154d9565b5b90600052602060002090600302016001015481611ab89190615508565b60056000876009018581548110611ad257611ad16154d9565b5b906000526020600020906003020160000160009054906101000a900473ffffffffffffffffffffffffffffffffffffffff1673ffffffffffffffffffffffffffffffffffffffff1673ffffffffffffffffffffffffffffffffffffffff1681526020019081526020016000206000828254611b4d9190615508565b925050819055506006856009018381548110611b6c57611b6b6154d9565b5b906000526020600020906003020160000160009054906101000a900473ffffffffffffffffffffffffffffffffffffffff169080600181540180825580915050600190039060005260206000200160009091909190916101000a81548173ffffffffffffffffffffffffffffffffffffffff021916908373ffffffffffffffffffffffffffffffffffffffff160217905550508080611c0a9061538a565b915050611a22565b5060005b600680549050811015611d9d57600060068281548110611c3957611c386154d9565b5b9060005260206000200160009054906101000a900473ffffffffffffffffffffffffffffffffffffffff169050600260009054906101000a900473ffffffffffffffffffffffffffffffffffffffff1673ffffffffffffffffffffffffffffffffffffffff1663a9059cbb82600560008573ffffffffffffffffffffffffffffffffffffffff1673ffffffffffffffffffffffffffffffffffffffff168152602001908152602001600020546040518363ffffffff1660e01b8152600401611d02929190615633565b6020604051808303816000875af1158015611d21573d6000803e3d6000fd5b505050506040513d601f19601f82011682018060405250810190611d459190615671565b50600560008273ffffffffffffffffffffffffffffffffffffffff1673ffffffffffffffffffffffffffffffffffffffff16815260200190815260200160002060009055508080611d959061538a565b915050611c16565b5060008184600d0154611db0919061569e565b905060008060029054906101000a900473ffffffffffffffffffffffffffffffffffffffff169050600260009054906101000a900473ffffffffffffffffffffffffffffffffffffffff1673ffffffffffffffffffffffffffffffffffffffff1663a9059cbb82846040518363ffffffff1660e01b8152600401611e35929190615633565b6020604051808303816000875af1158015611e54573d6000803e3d6000fd5b505050506040513d601f19601f82011682018060405250810190611e789190615671565b5060066000611e8791906142c4565b5050505061231d565b6000828483600c0154611ea3919061553c565b611ead91906155ad565b90506000805b83600a01805490508110156120a357600084600d015485600a018381548110611edf57611ede6154d9565b5b90600052602060002090600302016001015485611efc919061553c565b611f0691906155ad565b90508083611f149190615508565b925084600a018281548110611f2c57611f2b6154d9565b5b90600052602060002090600302016001015481611f499190615508565b6005600087600a018581548110611f6357611f626154d9565b5b906000526020600020906003020160000160009054906101000a900473ffffffffffffffffffffffffffffffffffffffff1673ffffffffffffffffffffffffffffffffffffffff1673ffffffffffffffffffffffffffffffffffffffff1681526020019081526020016000206000828254611fde9190615508565b92505081905550600685600a018381548110611ffd57611ffc6154d9565b5b906000526020600020906003020160000160009054906101000a900473ffffffffffffffffffffffffffffffffffffffff169080600181540180825580915050600190039060005260206000200160009091909190916101000a81548173ffffffffffffffffffffffffffffffffffffffff021916908373ffffffffffffffffffffffffffffffffffffffff16021790555050808061209b9061538a565b915050611eb3565b5060005b60068054905081101561222e576000600682815481106120ca576120c96154d9565b5b9060005260206000200160009054906101000a900473ffffffffffffffffffffffffffffffffffffffff169050600260009054906101000a900473ffffffffffffffffffffffffffffffffffffffff1673ffffffffffffffffffffffffffffffffffffffff1663a9059cbb82600560008573ffffffffffffffffffffffffffffffffffffffff1673ffffffffffffffffffffffffffffffffffffffff168152602001908152602001600020546040518363ffffffff1660e01b8152600401612193929190615633565b6020604051808303816000875af11580156121b2573d6000803e3d6000fd5b505050506040513d601f19601f820116820180604052508101906121d69190615671565b50600560008273ffffffffffffffffffffffffffffffffffffffff1673ffffffffffffffffffffffffffffffffffffffff168152602001908152602001600020600090555080806122269061538a565b9150506120a7565b5060008184600c0154612241919061569e565b905060008060029054906101000a900473ffffffffffffffffffffffffffffffffffffffff169050600260009054906101000a900473ffffffffffffffffffffffffffffffffffffffff1673ffffffffffffffffffffffffffffffffffffffff1663a9059cbb82846040518363ffffffff1660e01b81526004016122c6929190615633565b6020604051808303816000875af11580156122e5573d6000803e3d6000fd5b505050506040513d601f19601f820116820180604052508101906123099190615671565b506006600061231891906142c4565b505050505b8381600e0160016101000a81548160ff021916908315150217905550600181600e0160006101000a81548160ff0219169083151502179055505050505050565b60035481565b600160009054906101000a900473ffffffffffffffffffffffffffffffffffffffff1681565b600060029054906101000a900473ffffffffffffffffffffffffffffffffffffffff1681565b600160009054906101000a900473ffffffffffffffffffffffffffffffffffffffff1673ffffffffffffffffffffffffffffffffffffffff163373ffffffffffffffffffffffffffffffffffffffff161461243f576040517f08c379a000000000000000000000000000000000000000000000000000000000815260040161243690615025565b60405180910390fd5b600760008273ffffffffffffffffffffffffffffffffffffffff1673ffffffffffffffffffffffffffffffffffffffff16815260200190815260200160002060009054906101000a900460ff166124e9576001600760008373ffffffffffffffffffffffffffffffffffffffff1673ffffffffffffffffffffffffffffffffffffffff16815260200190815260200160002060006101000a81548160ff0219169083151502179055505b50565b600760003373ffffffffffffffffffffffffffffffffffffffff1673ffffffffffffffffffffffffffffffffffffffff16815260200190815260200160002060009054906101000a900460ff16612578576040517f08c379a000000000000000000000000000000000000000000000000000000000815260040161256f90615025565b60405180910390fd5b81816004600086815260200190815260200160002060010160000191826125a092919061528b565b50505050565b600760003373ffffffffffffffffffffffffffffffffffffffff1673ffffffffffffffffffffffffffffffffffffffff16815260200190815260200160002060009054906101000a900460ff16612632576040517f08c379a000000000000000000000000000000000000000000000000000000000815260040161262990615025565b60405180910390fd5b6000600460008381526020019081526020016000206040518061014001604052908160008201548152602001600182016040518061010001604052908160008201805461267e906150ae565b80601f01602080910402602001604051908101604052809291908181526020018280546126aa906150ae565b80156126f75780601f106126cc576101008083540402835291602001916126f7565b820191906000526020600020905b8154815290600101906020018083116126da57829003601f168201915b5050505050815260200160018201548152602001600282015481526020016003820160009054906101000a900473ffffffffffffffffffffffffffffffffffffffff1673ffffffffffffffffffffffffffffffffffffffff1673ffffffffffffffffffffffffffffffffffffffff16815260200160048201805461277a906150ae565b80601f01602080910402602001604051908101604052809291908181526020018280546127a6906150ae565b80156127f35780601f106127c8576101008083540402835291602001916127f3565b820191906000526020600020905b8154815290600101906020018083116127d657829003601f168201915b5050505050815260200160058201805461280c906150ae565b80601f0160208091040260200160405190810160405280929190818152602001828054612838906150ae565b80156128855780601f1061285a57610100808354040283529160200191612885565b820191906000526020600020905b81548152906001019060200180831161286857829003601f168201915b5050505050815260200160068201805461289e906150ae565b80601f01602080910402602001604051908101604052809291908181526020018280546128ca906150ae565b80156129175780601f106128ec57610100808354040283529160200191612917565b820191906000526020600020905b8154815290600101906020018083116128fa57829003601f168201915b505050505081526020016007820160009054906101000a900460ff161515151581525050815260200160098201805480602002602001604051908101604052809291908181526020016000905b82821015612a0057838290600052602060002090600302016040518060600160405290816000820160009054906101000a900473ffffffffffffffffffffffffffffffffffffffff1673ffffffffffffffffffffffffffffffffffffffff1673ffffffffffffffffffffffffffffffffffffffff1681526020016001820154815260200160028201548152505081526020019060010190612964565b505050508152602001600a8201805480602002602001604051908101604052809291908181526020016000905b82821015612ac957838290600052602060002090600302016040518060600160405290816000820160009054906101000a900473ffffffffffffffffffffffffffffffffffffffff1673ffffffffffffffffffffffffffffffffffffffff1673ffffffffffffffffffffffffffffffffffffffff1681526020016001820154815260200160028201548152505081526020019060010190612a2d565b505050508152602001600b8201548152602001600c8201548152602001600d8201548152602001600e820160009054906101000a900460ff16151515158152602001600e820160019054906101000a900460ff16151515158152602001600e820160029054906101000a900460ff1615151515815250509050600860008473ffffffffffffffffffffffffffffffffffffffff1673ffffffffffffffffffffffffffffffffffffffff16815260200190815260200160002060008381526020019081526020016000206000612b9e91906142e5565b60005b816040015151811015612d0c578373ffffffffffffffffffffffffffffffffffffffff1682604001518281518110612bdc57612bdb6154d9565b5b60200260200101516000015173ffffffffffffffffffffffffffffffffffffffff1603612cf957600860008573ffffffffffffffffffffffffffffffffffffffff1673ffffffffffffffffffffffffffffffffffffffff168152602001908152602001600020600084815260200190815260200160002082604001518281518110612c6a57612c696154d9565b5b6020026020010151908060018154018082558091505060019003906000526020600020906003020160009091909190915060008201518160000160006101000a81548173ffffffffffffffffffffffffffffffffffffffff021916908373ffffffffffffffffffffffffffffffffffffffff160217905550602082015181600101556040820151816002015550505b8080612d049061538a565b915050612ba1565b50600960008473ffffffffffffffffffffffffffffffffffffffff1673ffffffffffffffffffffffffffffffffffffffff16815260200190815260200160002060008381526020019081526020016000206000612d6991906142e5565b60005b816060015151811015612ed7578373ffffffffffffffffffffffffffffffffffffffff1682606001518281518110612da757612da66154d9565b5b60200260200101516000015173ffffffffffffffffffffffffffffffffffffffff1603612ec457600960008573ffffffffffffffffffffffffffffffffffffffff1673ffffffffffffffffffffffffffffffffffffffff168152602001908152602001600020600084815260200190815260200160002082606001518281518110612e3557612e346154d9565b5b6020026020010151908060018154018082558091505060019003906000526020600020906003020160009091909190915060008201518160000160006101000a81548173ffffffffffffffffffffffffffffffffffffffff021916908373ffffffffffffffffffffffffffffffffffffffff160217905550602082015181600101556040820151816002015550505b8080612ecf9061538a565b915050612d6c565b50505050565b60046020528060005260406000206000915090508060000154908060010160405180610100016040529081600082018054612f17906150ae565b80601f0160208091040260200160405190810160405280929190818152602001828054612f43906150ae565b8015612f905780601f10612f6557610100808354040283529160200191612f90565b820191906000526020600020905b815481529060010190602001808311612f7357829003601f168201915b5050505050815260200160018201548152602001600282015481526020016003820160009054906101000a900473ffffffffffffffffffffffffffffffffffffffff1673ffffffffffffffffffffffffffffffffffffffff1673ffffffffffffffffffffffffffffffffffffffff168152602001600482018054613013906150ae565b80601f016020809104026020016040519081016040528092919081815260200182805461303f906150ae565b801561308c5780601f106130615761010080835404028352916020019161308c565b820191906000526020600020905b81548152906001019060200180831161306f57829003601f168201915b505050505081526020016005820180546130a5906150ae565b80601f01602080910402602001604051908101604052809291908181526020018280546130d1906150ae565b801561311e5780601f106130f35761010080835404028352916020019161311e565b820191906000526020600020905b81548152906001019060200180831161310157829003601f168201915b50505050508152602001600682018054613137906150ae565b80601f0160208091040260200160405190810160405280929190818152602001828054613163906150ae565b80156131b05780601f10613185576101008083540402835291602001916131b0565b820191906000526020600020905b81548152906001019060200180831161319357829003601f168201915b505050505081526020016007820160009054906101000a900460ff1615151515815250509080600b01549080600c01549080600d01549080600e0160009054906101000a900460ff169080600e0160019054906101000a900460ff169080600e0160029054906101000a900460ff16905088565b600260009054906101000a900473ffffffffffffffffffffffffffffffffffffffff1673ffffffffffffffffffffffffffffffffffffffff1663dd62ed3e33306040518363ffffffff1660e01b81526004016132819291906156d2565b602060405180830381865afa15801561329e573d6000803e3d6000fd5b505050506040513d601f19601f820116820180604052508101906132c29190615710565b811115613304576040517f08c379a00000000000000000000000000000000000000000000000000000000081526004016132fb906157af565b60405180910390fd5b600060046000848152602001908152602001600020905080600e0160009054906101000a900460ff1615613364576040517f0b5f6bf000000000000000000000000000000000000000000000000000000000815260040160405180910390fd5b80600e0160029054906101000a900460ff16156133ad576040517f1160214300000000000000000000000000000000000000000000000000000000815260040160405180910390fd5b6103e8426133bb919061553c565b816001016002015410156133fb576040517f98add4c400000000000000000000000000000000000000000000000000000000815260040160405180910390fd5b600260009054906101000a900473ffffffffffffffffffffffffffffffffffffffff1673ffffffffffffffffffffffffffffffffffffffff166323b872dd3330856040518463ffffffff1660e01b815260040161345a939291906157cf565b6020604051808303816000875af1158015613479573d6000803e3d6000fd5b505050506040513d601f19601f8201168201806040525081019061349d9190615671565b50600060405180606001604052803373ffffffffffffffffffffffffffffffffffffffff1681526020018481526020014281525090508282600d0160008282546134e79190615508565b925050819055508282600b0160008282546135029190615508565b9250508190555081600a0181908060018154018082558091505060019003906000526020600020906003020160009091909190915060008201518160000160006101000a81548173ffffffffffffffffffffffffffffffffffffffff021916908373ffffffffffffffffffffffffffffffffffffffff16021790555060208201518160010155604082015181600201555050600960003373ffffffffffffffffffffffffffffffffffffffff1673ffffffffffffffffffffffffffffffffffffffff168152602001908152602001600020600085815260200190815260200160002081908060018154018082558091505060019003906000526020600020906003020160009091909190915060008201518160000160006101000a81548173ffffffffffffffffffffffffffffffffffffffff021916908373ffffffffffffffffffffffffffffffffffffffff1602179055506020820151816001015560408201518160020155505050505050565b60008060019054906101000a900460ff161590508080156136a25750600160008054906101000a900460ff1660ff16105b806136cf57506136b130614242565b1580156136ce5750600160008054906101000a900460ff1660ff16145b5b61370e576040517f08c379a000000000000000000000000000000000000000000000000000000000815260040161370590615878565b60405180910390fd5b60016000806101000a81548160ff021916908360ff160217905550801561374b576001600060016101000a81548160ff0219169083151502179055505b81600260006101000a81548173ffffffffffffffffffffffffffffffffffffffff021916908373ffffffffffffffffffffffffffffffffffffffff16021790555033600160006101000a81548173ffffffffffffffffffffffffffffffffffffffff021916908373ffffffffffffffffffffffffffffffffffffffff160217905550600160009054906101000a900473ffffffffffffffffffffffffffffffffffffffff16600060026101000a81548173ffffffffffffffffffffffffffffffffffffffff021916908373ffffffffffffffffffffffffffffffffffffffff160217905550600160076000600160009054906101000a900473ffffffffffffffffffffffffffffffffffffffff1673ffffffffffffffffffffffffffffffffffffffff1673ffffffffffffffffffffffffffffffffffffffff16815260200190815260200160002060006101000a81548160ff02191690831515021790555080156139035760008060016101000a81548160ff0219169083151502179055507f7f26b83ff96e1f2b6a682f133852f6798a09c465da95921460cefb384740249860016040516138fa91906158e0565b60405180910390a15b5050565b600760003373ffffffffffffffffffffffffffffffffffffffff1673ffffffffffffffffffffffffffffffffffffffff16815260200190815260200160002060009054906101000a900460ff16613993576040517f08c379a000000000000000000000000000000000000000000000000000000000815260040161398a90615025565b60405180910390fd5b6000600460008d815260200190815260200160002090508a8a8260010160000191826139c092919061528b565b5088888260010160040191826139d792919061528b565b5086868260010160050191826139ee92919061528b565b508484826001016006019182613a0592919061528b565b50828160010160020181905550818160010160070160006101000a81548160ff021916908315150217905550505050505050505050505050565b606080600860008573ffffffffffffffffffffffffffffffffffffffff1673ffffffffffffffffffffffffffffffffffffffff1681526020019081526020016000206000848152602001908152602001600020600960008673ffffffffffffffffffffffffffffffffffffffff1673ffffffffffffffffffffffffffffffffffffffff168152602001908152602001600020600085815260200190815260200160002081805480602002602001604051908101604052809291908181526020016000905b82821015613b9f57838290600052602060002090600302016040518060600160405290816000820160009054906101000a900473ffffffffffffffffffffffffffffffffffffffff1673ffffffffffffffffffffffffffffffffffffffff1673ffffffffffffffffffffffffffffffffffffffff1681526020016001820154815260200160028201548152505081526020019060010190613b03565b50505050915080805480602002602001604051908101604052809291908181526020016000905b82821015613c6257838290600052602060002090600302016040518060600160405290816000820160009054906101000a900473ffffffffffffffffffffffffffffffffffffffff1673ffffffffffffffffffffffffffffffffffffffff1673ffffffffffffffffffffffffffffffffffffffff1681526020016001820154815260200160028201548152505081526020019060010190613bc6565b505050509050915091509250929050565b600260009054906101000a900473ffffffffffffffffffffffffffffffffffffffff1673ffffffffffffffffffffffffffffffffffffffff1663dd62ed3e33306040518363ffffffff1660e01b8152600401613cd09291906156d2565b602060405180830381865afa158015613ced573d6000803e3d6000fd5b505050506040513d601f19601f82011682018060405250810190613d119190615710565b811115613d53576040517f08c379a0000000000000000000000000000000000000000000000000000000008152600401613d4a906157af565b60405180910390fd5b600060046000848152602001908152602001600020905080600e0160009054906101000a900460ff1615613db3576040517f0b5f6bf000000000000000000000000000000000000000000000000000000000815260040160405180910390fd5b80600e0160029054906101000a900460ff1615613dfc576040517f1160214300000000000000000000000000000000000000000000000000000000815260040160405180910390fd5b6103e842613e0a919061553c565b81600101600201541015613e4a576040517f98add4c400000000000000000000000000000000000000000000000000000000815260040160405180910390fd5b600260009054906101000a900473ffffffffffffffffffffffffffffffffffffffff1673ffffffffffffffffffffffffffffffffffffffff166323b872dd3330856040518463ffffffff1660e01b8152600401613ea9939291906157cf565b6020604051808303816000875af1158015613ec8573d6000803e3d6000fd5b505050506040513d601f19601f82011682018060405250810190613eec9190615671565b50600060405180606001604052803373ffffffffffffffffffffffffffffffffffffffff1681526020018481526020014281525090508282600c016000828254613f369190615508565b925050819055508282600b016000828254613f519190615508565b925050819055508160090181908060018154018082558091505060019003906000526020600020906003020160009091909190915060008201518160000160006101000a81548173ffffffffffffffffffffffffffffffffffffffff021916908373ffffffffffffffffffffffffffffffffffffffff16021790555060208201518160010155604082015181600201555050600860003373ffffffffffffffffffffffffffffffffffffffff1673ffffffffffffffffffffffffffffffffffffffff168152602001908152602001600020600085815260200190815260200160002081908060018154018082558091505060019003906000526020600020906003020160009091909190915060008201518160000160006101000a81548173ffffffffffffffffffffffffffffffffffffffff021916908373ffffffffffffffffffffffffffffffffffffffff1602179055506020820151816001015560408201518160020155505050505050565b600260009054906101000a900473ffffffffffffffffffffffffffffffffffffffff1681565b600160009054906101000a900473ffffffffffffffffffffffffffffffffffffffff1673ffffffffffffffffffffffffffffffffffffffff163373ffffffffffffffffffffffffffffffffffffffff1614614176576040517f08c379a000000000000000000000000000000000000000000000000000000000815260040161416d90615025565b60405180910390fd5b80600160006101000a81548173ffffffffffffffffffffffffffffffffffffffff021916908373ffffffffffffffffffffffffffffffffffffffff16021790555050565b60008060008590505b60035481101561423557831580156141fe57506004600082815260200190815260200160002060010160070160009054906101000a900460ff165b61422257818061420d9061538a565b92505084821061422157819250505061423b565b5b808061422d9061538a565b9150506141c3565b50809150505b9392505050565b6000808273ffffffffffffffffffffffffffffffffffffffff163b119050919050565b60405180610140016040528060008152602001614280614309565b815260200160608152602001606081526020016000815260200160008152602001600081526020016000151581526020016000151581526020016000151581525090565b50805460008255906000526020600020908101906142e29190614366565b50565b50805460008255600302906000526020600020908101906143069190614383565b50565b604051806101000160405280606081526020016000815260200160008152602001600073ffffffffffffffffffffffffffffffffffffffff1681526020016060815260200160608152602001606081526020016000151581525090565b5b8082111561437f576000816000905550600101614367565b5090565b5b808211156143cd57600080820160006101000a81549073ffffffffffffffffffffffffffffffffffffffff02191690556001820160009055600282016000905550600301614384565b5090565b600080fd5b600080fd5b6000819050919050565b6143ee816143db565b81146143f957600080fd5b50565b60008135905061440b816143e5565b92915050565b60008115159050919050565b61442681614411565b811461443157600080fd5b50565b6000813590506144438161441d565b92915050565b600080604083850312156144605761445f6143d1565b5b600061446e858286016143fc565b925050602061447f85828601614434565b9150509250929050565b600080fd5b600080fd5b600080fd5b60008083601f8401126144ae576144ad614489565b5b8235905067ffffffffffffffff8111156144cb576144ca61448e565b5b6020830191508360018202830111156144e7576144e6614493565b5b9250929050565b600080600060408486031215614507576145066143d1565b5b6000614515868287016143fc565b935050602084013567ffffffffffffffff811115614536576145356143d6565b5b61454286828701614498565b92509250509250925092565b60008060008060008060008060008060c08b8d031215614571576145706143d1565b5b60008b013567ffffffffffffffff81111561458f5761458e6143d6565b5b61459b8d828e01614498565b9a509a505060208b013567ffffffffffffffff8111156145be576145bd6143d6565b5b6145ca8d828e01614498565b985098505060408b013567ffffffffffffffff8111156145ed576145ec6143d6565b5b6145f98d828e01614498565b965096505060608b013567ffffffffffffffff81111561461c5761461b6143d6565b5b6146288d828e01614498565b9450945050608061463b8d828e016143fc565b92505060a061464c8d828e01614434565b9150509295989b9194979a5092959850565b600060208284031215614674576146736143d1565b5b6000614682848285016143fc565b91505092915050565b600081519050919050565b600082825260208201905092915050565b6000819050602082019050919050565b600073ffffffffffffffffffffffffffffffffffffffff82169050919050565b60006146e2826146b7565b9050919050565b6146f2816146d7565b82525050565b614701816143db565b82525050565b60608201600082015161471d60008501826146e9565b50602082015161473060208501826146f8565b50604082015161474360408501826146f8565b50505050565b60006147558383614707565b60608301905092915050565b6000602082019050919050565b60006147798261468b565b6147838185614696565b935061478e836146a7565b8060005b838110156147bf5781516147a68882614749565b97506147b183614761565b925050600181019050614792565b5085935050505092915050565b600060408201905081810360008301526147e6818561476e565b905081810360208301526147fa818461476e565b90509392505050565b61480c816146d7565b811461481757600080fd5b50565b60008135905061482981614803565b92915050565b600060208284031215614845576148446143d1565b5b60006148538482850161481a565b91505092915050565b600080600060608486031215614875576148746143d1565b5b6000614883868287016143fc565b9350506020614894868287016143fc565b92505060406148a586828701614434565b9150509250925092565b600081519050919050565b600082825260208201905092915050565b6000819050602082019050919050565b600081519050919050565b600082825260208201905092915050565b60005b838110156149155780820151818401526020810190506148fa565b60008484015250505050565b6000601f19601f8301169050919050565b600061493d826148db565b61494781856148e6565b93506149578185602086016148f7565b61496081614921565b840191505092915050565b61497481614411565b82525050565b60006101008301600083015184820360008601526149988282614932565b91505060208301516149ad60208601826146f8565b5060408301516149c060408601826146f8565b5060608301516149d360608601826146e9565b50608083015184820360808601526149eb8282614932565b91505060a083015184820360a0860152614a058282614932565b91505060c083015184820360c0860152614a1f8282614932565b91505060e0830151614a3460e086018261496b565b508091505092915050565b600082825260208201905092915050565b6000614a5b8261468b565b614a658185614a3f565b9350614a70836146a7565b8060005b83811015614aa1578151614a888882614749565b9750614a9383614761565b925050600181019050614a74565b5085935050505092915050565b600061014083016000830151614ac760008601826146f8565b5060208301518482036020860152614adf828261497a565b91505060408301518482036040860152614af98282614a50565b91505060608301518482036060860152614b138282614a50565b9150506080830151614b2860808601826146f8565b5060a0830151614b3b60a08601826146f8565b5060c0830151614b4e60c08601826146f8565b5060e0830151614b6160e086018261496b565b50610100830151614b7661010086018261496b565b50610120830151614b8b61012086018261496b565b508091505092915050565b6000614ba28383614aae565b905092915050565b6000602082019050919050565b6000614bc2826148af565b614bcc81856148ba565b935083602082028501614bde856148cb565b8060005b85811015614c1a5784840389528151614bfb8582614b96565b9450614c0683614baa565b925060208a01995050600181019050614be2565b50829750879550505050505092915050565b614c35816143db565b82525050565b60006040820190508181036000830152614c558185614bb7565b9050614c646020830184614c2c565b9392505050565b614c7481614411565b82525050565b6000602082019050614c8f6000830184614c6b565b92915050565b60008060408385031215614cac57614cab6143d1565b5b6000614cba858286016143fc565b9250506020614ccb858286016143fc565b9150509250929050565b6000602082019050614cea6000830184614c2c565b92915050565b614cf9816146d7565b82525050565b6000602082019050614d146000830184614cf0565b92915050565b60008060408385031215614d3157614d306143d1565b5b6000614d3f8582860161481a565b9250506020614d50858286016143fc565b9150509250929050565b6000610100830160008301518482036000860152614d788282614932565b9150506020830151614d8d60208601826146f8565b506040830151614da060408601826146f8565b506060830151614db360608601826146e9565b5060808301518482036080860152614dcb8282614932565b91505060a083015184820360a0860152614de58282614932565b91505060c083015184820360c0860152614dff8282614932565b91505060e0830151614e1460e086018261496b565b508091505092915050565b600061010082019050614e35600083018b614c2c565b8181036020830152614e47818a614d5a565b9050614e566040830189614c2c565b614e636060830188614c2c565b614e706080830187614c2c565b614e7d60a0830186614c6b565b614e8a60c0830185614c6b565b614e9760e0830184614c6b565b9998505050505050505050565b600080600080600080600080600080600060e08c8e031215614ec957614ec86143d1565b5b6000614ed78e828f016143fc565b9b505060208c013567ffffffffffffffff811115614ef857614ef76143d6565b5b614f048e828f01614498565b9a509a505060408c013567ffffffffffffffff811115614f2757614f266143d6565b5b614f338e828f01614498565b985098505060608c013567ffffffffffffffff811115614f5657614f556143d6565b5b614f628e828f01614498565b965096505060808c013567ffffffffffffffff811115614f8557614f846143d6565b5b614f918e828f01614498565b945094505060a0614fa48e828f016143fc565b92505060c0614fb58e828f01614434565b9150509295989b509295989b9093969950565b600082825260208201905092915050565b7f556e617574686f72697a65640000000000000000000000000000000000000000600082015250565b600061500f600c83614fc8565b915061501a82614fd9565b602082019050919050565b6000602082019050818103600083015261503e81615002565b9050919050565b600082905092915050565b7f4e487b7100000000000000000000000000000000000000000000000000000000600052604160045260246000fd5b7f4e487b7100000000000000000000000000000000000000000000000000000000600052602260045260246000fd5b600060028204905060018216806150c657607f821691505b6020821081036150d9576150d861507f565b5b50919050565b60008190508160005260206000209050919050565b60006020601f8301049050919050565b600082821b905092915050565b6000600883026151417fffffffffffffffffffffffffffffffffffffffffffffffffffffffffffffffff82615104565b61514b8683615104565b95508019841693508086168417925050509392505050565b6000819050919050565b600061518861518361517e846143db565b615163565b6143db565b9050919050565b6000819050919050565b6151a28361516d565b6151b66151ae8261518f565b848454615111565b825550505050565b600090565b6151cb6151be565b6151d6818484615199565b505050565b5b818110156151fa576151ef6000826151c3565b6001810190506151dc565b5050565b601f82111561523f57615210816150df565b615219846150f4565b81016020851015615228578190505b61523c615234856150f4565b8301826151db565b50505b505050565b600082821c905092915050565b600061526260001984600802615244565b1980831691505092915050565b600061527b8383615251565b9150826002028217905092915050565b6152958383615045565b67ffffffffffffffff8111156152ae576152ad615050565b5b6152b882546150ae565b6152c38282856151fe565b6000601f8311600181146152f257600084156152e0578287013590505b6152ea858261526f565b865550615352565b601f198416615300866150df565b60005b8281101561532857848901358255600182019150602085019450602081019050615303565b868310156153455784890135615341601f891682615251565b8355505b6001600288020188555050505b50505050505050565b7f4e487b7100000000000000000000000000000000000000000000000000000000600052601160045260246000fd5b6000615395826143db565b91507fffffffffffffffffffffffffffffffffffffffffffffffffffffffffffffffff82036153c7576153c661535b565b5b600182019050919050565b82818337600083830152505050565b60006153ed8385614fc8565b93506153fa8385846153d2565b61540383614921565b840190509392505050565b6000819050919050565b600061543361542e6154298461540e565b615163565b6143db565b9050919050565b61544381615418565b82525050565b60006101008201905061545f600083018d614c2c565b8181036020830152615472818b8d6153e1565b9050615481604083018a614c2c565b61548e6060830189614cf0565b81810360808301526154a18187896153e1565b90506154b060a083018661543a565b6154bd60c083018561543a565b6154ca60e083018461543a565b9b9a5050505050505050505050565b7f4e487b7100000000000000000000000000000000000000000000000000000000600052603260045260246000fd5b6000615513826143db565b915061551e836143db565b92508282019050808211156155365761553561535b565b5b92915050565b6000615547826143db565b9150615552836143db565b9250828202615560816143db565b915082820484148315176155775761557661535b565b5b5092915050565b7f4e487b7100000000000000000000000000000000000000000000000000000000600052601260045260246000fd5b60006155b8826143db565b91506155c3836143db565b9250826155d3576155d261557e565b5b828204905092915050565b60006155f96155f46155ef846146b7565b615163565b6146b7565b9050919050565b600061560b826155de565b9050919050565b600061561d82615600565b9050919050565b61562d81615612565b82525050565b60006040820190506156486000830185615624565b6156556020830184614c2c565b9392505050565b60008151905061566b8161441d565b92915050565b600060208284031215615687576156866143d1565b5b60006156958482850161565c565b91505092915050565b60006156a9826143db565b91506156b4836143db565b92508282039050818111156156cc576156cb61535b565b5b92915050565b60006040820190506156e76000830185614cf0565b6156f46020830184614cf0565b9392505050565b60008151905061570a816143e5565b92915050565b600060208284031215615726576157256143d1565b5b6000615734848285016156fb565b91505092915050565b7f4e6f7420616c6c6f77656420746f207370656e64207468697320616d6f756e7460008201527f2e00000000000000000000000000000000000000000000000000000000000000602082015250565b6000615799602183614fc8565b91506157a48261573d565b604082019050919050565b600060208201905081810360008301526157c88161578c565b9050919050565b60006060820190506157e46000830186614cf0565b6157f16020830185614cf0565b6157fe6040830184614c2c565b949350505050565b7f496e697469616c697a61626c653a20636f6e747261637420697320616c72656160008201527f647920696e697469616c697a6564000000000000000000000000000000000000602082015250565b6000615862602e83614fc8565b915061586d82615806565b604082019050919050565b6000602082019050818103600083015261589181615855565b9050919050565b6000819050919050565b600060ff82169050919050565b60006158ca6158c56158c084615898565b615163565b6158a2565b9050919050565b6158da816158af565b82525050565b60006020820190506158f560008301846158d1565b9291505056fea26469706673582212207c9e2fbedb5c78a3bc372a35d29eb605b67e6fbf4b6ffb1af1bfe4b0960f4b3a64736f6c63430008120033",
    "linkReferences": {},
    "deployedLinkReferences": {}
}