{
    "_format": "hh-sol-artifact-1",
    "contractName": "PredictionWorld4",
    "sourceName": "contracts/PredictionWorld4.sol",
    "abi": [
        {
            "anonymous": false,
            "inputs": [
                {
                    "indexed": false,
                    "internalType": "uint8",
                    "name": "version",
                    "type": "uint8"
                }
            ],
            "name": "Initialized",
            "type": "event"
        },
        {
            "anonymous": false,
            "inputs": [
                {
                    "indexed": false,
                    "internalType": "uint256",
                    "name": "id",
                    "type": "uint256"
                },
                {
                    "indexed": false,
                    "internalType": "string",
                    "name": "market",
                    "type": "string"
                },
                {
                    "indexed": false,
                    "internalType": "uint256",
                    "name": "timestamp",
                    "type": "uint256"
                },
                {
                    "indexed": false,
                    "internalType": "address",
                    "name": "createdBy",
                    "type": "address"
                },
                {
                    "indexed": false,
                    "internalType": "string",
                    "name": "creatorImageHash",
                    "type": "string"
                },
                {
                    "indexed": false,
                    "internalType": "uint256",
                    "name": "totalAmount",
                    "type": "uint256"
                },
                {
                    "indexed": false,
                    "internalType": "uint256",
                    "name": "totalYesAmount",
                    "type": "uint256"
                },
                {
                    "indexed": false,
                    "internalType": "uint256",
                    "name": "totalNoAmount",
                    "type": "uint256"
                }
            ],
            "name": "MarketCreated",
            "type": "event"
        },
        {
            "inputs": [
                {
                    "internalType": "address",
                    "name": "_address",
                    "type": "address"
                }
            ],
            "name": "addAdminUser",
            "outputs": [],
            "stateMutability": "nonpayable",
            "type": "function"
        },
        {
            "inputs": [
                {
                    "internalType": "uint256",
                    "name": "_marketId",
                    "type": "uint256"
                },
                {
                    "internalType": "uint256",
                    "name": "_value",
                    "type": "uint256"
                }
            ],
            "name": "addNoBet",
            "outputs": [],
            "stateMutability": "payable",
            "type": "function"
        },
        {
            "inputs": [
                {
                    "internalType": "uint256",
                    "name": "_marketId",
                    "type": "uint256"
                },
                {
                    "internalType": "uint256",
                    "name": "_value",
                    "type": "uint256"
                }
            ],
            "name": "addYesBet",
            "outputs": [],
            "stateMutability": "payable",
            "type": "function"
        },
        {
            "inputs": [],
            "name": "commissionAddress",
            "outputs": [
                {
                    "internalType": "address",
                    "name": "",
                    "type": "address"
                }
            ],
            "stateMutability": "view",
            "type": "function"
        },
        {
            "inputs": [
                {
                    "internalType": "string",
                    "name": "_question",
                    "type": "string"
                },
                {
                    "internalType": "string",
                    "name": "_creatorImageHash",
                    "type": "string"
                },
                {
                    "internalType": "string",
                    "name": "_description",
                    "type": "string"
                },
                {
                    "internalType": "string",
                    "name": "_resolverUrl",
                    "type": "string"
                },
                {
                    "internalType": "uint256",
                    "name": "_endTimestamp",
                    "type": "uint256"
                }
            ],
            "name": "createMarket",
            "outputs": [],
            "stateMutability": "nonpayable",
            "type": "function"
        },
        {
            "inputs": [
                {
                    "internalType": "uint256",
                    "name": "_marketId",
                    "type": "uint256"
                },
                {
                    "internalType": "bool",
                    "name": "_eventOutcome",
                    "type": "bool"
                }
            ],
            "name": "distributeWinningAmount",
            "outputs": [],
            "stateMutability": "payable",
            "type": "function"
        },
        {
            "inputs": [
                {
                    "internalType": "uint256",
                    "name": "_marketId",
                    "type": "uint256"
                }
            ],
            "name": "getBets",
            "outputs": [
                {
                    "components": [
                        {
                            "internalType": "address",
                            "name": "user",
                            "type": "address"
                        },
                        {
                            "internalType": "uint256",
                            "name": "amount",
                            "type": "uint256"
                        },
                        {
                            "internalType": "uint256",
                            "name": "timestamp",
                            "type": "uint256"
                        }
                    ],
                    "internalType": "struct PredictionWorld4.Bet[]",
                    "name": "",
                    "type": "tuple[]"
                },
                {
                    "components": [
                        {
                            "internalType": "address",
                            "name": "user",
                            "type": "address"
                        },
                        {
                            "internalType": "uint256",
                            "name": "amount",
                            "type": "uint256"
                        },
                        {
                            "internalType": "uint256",
                            "name": "timestamp",
                            "type": "uint256"
                        }
                    ],
                    "internalType": "struct PredictionWorld4.Bet[]",
                    "name": "",
                    "type": "tuple[]"
                }
            ],
            "stateMutability": "view",
            "type": "function"
        },
        {
            "inputs": [
                {
                    "internalType": "address",
                    "name": "_sureToken",
                    "type": "address"
                }
            ],
            "name": "initialize",
            "outputs": [],
            "stateMutability": "nonpayable",
            "type": "function"
        },
        {
            "inputs": [
                {
                    "internalType": "address",
                    "name": "_address",
                    "type": "address"
                }
            ],
            "name": "isAdminUser",
            "outputs": [
                {
                    "internalType": "bool",
                    "name": "",
                    "type": "bool"
                }
            ],
            "stateMutability": "view",
            "type": "function"
        },
        {
            "inputs": [
                {
                    "internalType": "uint256",
                    "name": "",
                    "type": "uint256"
                }
            ],
            "name": "markets",
            "outputs": [
                {
                    "internalType": "uint256",
                    "name": "id",
                    "type": "uint256"
                },
                {
                    "components": [
                        {
                            "internalType": "string",
                            "name": "question",
                            "type": "string"
                        },
                        {
                            "internalType": "uint256",
                            "name": "timestamp",
                            "type": "uint256"
                        },
                        {
                            "internalType": "uint256",
                            "name": "endTimestamp",
                            "type": "uint256"
                        },
                        {
                            "internalType": "address",
                            "name": "createdBy",
                            "type": "address"
                        },
                        {
                            "internalType": "string",
                            "name": "creatorImageHash",
                            "type": "string"
                        },
                        {
                            "internalType": "string",
                            "name": "description",
                            "type": "string"
                        },
                        {
                            "internalType": "string",
                            "name": "resolverUrl",
                            "type": "string"
                        }
                    ],
                    "internalType": "struct PredictionWorld4.Info",
                    "name": "info",
                    "type": "tuple"
                },
                {
                    "internalType": "uint256",
                    "name": "totalAmount",
                    "type": "uint256"
                },
                {
                    "internalType": "uint256",
                    "name": "totalYesAmount",
                    "type": "uint256"
                },
                {
                    "internalType": "uint256",
                    "name": "totalNoAmount",
                    "type": "uint256"
                },
                {
                    "internalType": "bool",
                    "name": "marketClosed",
                    "type": "bool"
                },
                {
                    "internalType": "bool",
                    "name": "outcome",
                    "type": "bool"
                }
            ],
            "stateMutability": "view",
            "type": "function"
        },
        {
            "inputs": [],
            "name": "owner",
            "outputs": [
                {
                    "internalType": "address",
                    "name": "",
                    "type": "address"
                }
            ],
            "stateMutability": "view",
            "type": "function"
        },
        {
            "inputs": [
                {
                    "internalType": "address",
                    "name": "_address",
                    "type": "address"
                }
            ],
            "name": "removeAdminUser",
            "outputs": [],
            "stateMutability": "nonpayable",
            "type": "function"
        },
        {
            "inputs": [
                {
                    "internalType": "address",
                    "name": "_newOwner",
                    "type": "address"
                }
            ],
            "name": "setNewOwner",
            "outputs": [],
            "stateMutability": "nonpayable",
            "type": "function"
        },
        {
            "inputs": [],
            "name": "sureToken",
            "outputs": [
                {
                    "internalType": "address",
                    "name": "",
                    "type": "address"
                }
            ],
            "stateMutability": "view",
            "type": "function"
        },
        {
            "inputs": [],
            "name": "totalMarkets",
            "outputs": [
                {
                    "internalType": "uint256",
                    "name": "",
                    "type": "uint256"
                }
            ],
            "stateMutability": "view",
            "type": "function"
        }
    ],
    "bytecode": "0x608060405234801561001057600080fd5b506130a3806100206000396000f3fe6080604052600436106100e85760003560e01c8063931742d31161008a578063c4d66de811610059578063c4d66de8146102df578063eb3f75e214610308578063ee81e4dd14610324578063f5a1f5b41461034f576100e8565b8063931742d31461022c57806394743ae814610257578063b1283e7714610280578063bf01fe00146102c3576100e8565b80636323580d116100c65780636323580d1461017d578063724ba40b146101ba5780638162486b146101d65780638da5cb5b14610201576100e8565b80631ccf6955146100ed5780631de6ebd81461012b5780633f4a5d0a14610154575b600080fd5b3480156100f957600080fd5b50610114600480360381019061010f919061206e565b610378565b6040516101229291906121dc565b60405180910390f35b34801561013757600080fd5b50610152600480360381019061014d919061223f565b61052a565b005b34801561016057600080fd5b5061017b600480360381019061017691906123b2565b61060c565b005b34801561018957600080fd5b506101a4600480360381019061019f919061223f565b6107f7565b6040516101b191906124b8565b60405180910390f35b6101d460048036038101906101cf91906124ff565b61084d565b005b3480156101e257600080fd5b506101eb611260565b6040516101f8919061254e565b60405180910390f35b34801561020d57600080fd5b50610216611266565b6040516102239190612578565b60405180910390f35b34801561023857600080fd5b5061024161128c565b60405161024e9190612578565b60405180910390f35b34801561026357600080fd5b5061027e6004803603810190610279919061223f565b6112b2565b005b34801561028c57600080fd5b506102a760048036038101906102a2919061206e565b6113ef565b6040516102ba97969594939291906126c3565b60405180910390f35b6102dd60048036038101906102d89190612739565b611707565b005b3480156102eb57600080fd5b506103066004803603810190610301919061223f565b61199d565b005b610322600480360381019061031d9190612739565b611c33565b005b34801561033057600080fd5b50610339611ec9565b6040516103469190612578565b60405180910390f35b34801561035b57600080fd5b506103766004803603810190610371919061223f565b611eef565b005b6060806000600460008581526020019081526020016000209050806008018160090181805480602002602001604051908101604052809291908181526020016000905b8282101561045757838290600052602060002090600302016040518060600160405290816000820160009054906101000a900473ffffffffffffffffffffffffffffffffffffffff1673ffffffffffffffffffffffffffffffffffffffff1673ffffffffffffffffffffffffffffffffffffffff16815260200160018201548152602001600282015481525050815260200190600101906103bb565b50505050915080805480602002602001604051908101604052809291908181526020016000905b8282101561051a57838290600052602060002090600302016040518060600160405290816000820160009054906101000a900473ffffffffffffffffffffffffffffffffffffffff1673ffffffffffffffffffffffffffffffffffffffff1673ffffffffffffffffffffffffffffffffffffffff168152602001600182015481526020016002820154815250508152602001906001019061047e565b5050505090509250925050915091565b600160009054906101000a900473ffffffffffffffffffffffffffffffffffffffff1673ffffffffffffffffffffffffffffffffffffffff163373ffffffffffffffffffffffffffffffffffffffff16146105ba576040517f08c379a00000000000000000000000000000000000000000000000000000000081526004016105b1906127d6565b60405180910390fd5b600760008273ffffffffffffffffffffffffffffffffffffffff1673ffffffffffffffffffffffffffffffffffffffff16815260200190815260200160002060006101000a81549060ff021916905550565b600760003373ffffffffffffffffffffffffffffffffffffffff1673ffffffffffffffffffffffffffffffffffffffff16815260200190815260200160002060009054906101000a900460ff16610698576040517f08c379a000000000000000000000000000000000000000000000000000000000815260040161068f906127d6565b60405180910390fd5b600042905060006004600060035481526020019081526020016000209050600360008154809291906106c990612825565b919050558160000181905550868160010160000190816106e99190612a79565b50858160010160040190816106fe9190612a79565b50818160010160010181905550338160010160030160006101000a81548173ffffffffffffffffffffffffffffffffffffffff021916908373ffffffffffffffffffffffffffffffffffffffff160217905550600081600a0181905550600081600b0181905550600081600c0181905550848160010160050190816107839190612a79565b50838160010160060190816107989190612a79565b508281600101600201819055507fe51b4ce9e60c0c010fcdef22c23537f954e056004aed674362555a9d11d037386003548884338a60008060006040516107e6989796959493929190612bbf565b60405180910390a150505050505050565b6000600760008373ffffffffffffffffffffffffffffffffffffffff1673ffffffffffffffffffffffffffffffffffffffff16815260200190815260200160002060009054906101000a900460ff169050919050565b600760003373ffffffffffffffffffffffffffffffffffffffff1673ffffffffffffffffffffffffffffffffffffffff16815260200190815260200160002060009054906101000a900460ff166108d9576040517f08c379a00000000000000000000000000000000000000000000000000000000081526004016108d0906127d6565b60405180910390fd5b60006063905060006064905060006004600086815260200190815260200160002090508315610d93576000828483600c01546109159190612c4b565b61091f9190612cbc565b90506000805b8360080180549050811015610b1557600084600b015485600801838154811061095157610950612ced565b5b9060005260206000209060030201600101548561096e9190612c4b565b6109789190612cbc565b905080836109869190612d1c565b925084600801828154811061099e5761099d612ced565b5b906000526020600020906003020160010154816109bb9190612d1c565b600560008760080185815481106109d5576109d4612ced565b5b906000526020600020906003020160000160009054906101000a900473ffffffffffffffffffffffffffffffffffffffff1673ffffffffffffffffffffffffffffffffffffffff1673ffffffffffffffffffffffffffffffffffffffff1681526020019081526020016000206000828254610a509190612d1c565b925050819055506006856008018381548110610a6f57610a6e612ced565b5b906000526020600020906003020160000160009054906101000a900473ffffffffffffffffffffffffffffffffffffffff169080600181540180825580915050600190039060005260206000200160009091909190916101000a81548173ffffffffffffffffffffffffffffffffffffffff021916908373ffffffffffffffffffffffffffffffffffffffff160217905550508080610b0d90612825565b915050610925565b5060005b600680549050811015610ca057600060068281548110610b3c57610b3b612ced565b5b9060005260206000200160009054906101000a900473ffffffffffffffffffffffffffffffffffffffff169050600260009054906101000a900473ffffffffffffffffffffffffffffffffffffffff1673ffffffffffffffffffffffffffffffffffffffff1663a9059cbb82600560008573ffffffffffffffffffffffffffffffffffffffff1673ffffffffffffffffffffffffffffffffffffffff168152602001908152602001600020546040518363ffffffff1660e01b8152600401610c05929190612da5565b6020604051808303816000875af1158015610c24573d6000803e3d6000fd5b505050506040513d601f19601f82011682018060405250810190610c489190612de3565b50600560008273ffffffffffffffffffffffffffffffffffffffff1673ffffffffffffffffffffffffffffffffffffffff16815260200190815260200160002060009055508080610c9890612825565b915050610b19565b5060008184600c0154610cb39190612e10565b905060008060029054906101000a900473ffffffffffffffffffffffffffffffffffffffff169050600260009054906101000a900473ffffffffffffffffffffffffffffffffffffffff1673ffffffffffffffffffffffffffffffffffffffff1663a9059cbb82846040518363ffffffff1660e01b8152600401610d38929190612da5565b6020604051808303816000875af1158015610d57573d6000803e3d6000fd5b505050506040513d601f19601f82011682018060405250810190610d7b9190612de3565b5060066000610d8a9190611fe6565b50505050611220565b6000828483600b0154610da69190612c4b565b610db09190612cbc565b90506000805b8360090180549050811015610fa657600084600c0154856009018381548110610de257610de1612ced565b5b90600052602060002090600302016001015485610dff9190612c4b565b610e099190612cbc565b90508083610e179190612d1c565b9250846009018281548110610e2f57610e2e612ced565b5b90600052602060002090600302016001015481610e4c9190612d1c565b60056000876009018581548110610e6657610e65612ced565b5b906000526020600020906003020160000160009054906101000a900473ffffffffffffffffffffffffffffffffffffffff1673ffffffffffffffffffffffffffffffffffffffff1673ffffffffffffffffffffffffffffffffffffffff1681526020019081526020016000206000828254610ee19190612d1c565b925050819055506006856009018381548110610f0057610eff612ced565b5b906000526020600020906003020160000160009054906101000a900473ffffffffffffffffffffffffffffffffffffffff169080600181540180825580915050600190039060005260206000200160009091909190916101000a81548173ffffffffffffffffffffffffffffffffffffffff021916908373ffffffffffffffffffffffffffffffffffffffff160217905550508080610f9e90612825565b915050610db6565b5060005b60068054905081101561113157600060068281548110610fcd57610fcc612ced565b5b9060005260206000200160009054906101000a900473ffffffffffffffffffffffffffffffffffffffff169050600260009054906101000a900473ffffffffffffffffffffffffffffffffffffffff1673ffffffffffffffffffffffffffffffffffffffff1663a9059cbb82600560008573ffffffffffffffffffffffffffffffffffffffff1673ffffffffffffffffffffffffffffffffffffffff168152602001908152602001600020546040518363ffffffff1660e01b8152600401611096929190612da5565b6020604051808303816000875af11580156110b5573d6000803e3d6000fd5b505050506040513d601f19601f820116820180604052508101906110d99190612de3565b50600560008273ffffffffffffffffffffffffffffffffffffffff1673ffffffffffffffffffffffffffffffffffffffff1681526020019081526020016000206000905550808061112990612825565b915050610faa565b5060008184600b01546111449190612e10565b905060008060029054906101000a900473ffffffffffffffffffffffffffffffffffffffff169050600260009054906101000a900473ffffffffffffffffffffffffffffffffffffffff1673ffffffffffffffffffffffffffffffffffffffff1663a9059cbb82846040518363ffffffff1660e01b81526004016111c9929190612da5565b6020604051808303816000875af11580156111e8573d6000803e3d6000fd5b505050506040513d601f19601f8201168201806040525081019061120c9190612de3565b506006600061121b9190611fe6565b505050505b8381600d0160016101000a81548160ff021916908315150217905550600181600d0160006101000a81548160ff0219169083151502179055505050505050565b60035481565b600160009054906101000a900473ffffffffffffffffffffffffffffffffffffffff1681565b600060029054906101000a900473ffffffffffffffffffffffffffffffffffffffff1681565b600160009054906101000a900473ffffffffffffffffffffffffffffffffffffffff1673ffffffffffffffffffffffffffffffffffffffff163373ffffffffffffffffffffffffffffffffffffffff1614611342576040517f08c379a0000000000000000000000000000000000000000000000000000000008152600401611339906127d6565b60405180910390fd5b600760008273ffffffffffffffffffffffffffffffffffffffff1673ffffffffffffffffffffffffffffffffffffffff16815260200190815260200160002060009054906101000a900460ff166113ec576001600760008373ffffffffffffffffffffffffffffffffffffffff1673ffffffffffffffffffffffffffffffffffffffff16815260200190815260200160002060006101000a81548160ff0219169083151502179055505b50565b6004602052806000526040600020600091509050806000015490806001016040518060e00160405290816000820180546114289061289c565b80601f01602080910402602001604051908101604052809291908181526020018280546114549061289c565b80156114a15780601f10611476576101008083540402835291602001916114a1565b820191906000526020600020905b81548152906001019060200180831161148457829003601f168201915b5050505050815260200160018201548152602001600282015481526020016003820160009054906101000a900473ffffffffffffffffffffffffffffffffffffffff1673ffffffffffffffffffffffffffffffffffffffff1673ffffffffffffffffffffffffffffffffffffffff1681526020016004820180546115249061289c565b80601f01602080910402602001604051908101604052809291908181526020018280546115509061289c565b801561159d5780601f106115725761010080835404028352916020019161159d565b820191906000526020600020905b81548152906001019060200180831161158057829003601f168201915b505050505081526020016005820180546115b69061289c565b80601f01602080910402602001604051908101604052809291908181526020018280546115e29061289c565b801561162f5780601f106116045761010080835404028352916020019161162f565b820191906000526020600020905b81548152906001019060200180831161161257829003601f168201915b505050505081526020016006820180546116489061289c565b80601f01602080910402602001604051908101604052809291908181526020018280546116749061289c565b80156116c15780601f10611696576101008083540402835291602001916116c1565b820191906000526020600020905b8154815290600101906020018083116116a457829003601f168201915b5050505050815250509080600a01549080600b01549080600c01549080600d0160009054906101000a900460ff169080600d0160019054906101000a900460ff16905087565b600260009054906101000a900473ffffffffffffffffffffffffffffffffffffffff1673ffffffffffffffffffffffffffffffffffffffff1663dd62ed3e33306040518363ffffffff1660e01b8152600401611764929190612e44565b602060405180830381865afa158015611781573d6000803e3d6000fd5b505050506040513d601f19601f820116820180604052508101906117a59190612e82565b8111156117e7576040517f08c379a00000000000000000000000000000000000000000000000000000000081526004016117de90612f21565b60405180910390fd5b6000600460008481526020019081526020016000209050600260009054906101000a900473ffffffffffffffffffffffffffffffffffffffff1673ffffffffffffffffffffffffffffffffffffffff166323b872dd3330856040518463ffffffff1660e01b815260040161185d93929190612f41565b6020604051808303816000875af115801561187c573d6000803e3d6000fd5b505050506040513d601f19601f820116820180604052508101906118a09190612de3565b50600060405180606001604052803373ffffffffffffffffffffffffffffffffffffffff1681526020018481526020014281525090508282600c0160008282546118ea9190612d1c565b925050819055508282600a0160008282546119059190612d1c565b925050819055508160090181908060018154018082558091505060019003906000526020600020906003020160009091909190915060008201518160000160006101000a81548173ffffffffffffffffffffffffffffffffffffffff021916908373ffffffffffffffffffffffffffffffffffffffff1602179055506020820151816001015560408201518160020155505050505050565b60008060019054906101000a900460ff161590508080156119ce5750600160008054906101000a900460ff1660ff16105b806119fb57506119dd30611fc3565b1580156119fa5750600160008054906101000a900460ff1660ff16145b5b611a3a576040517f08c379a0000000000000000000000000000000000000000000000000000000008152600401611a3190612fea565b60405180910390fd5b60016000806101000a81548160ff021916908360ff1602179055508015611a77576001600060016101000a81548160ff0219169083151502179055505b81600260006101000a81548173ffffffffffffffffffffffffffffffffffffffff021916908373ffffffffffffffffffffffffffffffffffffffff16021790555033600160006101000a81548173ffffffffffffffffffffffffffffffffffffffff021916908373ffffffffffffffffffffffffffffffffffffffff160217905550600160009054906101000a900473ffffffffffffffffffffffffffffffffffffffff16600060026101000a81548173ffffffffffffffffffffffffffffffffffffffff021916908373ffffffffffffffffffffffffffffffffffffffff160217905550600160076000600160009054906101000a900473ffffffffffffffffffffffffffffffffffffffff1673ffffffffffffffffffffffffffffffffffffffff1673ffffffffffffffffffffffffffffffffffffffff16815260200190815260200160002060006101000a81548160ff0219169083151502179055508015611c2f5760008060016101000a81548160ff0219169083151502179055507f7f26b83ff96e1f2b6a682f133852f6798a09c465da95921460cefb38474024986001604051611c269190613052565b60405180910390a15b5050565b600260009054906101000a900473ffffffffffffffffffffffffffffffffffffffff1673ffffffffffffffffffffffffffffffffffffffff1663dd62ed3e33306040518363ffffffff1660e01b8152600401611c90929190612e44565b602060405180830381865afa158015611cad573d6000803e3d6000fd5b505050506040513d601f19601f82011682018060405250810190611cd19190612e82565b811115611d13576040517f08c379a0000000000000000000000000000000000000000000000000000000008152600401611d0a90612f21565b60405180910390fd5b6000600460008481526020019081526020016000209050600260009054906101000a900473ffffffffffffffffffffffffffffffffffffffff1673ffffffffffffffffffffffffffffffffffffffff166323b872dd3330856040518463ffffffff1660e01b8152600401611d8993929190612f41565b6020604051808303816000875af1158015611da8573d6000803e3d6000fd5b505050506040513d601f19601f82011682018060405250810190611dcc9190612de3565b50600060405180606001604052803373ffffffffffffffffffffffffffffffffffffffff1681526020018481526020014281525090508282600b016000828254611e169190612d1c565b925050819055508282600a016000828254611e319190612d1c565b925050819055508160080181908060018154018082558091505060019003906000526020600020906003020160009091909190915060008201518160000160006101000a81548173ffffffffffffffffffffffffffffffffffffffff021916908373ffffffffffffffffffffffffffffffffffffffff1602179055506020820151816001015560408201518160020155505050505050565b600260009054906101000a900473ffffffffffffffffffffffffffffffffffffffff1681565b600160009054906101000a900473ffffffffffffffffffffffffffffffffffffffff1673ffffffffffffffffffffffffffffffffffffffff163373ffffffffffffffffffffffffffffffffffffffff1614611f7f576040517f08c379a0000000000000000000000000000000000000000000000000000000008152600401611f76906127d6565b60405180910390fd5b80600160006101000a81548173ffffffffffffffffffffffffffffffffffffffff021916908373ffffffffffffffffffffffffffffffffffffffff16021790555050565b6000808273ffffffffffffffffffffffffffffffffffffffff163b119050919050565b50805460008255906000526020600020908101906120049190612007565b50565b5b80821115612020576000816000905550600101612008565b5090565b6000604051905090565b600080fd5b600080fd5b6000819050919050565b61204b81612038565b811461205657600080fd5b50565b60008135905061206881612042565b92915050565b6000602082840312156120845761208361202e565b5b600061209284828501612059565b91505092915050565b600081519050919050565b600082825260208201905092915050565b6000819050602082019050919050565b600073ffffffffffffffffffffffffffffffffffffffff82169050919050565b60006120f2826120c7565b9050919050565b612102816120e7565b82525050565b61211181612038565b82525050565b60608201600082015161212d60008501826120f9565b5060208201516121406020850182612108565b5060408201516121536040850182612108565b50505050565b60006121658383612117565b60608301905092915050565b6000602082019050919050565b60006121898261209b565b61219381856120a6565b935061219e836120b7565b8060005b838110156121cf5781516121b68882612159565b97506121c183612171565b9250506001810190506121a2565b5085935050505092915050565b600060408201905081810360008301526121f6818561217e565b9050818103602083015261220a818461217e565b90509392505050565b61221c816120e7565b811461222757600080fd5b50565b60008135905061223981612213565b92915050565b6000602082840312156122555761225461202e565b5b60006122638482850161222a565b91505092915050565b600080fd5b600080fd5b6000601f19601f8301169050919050565b7f4e487b7100000000000000000000000000000000000000000000000000000000600052604160045260246000fd5b6122bf82612276565b810181811067ffffffffffffffff821117156122de576122dd612287565b5b80604052505050565b60006122f1612024565b90506122fd82826122b6565b919050565b600067ffffffffffffffff82111561231d5761231c612287565b5b61232682612276565b9050602081019050919050565b82818337600083830152505050565b600061235561235084612302565b6122e7565b90508281526020810184848401111561237157612370612271565b5b61237c848285612333565b509392505050565b600082601f8301126123995761239861226c565b5b81356123a9848260208601612342565b91505092915050565b600080600080600060a086880312156123ce576123cd61202e565b5b600086013567ffffffffffffffff8111156123ec576123eb612033565b5b6123f888828901612384565b955050602086013567ffffffffffffffff81111561241957612418612033565b5b61242588828901612384565b945050604086013567ffffffffffffffff81111561244657612445612033565b5b61245288828901612384565b935050606086013567ffffffffffffffff81111561247357612472612033565b5b61247f88828901612384565b925050608061249088828901612059565b9150509295509295909350565b60008115159050919050565b6124b28161249d565b82525050565b60006020820190506124cd60008301846124a9565b92915050565b6124dc8161249d565b81146124e757600080fd5b50565b6000813590506124f9816124d3565b92915050565b600080604083850312156125165761251561202e565b5b600061252485828601612059565b9250506020612535858286016124ea565b9150509250929050565b61254881612038565b82525050565b6000602082019050612563600083018461253f565b92915050565b612572816120e7565b82525050565b600060208201905061258d6000830184612569565b92915050565b600081519050919050565b600082825260208201905092915050565b60005b838110156125cd5780820151818401526020810190506125b2565b60008484015250505050565b60006125e482612593565b6125ee818561259e565b93506125fe8185602086016125af565b61260781612276565b840191505092915050565b600060e083016000830151848203600086015261262f82826125d9565b91505060208301516126446020860182612108565b5060408301516126576040860182612108565b50606083015161266a60608601826120f9565b506080830151848203608086015261268282826125d9565b91505060a083015184820360a086015261269c82826125d9565b91505060c083015184820360c08601526126b682826125d9565b9150508091505092915050565b600060e0820190506126d8600083018a61253f565b81810360208301526126ea8189612612565b90506126f9604083018861253f565b612706606083018761253f565b612713608083018661253f565b61272060a08301856124a9565b61272d60c08301846124a9565b98975050505050505050565b600080604083850312156127505761274f61202e565b5b600061275e85828601612059565b925050602061276f85828601612059565b9150509250929050565b600082825260208201905092915050565b7f556e617574686f72697a65640000000000000000000000000000000000000000600082015250565b60006127c0600c83612779565b91506127cb8261278a565b602082019050919050565b600060208201905081810360008301526127ef816127b3565b9050919050565b7f4e487b7100000000000000000000000000000000000000000000000000000000600052601160045260246000fd5b600061283082612038565b91507fffffffffffffffffffffffffffffffffffffffffffffffffffffffffffffffff8203612862576128616127f6565b5b600182019050919050565b7f4e487b7100000000000000000000000000000000000000000000000000000000600052602260045260246000fd5b600060028204905060018216806128b457607f821691505b6020821081036128c7576128c661286d565b5b50919050565b60008190508160005260206000209050919050565b60006020601f8301049050919050565b600082821b905092915050565b60006008830261292f7fffffffffffffffffffffffffffffffffffffffffffffffffffffffffffffffff826128f2565b61293986836128f2565b95508019841693508086168417925050509392505050565b6000819050919050565b600061297661297161296c84612038565b612951565b612038565b9050919050565b6000819050919050565b6129908361295b565b6129a461299c8261297d565b8484546128ff565b825550505050565b600090565b6129b96129ac565b6129c4818484612987565b505050565b5b818110156129e8576129dd6000826129b1565b6001810190506129ca565b5050565b601f821115612a2d576129fe816128cd565b612a07846128e2565b81016020851015612a16578190505b612a2a612a22856128e2565b8301826129c9565b50505b505050565b600082821c905092915050565b6000612a5060001984600802612a32565b1980831691505092915050565b6000612a698383612a3f565b9150826002028217905092915050565b612a8282612593565b67ffffffffffffffff811115612a9b57612a9a612287565b5b612aa5825461289c565b612ab08282856129ec565b600060209050601f831160018114612ae35760008415612ad1578287015190505b612adb8582612a5d565b865550612b43565b601f198416612af1866128cd565b60005b82811015612b1957848901518255600182019150602085019450602081019050612af4565b86831015612b365784890151612b32601f891682612a3f565b8355505b6001600288020188555050505b505050505050565b6000612b5682612593565b612b608185612779565b9350612b708185602086016125af565b612b7981612276565b840191505092915050565b6000819050919050565b6000612ba9612ba4612b9f84612b84565b612951565b612038565b9050919050565b612bb981612b8e565b82525050565b600061010082019050612bd5600083018b61253f565b8181036020830152612be7818a612b4b565b9050612bf6604083018961253f565b612c036060830188612569565b8181036080830152612c158187612b4b565b9050612c2460a0830186612bb0565b612c3160c0830185612bb0565b612c3e60e0830184612bb0565b9998505050505050505050565b6000612c5682612038565b9150612c6183612038565b9250828202612c6f81612038565b91508282048414831517612c8657612c856127f6565b5b5092915050565b7f4e487b7100000000000000000000000000000000000000000000000000000000600052601260045260246000fd5b6000612cc782612038565b9150612cd283612038565b925082612ce257612ce1612c8d565b5b828204905092915050565b7f4e487b7100000000000000000000000000000000000000000000000000000000600052603260045260246000fd5b6000612d2782612038565b9150612d3283612038565b9250828201905080821115612d4a57612d496127f6565b5b92915050565b6000612d6b612d66612d61846120c7565b612951565b6120c7565b9050919050565b6000612d7d82612d50565b9050919050565b6000612d8f82612d72565b9050919050565b612d9f81612d84565b82525050565b6000604082019050612dba6000830185612d96565b612dc7602083018461253f565b9392505050565b600081519050612ddd816124d3565b92915050565b600060208284031215612df957612df861202e565b5b6000612e0784828501612dce565b91505092915050565b6000612e1b82612038565b9150612e2683612038565b9250828203905081811115612e3e57612e3d6127f6565b5b92915050565b6000604082019050612e596000830185612569565b612e666020830184612569565b9392505050565b600081519050612e7c81612042565b92915050565b600060208284031215612e9857612e9761202e565b5b6000612ea684828501612e6d565b91505092915050565b7f4e6f7420616c6c6f77656420746f207370656e64207468697320616d6f756e7460008201527f2e00000000000000000000000000000000000000000000000000000000000000602082015250565b6000612f0b602183612779565b9150612f1682612eaf565b604082019050919050565b60006020820190508181036000830152612f3a81612efe565b9050919050565b6000606082019050612f566000830186612569565b612f636020830185612569565b612f70604083018461253f565b949350505050565b7f496e697469616c697a61626c653a20636f6e747261637420697320616c72656160008201527f647920696e697469616c697a6564000000000000000000000000000000000000602082015250565b6000612fd4602e83612779565b9150612fdf82612f78565b604082019050919050565b6000602082019050818103600083015261300381612fc7565b9050919050565b6000819050919050565b600060ff82169050919050565b600061303c6130376130328461300a565b612951565b613014565b9050919050565b61304c81613021565b82525050565b60006020820190506130676000830184613043565b9291505056fea26469706673582212209719358227adbeb83f49fed073f51b5b305f8ca1a4dafe2fae857714473d6ca364736f6c63430008120033",
    "linkReferences": {},
    "deployedLinkReferences": {}
}