{
    "_format": "hh-sol-artifact-1",
    "contractName": "PredictionWorld5",
    "sourceName": "contracts/PredictionWorld5.sol",
    "abi": [
        {
            "anonymous": false,
            "inputs": [
                {
                    "indexed": false,
                    "internalType": "uint8",
                    "name": "version",
                    "type": "uint8"
                }
            ],
            "name": "Initialized",
            "type": "event"
        },
        {
            "anonymous": false,
            "inputs": [
                {
                    "indexed": false,
                    "internalType": "uint256",
                    "name": "id",
                    "type": "uint256"
                },
                {
                    "indexed": false,
                    "internalType": "string",
                    "name": "market",
                    "type": "string"
                },
                {
                    "indexed": false,
                    "internalType": "uint256",
                    "name": "timestamp",
                    "type": "uint256"
                },
                {
                    "indexed": false,
                    "internalType": "address",
                    "name": "createdBy",
                    "type": "address"
                },
                {
                    "indexed": false,
                    "internalType": "string",
                    "name": "creatorImageHash",
                    "type": "string"
                },
                {
                    "indexed": false,
                    "internalType": "uint256",
                    "name": "totalAmount",
                    "type": "uint256"
                },
                {
                    "indexed": false,
                    "internalType": "uint256",
                    "name": "totalYesAmount",
                    "type": "uint256"
                },
                {
                    "indexed": false,
                    "internalType": "uint256",
                    "name": "totalNoAmount",
                    "type": "uint256"
                }
            ],
            "name": "MarketCreated",
            "type": "event"
        },
        {
            "inputs": [
                {
                    "internalType": "address",
                    "name": "_address",
                    "type": "address"
                }
            ],
            "name": "addAdminUser",
            "outputs": [],
            "stateMutability": "nonpayable",
            "type": "function"
        },
        {
            "inputs": [
                {
                    "internalType": "uint256",
                    "name": "_marketId",
                    "type": "uint256"
                },
                {
                    "internalType": "uint256",
                    "name": "_value",
                    "type": "uint256"
                }
            ],
            "name": "addNoBet",
            "outputs": [],
            "stateMutability": "payable",
            "type": "function"
        },
        {
            "inputs": [
                {
                    "internalType": "uint256",
                    "name": "_marketId",
                    "type": "uint256"
                },
                {
                    "internalType": "uint256",
                    "name": "_value",
                    "type": "uint256"
                }
            ],
            "name": "addYesBet",
            "outputs": [],
            "stateMutability": "payable",
            "type": "function"
        },
        {
            "inputs": [],
            "name": "commissionAddress",
            "outputs": [
                {
                    "internalType": "address",
                    "name": "",
                    "type": "address"
                }
            ],
            "stateMutability": "view",
            "type": "function"
        },
        {
            "inputs": [
                {
                    "internalType": "string",
                    "name": "_question",
                    "type": "string"
                },
                {
                    "internalType": "string",
                    "name": "_creatorImageHash",
                    "type": "string"
                },
                {
                    "internalType": "string",
                    "name": "_description",
                    "type": "string"
                },
                {
                    "internalType": "string",
                    "name": "_resolverUrl",
                    "type": "string"
                },
                {
                    "internalType": "uint256",
                    "name": "_endTimestamp",
                    "type": "uint256"
                },
                {
                    "internalType": "bool",
                    "name": "isTest",
                    "type": "bool"
                }
            ],
            "name": "createMarket",
            "outputs": [],
            "stateMutability": "nonpayable",
            "type": "function"
        },
        {
            "inputs": [
                {
                    "internalType": "uint256",
                    "name": "_marketId",
                    "type": "uint256"
                },
                {
                    "internalType": "bool",
                    "name": "_eventOutcome",
                    "type": "bool"
                }
            ],
            "name": "distributeWinningAmount",
            "outputs": [],
            "stateMutability": "payable",
            "type": "function"
        },
        {
            "inputs": [
                {
                    "internalType": "uint256",
                    "name": "cursor",
                    "type": "uint256"
                },
                {
                    "internalType": "uint256",
                    "name": "size",
                    "type": "uint256"
                },
                {
                    "internalType": "bool",
                    "name": "withTest",
                    "type": "bool"
                }
            ],
            "name": "fetchMarkets",
            "outputs": [
                {
                    "components": [
                        {
                            "internalType": "uint256",
                            "name": "id",
                            "type": "uint256"
                        },
                        {
                            "components": [
                                {
                                    "internalType": "string",
                                    "name": "question",
                                    "type": "string"
                                },
                                {
                                    "internalType": "uint256",
                                    "name": "timestamp",
                                    "type": "uint256"
                                },
                                {
                                    "internalType": "uint256",
                                    "name": "endTimestamp",
                                    "type": "uint256"
                                },
                                {
                                    "internalType": "address",
                                    "name": "createdBy",
                                    "type": "address"
                                },
                                {
                                    "internalType": "string",
                                    "name": "creatorImageHash",
                                    "type": "string"
                                },
                                {
                                    "internalType": "string",
                                    "name": "description",
                                    "type": "string"
                                },
                                {
                                    "internalType": "string",
                                    "name": "resolverUrl",
                                    "type": "string"
                                },
                                {
                                    "internalType": "bool",
                                    "name": "isTest",
                                    "type": "bool"
                                }
                            ],
                            "internalType": "struct PredictionWorld5.Info",
                            "name": "info",
                            "type": "tuple"
                        },
                        {
                            "components": [
                                {
                                    "internalType": "address",
                                    "name": "user",
                                    "type": "address"
                                },
                                {
                                    "internalType": "uint256",
                                    "name": "amount",
                                    "type": "uint256"
                                },
                                {
                                    "internalType": "uint256",
                                    "name": "timestamp",
                                    "type": "uint256"
                                }
                            ],
                            "internalType": "struct PredictionWorld5.Bet[]",
                            "name": "yesBets",
                            "type": "tuple[]"
                        },
                        {
                            "components": [
                                {
                                    "internalType": "address",
                                    "name": "user",
                                    "type": "address"
                                },
                                {
                                    "internalType": "uint256",
                                    "name": "amount",
                                    "type": "uint256"
                                },
                                {
                                    "internalType": "uint256",
                                    "name": "timestamp",
                                    "type": "uint256"
                                }
                            ],
                            "internalType": "struct PredictionWorld5.Bet[]",
                            "name": "noBets",
                            "type": "tuple[]"
                        },
                        {
                            "internalType": "uint256",
                            "name": "totalAmount",
                            "type": "uint256"
                        },
                        {
                            "internalType": "uint256",
                            "name": "totalYesAmount",
                            "type": "uint256"
                        },
                        {
                            "internalType": "uint256",
                            "name": "totalNoAmount",
                            "type": "uint256"
                        },
                        {
                            "internalType": "bool",
                            "name": "marketClosed",
                            "type": "bool"
                        },
                        {
                            "internalType": "bool",
                            "name": "outcome",
                            "type": "bool"
                        }
                    ],
                    "internalType": "struct PredictionWorld5.Market[]",
                    "name": "values",
                    "type": "tuple[]"
                },
                {
                    "internalType": "uint256",
                    "name": "nextCursor",
                    "type": "uint256"
                }
            ],
            "stateMutability": "view",
            "type": "function"
        },
        {
            "inputs": [
                {
                    "internalType": "uint256",
                    "name": "_marketId",
                    "type": "uint256"
                }
            ],
            "name": "getBets",
            "outputs": [
                {
                    "components": [
                        {
                            "internalType": "address",
                            "name": "user",
                            "type": "address"
                        },
                        {
                            "internalType": "uint256",
                            "name": "amount",
                            "type": "uint256"
                        },
                        {
                            "internalType": "uint256",
                            "name": "timestamp",
                            "type": "uint256"
                        }
                    ],
                    "internalType": "struct PredictionWorld5.Bet[]",
                    "name": "",
                    "type": "tuple[]"
                },
                {
                    "components": [
                        {
                            "internalType": "address",
                            "name": "user",
                            "type": "address"
                        },
                        {
                            "internalType": "uint256",
                            "name": "amount",
                            "type": "uint256"
                        },
                        {
                            "internalType": "uint256",
                            "name": "timestamp",
                            "type": "uint256"
                        }
                    ],
                    "internalType": "struct PredictionWorld5.Bet[]",
                    "name": "",
                    "type": "tuple[]"
                }
            ],
            "stateMutability": "view",
            "type": "function"
        },
        {
            "inputs": [
                {
                    "internalType": "address",
                    "name": "_userAddress",
                    "type": "address"
                },
                {
                    "internalType": "uint256",
                    "name": "_marketId",
                    "type": "uint256"
                }
            ],
            "name": "getUserBets",
            "outputs": [
                {
                    "components": [
                        {
                            "internalType": "address",
                            "name": "user",
                            "type": "address"
                        },
                        {
                            "internalType": "uint256",
                            "name": "amount",
                            "type": "uint256"
                        },
                        {
                            "internalType": "uint256",
                            "name": "timestamp",
                            "type": "uint256"
                        }
                    ],
                    "internalType": "struct PredictionWorld5.Bet[]",
                    "name": "yesBets",
                    "type": "tuple[]"
                },
                {
                    "components": [
                        {
                            "internalType": "address",
                            "name": "user",
                            "type": "address"
                        },
                        {
                            "internalType": "uint256",
                            "name": "amount",
                            "type": "uint256"
                        },
                        {
                            "internalType": "uint256",
                            "name": "timestamp",
                            "type": "uint256"
                        }
                    ],
                    "internalType": "struct PredictionWorld5.Bet[]",
                    "name": "noBets",
                    "type": "tuple[]"
                }
            ],
            "stateMutability": "view",
            "type": "function"
        },
        {
            "inputs": [
                {
                    "internalType": "address",
                    "name": "_sureToken",
                    "type": "address"
                }
            ],
            "name": "initialize",
            "outputs": [],
            "stateMutability": "nonpayable",
            "type": "function"
        },
        {
            "inputs": [
                {
                    "internalType": "address",
                    "name": "_address",
                    "type": "address"
                }
            ],
            "name": "isAdminUser",
            "outputs": [
                {
                    "internalType": "bool",
                    "name": "",
                    "type": "bool"
                }
            ],
            "stateMutability": "view",
            "type": "function"
        },
        {
            "inputs": [
                {
                    "internalType": "uint256",
                    "name": "",
                    "type": "uint256"
                }
            ],
            "name": "markets",
            "outputs": [
                {
                    "internalType": "uint256",
                    "name": "id",
                    "type": "uint256"
                },
                {
                    "components": [
                        {
                            "internalType": "string",
                            "name": "question",
                            "type": "string"
                        },
                        {
                            "internalType": "uint256",
                            "name": "timestamp",
                            "type": "uint256"
                        },
                        {
                            "internalType": "uint256",
                            "name": "endTimestamp",
                            "type": "uint256"
                        },
                        {
                            "internalType": "address",
                            "name": "createdBy",
                            "type": "address"
                        },
                        {
                            "internalType": "string",
                            "name": "creatorImageHash",
                            "type": "string"
                        },
                        {
                            "internalType": "string",
                            "name": "description",
                            "type": "string"
                        },
                        {
                            "internalType": "string",
                            "name": "resolverUrl",
                            "type": "string"
                        },
                        {
                            "internalType": "bool",
                            "name": "isTest",
                            "type": "bool"
                        }
                    ],
                    "internalType": "struct PredictionWorld5.Info",
                    "name": "info",
                    "type": "tuple"
                },
                {
                    "internalType": "uint256",
                    "name": "totalAmount",
                    "type": "uint256"
                },
                {
                    "internalType": "uint256",
                    "name": "totalYesAmount",
                    "type": "uint256"
                },
                {
                    "internalType": "uint256",
                    "name": "totalNoAmount",
                    "type": "uint256"
                },
                {
                    "internalType": "bool",
                    "name": "marketClosed",
                    "type": "bool"
                },
                {
                    "internalType": "bool",
                    "name": "outcome",
                    "type": "bool"
                }
            ],
            "stateMutability": "view",
            "type": "function"
        },
        {
            "inputs": [],
            "name": "owner",
            "outputs": [
                {
                    "internalType": "address",
                    "name": "",
                    "type": "address"
                }
            ],
            "stateMutability": "view",
            "type": "function"
        },
        {
            "inputs": [
                {
                    "internalType": "address",
                    "name": "_address",
                    "type": "address"
                }
            ],
            "name": "removeAdminUser",
            "outputs": [],
            "stateMutability": "nonpayable",
            "type": "function"
        },
        {
            "inputs": [
                {
                    "internalType": "uint256",
                    "name": "_marketId",
                    "type": "uint256"
                },
                {
                    "internalType": "bool",
                    "name": "isTest",
                    "type": "bool"
                }
            ],
            "name": "setMarketInfo",
            "outputs": [],
            "stateMutability": "nonpayable",
            "type": "function"
        },
        {
            "inputs": [
                {
                    "internalType": "address",
                    "name": "_newOwner",
                    "type": "address"
                }
            ],
            "name": "setNewOwner",
            "outputs": [],
            "stateMutability": "nonpayable",
            "type": "function"
        },
        {
            "inputs": [],
            "name": "sureToken",
            "outputs": [
                {
                    "internalType": "address",
                    "name": "",
                    "type": "address"
                }
            ],
            "stateMutability": "view",
            "type": "function"
        },
        {
            "inputs": [],
            "name": "totalMarkets",
            "outputs": [
                {
                    "internalType": "uint256",
                    "name": "",
                    "type": "uint256"
                }
            ],
            "stateMutability": "view",
            "type": "function"
        },
        {
            "inputs": [
                {
                    "internalType": "address",
                    "name": "_userAddress",
                    "type": "address"
                },
                {
                    "internalType": "uint256",
                    "name": "_marketId",
                    "type": "uint256"
                }
            ],
            "name": "updateUserBets",
            "outputs": [],
            "stateMutability": "nonpayable",
            "type": "function"
        }
    ],
    "bytecode": "0x608060405234801561001057600080fd5b506146d3806100206000396000f3fe6080604052600436106101145760003560e01c8063931742d3116100a0578063c4d66de811610064578063c4d66de81461039b578063cd811c25146103c4578063eb3f75e214610402578063ee81e4dd1461041e578063f5a1f5b41461044957610114565b8063931742d3146102bf57806394743ae8146102ea578063a937df6314610313578063b1283e771461033c578063bf01fe001461037f57610114565b80636323580d116100e75780636323580d146101e75780636f3284ba14610224578063724ba40b1461024d5780638162486b146102695780638da5cb5b1461029457610114565b80630aa69fa1146101195780631ccf6955146101425780631de6ebd81461018057806359f07134146101a9575b600080fd5b34801561012557600080fd5b50610140600480360381019061013b919061345b565b610472565b005b34801561014e57600080fd5b5061016960048036038101906101649190613558565b61067d565b6040516101779291906136c6565b60405180910390f35b34801561018c57600080fd5b506101a760048036038101906101a29190613729565b61082f565b005b3480156101b557600080fd5b506101d060048036038101906101cb9190613756565b610911565b6040516101de929190613b0f565b60405180910390f35b3480156101f357600080fd5b5061020e60048036038101906102099190613729565b610f24565b60405161021b9190613b4e565b60405180910390f35b34801561023057600080fd5b5061024b60048036038101906102469190613b69565b610f7a565b005b61026760048036038101906102629190613b69565b61103b565b005b34801561027557600080fd5b5061027e611a4e565b60405161028b9190613ba9565b60405180910390f35b3480156102a057600080fd5b506102a9611a54565b6040516102b69190613bd3565b60405180910390f35b3480156102cb57600080fd5b506102d4611a7a565b6040516102e19190613bd3565b60405180910390f35b3480156102f657600080fd5b50610311600480360381019061030c9190613729565b611aa0565b005b34801561031f57600080fd5b5061033a60048036038101906103359190613bee565b611bdd565b005b34801561034857600080fd5b50610363600480360381019061035e9190613558565b6120b3565b6040516103769796959493929190613cf3565b60405180910390f35b61039960048036038101906103949190613d69565b6123e7565b005b3480156103a757600080fd5b506103c260048036038101906103bd9190613729565b612754565b005b3480156103d057600080fd5b506103eb60048036038101906103e69190613bee565b6129ea565b6040516103f99291906136c6565b60405180910390f35b61041c60048036038101906104179190613d69565b612c1e565b005b34801561042a57600080fd5b50610433612f8b565b6040516104409190613bd3565b60405180910390f35b34801561045557600080fd5b50610470600480360381019061046b9190613729565b612fb1565b005b600760003373ffffffffffffffffffffffffffffffffffffffff1673ffffffffffffffffffffffffffffffffffffffff16815260200190815260200160002060009054906101000a900460ff166104fe576040517f08c379a00000000000000000000000000000000000000000000000000000000081526004016104f590613e06565b60405180910390fd5b6000429050600060046000600354815260200190815260200160002090506003600081548092919061052f90613e55565b9190505581600001819055508781600101600001908161054f91906140a9565b508681600101600401908161056491906140a9565b50818160010160010181905550338160010160030160006101000a81548173ffffffffffffffffffffffffffffffffffffffff021916908373ffffffffffffffffffffffffffffffffffffffff160217905550828160010160070160006101000a81548160ff021916908315150217905550600081600b0181905550600081600c0181905550600081600d01819055508581600101600501908161060891906140a9565b508481600101600601908161061d91906140a9565b508381600101600201819055507fe51b4ce9e60c0c010fcdef22c23537f954e056004aed674362555a9d11d037386003548984338b600080600060405161066b9897969594939291906141ef565b60405180910390a15050505050505050565b60608060006004600085815260200190815260200160002090508060090181600a0181805480602002602001604051908101604052809291908181526020016000905b8282101561075c57838290600052602060002090600302016040518060600160405290816000820160009054906101000a900473ffffffffffffffffffffffffffffffffffffffff1673ffffffffffffffffffffffffffffffffffffffff1673ffffffffffffffffffffffffffffffffffffffff16815260200160018201548152602001600282015481525050815260200190600101906106c0565b50505050915080805480602002602001604051908101604052809291908181526020016000905b8282101561081f57838290600052602060002090600302016040518060600160405290816000820160009054906101000a900473ffffffffffffffffffffffffffffffffffffffff1673ffffffffffffffffffffffffffffffffffffffff1673ffffffffffffffffffffffffffffffffffffffff1681526020016001820154815260200160028201548152505081526020019060010190610783565b5050505090509250925050915091565b600160009054906101000a900473ffffffffffffffffffffffffffffffffffffffff1673ffffffffffffffffffffffffffffffffffffffff163373ffffffffffffffffffffffffffffffffffffffff16146108bf576040517f08c379a00000000000000000000000000000000000000000000000000000000081526004016108b690613e06565b60405180910390fd5b600760008273ffffffffffffffffffffffffffffffffffffffff1673ffffffffffffffffffffffffffffffffffffffff16815260200190815260200160002060006101000a81549060ff021916905550565b6060600080610921868686613085565b90508067ffffffffffffffff81111561093d5761093c6132c2565b5b60405190808252806020026020018201604052801561097657816020015b610963613130565b81526020019060019003908161095b5790505b50925060008060008890505b600354811015610f0657861580156109bd57506004600082815260200190815260200160002060010160070160009054906101000a900460ff165b610ef3576004600082815260200190815260200160002060405180610120016040529081600082015481526020016001820160405180610100016040529081600082018054610a0b90613ecc565b80601f0160208091040260200160405190810160405280929190818152602001828054610a3790613ecc565b8015610a845780601f10610a5957610100808354040283529160200191610a84565b820191906000526020600020905b815481529060010190602001808311610a6757829003601f168201915b5050505050815260200160018201548152602001600282015481526020016003820160009054906101000a900473ffffffffffffffffffffffffffffffffffffffff1673ffffffffffffffffffffffffffffffffffffffff1673ffffffffffffffffffffffffffffffffffffffff168152602001600482018054610b0790613ecc565b80601f0160208091040260200160405190810160405280929190818152602001828054610b3390613ecc565b8015610b805780601f10610b5557610100808354040283529160200191610b80565b820191906000526020600020905b815481529060010190602001808311610b6357829003601f168201915b50505050508152602001600582018054610b9990613ecc565b80601f0160208091040260200160405190810160405280929190818152602001828054610bc590613ecc565b8015610c125780601f10610be757610100808354040283529160200191610c12565b820191906000526020600020905b815481529060010190602001808311610bf557829003601f168201915b50505050508152602001600682018054610c2b90613ecc565b80601f0160208091040260200160405190810160405280929190818152602001828054610c5790613ecc565b8015610ca45780601f10610c7957610100808354040283529160200191610ca4565b820191906000526020600020905b815481529060010190602001808311610c8757829003601f168201915b505050505081526020016007820160009054906101000a900460ff161515151581525050815260200160098201805480602002602001604051908101604052809291908181526020016000905b82821015610d8d57838290600052602060002090600302016040518060600160405290816000820160009054906101000a900473ffffffffffffffffffffffffffffffffffffffff1673ffffffffffffffffffffffffffffffffffffffff1673ffffffffffffffffffffffffffffffffffffffff1681526020016001820154815260200160028201548152505081526020019060010190610cf1565b505050508152602001600a8201805480602002602001604051908101604052809291908181526020016000905b82821015610e5657838290600052602060002090600302016040518060600160405290816000820160009054906101000a900473ffffffffffffffffffffffffffffffffffffffff1673ffffffffffffffffffffffffffffffffffffffff1673ffffffffffffffffffffffffffffffffffffffff1681526020016001820154815260200160028201548152505081526020019060010190610dba565b505050508152602001600b8201548152602001600c8201548152602001600d8201548152602001600e820160009054906101000a900460ff16151515158152602001600e820160019054906101000a900460ff161515151581525050868480610ebe90613e55565b955081518110610ed157610ed061427b565b5b60200260200101819052508180610ee790613e55565b92505087821015610f06575b8080610efe90613e55565b915050610982565b85600182610f1491906142aa565b9550955050505050935093915050565b6000600760008373ffffffffffffffffffffffffffffffffffffffff1673ffffffffffffffffffffffffffffffffffffffff16815260200190815260200160002060009054906101000a900460ff169050919050565b600760003373ffffffffffffffffffffffffffffffffffffffff1673ffffffffffffffffffffffffffffffffffffffff16815260200190815260200160002060009054906101000a900460ff16611006576040517f08c379a0000000000000000000000000000000000000000000000000000000008152600401610ffd90613e06565b60405180910390fd5b806004600084815260200190815260200160002060010160070160006101000a81548160ff0219169083151502179055505050565b600760003373ffffffffffffffffffffffffffffffffffffffff1673ffffffffffffffffffffffffffffffffffffffff16815260200190815260200160002060009054906101000a900460ff166110c7576040517f08c379a00000000000000000000000000000000000000000000000000000000081526004016110be90613e06565b60405180910390fd5b60006063905060006064905060006004600086815260200190815260200160002090508315611581576000828483600d015461110391906142de565b61110d919061434f565b90506000805b836009018054905081101561130357600084600c015485600901838154811061113f5761113e61427b565b5b9060005260206000209060030201600101548561115c91906142de565b611166919061434f565b9050808361117491906142aa565b925084600901828154811061118c5761118b61427b565b5b906000526020600020906003020160010154816111a991906142aa565b600560008760090185815481106111c3576111c261427b565b5b906000526020600020906003020160000160009054906101000a900473ffffffffffffffffffffffffffffffffffffffff1673ffffffffffffffffffffffffffffffffffffffff1673ffffffffffffffffffffffffffffffffffffffff168152602001908152602001600020600082825461123e91906142aa565b92505081905550600685600901838154811061125d5761125c61427b565b5b906000526020600020906003020160000160009054906101000a900473ffffffffffffffffffffffffffffffffffffffff169080600181540180825580915050600190039060005260206000200160009091909190916101000a81548173ffffffffffffffffffffffffffffffffffffffff021916908373ffffffffffffffffffffffffffffffffffffffff1602179055505080806112fb90613e55565b915050611113565b5060005b60068054905081101561148e5760006006828154811061132a5761132961427b565b5b9060005260206000200160009054906101000a900473ffffffffffffffffffffffffffffffffffffffff169050600260009054906101000a900473ffffffffffffffffffffffffffffffffffffffff1673ffffffffffffffffffffffffffffffffffffffff1663a9059cbb82600560008573ffffffffffffffffffffffffffffffffffffffff1673ffffffffffffffffffffffffffffffffffffffff168152602001908152602001600020546040518363ffffffff1660e01b81526004016113f39291906143d5565b6020604051808303816000875af1158015611412573d6000803e3d6000fd5b505050506040513d601f19601f820116820180604052508101906114369190614413565b50600560008273ffffffffffffffffffffffffffffffffffffffff1673ffffffffffffffffffffffffffffffffffffffff1681526020019081526020016000206000905550808061148690613e55565b915050611307565b5060008184600d01546114a19190614440565b905060008060029054906101000a900473ffffffffffffffffffffffffffffffffffffffff169050600260009054906101000a900473ffffffffffffffffffffffffffffffffffffffff1673ffffffffffffffffffffffffffffffffffffffff1663a9059cbb82846040518363ffffffff1660e01b81526004016115269291906143d5565b6020604051808303816000875af1158015611545573d6000803e3d6000fd5b505050506040513d601f19601f820116820180604052508101906115699190614413565b50600660006115789190613186565b50505050611a0e565b6000828483600c015461159491906142de565b61159e919061434f565b90506000805b83600a018054905081101561179457600084600d015485600a0183815481106115d0576115cf61427b565b5b906000526020600020906003020160010154856115ed91906142de565b6115f7919061434f565b9050808361160591906142aa565b925084600a01828154811061161d5761161c61427b565b5b9060005260206000209060030201600101548161163a91906142aa565b6005600087600a0185815481106116545761165361427b565b5b906000526020600020906003020160000160009054906101000a900473ffffffffffffffffffffffffffffffffffffffff1673ffffffffffffffffffffffffffffffffffffffff1673ffffffffffffffffffffffffffffffffffffffff16815260200190815260200160002060008282546116cf91906142aa565b92505081905550600685600a0183815481106116ee576116ed61427b565b5b906000526020600020906003020160000160009054906101000a900473ffffffffffffffffffffffffffffffffffffffff169080600181540180825580915050600190039060005260206000200160009091909190916101000a81548173ffffffffffffffffffffffffffffffffffffffff021916908373ffffffffffffffffffffffffffffffffffffffff16021790555050808061178c90613e55565b9150506115a4565b5060005b60068054905081101561191f576000600682815481106117bb576117ba61427b565b5b9060005260206000200160009054906101000a900473ffffffffffffffffffffffffffffffffffffffff169050600260009054906101000a900473ffffffffffffffffffffffffffffffffffffffff1673ffffffffffffffffffffffffffffffffffffffff1663a9059cbb82600560008573ffffffffffffffffffffffffffffffffffffffff1673ffffffffffffffffffffffffffffffffffffffff168152602001908152602001600020546040518363ffffffff1660e01b81526004016118849291906143d5565b6020604051808303816000875af11580156118a3573d6000803e3d6000fd5b505050506040513d601f19601f820116820180604052508101906118c79190614413565b50600560008273ffffffffffffffffffffffffffffffffffffffff1673ffffffffffffffffffffffffffffffffffffffff1681526020019081526020016000206000905550808061191790613e55565b915050611798565b5060008184600c01546119329190614440565b905060008060029054906101000a900473ffffffffffffffffffffffffffffffffffffffff169050600260009054906101000a900473ffffffffffffffffffffffffffffffffffffffff1673ffffffffffffffffffffffffffffffffffffffff1663a9059cbb82846040518363ffffffff1660e01b81526004016119b79291906143d5565b6020604051808303816000875af11580156119d6573d6000803e3d6000fd5b505050506040513d601f19601f820116820180604052508101906119fa9190614413565b5060066000611a099190613186565b505050505b8381600e0160016101000a81548160ff021916908315150217905550600181600e0160006101000a81548160ff0219169083151502179055505050505050565b60035481565b600160009054906101000a900473ffffffffffffffffffffffffffffffffffffffff1681565b600060029054906101000a900473ffffffffffffffffffffffffffffffffffffffff1681565b600160009054906101000a900473ffffffffffffffffffffffffffffffffffffffff1673ffffffffffffffffffffffffffffffffffffffff163373ffffffffffffffffffffffffffffffffffffffff1614611b30576040517f08c379a0000000000000000000000000000000000000000000000000000000008152600401611b2790613e06565b60405180910390fd5b600760008273ffffffffffffffffffffffffffffffffffffffff1673ffffffffffffffffffffffffffffffffffffffff16815260200190815260200160002060009054906101000a900460ff16611bda576001600760008373ffffffffffffffffffffffffffffffffffffffff1673ffffffffffffffffffffffffffffffffffffffff16815260200190815260200160002060006101000a81548160ff0219169083151502179055505b50565b600760003373ffffffffffffffffffffffffffffffffffffffff1673ffffffffffffffffffffffffffffffffffffffff16815260200190815260200160002060009054906101000a900460ff16611c69576040517f08c379a0000000000000000000000000000000000000000000000000000000008152600401611c6090613e06565b60405180910390fd5b6000600460008381526020019081526020016000209050600860008473ffffffffffffffffffffffffffffffffffffffff1673ffffffffffffffffffffffffffffffffffffffff16815260200190815260200160002060008381526020019081526020016000206000611cdc91906131a7565b60005b8160090180549050811015611e96578373ffffffffffffffffffffffffffffffffffffffff16826009018281548110611d1b57611d1a61427b565b5b906000526020600020906003020160000160009054906101000a900473ffffffffffffffffffffffffffffffffffffffff1673ffffffffffffffffffffffffffffffffffffffff1603611e8357600860008573ffffffffffffffffffffffffffffffffffffffff1673ffffffffffffffffffffffffffffffffffffffff1681526020019081526020016000206000848152602001908152602001600020826009018281548110611dce57611dcd61427b565b5b906000526020600020906003020190806001815401808255809150506001900390600052602060002090600302016000909190919091506000820160009054906101000a900473ffffffffffffffffffffffffffffffffffffffff168160000160006101000a81548173ffffffffffffffffffffffffffffffffffffffff021916908373ffffffffffffffffffffffffffffffffffffffff160217905550600182015481600101556002820154816002015550505b8080611e8e90613e55565b915050611cdf565b50600960008473ffffffffffffffffffffffffffffffffffffffff1673ffffffffffffffffffffffffffffffffffffffff16815260200190815260200160002060008381526020019081526020016000206000611ef391906131a7565b60005b81600a01805490508110156120ad578373ffffffffffffffffffffffffffffffffffffffff1682600a018281548110611f3257611f3161427b565b5b906000526020600020906003020160000160009054906101000a900473ffffffffffffffffffffffffffffffffffffffff1673ffffffffffffffffffffffffffffffffffffffff160361209a57600960008573ffffffffffffffffffffffffffffffffffffffff1673ffffffffffffffffffffffffffffffffffffffff168152602001908152602001600020600084815260200190815260200160002082600a018281548110611fe557611fe461427b565b5b906000526020600020906003020190806001815401808255809150506001900390600052602060002090600302016000909190919091506000820160009054906101000a900473ffffffffffffffffffffffffffffffffffffffff168160000160006101000a81548173ffffffffffffffffffffffffffffffffffffffff021916908373ffffffffffffffffffffffffffffffffffffffff160217905550600182015481600101556002820154816002015550505b80806120a590613e55565b915050611ef6565b50505050565b600460205280600052604060002060009150905080600001549080600101604051806101000160405290816000820180546120ed90613ecc565b80601f016020809104026020016040519081016040528092919081815260200182805461211990613ecc565b80156121665780601f1061213b57610100808354040283529160200191612166565b820191906000526020600020905b81548152906001019060200180831161214957829003601f168201915b5050505050815260200160018201548152602001600282015481526020016003820160009054906101000a900473ffffffffffffffffffffffffffffffffffffffff1673ffffffffffffffffffffffffffffffffffffffff1673ffffffffffffffffffffffffffffffffffffffff1681526020016004820180546121e990613ecc565b80601f016020809104026020016040519081016040528092919081815260200182805461221590613ecc565b80156122625780601f1061223757610100808354040283529160200191612262565b820191906000526020600020905b81548152906001019060200180831161224557829003601f168201915b5050505050815260200160058201805461227b90613ecc565b80601f01602080910402602001604051908101604052809291908181526020018280546122a790613ecc565b80156122f45780601f106122c9576101008083540402835291602001916122f4565b820191906000526020600020905b8154815290600101906020018083116122d757829003601f168201915b5050505050815260200160068201805461230d90613ecc565b80601f016020809104026020016040519081016040528092919081815260200182805461233990613ecc565b80156123865780601f1061235b57610100808354040283529160200191612386565b820191906000526020600020905b81548152906001019060200180831161236957829003601f168201915b505050505081526020016007820160009054906101000a900460ff1615151515815250509080600b01549080600c01549080600d01549080600e0160009054906101000a900460ff169080600e0160019054906101000a900460ff16905087565b600260009054906101000a900473ffffffffffffffffffffffffffffffffffffffff1673ffffffffffffffffffffffffffffffffffffffff1663dd62ed3e33306040518363ffffffff1660e01b8152600401612444929190614474565b602060405180830381865afa158015612461573d6000803e3d6000fd5b505050506040513d601f19601f8201168201806040525081019061248591906144b2565b8111156124c7576040517f08c379a00000000000000000000000000000000000000000000000000000000081526004016124be90614551565b60405180910390fd5b6000600460008481526020019081526020016000209050600260009054906101000a900473ffffffffffffffffffffffffffffffffffffffff1673ffffffffffffffffffffffffffffffffffffffff166323b872dd3330856040518463ffffffff1660e01b815260040161253d93929190614571565b6020604051808303816000875af115801561255c573d6000803e3d6000fd5b505050506040513d601f19601f820116820180604052508101906125809190614413565b50600060405180606001604052803373ffffffffffffffffffffffffffffffffffffffff1681526020018481526020014281525090508282600d0160008282546125ca91906142aa565b925050819055508282600b0160008282546125e591906142aa565b9250508190555081600a0181908060018154018082558091505060019003906000526020600020906003020160009091909190915060008201518160000160006101000a81548173ffffffffffffffffffffffffffffffffffffffff021916908373ffffffffffffffffffffffffffffffffffffffff16021790555060208201518160010155604082015181600201555050600960003373ffffffffffffffffffffffffffffffffffffffff1673ffffffffffffffffffffffffffffffffffffffff168152602001908152602001600020600085815260200190815260200160002081908060018154018082558091505060019003906000526020600020906003020160009091909190915060008201518160000160006101000a81548173ffffffffffffffffffffffffffffffffffffffff021916908373ffffffffffffffffffffffffffffffffffffffff1602179055506020820151816001015560408201518160020155505050505050565b60008060019054906101000a900460ff161590508080156127855750600160008054906101000a900460ff1660ff16105b806127b257506127943061310d565b1580156127b15750600160008054906101000a900460ff1660ff16145b5b6127f1576040517f08c379a00000000000000000000000000000000000000000000000000000000081526004016127e89061461a565b60405180910390fd5b60016000806101000a81548160ff021916908360ff160217905550801561282e576001600060016101000a81548160ff0219169083151502179055505b81600260006101000a81548173ffffffffffffffffffffffffffffffffffffffff021916908373ffffffffffffffffffffffffffffffffffffffff16021790555033600160006101000a81548173ffffffffffffffffffffffffffffffffffffffff021916908373ffffffffffffffffffffffffffffffffffffffff160217905550600160009054906101000a900473ffffffffffffffffffffffffffffffffffffffff16600060026101000a81548173ffffffffffffffffffffffffffffffffffffffff021916908373ffffffffffffffffffffffffffffffffffffffff160217905550600160076000600160009054906101000a900473ffffffffffffffffffffffffffffffffffffffff1673ffffffffffffffffffffffffffffffffffffffff1673ffffffffffffffffffffffffffffffffffffffff16815260200190815260200160002060006101000a81548160ff02191690831515021790555080156129e65760008060016101000a81548160ff0219169083151502179055507f7f26b83ff96e1f2b6a682f133852f6798a09c465da95921460cefb384740249860016040516129dd9190614682565b60405180910390a15b5050565b606080600860008573ffffffffffffffffffffffffffffffffffffffff1673ffffffffffffffffffffffffffffffffffffffff1681526020019081526020016000206000848152602001908152602001600020600960008673ffffffffffffffffffffffffffffffffffffffff1673ffffffffffffffffffffffffffffffffffffffff168152602001908152602001600020600085815260200190815260200160002081805480602002602001604051908101604052809291908181526020016000905b82821015612b4a57838290600052602060002090600302016040518060600160405290816000820160009054906101000a900473ffffffffffffffffffffffffffffffffffffffff1673ffffffffffffffffffffffffffffffffffffffff1673ffffffffffffffffffffffffffffffffffffffff1681526020016001820154815260200160028201548152505081526020019060010190612aae565b50505050915080805480602002602001604051908101604052809291908181526020016000905b82821015612c0d57838290600052602060002090600302016040518060600160405290816000820160009054906101000a900473ffffffffffffffffffffffffffffffffffffffff1673ffffffffffffffffffffffffffffffffffffffff1673ffffffffffffffffffffffffffffffffffffffff1681526020016001820154815260200160028201548152505081526020019060010190612b71565b505050509050915091509250929050565b600260009054906101000a900473ffffffffffffffffffffffffffffffffffffffff1673ffffffffffffffffffffffffffffffffffffffff1663dd62ed3e33306040518363ffffffff1660e01b8152600401612c7b929190614474565b602060405180830381865afa158015612c98573d6000803e3d6000fd5b505050506040513d601f19601f82011682018060405250810190612cbc91906144b2565b811115612cfe576040517f08c379a0000000000000000000000000000000000000000000000000000000008152600401612cf590614551565b60405180910390fd5b6000600460008481526020019081526020016000209050600260009054906101000a900473ffffffffffffffffffffffffffffffffffffffff1673ffffffffffffffffffffffffffffffffffffffff166323b872dd3330856040518463ffffffff1660e01b8152600401612d7493929190614571565b6020604051808303816000875af1158015612d93573d6000803e3d6000fd5b505050506040513d601f19601f82011682018060405250810190612db79190614413565b50600060405180606001604052803373ffffffffffffffffffffffffffffffffffffffff1681526020018481526020014281525090508282600c016000828254612e0191906142aa565b925050819055508282600b016000828254612e1c91906142aa565b925050819055508160090181908060018154018082558091505060019003906000526020600020906003020160009091909190915060008201518160000160006101000a81548173ffffffffffffffffffffffffffffffffffffffff021916908373ffffffffffffffffffffffffffffffffffffffff16021790555060208201518160010155604082015181600201555050600860003373ffffffffffffffffffffffffffffffffffffffff1673ffffffffffffffffffffffffffffffffffffffff168152602001908152602001600020600085815260200190815260200160002081908060018154018082558091505060019003906000526020600020906003020160009091909190915060008201518160000160006101000a81548173ffffffffffffffffffffffffffffffffffffffff021916908373ffffffffffffffffffffffffffffffffffffffff1602179055506020820151816001015560408201518160020155505050505050565b600260009054906101000a900473ffffffffffffffffffffffffffffffffffffffff1681565b600160009054906101000a900473ffffffffffffffffffffffffffffffffffffffff1673ffffffffffffffffffffffffffffffffffffffff163373ffffffffffffffffffffffffffffffffffffffff1614613041576040517f08c379a000000000000000000000000000000000000000000000000000000000815260040161303890613e06565b60405180910390fd5b80600160006101000a81548173ffffffffffffffffffffffffffffffffffffffff021916908373ffffffffffffffffffffffffffffffffffffffff16021790555050565b60008060008590505b60035481101561310057831580156130c957506004600082815260200190815260200160002060010160070160009054906101000a900460ff165b6130ed5781806130d890613e55565b9250508482106130ec578192505050613106565b5b80806130f890613e55565b91505061308e565b50809150505b9392505050565b6000808273ffffffffffffffffffffffffffffffffffffffff163b119050919050565b6040518061012001604052806000815260200161314b6131cb565b815260200160608152602001606081526020016000815260200160008152602001600081526020016000151581526020016000151581525090565b50805460008255906000526020600020908101906131a49190613228565b50565b50805460008255600302906000526020600020908101906131c89190613245565b50565b604051806101000160405280606081526020016000815260200160008152602001600073ffffffffffffffffffffffffffffffffffffffff1681526020016060815260200160608152602001606081526020016000151581525090565b5b80821115613241576000816000905550600101613229565b5090565b5b8082111561328f57600080820160006101000a81549073ffffffffffffffffffffffffffffffffffffffff02191690556001820160009055600282016000905550600301613246565b5090565b6000604051905090565b600080fd5b600080fd5b600080fd5b600080fd5b6000601f19601f8301169050919050565b7f4e487b7100000000000000000000000000000000000000000000000000000000600052604160045260246000fd5b6132fa826132b1565b810181811067ffffffffffffffff82111715613319576133186132c2565b5b80604052505050565b600061332c613293565b905061333882826132f1565b919050565b600067ffffffffffffffff821115613358576133576132c2565b5b613361826132b1565b9050602081019050919050565b82818337600083830152505050565b600061339061338b8461333d565b613322565b9050828152602081018484840111156133ac576133ab6132ac565b5b6133b784828561336e565b509392505050565b600082601f8301126133d4576133d36132a7565b5b81356133e484826020860161337d565b91505092915050565b6000819050919050565b613400816133ed565b811461340b57600080fd5b50565b60008135905061341d816133f7565b92915050565b60008115159050919050565b61343881613423565b811461344357600080fd5b50565b6000813590506134558161342f565b92915050565b60008060008060008060c087890312156134785761347761329d565b5b600087013567ffffffffffffffff811115613496576134956132a2565b5b6134a289828a016133bf565b965050602087013567ffffffffffffffff8111156134c3576134c26132a2565b5b6134cf89828a016133bf565b955050604087013567ffffffffffffffff8111156134f0576134ef6132a2565b5b6134fc89828a016133bf565b945050606087013567ffffffffffffffff81111561351d5761351c6132a2565b5b61352989828a016133bf565b935050608061353a89828a0161340e565b92505060a061354b89828a01613446565b9150509295509295509295565b60006020828403121561356e5761356d61329d565b5b600061357c8482850161340e565b91505092915050565b600081519050919050565b600082825260208201905092915050565b6000819050602082019050919050565b600073ffffffffffffffffffffffffffffffffffffffff82169050919050565b60006135dc826135b1565b9050919050565b6135ec816135d1565b82525050565b6135fb816133ed565b82525050565b60608201600082015161361760008501826135e3565b50602082015161362a60208501826135f2565b50604082015161363d60408501826135f2565b50505050565b600061364f8383613601565b60608301905092915050565b6000602082019050919050565b600061367382613585565b61367d8185613590565b9350613688836135a1565b8060005b838110156136b95781516136a08882613643565b97506136ab8361365b565b92505060018101905061368c565b5085935050505092915050565b600060408201905081810360008301526136e08185613668565b905081810360208301526136f48184613668565b90509392505050565b613706816135d1565b811461371157600080fd5b50565b600081359050613723816136fd565b92915050565b60006020828403121561373f5761373e61329d565b5b600061374d84828501613714565b91505092915050565b60008060006060848603121561376f5761376e61329d565b5b600061377d8682870161340e565b935050602061378e8682870161340e565b925050604061379f86828701613446565b9150509250925092565b600081519050919050565b600082825260208201905092915050565b6000819050602082019050919050565b600081519050919050565b600082825260208201905092915050565b60005b8381101561380f5780820151818401526020810190506137f4565b60008484015250505050565b6000613826826137d5565b61383081856137e0565b93506138408185602086016137f1565b613849816132b1565b840191505092915050565b61385d81613423565b82525050565b6000610100830160008301518482036000860152613881828261381b565b915050602083015161389660208601826135f2565b5060408301516138a960408601826135f2565b5060608301516138bc60608601826135e3565b50608083015184820360808601526138d4828261381b565b91505060a083015184820360a08601526138ee828261381b565b91505060c083015184820360c0860152613908828261381b565b91505060e083015161391d60e0860182613854565b508091505092915050565b600082825260208201905092915050565b600061394482613585565b61394e8185613928565b9350613959836135a1565b8060005b8381101561398a5781516139718882613643565b975061397c8361365b565b92505060018101905061395d565b5085935050505092915050565b6000610120830160008301516139b060008601826135f2565b50602083015184820360208601526139c88282613863565b915050604083015184820360408601526139e28282613939565b915050606083015184820360608601526139fc8282613939565b9150506080830151613a1160808601826135f2565b5060a0830151613a2460a08601826135f2565b5060c0830151613a3760c08601826135f2565b5060e0830151613a4a60e0860182613854565b50610100830151613a5f610100860182613854565b508091505092915050565b6000613a768383613997565b905092915050565b6000602082019050919050565b6000613a96826137a9565b613aa081856137b4565b935083602082028501613ab2856137c5565b8060005b85811015613aee5784840389528151613acf8582613a6a565b9450613ada83613a7e565b925060208a01995050600181019050613ab6565b50829750879550505050505092915050565b613b09816133ed565b82525050565b60006040820190508181036000830152613b298185613a8b565b9050613b386020830184613b00565b9392505050565b613b4881613423565b82525050565b6000602082019050613b636000830184613b3f565b92915050565b60008060408385031215613b8057613b7f61329d565b5b6000613b8e8582860161340e565b9250506020613b9f85828601613446565b9150509250929050565b6000602082019050613bbe6000830184613b00565b92915050565b613bcd816135d1565b82525050565b6000602082019050613be86000830184613bc4565b92915050565b60008060408385031215613c0557613c0461329d565b5b6000613c1385828601613714565b9250506020613c248582860161340e565b9150509250929050565b6000610100830160008301518482036000860152613c4c828261381b565b9150506020830151613c6160208601826135f2565b506040830151613c7460408601826135f2565b506060830151613c8760608601826135e3565b5060808301518482036080860152613c9f828261381b565b91505060a083015184820360a0860152613cb9828261381b565b91505060c083015184820360c0860152613cd3828261381b565b91505060e0830151613ce860e0860182613854565b508091505092915050565b600060e082019050613d08600083018a613b00565b8181036020830152613d1a8189613c2e565b9050613d296040830188613b00565b613d366060830187613b00565b613d436080830186613b00565b613d5060a0830185613b3f565b613d5d60c0830184613b3f565b98975050505050505050565b60008060408385031215613d8057613d7f61329d565b5b6000613d8e8582860161340e565b9250506020613d9f8582860161340e565b9150509250929050565b600082825260208201905092915050565b7f556e617574686f72697a65640000000000000000000000000000000000000000600082015250565b6000613df0600c83613da9565b9150613dfb82613dba565b602082019050919050565b60006020820190508181036000830152613e1f81613de3565b9050919050565b7f4e487b7100000000000000000000000000000000000000000000000000000000600052601160045260246000fd5b6000613e60826133ed565b91507fffffffffffffffffffffffffffffffffffffffffffffffffffffffffffffffff8203613e9257613e91613e26565b5b600182019050919050565b7f4e487b7100000000000000000000000000000000000000000000000000000000600052602260045260246000fd5b60006002820490506001821680613ee457607f821691505b602082108103613ef757613ef6613e9d565b5b50919050565b60008190508160005260206000209050919050565b60006020601f8301049050919050565b600082821b905092915050565b600060088302613f5f7fffffffffffffffffffffffffffffffffffffffffffffffffffffffffffffffff82613f22565b613f698683613f22565b95508019841693508086168417925050509392505050565b6000819050919050565b6000613fa6613fa1613f9c846133ed565b613f81565b6133ed565b9050919050565b6000819050919050565b613fc083613f8b565b613fd4613fcc82613fad565b848454613f2f565b825550505050565b600090565b613fe9613fdc565b613ff4818484613fb7565b505050565b5b818110156140185761400d600082613fe1565b600181019050613ffa565b5050565b601f82111561405d5761402e81613efd565b61403784613f12565b81016020851015614046578190505b61405a61405285613f12565b830182613ff9565b50505b505050565b600082821c905092915050565b600061408060001984600802614062565b1980831691505092915050565b6000614099838361406f565b9150826002028217905092915050565b6140b2826137d5565b67ffffffffffffffff8111156140cb576140ca6132c2565b5b6140d58254613ecc565b6140e082828561401c565b600060209050601f8311600181146141135760008415614101578287015190505b61410b858261408d565b865550614173565b601f19841661412186613efd565b60005b8281101561414957848901518255600182019150602085019450602081019050614124565b868310156141665784890151614162601f89168261406f565b8355505b6001600288020188555050505b505050505050565b6000614186826137d5565b6141908185613da9565b93506141a08185602086016137f1565b6141a9816132b1565b840191505092915050565b6000819050919050565b60006141d96141d46141cf846141b4565b613f81565b6133ed565b9050919050565b6141e9816141be565b82525050565b600061010082019050614205600083018b613b00565b8181036020830152614217818a61417b565b90506142266040830189613b00565b6142336060830188613bc4565b8181036080830152614245818761417b565b905061425460a08301866141e0565b61426160c08301856141e0565b61426e60e08301846141e0565b9998505050505050505050565b7f4e487b7100000000000000000000000000000000000000000000000000000000600052603260045260246000fd5b60006142b5826133ed565b91506142c0836133ed565b92508282019050808211156142d8576142d7613e26565b5b92915050565b60006142e9826133ed565b91506142f4836133ed565b9250828202614302816133ed565b9150828204841483151761431957614318613e26565b5b5092915050565b7f4e487b7100000000000000000000000000000000000000000000000000000000600052601260045260246000fd5b600061435a826133ed565b9150614365836133ed565b92508261437557614374614320565b5b828204905092915050565b600061439b614396614391846135b1565b613f81565b6135b1565b9050919050565b60006143ad82614380565b9050919050565b60006143bf826143a2565b9050919050565b6143cf816143b4565b82525050565b60006040820190506143ea60008301856143c6565b6143f76020830184613b00565b9392505050565b60008151905061440d8161342f565b92915050565b6000602082840312156144295761442861329d565b5b6000614437848285016143fe565b91505092915050565b600061444b826133ed565b9150614456836133ed565b925082820390508181111561446e5761446d613e26565b5b92915050565b60006040820190506144896000830185613bc4565b6144966020830184613bc4565b9392505050565b6000815190506144ac816133f7565b92915050565b6000602082840312156144c8576144c761329d565b5b60006144d68482850161449d565b91505092915050565b7f4e6f7420616c6c6f77656420746f207370656e64207468697320616d6f756e7460008201527f2e00000000000000000000000000000000000000000000000000000000000000602082015250565b600061453b602183613da9565b9150614546826144df565b604082019050919050565b6000602082019050818103600083015261456a8161452e565b9050919050565b60006060820190506145866000830186613bc4565b6145936020830185613bc4565b6145a06040830184613b00565b949350505050565b7f496e697469616c697a61626c653a20636f6e747261637420697320616c72656160008201527f647920696e697469616c697a6564000000000000000000000000000000000000602082015250565b6000614604602e83613da9565b915061460f826145a8565b604082019050919050565b60006020820190508181036000830152614633816145f7565b9050919050565b6000819050919050565b600060ff82169050919050565b600061466c6146676146628461463a565b613f81565b614644565b9050919050565b61467c81614651565b82525050565b60006020820190506146976000830184614673565b9291505056fea264697066735822122098773890f9cc7ba216259b31f2b0ce79abfb76b87e4e3307e9c6527c71a78af864736f6c63430008120033",
    "linkReferences": {},
    "deployedLinkReferences": {}
}