{
  "_format": "hh-sol-artifact-1",
  "contractName": "PredictionWorld2",
  "sourceName": "contracts/PredictionWorld2.sol",
  "abi": [
    {
      "inputs": [
        {
          "internalType": "address",
          "name": "_sureToken",
          "type": "address"
        }
      ],
      "stateMutability": "nonpayable",
      "type": "constructor"
    },
    {
      "anonymous": false,
      "inputs": [
        {
          "indexed": false,
          "internalType": "uint256",
          "name": "id",
          "type": "uint256"
        },
        {
          "indexed": false,
          "internalType": "string",
          "name": "market",
          "type": "string"
        },
        {
          "indexed": false,
          "internalType": "uint256",
          "name": "timestamp",
          "type": "uint256"
        },
        {
          "indexed": false,
          "internalType": "address",
          "name": "createdBy",
          "type": "address"
        },
        {
          "indexed": false,
          "internalType": "uint256",
          "name": "totalAmount",
          "type": "uint256"
        },
        {
          "indexed": false,
          "internalType": "uint256",
          "name": "totalYesAmount",
          "type": "uint256"
        },
        {
          "indexed": false,
          "internalType": "uint256",
          "name": "totalNoAmount",
          "type": "uint256"
        }
      ],
      "name": "MarketCreated",
      "type": "event"
    },
    {
      "inputs": [
        {
          "internalType": "uint256",
          "name": "_marketId",
          "type": "uint256"
        },
        {
          "internalType": "uint256",
          "name": "_value",
          "type": "uint256"
        }
      ],
      "name": "addNoBet",
      "outputs": [],
      "stateMutability": "payable",
      "type": "function"
    },
    {
      "inputs": [
        {
          "internalType": "uint256",
          "name": "_marketId",
          "type": "uint256"
        },
        {
          "internalType": "uint256",
          "name": "_value",
          "type": "uint256"
        }
      ],
      "name": "addYesBet",
      "outputs": [],
      "stateMutability": "payable",
      "type": "function"
    },
    {
      "inputs": [
        {
          "internalType": "string",
          "name": "_market",
          "type": "string"
        },
        {
          "internalType": "string",
          "name": "_description",
          "type": "string"
        },
        {
          "internalType": "string",
          "name": "_resolverUrl",
          "type": "string"
        },
        {
          "internalType": "uint256",
          "name": "_endTimestamp",
          "type": "uint256"
        }
      ],
      "name": "createMarket",
      "outputs": [],
      "stateMutability": "nonpayable",
      "type": "function"
    },
    {
      "inputs": [
        {
          "internalType": "uint256",
          "name": "_marketId",
          "type": "uint256"
        },
        {
          "internalType": "bool",
          "name": "eventOutcome",
          "type": "bool"
        }
      ],
      "name": "distributeWinningAmount",
      "outputs": [],
      "stateMutability": "payable",
      "type": "function"
    },
    {
      "inputs": [
        {
          "internalType": "uint256",
          "name": "",
          "type": "uint256"
        }
      ],
      "name": "markets",
      "outputs": [
        {
          "internalType": "uint256",
          "name": "id",
          "type": "uint256"
        },
        {
          "internalType": "string",
          "name": "market",
          "type": "string"
        },
        {
          "internalType": "uint256",
          "name": "timestamp",
          "type": "uint256"
        },
        {
          "internalType": "uint256",
          "name": "endTimestamp",
          "type": "uint256"
        },
        {
          "internalType": "address",
          "name": "createdBy",
          "type": "address"
        },
        {
          "internalType": "uint256",
          "name": "totalAmount",
          "type": "uint256"
        },
        {
          "internalType": "uint256",
          "name": "totalYesAmount",
          "type": "uint256"
        },
        {
          "internalType": "uint256",
          "name": "totalNoAmount",
          "type": "uint256"
        },
        {
          "internalType": "bool",
          "name": "marketClosed",
          "type": "bool"
        },
        {
          "internalType": "string",
          "name": "description",
          "type": "string"
        },
        {
          "internalType": "string",
          "name": "resolverUrl",
          "type": "string"
        }
      ],
      "stateMutability": "view",
      "type": "function"
    },
    {
      "inputs": [],
      "name": "owner",
      "outputs": [
        {
          "internalType": "address",
          "name": "",
          "type": "address"
        }
      ],
      "stateMutability": "view",
      "type": "function"
    },
    {
      "inputs": [],
      "name": "sureToken2",
      "outputs": [
        {
          "internalType": "address",
          "name": "",
          "type": "address"
        }
      ],
      "stateMutability": "view",
      "type": "function"
    },
    {
      "inputs": [],
      "name": "totalMarkets",
      "outputs": [
        {
          "internalType": "uint256",
          "name": "",
          "type": "uint256"
        }
      ],
      "stateMutability": "view",
      "type": "function"
    },
    {
      "inputs": [
        {
          "internalType": "uint256",
          "name": "",
          "type": "uint256"
        }
      ],
      "name": "winAddresses",
      "outputs": [
        {
          "internalType": "address",
          "name": "",
          "type": "address"
        }
      ],
      "stateMutability": "view",
      "type": "function"
    },
    {
      "inputs": [
        {
          "internalType": "address",
          "name": "",
          "type": "address"
        }
      ],
      "name": "winAmounts",
      "outputs": [
        {
          "internalType": "uint256",
          "name": "",
          "type": "uint256"
        }
      ],
      "stateMutability": "view",
      "type": "function"
    }
  ],
  "bytecode": "0x608060405260006002553480156200001657600080fd5b50604051620022de380380620022de83398181016040528101906200003c91906200012e565b336000806101000a81548173ffffffffffffffffffffffffffffffffffffffff021916908373ffffffffffffffffffffffffffffffffffffffff16021790555080600160006101000a81548173ffffffffffffffffffffffffffffffffffffffff021916908373ffffffffffffffffffffffffffffffffffffffff1602179055505062000160565b600080fd5b600073ffffffffffffffffffffffffffffffffffffffff82169050919050565b6000620000f682620000c9565b9050919050565b6200010881620000e9565b81146200011457600080fd5b50565b6000815190506200012881620000fd565b92915050565b600060208284031215620001475762000146620000c4565b5b6000620001578482850162000117565b91505092915050565b61216e80620001706000396000f3fe6080604052600436106100915760003560e01c80639229cca9116100595780639229cca91461015c578063b1283e7714610199578063bf01fe00146101e0578063d5ea664f146101fc578063eb3f75e21461023957610091565b8063267e4c7f14610096578063724ba40b146100c157806376e00406146100dd5780638162486b146101065780638da5cb5b14610131575b600080fd5b3480156100a257600080fd5b506100ab610255565b6040516100b8919061141f565b60405180910390f35b6100db60048036038101906100d691906114bc565b61027b565b005b3480156100e957600080fd5b5061010460048036038101906100ff9190611642565b610a11565b005b34801561011257600080fd5b5061011b610bd4565b604051610128919061170c565b60405180910390f35b34801561013d57600080fd5b50610146610bda565b604051610153919061141f565b60405180910390f35b34801561016857600080fd5b50610183600480360381019061017e9190611727565b610bfe565b604051610190919061141f565b60405180910390f35b3480156101a557600080fd5b506101c060048036038101906101bb9190611727565b610c3d565b6040516101d79b9a999897969594939291906117e2565b60405180910390f35b6101fa60048036038101906101f591906118a2565b610e5c565b005b34801561020857600080fd5b50610223600480360381019061021e919061190e565b6110f2565b604051610230919061170c565b60405180910390f35b610253600480360381019061024e91906118a2565b61110a565b005b600160009054906101000a900473ffffffffffffffffffffffffffffffffffffffff1681565b60008054906101000a900473ffffffffffffffffffffffffffffffffffffffff1673ffffffffffffffffffffffffffffffffffffffff163373ffffffffffffffffffffffffffffffffffffffff1614610309576040517f08c379a000000000000000000000000000000000000000000000000000000000815260040161030090611987565b60405180910390fd5b600060036000848152602001908152602001600020905081156106ae5760005b816005018054905081101561050f5760008260080154836005018381548110610355576103546119a7565b5b9060005260206000209060030201600101546103719190611a34565b83600901546103809190611a65565b9050826005018281548110610398576103976119a7565b5b906000526020600020906003020160010154816103b59190611aa7565b600460008560050185815481106103cf576103ce6119a7565b5b906000526020600020906003020160000160009054906101000a900473ffffffffffffffffffffffffffffffffffffffff1673ffffffffffffffffffffffffffffffffffffffff1673ffffffffffffffffffffffffffffffffffffffff168152602001908152602001600020600082825461044a9190611aa7565b925050819055506005836005018381548110610469576104686119a7565b5b906000526020600020906003020160000160009054906101000a900473ffffffffffffffffffffffffffffffffffffffff169080600181540180825580915050600190039060005260206000200160009091909190916101000a81548173ffffffffffffffffffffffffffffffffffffffff021916908373ffffffffffffffffffffffffffffffffffffffff16021790555050808061050790611adb565b915050610329565b5060005b60058054905081101561069a57600060058281548110610536576105356119a7565b5b9060005260206000200160009054906101000a900473ffffffffffffffffffffffffffffffffffffffff169050600160009054906101000a900473ffffffffffffffffffffffffffffffffffffffff1673ffffffffffffffffffffffffffffffffffffffff1663a9059cbb82600460008573ffffffffffffffffffffffffffffffffffffffff1673ffffffffffffffffffffffffffffffffffffffff168152602001908152602001600020546040518363ffffffff1660e01b81526004016105ff929190611b82565b6020604051808303816000875af115801561061e573d6000803e3d6000fd5b505050506040513d601f19601f820116820180604052508101906106429190611bc0565b50600460008273ffffffffffffffffffffffffffffffffffffffff1673ffffffffffffffffffffffffffffffffffffffff1681526020019081526020016000206000905550808061069290611adb565b915050610513565b50600560006106a991906113a0565b6109ef565b60005b816006018054905081101561089757600082600901548360060183815481106106dd576106dc6119a7565b5b9060005260206000209060030201600101546106f99190611a34565b83600801546107089190611a65565b90508260060182815481106107205761071f6119a7565b5b9060005260206000209060030201600101548161073d9190611aa7565b60046000856006018581548110610757576107566119a7565b5b906000526020600020906003020160000160009054906101000a900473ffffffffffffffffffffffffffffffffffffffff1673ffffffffffffffffffffffffffffffffffffffff1673ffffffffffffffffffffffffffffffffffffffff16815260200190815260200160002060008282546107d29190611aa7565b9250508190555060058360060183815481106107f1576107f06119a7565b5b906000526020600020906003020160000160009054906101000a900473ffffffffffffffffffffffffffffffffffffffff169080600181540180825580915050600190039060005260206000200160009091909190916101000a81548173ffffffffffffffffffffffffffffffffffffffff021916908373ffffffffffffffffffffffffffffffffffffffff16021790555050808061088f90611adb565b9150506106b1565b5060005b6005805490508110156109df576000600582815481106108be576108bd6119a7565b5b9060005260206000200160009054906101000a900473ffffffffffffffffffffffffffffffffffffffff169050600160009054906101000a900473ffffffffffffffffffffffffffffffffffffffff1673ffffffffffffffffffffffffffffffffffffffff1663a9059cbb82600460008573ffffffffffffffffffffffffffffffffffffffff1673ffffffffffffffffffffffffffffffffffffffff168152602001908152602001600020546040518363ffffffff1660e01b8152600401610987929190611b82565b6020604051808303816000875af11580156109a6573d6000803e3d6000fd5b505050506040513d601f19601f820116820180604052508101906109ca9190611bc0565b505080806109d790611adb565b91505061089b565b50600560006109ee91906113a0565b5b600181600a0160006101000a81548160ff021916908315150217905550505050565b60008054906101000a900473ffffffffffffffffffffffffffffffffffffffff1673ffffffffffffffffffffffffffffffffffffffff163373ffffffffffffffffffffffffffffffffffffffff1614610a9f576040517f08c379a0000000000000000000000000000000000000000000000000000000008152600401610a9690611987565b60405180910390fd5b60004290506000600360006002548152602001908152602001600020905060026000815480929190610ad090611adb565b91905055816000018190555085816001019081610aed9190611def565b50818160020181905550338160040160006101000a81548173ffffffffffffffffffffffffffffffffffffffff021916908373ffffffffffffffffffffffffffffffffffffffff1602179055506000816007018190555060008160080181905550600081600901819055508481600b019081610b699190611def565b508381600c019081610b7b9190611def565b508281600301819055507f1678d04b9a8722a21d8b0aa6e62eb265936b83af60e99054672e0f4ffc6eb9906002548784336000806000604051610bc49796959493929190611efc565b60405180910390a1505050505050565b60025481565b60008054906101000a900473ffffffffffffffffffffffffffffffffffffffff1681565b60058181548110610c0e57600080fd5b906000526020600020016000915054906101000a900473ffffffffffffffffffffffffffffffffffffffff1681565b6003602052806000526040600020600091509050806000015490806001018054610c6690611c1c565b80601f0160208091040260200160405190810160405280929190818152602001828054610c9290611c1c565b8015610cdf5780601f10610cb457610100808354040283529160200191610cdf565b820191906000526020600020905b815481529060010190602001808311610cc257829003601f168201915b5050505050908060020154908060030154908060040160009054906101000a900473ffffffffffffffffffffffffffffffffffffffff169080600701549080600801549080600901549080600a0160009054906101000a900460ff169080600b018054610d4b90611c1c565b80601f0160208091040260200160405190810160405280929190818152602001828054610d7790611c1c565b8015610dc45780601f10610d9957610100808354040283529160200191610dc4565b820191906000526020600020905b815481529060010190602001808311610da757829003601f168201915b50505050509080600c018054610dd990611c1c565b80601f0160208091040260200160405190810160405280929190818152602001828054610e0590611c1c565b8015610e525780601f10610e2757610100808354040283529160200191610e52565b820191906000526020600020905b815481529060010190602001808311610e3557829003601f168201915b505050505090508b565b600160009054906101000a900473ffffffffffffffffffffffffffffffffffffffff1673ffffffffffffffffffffffffffffffffffffffff1663dd62ed3e33306040518363ffffffff1660e01b8152600401610eb9929190611f72565b602060405180830381865afa158015610ed6573d6000803e3d6000fd5b505050506040513d601f19601f82011682018060405250810190610efa9190611fb0565b811115610f3c576040517f08c379a0000000000000000000000000000000000000000000000000000000008152600401610f339061204f565b60405180910390fd5b6000600360008481526020019081526020016000209050600160009054906101000a900473ffffffffffffffffffffffffffffffffffffffff1673ffffffffffffffffffffffffffffffffffffffff166323b872dd3330856040518463ffffffff1660e01b8152600401610fb29392919061206f565b6020604051808303816000875af1158015610fd1573d6000803e3d6000fd5b505050506040513d601f19601f82011682018060405250810190610ff59190611bc0565b50600060405180606001604052803373ffffffffffffffffffffffffffffffffffffffff1681526020018481526020014281525090508282600901600082825461103f9190611aa7565b925050819055508282600701600082825461105a9190611aa7565b925050819055508160060181908060018154018082558091505060019003906000526020600020906003020160009091909190915060008201518160000160006101000a81548173ffffffffffffffffffffffffffffffffffffffff021916908373ffffffffffffffffffffffffffffffffffffffff1602179055506020820151816001015560408201518160020155505050505050565b60046020528060005260406000206000915090505481565b600160009054906101000a900473ffffffffffffffffffffffffffffffffffffffff1673ffffffffffffffffffffffffffffffffffffffff1663dd62ed3e33306040518363ffffffff1660e01b8152600401611167929190611f72565b602060405180830381865afa158015611184573d6000803e3d6000fd5b505050506040513d601f19601f820116820180604052508101906111a89190611fb0565b8111156111ea576040517f08c379a00000000000000000000000000000000000000000000000000000000081526004016111e190612118565b60405180910390fd5b6000600360008481526020019081526020016000209050600160009054906101000a900473ffffffffffffffffffffffffffffffffffffffff1673ffffffffffffffffffffffffffffffffffffffff166323b872dd3330856040518463ffffffff1660e01b81526004016112609392919061206f565b6020604051808303816000875af115801561127f573d6000803e3d6000fd5b505050506040513d601f19601f820116820180604052508101906112a39190611bc0565b50600060405180606001604052803373ffffffffffffffffffffffffffffffffffffffff168152602001848152602001428152509050828260080160008282546112ed9190611aa7565b92505081905550828260070160008282546113089190611aa7565b925050819055508160050181908060018154018082558091505060019003906000526020600020906003020160009091909190915060008201518160000160006101000a81548173ffffffffffffffffffffffffffffffffffffffff021916908373ffffffffffffffffffffffffffffffffffffffff1602179055506020820151816001015560408201518160020155505050505050565b50805460008255906000526020600020908101906113be91906113c1565b50565b5b808211156113da5760008160009055506001016113c2565b5090565b600073ffffffffffffffffffffffffffffffffffffffff82169050919050565b6000611409826113de565b9050919050565b611419816113fe565b82525050565b60006020820190506114346000830184611410565b92915050565b6000604051905090565b600080fd5b600080fd5b6000819050919050565b6114618161144e565b811461146c57600080fd5b50565b60008135905061147e81611458565b92915050565b60008115159050919050565b61149981611484565b81146114a457600080fd5b50565b6000813590506114b681611490565b92915050565b600080604083850312156114d3576114d2611444565b5b60006114e18582860161146f565b92505060206114f2858286016114a7565b9150509250929050565b600080fd5b600080fd5b6000601f19601f8301169050919050565b7f4e487b7100000000000000000000000000000000000000000000000000000000600052604160045260246000fd5b61154f82611506565b810181811067ffffffffffffffff8211171561156e5761156d611517565b5b80604052505050565b600061158161143a565b905061158d8282611546565b919050565b600067ffffffffffffffff8211156115ad576115ac611517565b5b6115b682611506565b9050602081019050919050565b82818337600083830152505050565b60006115e56115e084611592565b611577565b90508281526020810184848401111561160157611600611501565b5b61160c8482856115c3565b509392505050565b600082601f830112611629576116286114fc565b5b81356116398482602086016115d2565b91505092915050565b6000806000806080858703121561165c5761165b611444565b5b600085013567ffffffffffffffff81111561167a57611679611449565b5b61168687828801611614565b945050602085013567ffffffffffffffff8111156116a7576116a6611449565b5b6116b387828801611614565b935050604085013567ffffffffffffffff8111156116d4576116d3611449565b5b6116e087828801611614565b92505060606116f18782880161146f565b91505092959194509250565b6117068161144e565b82525050565b600060208201905061172160008301846116fd565b92915050565b60006020828403121561173d5761173c611444565b5b600061174b8482850161146f565b91505092915050565b600081519050919050565b600082825260208201905092915050565b60005b8381101561178e578082015181840152602081019050611773565b60008484015250505050565b60006117a582611754565b6117af818561175f565b93506117bf818560208601611770565b6117c881611506565b840191505092915050565b6117dc81611484565b82525050565b6000610160820190506117f8600083018e6116fd565b818103602083015261180a818d61179a565b9050611819604083018c6116fd565b611826606083018b6116fd565b611833608083018a611410565b61184060a08301896116fd565b61184d60c08301886116fd565b61185a60e08301876116fd565b6118686101008301866117d3565b81810361012083015261187b818561179a565b9050818103610140830152611890818461179a565b90509c9b505050505050505050505050565b600080604083850312156118b9576118b8611444565b5b60006118c78582860161146f565b92505060206118d88582860161146f565b9150509250929050565b6118eb816113fe565b81146118f657600080fd5b50565b600081359050611908816118e2565b92915050565b60006020828403121561192457611923611444565b5b6000611932848285016118f9565b91505092915050565b7f556e617574686f72697a65640000000000000000000000000000000000000000600082015250565b6000611971600c8361175f565b915061197c8261193b565b602082019050919050565b600060208201905081810360008301526119a081611964565b9050919050565b7f4e487b7100000000000000000000000000000000000000000000000000000000600052603260045260246000fd5b7f4e487b7100000000000000000000000000000000000000000000000000000000600052601260045260246000fd5b7f4e487b7100000000000000000000000000000000000000000000000000000000600052601160045260246000fd5b6000611a3f8261144e565b9150611a4a8361144e565b925082611a5a57611a596119d6565b5b828204905092915050565b6000611a708261144e565b9150611a7b8361144e565b9250828202611a898161144e565b91508282048414831517611aa057611a9f611a05565b5b5092915050565b6000611ab28261144e565b9150611abd8361144e565b9250828201905080821115611ad557611ad4611a05565b5b92915050565b6000611ae68261144e565b91507fffffffffffffffffffffffffffffffffffffffffffffffffffffffffffffffff8203611b1857611b17611a05565b5b600182019050919050565b6000819050919050565b6000611b48611b43611b3e846113de565b611b23565b6113de565b9050919050565b6000611b5a82611b2d565b9050919050565b6000611b6c82611b4f565b9050919050565b611b7c81611b61565b82525050565b6000604082019050611b976000830185611b73565b611ba460208301846116fd565b9392505050565b600081519050611bba81611490565b92915050565b600060208284031215611bd657611bd5611444565b5b6000611be484828501611bab565b91505092915050565b7f4e487b7100000000000000000000000000000000000000000000000000000000600052602260045260246000fd5b60006002820490506001821680611c3457607f821691505b602082108103611c4757611c46611bed565b5b50919050565b60008190508160005260206000209050919050565b60006020601f8301049050919050565b600082821b905092915050565b600060088302611caf7fffffffffffffffffffffffffffffffffffffffffffffffffffffffffffffffff82611c72565b611cb98683611c72565b95508019841693508086168417925050509392505050565b6000611cec611ce7611ce28461144e565b611b23565b61144e565b9050919050565b6000819050919050565b611d0683611cd1565b611d1a611d1282611cf3565b848454611c7f565b825550505050565b600090565b611d2f611d22565b611d3a818484611cfd565b505050565b5b81811015611d5e57611d53600082611d27565b600181019050611d40565b5050565b601f821115611da357611d7481611c4d565b611d7d84611c62565b81016020851015611d8c578190505b611da0611d9885611c62565b830182611d3f565b50505b505050565b600082821c905092915050565b6000611dc660001984600802611da8565b1980831691505092915050565b6000611ddf8383611db5565b9150826002028217905092915050565b611df882611754565b67ffffffffffffffff811115611e1157611e10611517565b5b611e1b8254611c1c565b611e26828285611d62565b600060209050601f831160018114611e595760008415611e47578287015190505b611e518582611dd3565b865550611eb9565b601f198416611e6786611c4d565b60005b82811015611e8f57848901518255600182019150602085019450602081019050611e6a565b86831015611eac5784890151611ea8601f891682611db5565b8355505b6001600288020188555050505b505050505050565b6000819050919050565b6000611ee6611ee1611edc84611ec1565b611b23565b61144e565b9050919050565b611ef681611ecb565b82525050565b600060e082019050611f11600083018a6116fd565b8181036020830152611f23818961179a565b9050611f3260408301886116fd565b611f3f6060830187611410565b611f4c6080830186611eed565b611f5960a0830185611eed565b611f6660c0830184611eed565b98975050505050505050565b6000604082019050611f876000830185611410565b611f946020830184611410565b9392505050565b600081519050611faa81611458565b92915050565b600060208284031215611fc657611fc5611444565b5b6000611fd484828501611f9b565b91505092915050565b7f4e6f7420616c6c6f77656420746f207370656e64207468697320616d6f756e7460008201527f2e00000000000000000000000000000000000000000000000000000000000000602082015250565b600061203960218361175f565b915061204482611fdd565b604082019050919050565b600060208201905081810360008301526120688161202c565b9050919050565b60006060820190506120846000830186611410565b6120916020830185611410565b61209e60408301846116fd565b949350505050565b7f4e6f7420616c6c6f77656420746f207370656e64207468697320616d6d6f756e60008201527f742e000000000000000000000000000000000000000000000000000000000000602082015250565b600061210260228361175f565b915061210d826120a6565b604082019050919050565b60006020820190508181036000830152612131816120f5565b905091905056fea2646970667358221220f34e5756b606869ca7879273e75766eaf17997eb9f520c177354d5de9aa1bfc364736f6c63430008120033",
  "linkReferences": {},
  "deployedLinkReferences": {}
}