{
  "_format": "hh-sol-artifact-1",
  "contractName": "PredictionWorld3",
  "sourceName": "contracts/PredictionWorld3.sol",
  "abi": [
    {
      "inputs": [
        {
          "internalType": "address",
          "name": "_sureToken",
          "type": "address"
        },
        {
          "internalType": "uint32",
          "name": "_numOfEarlyBirdsAllowed",
          "type": "uint32"
        },
        {
          "internalType": "uint256",
          "name": "_amountOfFreeTokenForEarlyBird",
          "type": "uint256"
        }
      ],
      "stateMutability": "nonpayable",
      "type": "constructor"
    },
    {
      "anonymous": false,
      "inputs": [
        {
          "indexed": false,
          "internalType": "uint256",
          "name": "id",
          "type": "uint256"
        },
        {
          "indexed": false,
          "internalType": "string",
          "name": "market",
          "type": "string"
        },
        {
          "indexed": false,
          "internalType": "uint256",
          "name": "timestamp",
          "type": "uint256"
        },
        {
          "indexed": false,
          "internalType": "address",
          "name": "createdBy",
          "type": "address"
        },
        {
          "indexed": false,
          "internalType": "string",
          "name": "creatorImageHash",
          "type": "string"
        },
        {
          "indexed": false,
          "internalType": "uint256",
          "name": "totalAmount",
          "type": "uint256"
        },
        {
          "indexed": false,
          "internalType": "uint256",
          "name": "totalYesAmount",
          "type": "uint256"
        },
        {
          "indexed": false,
          "internalType": "uint256",
          "name": "totalNoAmount",
          "type": "uint256"
        }
      ],
      "name": "MarketCreated",
      "type": "event"
    },
    {
      "inputs": [
        {
          "internalType": "uint256",
          "name": "_marketId",
          "type": "uint256"
        },
        {
          "internalType": "uint256",
          "name": "_value",
          "type": "uint256"
        }
      ],
      "name": "addNoBet",
      "outputs": [],
      "stateMutability": "payable",
      "type": "function"
    },
    {
      "inputs": [
        {
          "internalType": "uint256",
          "name": "_marketId",
          "type": "uint256"
        },
        {
          "internalType": "uint256",
          "name": "_value",
          "type": "uint256"
        }
      ],
      "name": "addYesBet",
      "outputs": [],
      "stateMutability": "payable",
      "type": "function"
    },
    {
      "inputs": [],
      "name": "amountOfFreeTokenForEarlyBird",
      "outputs": [
        {
          "internalType": "uint256",
          "name": "",
          "type": "uint256"
        }
      ],
      "stateMutability": "view",
      "type": "function"
    },
    {
      "inputs": [],
      "name": "checkEarlyBird",
      "outputs": [
        {
          "internalType": "bool",
          "name": "",
          "type": "bool"
        }
      ],
      "stateMutability": "nonpayable",
      "type": "function"
    },
    {
      "inputs": [
        {
          "internalType": "string",
          "name": "_question",
          "type": "string"
        },
        {
          "internalType": "string",
          "name": "_creatorImageHash",
          "type": "string"
        },
        {
          "internalType": "string",
          "name": "_description",
          "type": "string"
        },
        {
          "internalType": "string",
          "name": "_resolverUrl",
          "type": "string"
        },
        {
          "internalType": "uint256",
          "name": "_endTimestamp",
          "type": "uint256"
        }
      ],
      "name": "createMarket",
      "outputs": [],
      "stateMutability": "nonpayable",
      "type": "function"
    },
    {
      "inputs": [],
      "name": "currentEarlyBirdCount",
      "outputs": [
        {
          "internalType": "uint32",
          "name": "",
          "type": "uint32"
        }
      ],
      "stateMutability": "view",
      "type": "function"
    },
    {
      "inputs": [
        {
          "internalType": "uint256",
          "name": "_marketId",
          "type": "uint256"
        },
        {
          "internalType": "bool",
          "name": "eventOutcome",
          "type": "bool"
        }
      ],
      "name": "distributeWinningAmount",
      "outputs": [],
      "stateMutability": "payable",
      "type": "function"
    },
    {
      "inputs": [
        {
          "internalType": "uint256",
          "name": "_marketId",
          "type": "uint256"
        }
      ],
      "name": "getBets",
      "outputs": [
        {
          "components": [
            {
              "internalType": "address",
              "name": "user",
              "type": "address"
            },
            {
              "internalType": "uint256",
              "name": "amount",
              "type": "uint256"
            },
            {
              "internalType": "uint256",
              "name": "timestamp",
              "type": "uint256"
            }
          ],
          "internalType": "struct PredictionWorld3.Bet[]",
          "name": "",
          "type": "tuple[]"
        },
        {
          "components": [
            {
              "internalType": "address",
              "name": "user",
              "type": "address"
            },
            {
              "internalType": "uint256",
              "name": "amount",
              "type": "uint256"
            },
            {
              "internalType": "uint256",
              "name": "timestamp",
              "type": "uint256"
            }
          ],
          "internalType": "struct PredictionWorld3.Bet[]",
          "name": "",
          "type": "tuple[]"
        }
      ],
      "stateMutability": "view",
      "type": "function"
    },
    {
      "inputs": [
        {
          "internalType": "uint256",
          "name": "",
          "type": "uint256"
        }
      ],
      "name": "markets",
      "outputs": [
        {
          "internalType": "uint256",
          "name": "id",
          "type": "uint256"
        },
        {
          "components": [
            {
              "internalType": "string",
              "name": "question",
              "type": "string"
            },
            {
              "internalType": "uint256",
              "name": "timestamp",
              "type": "uint256"
            },
            {
              "internalType": "uint256",
              "name": "endTimestamp",
              "type": "uint256"
            },
            {
              "internalType": "address",
              "name": "createdBy",
              "type": "address"
            },
            {
              "internalType": "string",
              "name": "creatorImageHash",
              "type": "string"
            },
            {
              "internalType": "string",
              "name": "description",
              "type": "string"
            },
            {
              "internalType": "string",
              "name": "resolverUrl",
              "type": "string"
            }
          ],
          "internalType": "struct PredictionWorld3.Info",
          "name": "info",
          "type": "tuple"
        },
        {
          "internalType": "uint256",
          "name": "totalAmount",
          "type": "uint256"
        },
        {
          "internalType": "uint256",
          "name": "totalYesAmount",
          "type": "uint256"
        },
        {
          "internalType": "uint256",
          "name": "totalNoAmount",
          "type": "uint256"
        },
        {
          "internalType": "bool",
          "name": "marketClosed",
          "type": "bool"
        },
        {
          "internalType": "bool",
          "name": "outcome",
          "type": "bool"
        }
      ],
      "stateMutability": "view",
      "type": "function"
    },
    {
      "inputs": [],
      "name": "numOfEarlyBirdsAllowed",
      "outputs": [
        {
          "internalType": "uint32",
          "name": "",
          "type": "uint32"
        }
      ],
      "stateMutability": "view",
      "type": "function"
    },
    {
      "inputs": [],
      "name": "owner",
      "outputs": [
        {
          "internalType": "address",
          "name": "",
          "type": "address"
        }
      ],
      "stateMutability": "view",
      "type": "function"
    },
    {
      "inputs": [],
      "name": "sureToken",
      "outputs": [
        {
          "internalType": "address",
          "name": "",
          "type": "address"
        }
      ],
      "stateMutability": "view",
      "type": "function"
    },
    {
      "inputs": [],
      "name": "totalMarkets",
      "outputs": [
        {
          "internalType": "uint256",
          "name": "",
          "type": "uint256"
        }
      ],
      "stateMutability": "view",
      "type": "function"
    },
    {
      "inputs": [
        {
          "internalType": "uint256",
          "name": "",
          "type": "uint256"
        }
      ],
      "name": "winAddresses",
      "outputs": [
        {
          "internalType": "address",
          "name": "",
          "type": "address"
        }
      ],
      "stateMutability": "view",
      "type": "function"
    },
    {
      "inputs": [
        {
          "internalType": "address",
          "name": "",
          "type": "address"
        }
      ],
      "name": "winAmounts",
      "outputs": [
        {
          "internalType": "uint256",
          "name": "",
          "type": "uint256"
        }
      ],
      "stateMutability": "view",
      "type": "function"
    }
  ],
  "bytecode": "0x608060405260006002553480156200001657600080fd5b5060405162002f0438038062002f0483398181016040528101906200003c9190620001d4565b336000806101000a81548173ffffffffffffffffffffffffffffffffffffffff021916908373ffffffffffffffffffffffffffffffffffffffff16021790555082600160006101000a81548173ffffffffffffffffffffffffffffffffffffffff021916908373ffffffffffffffffffffffffffffffffffffffff16021790555081600360006101000a81548163ffffffff021916908363ffffffff1602179055508060048190555050505062000230565b600080fd5b600073ffffffffffffffffffffffffffffffffffffffff82169050919050565b60006200012082620000f3565b9050919050565b620001328162000113565b81146200013e57600080fd5b50565b600081519050620001528162000127565b92915050565b600063ffffffff82169050919050565b620001738162000158565b81146200017f57600080fd5b50565b600081519050620001938162000168565b92915050565b6000819050919050565b620001ae8162000199565b8114620001ba57600080fd5b50565b600081519050620001ce81620001a3565b92915050565b600080600060608486031215620001f057620001ef620000ee565b5b6000620002008682870162000141565b9350506020620002138682870162000182565b92505060406200022686828701620001bd565b9150509250925092565b612cc480620002406000396000f3fe6080604052600436106100e85760003560e01c8063b1283e771161008a578063e1215b7511610059578063e1215b75146102f5578063e6ebee0f14610320578063eb3f75e21461034b578063ee81e4dd14610367576100e8565b8063b1283e771461022e578063bf01fe0014610271578063d5ea664f1461028d578063da289c0b146102ca576100e8565b80638162486b116100c65780638162486b146101705780638da5cb5b1461019b5780639229cca9146101c6578063925fc14a14610203576100e8565b80631ccf6955146100ed5780633f4a5d0a1461012b578063724ba40b14610154575b600080fd5b3480156100f957600080fd5b50610114600480360381019061010f9190611d08565b610392565b604051610122929190611e76565b60405180910390f35b34801561013757600080fd5b50610152600480360381019061014d9190611ff3565b610544565b005b61016e60048036038101906101699190612116565b610731565b005b34801561017c57600080fd5b50610185610ff0565b6040516101929190612165565b60405180910390f35b3480156101a757600080fd5b506101b0610ff6565b6040516101bd919061218f565b60405180910390f35b3480156101d257600080fd5b506101ed60048036038101906101e89190611d08565b61101a565b6040516101fa919061218f565b60405180910390f35b34801561020f57600080fd5b50610218611059565b60405161022591906121c9565b60405180910390f35b34801561023a57600080fd5b5061025560048036038101906102509190611d08565b61106f565b6040516102689796959493929190612323565b60405180910390f35b61028b60048036038101906102869190612399565b611387565b005b34801561029957600080fd5b506102b460048036038101906102af9190612405565b6116d4565b6040516102c19190612165565b60405180910390f35b3480156102d657600080fd5b506102df6116ec565b6040516102ec9190612165565b60405180910390f35b34801561030157600080fd5b5061030a6116f2565b6040516103179190612432565b60405180910390f35b34801561032c57600080fd5b5061033561182f565b60405161034291906121c9565b60405180910390f35b61036560048036038101906103609190612399565b611845565b005b34801561037357600080fd5b5061037c611b92565b604051610389919061218f565b60405180910390f35b6060806000600660008581526020019081526020016000209050806008018160090181805480602002602001604051908101604052809291908181526020016000905b8282101561047157838290600052602060002090600302016040518060600160405290816000820160009054906101000a900473ffffffffffffffffffffffffffffffffffffffff1673ffffffffffffffffffffffffffffffffffffffff1673ffffffffffffffffffffffffffffffffffffffff16815260200160018201548152602001600282015481525050815260200190600101906103d5565b50505050915080805480602002602001604051908101604052809291908181526020016000905b8282101561053457838290600052602060002090600302016040518060600160405290816000820160009054906101000a900473ffffffffffffffffffffffffffffffffffffffff1673ffffffffffffffffffffffffffffffffffffffff1673ffffffffffffffffffffffffffffffffffffffff1681526020016001820154815260200160028201548152505081526020019060010190610498565b5050505090509250925050915091565b60008054906101000a900473ffffffffffffffffffffffffffffffffffffffff1673ffffffffffffffffffffffffffffffffffffffff163373ffffffffffffffffffffffffffffffffffffffff16146105d2576040517f08c379a00000000000000000000000000000000000000000000000000000000081526004016105c9906124aa565b60405180910390fd5b60004290506000600660006002548152602001908152602001600020905060026000815480929190610603906124f9565b91905055816000018190555086816001016000019081610623919061274d565b5085816001016004019081610638919061274d565b50818160010160010181905550338160010160030160006101000a81548173ffffffffffffffffffffffffffffffffffffffff021916908373ffffffffffffffffffffffffffffffffffffffff160217905550600081600a0181905550600081600b0181905550600081600c0181905550848160010160050190816106bd919061274d565b50838160010160060190816106d2919061274d565b508281600101600201819055507fe51b4ce9e60c0c010fcdef22c23537f954e056004aed674362555a9d11d037386002548884338a6000806000604051610720989796959493929190612893565b60405180910390a150505050505050565b60008054906101000a900473ffffffffffffffffffffffffffffffffffffffff1673ffffffffffffffffffffffffffffffffffffffff163373ffffffffffffffffffffffffffffffffffffffff16146107bf576040517f08c379a00000000000000000000000000000000000000000000000000000000081526004016107b6906124aa565b60405180910390fd5b60006006600084815260200190815260200160002090508115610c715760005b8160080180549050811015610ad257600082600b015483600801838154811061080b5761080a61291f565b5b90600052602060002090600302016001015484600c015461082c919061294e565b61083691906129bf565b905082600801828154811061084e5761084d61291f565b5b9060005260206000209060030201600101548161086b91906129f0565b600760008560080185815481106108855761088461291f565b5b906000526020600020906003020160000160009054906101000a900473ffffffffffffffffffffffffffffffffffffffff1673ffffffffffffffffffffffffffffffffffffffff1673ffffffffffffffffffffffffffffffffffffffff168152602001908152602001600020600082825461090091906129f0565b92505081905550610a146040518060400160405280600981526020017f25732077696e20257300000000000000000000000000000000000000000000008152508460080184815481106109565761095561291f565b5b906000526020600020906003020160000160009054906101000a900473ffffffffffffffffffffffffffffffffffffffff16600760008760080187815481106109a2576109a161291f565b5b906000526020600020906003020160000160009054906101000a900473ffffffffffffffffffffffffffffffffffffffff1673ffffffffffffffffffffffffffffffffffffffff1673ffffffffffffffffffffffffffffffffffffffff16815260200190815260200160002054611bb8565b6008836008018381548110610a2c57610a2b61291f565b5b906000526020600020906003020160000160009054906101000a900473ffffffffffffffffffffffffffffffffffffffff169080600181540180825580915050600190039060005260206000200160009091909190916101000a81548173ffffffffffffffffffffffffffffffffffffffff021916908373ffffffffffffffffffffffffffffffffffffffff160217905550508080610aca906124f9565b9150506107df565b5060005b600880549050811015610c5d57600060088281548110610af957610af861291f565b5b9060005260206000200160009054906101000a900473ffffffffffffffffffffffffffffffffffffffff169050600160009054906101000a900473ffffffffffffffffffffffffffffffffffffffff1673ffffffffffffffffffffffffffffffffffffffff1663a9059cbb82600760008573ffffffffffffffffffffffffffffffffffffffff1673ffffffffffffffffffffffffffffffffffffffff168152602001908152602001600020546040518363ffffffff1660e01b8152600401610bc2929190612a79565b6020604051808303816000875af1158015610be1573d6000803e3d6000fd5b505050506040513d601f19601f82011682018060405250810190610c059190612ab7565b50600760008273ffffffffffffffffffffffffffffffffffffffff1673ffffffffffffffffffffffffffffffffffffffff16815260200190815260200160002060009055508080610c55906124f9565b915050610ad6565b5060086000610c6c9190611c80565b610fb2565b60005b8160090180549050811015610e5a57600082600c0154836009018381548110610ca057610c9f61291f565b5b90600052602060002090600302016001015484600b0154610cc1919061294e565b610ccb91906129bf565b9050826009018281548110610ce357610ce261291f565b5b90600052602060002090600302016001015481610d0091906129f0565b60076000856009018581548110610d1a57610d1961291f565b5b906000526020600020906003020160000160009054906101000a900473ffffffffffffffffffffffffffffffffffffffff1673ffffffffffffffffffffffffffffffffffffffff1673ffffffffffffffffffffffffffffffffffffffff1681526020019081526020016000206000828254610d9591906129f0565b925050819055506008836009018381548110610db457610db361291f565b5b906000526020600020906003020160000160009054906101000a900473ffffffffffffffffffffffffffffffffffffffff169080600181540180825580915050600190039060005260206000200160009091909190916101000a81548173ffffffffffffffffffffffffffffffffffffffff021916908373ffffffffffffffffffffffffffffffffffffffff160217905550508080610e52906124f9565b915050610c74565b5060005b600880549050811015610fa257600060088281548110610e8157610e8061291f565b5b9060005260206000200160009054906101000a900473ffffffffffffffffffffffffffffffffffffffff169050600160009054906101000a900473ffffffffffffffffffffffffffffffffffffffff1673ffffffffffffffffffffffffffffffffffffffff1663a9059cbb82600760008573ffffffffffffffffffffffffffffffffffffffff1673ffffffffffffffffffffffffffffffffffffffff168152602001908152602001600020546040518363ffffffff1660e01b8152600401610f4a929190612a79565b6020604051808303816000875af1158015610f69573d6000803e3d6000fd5b505050506040513d601f19601f82011682018060405250810190610f8d9190612ab7565b50508080610f9a906124f9565b915050610e5e565b5060086000610fb19190611c80565b5b8181600d0160016101000a81548160ff021916908315150217905550600181600d0160006101000a81548160ff021916908315150217905550505050565b60025481565b60008054906101000a900473ffffffffffffffffffffffffffffffffffffffff1681565b6008818154811061102a57600080fd5b906000526020600020016000915054906101000a900473ffffffffffffffffffffffffffffffffffffffff1681565b600360009054906101000a900463ffffffff1681565b6006602052806000526040600020600091509050806000015490806001016040518060e00160405290816000820180546110a890612570565b80601f01602080910402602001604051908101604052809291908181526020018280546110d490612570565b80156111215780601f106110f657610100808354040283529160200191611121565b820191906000526020600020905b81548152906001019060200180831161110457829003601f168201915b5050505050815260200160018201548152602001600282015481526020016003820160009054906101000a900473ffffffffffffffffffffffffffffffffffffffff1673ffffffffffffffffffffffffffffffffffffffff1673ffffffffffffffffffffffffffffffffffffffff1681526020016004820180546111a490612570565b80601f01602080910402602001604051908101604052809291908181526020018280546111d090612570565b801561121d5780601f106111f25761010080835404028352916020019161121d565b820191906000526020600020905b81548152906001019060200180831161120057829003601f168201915b5050505050815260200160058201805461123690612570565b80601f016020809104026020016040519081016040528092919081815260200182805461126290612570565b80156112af5780601f10611284576101008083540402835291602001916112af565b820191906000526020600020905b81548152906001019060200180831161129257829003601f168201915b505050505081526020016006820180546112c890612570565b80601f01602080910402602001604051908101604052809291908181526020018280546112f490612570565b80156113415780601f1061131657610100808354040283529160200191611341565b820191906000526020600020905b81548152906001019060200180831161132457829003601f168201915b5050505050815250509080600a01549080600b01549080600c01549080600d0160009054906101000a900460ff169080600d0160019054906101000a900460ff16905087565b600160009054906101000a900473ffffffffffffffffffffffffffffffffffffffff1673ffffffffffffffffffffffffffffffffffffffff1663dd62ed3e33306040518363ffffffff1660e01b81526004016113e4929190612ae4565b602060405180830381865afa158015611401573d6000803e3d6000fd5b505050506040513d601f19601f820116820180604052508101906114259190612b22565b811115611467576040517f08c379a000000000000000000000000000000000000000000000000000000000815260040161145e90612bc1565b60405180910390fd5b61146f6116f2565b1561151e576000339050600160009054906101000a900473ffffffffffffffffffffffffffffffffffffffff1673ffffffffffffffffffffffffffffffffffffffff1663a9059cbb826004546040518363ffffffff1660e01b81526004016114d8929190612a79565b6020604051808303816000875af11580156114f7573d6000803e3d6000fd5b505050506040513d601f19601f8201168201806040525081019061151b9190612ab7565b50505b6000600660008481526020019081526020016000209050600160009054906101000a900473ffffffffffffffffffffffffffffffffffffffff1673ffffffffffffffffffffffffffffffffffffffff166323b872dd3330856040518463ffffffff1660e01b815260040161159493929190612be1565b6020604051808303816000875af11580156115b3573d6000803e3d6000fd5b505050506040513d601f19601f820116820180604052508101906115d79190612ab7565b50600060405180606001604052803373ffffffffffffffffffffffffffffffffffffffff1681526020018481526020014281525090508282600c01600082825461162191906129f0565b925050819055508282600a01600082825461163c91906129f0565b925050819055508160090181908060018154018082558091505060019003906000526020600020906003020160009091909190915060008201518160000160006101000a81548173ffffffffffffffffffffffffffffffffffffffff021916908373ffffffffffffffffffffffffffffffffffffffff1602179055506020820151816001015560408201518160020155505050505050565b60076020528060005260406000206000915090505481565b60045481565b6000600360009054906101000a900463ffffffff1663ffffffff16600560009054906101000a900463ffffffff1663ffffffff1610611734576000905061182c565b600960003373ffffffffffffffffffffffffffffffffffffffff1673ffffffffffffffffffffffffffffffffffffffff16815260200190815260200160002060009054906101000a900460ff161561178f576000905061182c565b6001600560008282829054906101000a900463ffffffff166117b19190612c18565b92506101000a81548163ffffffff021916908363ffffffff1602179055506001600960003373ffffffffffffffffffffffffffffffffffffffff1673ffffffffffffffffffffffffffffffffffffffff16815260200190815260200160002060006101000a81548160ff021916908315150217905550600190505b90565b600560009054906101000a900463ffffffff1681565b600160009054906101000a900473ffffffffffffffffffffffffffffffffffffffff1673ffffffffffffffffffffffffffffffffffffffff1663dd62ed3e33306040518363ffffffff1660e01b81526004016118a2929190612ae4565b602060405180830381865afa1580156118bf573d6000803e3d6000fd5b505050506040513d601f19601f820116820180604052508101906118e39190612b22565b811115611925576040517f08c379a000000000000000000000000000000000000000000000000000000000815260040161191c90612bc1565b60405180910390fd5b61192d6116f2565b156119dc576000339050600160009054906101000a900473ffffffffffffffffffffffffffffffffffffffff1673ffffffffffffffffffffffffffffffffffffffff1663a9059cbb826004546040518363ffffffff1660e01b8152600401611996929190612a79565b6020604051808303816000875af11580156119b5573d6000803e3d6000fd5b505050506040513d601f19601f820116820180604052508101906119d99190612ab7565b50505b6000600660008481526020019081526020016000209050600160009054906101000a900473ffffffffffffffffffffffffffffffffffffffff1673ffffffffffffffffffffffffffffffffffffffff166323b872dd3330856040518463ffffffff1660e01b8152600401611a5293929190612be1565b6020604051808303816000875af1158015611a71573d6000803e3d6000fd5b505050506040513d601f19601f82011682018060405250810190611a959190612ab7565b50600060405180606001604052803373ffffffffffffffffffffffffffffffffffffffff1681526020018481526020014281525090508282600b016000828254611adf91906129f0565b925050819055508282600a016000828254611afa91906129f0565b925050819055508160080181908060018154018082558091505060019003906000526020600020906003020160009091909190915060008201518160000160006101000a81548173ffffffffffffffffffffffffffffffffffffffff021916908373ffffffffffffffffffffffffffffffffffffffff1602179055506020820151816001015560408201518160020155505050505050565b600160009054906101000a900473ffffffffffffffffffffffffffffffffffffffff1681565b611c52838383604051602401611bd093929190612c50565b6040516020818303038152906040527f0d26b925000000000000000000000000000000000000000000000000000000007bffffffffffffffffffffffffffffffffffffffffffffffffffffffff19166020820180517bffffffffffffffffffffffffffffffffffffffffffffffffffffffff8381831617835250505050611c57565b505050565b60008151905060006a636f6e736f6c652e6c6f679050602083016000808483855afa5050505050565b5080546000825590600052602060002090810190611c9e9190611ca1565b50565b5b80821115611cba576000816000905550600101611ca2565b5090565b6000604051905090565b600080fd5b600080fd5b6000819050919050565b611ce581611cd2565b8114611cf057600080fd5b50565b600081359050611d0281611cdc565b92915050565b600060208284031215611d1e57611d1d611cc8565b5b6000611d2c84828501611cf3565b91505092915050565b600081519050919050565b600082825260208201905092915050565b6000819050602082019050919050565b600073ffffffffffffffffffffffffffffffffffffffff82169050919050565b6000611d8c82611d61565b9050919050565b611d9c81611d81565b82525050565b611dab81611cd2565b82525050565b606082016000820151611dc76000850182611d93565b506020820151611dda6020850182611da2565b506040820151611ded6040850182611da2565b50505050565b6000611dff8383611db1565b60608301905092915050565b6000602082019050919050565b6000611e2382611d35565b611e2d8185611d40565b9350611e3883611d51565b8060005b83811015611e69578151611e508882611df3565b9750611e5b83611e0b565b925050600181019050611e3c565b5085935050505092915050565b60006040820190508181036000830152611e908185611e18565b90508181036020830152611ea48184611e18565b90509392505050565b600080fd5b600080fd5b6000601f19601f8301169050919050565b7f4e487b7100000000000000000000000000000000000000000000000000000000600052604160045260246000fd5b611f0082611eb7565b810181811067ffffffffffffffff82111715611f1f57611f1e611ec8565b5b80604052505050565b6000611f32611cbe565b9050611f3e8282611ef7565b919050565b600067ffffffffffffffff821115611f5e57611f5d611ec8565b5b611f6782611eb7565b9050602081019050919050565b82818337600083830152505050565b6000611f96611f9184611f43565b611f28565b905082815260208101848484011115611fb257611fb1611eb2565b5b611fbd848285611f74565b509392505050565b600082601f830112611fda57611fd9611ead565b5b8135611fea848260208601611f83565b91505092915050565b600080600080600060a0868803121561200f5761200e611cc8565b5b600086013567ffffffffffffffff81111561202d5761202c611ccd565b5b61203988828901611fc5565b955050602086013567ffffffffffffffff81111561205a57612059611ccd565b5b61206688828901611fc5565b945050604086013567ffffffffffffffff81111561208757612086611ccd565b5b61209388828901611fc5565b935050606086013567ffffffffffffffff8111156120b4576120b3611ccd565b5b6120c088828901611fc5565b92505060806120d188828901611cf3565b9150509295509295909350565b60008115159050919050565b6120f3816120de565b81146120fe57600080fd5b50565b600081359050612110816120ea565b92915050565b6000806040838503121561212d5761212c611cc8565b5b600061213b85828601611cf3565b925050602061214c85828601612101565b9150509250929050565b61215f81611cd2565b82525050565b600060208201905061217a6000830184612156565b92915050565b61218981611d81565b82525050565b60006020820190506121a46000830184612180565b92915050565b600063ffffffff82169050919050565b6121c3816121aa565b82525050565b60006020820190506121de60008301846121ba565b92915050565b600081519050919050565b600082825260208201905092915050565b60005b8381101561221e578082015181840152602081019050612203565b60008484015250505050565b6000612235826121e4565b61223f81856121ef565b935061224f818560208601612200565b61225881611eb7565b840191505092915050565b600060e0830160008301518482036000860152612280828261222a565b91505060208301516122956020860182611da2565b5060408301516122a86040860182611da2565b5060608301516122bb6060860182611d93565b50608083015184820360808601526122d3828261222a565b91505060a083015184820360a08601526122ed828261222a565b91505060c083015184820360c0860152612307828261222a565b9150508091505092915050565b61231d816120de565b82525050565b600060e082019050612338600083018a612156565b818103602083015261234a8189612263565b90506123596040830188612156565b6123666060830187612156565b6123736080830186612156565b61238060a0830185612314565b61238d60c0830184612314565b98975050505050505050565b600080604083850312156123b0576123af611cc8565b5b60006123be85828601611cf3565b92505060206123cf85828601611cf3565b9150509250929050565b6123e281611d81565b81146123ed57600080fd5b50565b6000813590506123ff816123d9565b92915050565b60006020828403121561241b5761241a611cc8565b5b6000612429848285016123f0565b91505092915050565b60006020820190506124476000830184612314565b92915050565b600082825260208201905092915050565b7f556e617574686f72697a65640000000000000000000000000000000000000000600082015250565b6000612494600c8361244d565b915061249f8261245e565b602082019050919050565b600060208201905081810360008301526124c381612487565b9050919050565b7f4e487b7100000000000000000000000000000000000000000000000000000000600052601160045260246000fd5b600061250482611cd2565b91507fffffffffffffffffffffffffffffffffffffffffffffffffffffffffffffffff8203612536576125356124ca565b5b600182019050919050565b7f4e487b7100000000000000000000000000000000000000000000000000000000600052602260045260246000fd5b6000600282049050600182168061258857607f821691505b60208210810361259b5761259a612541565b5b50919050565b60008190508160005260206000209050919050565b60006020601f8301049050919050565b600082821b905092915050565b6000600883026126037fffffffffffffffffffffffffffffffffffffffffffffffffffffffffffffffff826125c6565b61260d86836125c6565b95508019841693508086168417925050509392505050565b6000819050919050565b600061264a61264561264084611cd2565b612625565b611cd2565b9050919050565b6000819050919050565b6126648361262f565b61267861267082612651565b8484546125d3565b825550505050565b600090565b61268d612680565b61269881848461265b565b505050565b5b818110156126bc576126b1600082612685565b60018101905061269e565b5050565b601f821115612701576126d2816125a1565b6126db846125b6565b810160208510156126ea578190505b6126fe6126f6856125b6565b83018261269d565b50505b505050565b600082821c905092915050565b600061272460001984600802612706565b1980831691505092915050565b600061273d8383612713565b9150826002028217905092915050565b612756826121e4565b67ffffffffffffffff81111561276f5761276e611ec8565b5b6127798254612570565b6127848282856126c0565b600060209050601f8311600181146127b757600084156127a5578287015190505b6127af8582612731565b865550612817565b601f1984166127c5866125a1565b60005b828110156127ed578489015182556001820191506020850194506020810190506127c8565b8683101561280a5784890151612806601f891682612713565b8355505b6001600288020188555050505b505050505050565b600061282a826121e4565b612834818561244d565b9350612844818560208601612200565b61284d81611eb7565b840191505092915050565b6000819050919050565b600061287d61287861287384612858565b612625565b611cd2565b9050919050565b61288d81612862565b82525050565b6000610100820190506128a9600083018b612156565b81810360208301526128bb818a61281f565b90506128ca6040830189612156565b6128d76060830188612180565b81810360808301526128e9818761281f565b90506128f860a0830186612884565b61290560c0830185612884565b61291260e0830184612884565b9998505050505050505050565b7f4e487b7100000000000000000000000000000000000000000000000000000000600052603260045260246000fd5b600061295982611cd2565b915061296483611cd2565b925082820261297281611cd2565b91508282048414831517612989576129886124ca565b5b5092915050565b7f4e487b7100000000000000000000000000000000000000000000000000000000600052601260045260246000fd5b60006129ca82611cd2565b91506129d583611cd2565b9250826129e5576129e4612990565b5b828204905092915050565b60006129fb82611cd2565b9150612a0683611cd2565b9250828201905080821115612a1e57612a1d6124ca565b5b92915050565b6000612a3f612a3a612a3584611d61565b612625565b611d61565b9050919050565b6000612a5182612a24565b9050919050565b6000612a6382612a46565b9050919050565b612a7381612a58565b82525050565b6000604082019050612a8e6000830185612a6a565b612a9b6020830184612156565b9392505050565b600081519050612ab1816120ea565b92915050565b600060208284031215612acd57612acc611cc8565b5b6000612adb84828501612aa2565b91505092915050565b6000604082019050612af96000830185612180565b612b066020830184612180565b9392505050565b600081519050612b1c81611cdc565b92915050565b600060208284031215612b3857612b37611cc8565b5b6000612b4684828501612b0d565b91505092915050565b7f4e6f7420616c6c6f77656420746f207370656e64207468697320616d6f756e7460008201527f2e00000000000000000000000000000000000000000000000000000000000000602082015250565b6000612bab60218361244d565b9150612bb682612b4f565b604082019050919050565b60006020820190508181036000830152612bda81612b9e565b9050919050565b6000606082019050612bf66000830186612180565b612c036020830185612180565b612c106040830184612156565b949350505050565b6000612c23826121aa565b9150612c2e836121aa565b9250828201905063ffffffff811115612c4a57612c496124ca565b5b92915050565b60006060820190508181036000830152612c6a818661281f565b9050612c796020830185612180565b612c866040830184612156565b94935050505056fea2646970667358221220380764fa169780de49158b4b7337bcd50f0e2dcd7c00c4aefd86d7b99bf10ccb64736f6c63430008120033",
  "linkReferences": {},
  "deployedLinkReferences": {}
}