{
    "_format": "hh-sol-artifact-1",
    "contractName": "PredictionWorld5",
    "sourceName": "contracts/PredictionWorld5.sol",
    "abi": [
        {
            "anonymous": false,
            "inputs": [
                {
                    "indexed": false,
                    "internalType": "uint8",
                    "name": "version",
                    "type": "uint8"
                }
            ],
            "name": "Initialized",
            "type": "event"
        },
        {
            "anonymous": false,
            "inputs": [
                {
                    "indexed": false,
                    "internalType": "uint256",
                    "name": "id",
                    "type": "uint256"
                },
                {
                    "indexed": false,
                    "internalType": "string",
                    "name": "market",
                    "type": "string"
                },
                {
                    "indexed": false,
                    "internalType": "uint256",
                    "name": "timestamp",
                    "type": "uint256"
                },
                {
                    "indexed": false,
                    "internalType": "address",
                    "name": "createdBy",
                    "type": "address"
                },
                {
                    "indexed": false,
                    "internalType": "string",
                    "name": "creatorImageHash",
                    "type": "string"
                },
                {
                    "indexed": false,
                    "internalType": "uint256",
                    "name": "totalAmount",
                    "type": "uint256"
                },
                {
                    "indexed": false,
                    "internalType": "uint256",
                    "name": "totalYesAmount",
                    "type": "uint256"
                },
                {
                    "indexed": false,
                    "internalType": "uint256",
                    "name": "totalNoAmount",
                    "type": "uint256"
                }
            ],
            "name": "MarketCreated",
            "type": "event"
        },
        {
            "inputs": [
                {
                    "internalType": "address",
                    "name": "_address",
                    "type": "address"
                }
            ],
            "name": "addAdminUser",
            "outputs": [],
            "stateMutability": "nonpayable",
            "type": "function"
        },
        {
            "inputs": [
                {
                    "internalType": "uint256",
                    "name": "_marketId",
                    "type": "uint256"
                },
                {
                    "internalType": "uint256",
                    "name": "_value",
                    "type": "uint256"
                }
            ],
            "name": "addNoBet",
            "outputs": [],
            "stateMutability": "payable",
            "type": "function"
        },
        {
            "inputs": [
                {
                    "internalType": "uint256",
                    "name": "_marketId",
                    "type": "uint256"
                },
                {
                    "internalType": "uint256",
                    "name": "_value",
                    "type": "uint256"
                }
            ],
            "name": "addYesBet",
            "outputs": [],
            "stateMutability": "payable",
            "type": "function"
        },
        {
            "inputs": [],
            "name": "commissionAddress",
            "outputs": [
                {
                    "internalType": "address",
                    "name": "",
                    "type": "address"
                }
            ],
            "stateMutability": "view",
            "type": "function"
        },
        {
            "inputs": [
                {
                    "internalType": "string",
                    "name": "_question",
                    "type": "string"
                },
                {
                    "internalType": "string",
                    "name": "_creatorImageHash",
                    "type": "string"
                },
                {
                    "internalType": "string",
                    "name": "_description",
                    "type": "string"
                },
                {
                    "internalType": "string",
                    "name": "_resolverUrl",
                    "type": "string"
                },
                {
                    "internalType": "uint256",
                    "name": "_endTimestamp",
                    "type": "uint256"
                },
                {
                    "internalType": "bool",
                    "name": "_isTest",
                    "type": "bool"
                }
            ],
            "name": "createMarket",
            "outputs": [],
            "stateMutability": "nonpayable",
            "type": "function"
        },
        {
            "inputs": [
                {
                    "internalType": "uint256",
                    "name": "_marketId",
                    "type": "uint256"
                },
                {
                    "internalType": "bool",
                    "name": "_eventOutcome",
                    "type": "bool"
                }
            ],
            "name": "distributeWinningAmount",
            "outputs": [],
            "stateMutability": "payable",
            "type": "function"
        },
        {
            "inputs": [
                {
                    "internalType": "uint256",
                    "name": "cursor",
                    "type": "uint256"
                },
                {
                    "internalType": "uint256",
                    "name": "size",
                    "type": "uint256"
                },
                {
                    "internalType": "bool",
                    "name": "withTest",
                    "type": "bool"
                }
            ],
            "name": "fetchMarkets",
            "outputs": [
                {
                    "components": [
                        {
                            "internalType": "uint256",
                            "name": "id",
                            "type": "uint256"
                        },
                        {
                            "components": [
                                {
                                    "internalType": "string",
                                    "name": "question",
                                    "type": "string"
                                },
                                {
                                    "internalType": "uint256",
                                    "name": "timestamp",
                                    "type": "uint256"
                                },
                                {
                                    "internalType": "uint256",
                                    "name": "endTimestamp",
                                    "type": "uint256"
                                },
                                {
                                    "internalType": "address",
                                    "name": "createdBy",
                                    "type": "address"
                                },
                                {
                                    "internalType": "string",
                                    "name": "creatorImageHash",
                                    "type": "string"
                                },
                                {
                                    "internalType": "string",
                                    "name": "description",
                                    "type": "string"
                                },
                                {
                                    "internalType": "string",
                                    "name": "resolverUrl",
                                    "type": "string"
                                },
                                {
                                    "internalType": "bool",
                                    "name": "isTest",
                                    "type": "bool"
                                }
                            ],
                            "internalType": "struct PredictionWorld5.Info",
                            "name": "info",
                            "type": "tuple"
                        },
                        {
                            "components": [
                                {
                                    "internalType": "address",
                                    "name": "user",
                                    "type": "address"
                                },
                                {
                                    "internalType": "uint256",
                                    "name": "amount",
                                    "type": "uint256"
                                },
                                {
                                    "internalType": "uint256",
                                    "name": "timestamp",
                                    "type": "uint256"
                                }
                            ],
                            "internalType": "struct PredictionWorld5.Bet[]",
                            "name": "yesBets",
                            "type": "tuple[]"
                        },
                        {
                            "components": [
                                {
                                    "internalType": "address",
                                    "name": "user",
                                    "type": "address"
                                },
                                {
                                    "internalType": "uint256",
                                    "name": "amount",
                                    "type": "uint256"
                                },
                                {
                                    "internalType": "uint256",
                                    "name": "timestamp",
                                    "type": "uint256"
                                }
                            ],
                            "internalType": "struct PredictionWorld5.Bet[]",
                            "name": "noBets",
                            "type": "tuple[]"
                        },
                        {
                            "internalType": "uint256",
                            "name": "totalAmount",
                            "type": "uint256"
                        },
                        {
                            "internalType": "uint256",
                            "name": "totalYesAmount",
                            "type": "uint256"
                        },
                        {
                            "internalType": "uint256",
                            "name": "totalNoAmount",
                            "type": "uint256"
                        },
                        {
                            "internalType": "bool",
                            "name": "marketClosed",
                            "type": "bool"
                        },
                        {
                            "internalType": "bool",
                            "name": "outcome",
                            "type": "bool"
                        }
                    ],
                    "internalType": "struct PredictionWorld5.Market[]",
                    "name": "values",
                    "type": "tuple[]"
                },
                {
                    "internalType": "uint256",
                    "name": "nextCursor",
                    "type": "uint256"
                }
            ],
            "stateMutability": "view",
            "type": "function"
        },
        {
            "inputs": [
                {
                    "internalType": "uint256",
                    "name": "_marketId",
                    "type": "uint256"
                }
            ],
            "name": "getBets",
            "outputs": [
                {
                    "components": [
                        {
                            "internalType": "address",
                            "name": "user",
                            "type": "address"
                        },
                        {
                            "internalType": "uint256",
                            "name": "amount",
                            "type": "uint256"
                        },
                        {
                            "internalType": "uint256",
                            "name": "timestamp",
                            "type": "uint256"
                        }
                    ],
                    "internalType": "struct PredictionWorld5.Bet[]",
                    "name": "yesBets",
                    "type": "tuple[]"
                },
                {
                    "components": [
                        {
                            "internalType": "address",
                            "name": "user",
                            "type": "address"
                        },
                        {
                            "internalType": "uint256",
                            "name": "amount",
                            "type": "uint256"
                        },
                        {
                            "internalType": "uint256",
                            "name": "timestamp",
                            "type": "uint256"
                        }
                    ],
                    "internalType": "struct PredictionWorld5.Bet[]",
                    "name": "noBets",
                    "type": "tuple[]"
                }
            ],
            "stateMutability": "view",
            "type": "function"
        },
        {
            "inputs": [
                {
                    "internalType": "address",
                    "name": "_userAddress",
                    "type": "address"
                },
                {
                    "internalType": "uint256",
                    "name": "_marketId",
                    "type": "uint256"
                }
            ],
            "name": "getUserBets",
            "outputs": [
                {
                    "components": [
                        {
                            "internalType": "address",
                            "name": "user",
                            "type": "address"
                        },
                        {
                            "internalType": "uint256",
                            "name": "amount",
                            "type": "uint256"
                        },
                        {
                            "internalType": "uint256",
                            "name": "timestamp",
                            "type": "uint256"
                        }
                    ],
                    "internalType": "struct PredictionWorld5.Bet[]",
                    "name": "yesBets",
                    "type": "tuple[]"
                },
                {
                    "components": [
                        {
                            "internalType": "address",
                            "name": "user",
                            "type": "address"
                        },
                        {
                            "internalType": "uint256",
                            "name": "amount",
                            "type": "uint256"
                        },
                        {
                            "internalType": "uint256",
                            "name": "timestamp",
                            "type": "uint256"
                        }
                    ],
                    "internalType": "struct PredictionWorld5.Bet[]",
                    "name": "noBets",
                    "type": "tuple[]"
                }
            ],
            "stateMutability": "view",
            "type": "function"
        },
        {
            "inputs": [
                {
                    "internalType": "address",
                    "name": "_sureToken",
                    "type": "address"
                }
            ],
            "name": "initialize",
            "outputs": [],
            "stateMutability": "nonpayable",
            "type": "function"
        },
        {
            "inputs": [
                {
                    "internalType": "address",
                    "name": "_address",
                    "type": "address"
                }
            ],
            "name": "isAdminUser",
            "outputs": [
                {
                    "internalType": "bool",
                    "name": "",
                    "type": "bool"
                }
            ],
            "stateMutability": "view",
            "type": "function"
        },
        {
            "inputs": [
                {
                    "internalType": "uint256",
                    "name": "",
                    "type": "uint256"
                }
            ],
            "name": "markets",
            "outputs": [
                {
                    "internalType": "uint256",
                    "name": "id",
                    "type": "uint256"
                },
                {
                    "components": [
                        {
                            "internalType": "string",
                            "name": "question",
                            "type": "string"
                        },
                        {
                            "internalType": "uint256",
                            "name": "timestamp",
                            "type": "uint256"
                        },
                        {
                            "internalType": "uint256",
                            "name": "endTimestamp",
                            "type": "uint256"
                        },
                        {
                            "internalType": "address",
                            "name": "createdBy",
                            "type": "address"
                        },
                        {
                            "internalType": "string",
                            "name": "creatorImageHash",
                            "type": "string"
                        },
                        {
                            "internalType": "string",
                            "name": "description",
                            "type": "string"
                        },
                        {
                            "internalType": "string",
                            "name": "resolverUrl",
                            "type": "string"
                        },
                        {
                            "internalType": "bool",
                            "name": "isTest",
                            "type": "bool"
                        }
                    ],
                    "internalType": "struct PredictionWorld5.Info",
                    "name": "info",
                    "type": "tuple"
                },
                {
                    "internalType": "uint256",
                    "name": "totalAmount",
                    "type": "uint256"
                },
                {
                    "internalType": "uint256",
                    "name": "totalYesAmount",
                    "type": "uint256"
                },
                {
                    "internalType": "uint256",
                    "name": "totalNoAmount",
                    "type": "uint256"
                },
                {
                    "internalType": "bool",
                    "name": "marketClosed",
                    "type": "bool"
                },
                {
                    "internalType": "bool",
                    "name": "outcome",
                    "type": "bool"
                }
            ],
            "stateMutability": "view",
            "type": "function"
        },
        {
            "inputs": [],
            "name": "owner",
            "outputs": [
                {
                    "internalType": "address",
                    "name": "",
                    "type": "address"
                }
            ],
            "stateMutability": "view",
            "type": "function"
        },
        {
            "inputs": [
                {
                    "internalType": "address",
                    "name": "_address",
                    "type": "address"
                }
            ],
            "name": "removeAdminUser",
            "outputs": [],
            "stateMutability": "nonpayable",
            "type": "function"
        },
        {
            "inputs": [
                {
                    "internalType": "uint256",
                    "name": "_marketId",
                    "type": "uint256"
                },
                {
                    "internalType": "string",
                    "name": "_question",
                    "type": "string"
                },
                {
                    "internalType": "string",
                    "name": "_creatorImageHash",
                    "type": "string"
                },
                {
                    "internalType": "string",
                    "name": "_description",
                    "type": "string"
                },
                {
                    "internalType": "string",
                    "name": "_resolverUrl",
                    "type": "string"
                },
                {
                    "internalType": "uint256",
                    "name": "_endTimestamp",
                    "type": "uint256"
                },
                {
                    "internalType": "bool",
                    "name": "_isTest",
                    "type": "bool"
                }
            ],
            "name": "setMarketInfo",
            "outputs": [],
            "stateMutability": "nonpayable",
            "type": "function"
        },
        {
            "inputs": [
                {
                    "internalType": "uint256",
                    "name": "_marketId",
                    "type": "uint256"
                },
                {
                    "internalType": "string",
                    "name": "_description",
                    "type": "string"
                }
            ],
            "name": "setMarketInfoDescription",
            "outputs": [],
            "stateMutability": "nonpayable",
            "type": "function"
        },
        {
            "inputs": [
                {
                    "internalType": "uint256",
                    "name": "_marketId",
                    "type": "uint256"
                },
                {
                    "internalType": "uint256",
                    "name": "_endTimestamp",
                    "type": "uint256"
                }
            ],
            "name": "setMarketInfoEndTimestamp",
            "outputs": [],
            "stateMutability": "nonpayable",
            "type": "function"
        },
        {
            "inputs": [
                {
                    "internalType": "uint256",
                    "name": "_marketId",
                    "type": "uint256"
                },
                {
                    "internalType": "string",
                    "name": "_Image",
                    "type": "string"
                }
            ],
            "name": "setMarketInfoImage",
            "outputs": [],
            "stateMutability": "nonpayable",
            "type": "function"
        },
        {
            "inputs": [
                {
                    "internalType": "uint256",
                    "name": "_marketId",
                    "type": "uint256"
                },
                {
                    "internalType": "bool",
                    "name": "_isTest",
                    "type": "bool"
                }
            ],
            "name": "setMarketInfoIsTest",
            "outputs": [],
            "stateMutability": "nonpayable",
            "type": "function"
        },
        {
            "inputs": [
                {
                    "internalType": "uint256",
                    "name": "_marketId",
                    "type": "uint256"
                },
                {
                    "internalType": "string",
                    "name": "_question",
                    "type": "string"
                }
            ],
            "name": "setMarketInfoQuestion",
            "outputs": [],
            "stateMutability": "nonpayable",
            "type": "function"
        },
        {
            "inputs": [
                {
                    "internalType": "uint256",
                    "name": "_marketId",
                    "type": "uint256"
                },
                {
                    "internalType": "string",
                    "name": "_resolverUrl",
                    "type": "string"
                }
            ],
            "name": "setMarketInfoResolverUrl",
            "outputs": [],
            "stateMutability": "nonpayable",
            "type": "function"
        },
        {
            "inputs": [
                {
                    "internalType": "address",
                    "name": "_newOwner",
                    "type": "address"
                }
            ],
            "name": "setNewOwner",
            "outputs": [],
            "stateMutability": "nonpayable",
            "type": "function"
        },
        {
            "inputs": [],
            "name": "sureToken",
            "outputs": [
                {
                    "internalType": "address",
                    "name": "",
                    "type": "address"
                }
            ],
            "stateMutability": "view",
            "type": "function"
        },
        {
            "inputs": [],
            "name": "totalMarkets",
            "outputs": [
                {
                    "internalType": "uint256",
                    "name": "",
                    "type": "uint256"
                }
            ],
            "stateMutability": "view",
            "type": "function"
        },
        {
            "inputs": [
                {
                    "internalType": "address",
                    "name": "_userAddress",
                    "type": "address"
                },
                {
                    "internalType": "uint256",
                    "name": "_marketId",
                    "type": "uint256"
                }
            ],
            "name": "updateUserBets",
            "outputs": [],
            "stateMutability": "nonpayable",
            "type": "function"
        }
    ],
    "bytecode": "0x608060405234801561001057600080fd5b5061559580620000216000396000f3fe6080604052600436106101665760003560e01c80638da5cb5b116100d1578063bf01fe001161008a578063cd811c2511610064578063cd811c251461050c578063eb3f75e21461054a578063ee81e4dd14610566578063f5a1f5b41461059157610166565b8063bf01fe001461049e578063c4d66de8146104ba578063c985649d146104e357610166565b80638da5cb5b1461038a578063931742d3146103b557806394743ae8146103e0578063a2023c8b14610409578063a937df6314610432578063b1283e771461045b57610166565b806359f071341161012357806359f07134146102765780635cc993ba146102b45780636323580d146102dd5780636dc84ad81461031a578063724ba40b146103435780638162486b1461035f57610166565b8063053550fa1461016b5780630aa69fa1146101945780631ccf6955146101bd5780631de6ebd8146101fb578063303cd7ca146102245780635034a6471461024d575b600080fd5b34801561017757600080fd5b50610192600480360381019061018d91906140fe565b6105ba565b005b3480156101a057600080fd5b506101bb60048036038101906101b69190614196565b610674565b005b3480156101c957600080fd5b506101e460048036038101906101df91906142a6565b61088f565b6040516101f2929190614414565b60405180910390f35b34801561020757600080fd5b50610222600480360381019061021d9190614477565b610d9b565b005b34801561023057600080fd5b5061024b600480360381019061024691906140fe565b610e7d565b005b34801561025957600080fd5b50610274600480360381019061026f91906144a4565b610f37565b005b34801561028257600080fd5b5061029d600480360381019061029891906144e4565b610ff8565b6040516102ab9291906148ae565b60405180910390f35b3480156102c057600080fd5b506102db60048036038101906102d691906140fe565b61160b565b005b3480156102e957600080fd5b5061030460048036038101906102ff9190614477565b6116c5565b60405161031191906148ed565b60405180910390f35b34801561032657600080fd5b50610341600480360381019061033c9190614908565b61171b565b005b61035d600480360381019061035891906144a4565b6117c9565b005b34801561036b57600080fd5b506103746121dc565b6040516103819190614948565b60405180910390f35b34801561039657600080fd5b5061039f6121e2565b6040516103ac9190614972565b60405180910390f35b3480156103c157600080fd5b506103ca612208565b6040516103d79190614972565b60405180910390f35b3480156103ec57600080fd5b5061040760048036038101906104029190614477565b61222e565b005b34801561041557600080fd5b50610430600480360381019061042b91906140fe565b61236b565b005b34801561043e57600080fd5b506104596004803603810190610454919061498d565b612425565b005b34801561046757600080fd5b50610482600480360381019061047d91906142a6565b612d41565b6040516104959796959493929190614a92565b60405180910390f35b6104b860048036038101906104b39190614908565b613075565b005b3480156104c657600080fd5b506104e160048036038101906104dc9190614477565b6133e2565b005b3480156104ef57600080fd5b5061050a60048036038101906105059190614b08565b613678565b005b34801561051857600080fd5b50610533600480360381019061052e919061498d565b6137b0565b604051610541929190614414565b60405180910390f35b610564600480360381019061055f9190614908565b6139e4565b005b34801561057257600080fd5b5061057b613d51565b6040516105889190614972565b60405180910390f35b34801561059d57600080fd5b506105b860048036038101906105b39190614477565b613d77565b005b600760003373ffffffffffffffffffffffffffffffffffffffff1673ffffffffffffffffffffffffffffffffffffffff16815260200190815260200160002060009054906101000a900460ff16610646576040517f08c379a000000000000000000000000000000000000000000000000000000000815260040161063d90614c89565b60405180910390fd5b818160046000868152602001908152602001600020600101600401918261066e929190614eef565b50505050565b600760003373ffffffffffffffffffffffffffffffffffffffff1673ffffffffffffffffffffffffffffffffffffffff16815260200190815260200160002060009054906101000a900460ff16610700576040517f08c379a00000000000000000000000000000000000000000000000000000000081526004016106f790614c89565b60405180910390fd5b6000429050600060046000600354815260200190815260200160002090506003600081548092919061073190614fee565b9190505581600001819055508b8b826001016000019182610753929190614eef565b50898982600101600401918261076a929190614eef565b50818160010160010181905550338160010160030160006101000a81548173ffffffffffffffffffffffffffffffffffffffff021916908373ffffffffffffffffffffffffffffffffffffffff160217905550828160010160070160006101000a81548160ff021916908315150217905550600081600b0181905550600081600c0181905550600081600d01819055508787826001016005019182610810929190614eef565b508585826001016006019182610827929190614eef565b508381600101600201819055507fe51b4ce9e60c0c010fcdef22c23537f954e056004aed674362555a9d11d037386003548d8d85338f8f60008060006040516108799a999897969594939291906150ad565b60405180910390a1505050505050505050505050565b606080600060046000858152602001908152602001600020604051806101200160405290816000820154815260200160018201604051806101000160405290816000820180546108de90614d12565b80601f016020809104026020016040519081016040528092919081815260200182805461090a90614d12565b80156109575780601f1061092c57610100808354040283529160200191610957565b820191906000526020600020905b81548152906001019060200180831161093a57829003601f168201915b5050505050815260200160018201548152602001600282015481526020016003820160009054906101000a900473ffffffffffffffffffffffffffffffffffffffff1673ffffffffffffffffffffffffffffffffffffffff1673ffffffffffffffffffffffffffffffffffffffff1681526020016004820180546109da90614d12565b80601f0160208091040260200160405190810160405280929190818152602001828054610a0690614d12565b8015610a535780601f10610a2857610100808354040283529160200191610a53565b820191906000526020600020905b815481529060010190602001808311610a3657829003601f168201915b50505050508152602001600582018054610a6c90614d12565b80601f0160208091040260200160405190810160405280929190818152602001828054610a9890614d12565b8015610ae55780601f10610aba57610100808354040283529160200191610ae5565b820191906000526020600020905b815481529060010190602001808311610ac857829003601f168201915b50505050508152602001600682018054610afe90614d12565b80601f0160208091040260200160405190810160405280929190818152602001828054610b2a90614d12565b8015610b775780601f10610b4c57610100808354040283529160200191610b77565b820191906000526020600020905b815481529060010190602001808311610b5a57829003601f168201915b505050505081526020016007820160009054906101000a900460ff161515151581525050815260200160098201805480602002602001604051908101604052809291908181526020016000905b82821015610c6057838290600052602060002090600302016040518060600160405290816000820160009054906101000a900473ffffffffffffffffffffffffffffffffffffffff1673ffffffffffffffffffffffffffffffffffffffff1673ffffffffffffffffffffffffffffffffffffffff1681526020016001820154815260200160028201548152505081526020019060010190610bc4565b505050508152602001600a8201805480602002602001604051908101604052809291908181526020016000905b82821015610d2957838290600052602060002090600302016040518060600160405290816000820160009054906101000a900473ffffffffffffffffffffffffffffffffffffffff1673ffffffffffffffffffffffffffffffffffffffff1673ffffffffffffffffffffffffffffffffffffffff1681526020016001820154815260200160028201548152505081526020019060010190610c8d565b505050508152602001600b8201548152602001600c8201548152602001600d8201548152602001600e820160009054906101000a900460ff16151515158152602001600e820160019054906101000a900460ff1615151515815250509050806040015181606001519250925050915091565b600160009054906101000a900473ffffffffffffffffffffffffffffffffffffffff1673ffffffffffffffffffffffffffffffffffffffff163373ffffffffffffffffffffffffffffffffffffffff1614610e2b576040517f08c379a0000000000000000000000000000000000000000000000000000000008152600401610e2290614c89565b60405180910390fd5b600760008273ffffffffffffffffffffffffffffffffffffffff1673ffffffffffffffffffffffffffffffffffffffff16815260200190815260200160002060006101000a81549060ff021916905550565b600760003373ffffffffffffffffffffffffffffffffffffffff1673ffffffffffffffffffffffffffffffffffffffff16815260200190815260200160002060009054906101000a900460ff16610f09576040517f08c379a0000000000000000000000000000000000000000000000000000000008152600401610f0090614c89565b60405180910390fd5b8181600460008681526020019081526020016000206001016005019182610f31929190614eef565b50505050565b600760003373ffffffffffffffffffffffffffffffffffffffff1673ffffffffffffffffffffffffffffffffffffffff16815260200190815260200160002060009054906101000a900460ff16610fc3576040517f08c379a0000000000000000000000000000000000000000000000000000000008152600401610fba90614c89565b60405180910390fd5b806004600084815260200190815260200160002060010160070160006101000a81548160ff0219169083151502179055505050565b6060600080611008868686613e4b565b90508067ffffffffffffffff81111561102457611023614cb4565b5b60405190808252806020026020018201604052801561105d57816020015b61104a613ef6565b8152602001906001900390816110425790505b50925060008060008890505b6003548110156115ed57861580156110a457506004600082815260200190815260200160002060010160070160009054906101000a900460ff165b6115da5760046000828152602001908152602001600020604051806101200160405290816000820154815260200160018201604051806101000160405290816000820180546110f290614d12565b80601f016020809104026020016040519081016040528092919081815260200182805461111e90614d12565b801561116b5780601f106111405761010080835404028352916020019161116b565b820191906000526020600020905b81548152906001019060200180831161114e57829003601f168201915b5050505050815260200160018201548152602001600282015481526020016003820160009054906101000a900473ffffffffffffffffffffffffffffffffffffffff1673ffffffffffffffffffffffffffffffffffffffff1673ffffffffffffffffffffffffffffffffffffffff1681526020016004820180546111ee90614d12565b80601f016020809104026020016040519081016040528092919081815260200182805461121a90614d12565b80156112675780601f1061123c57610100808354040283529160200191611267565b820191906000526020600020905b81548152906001019060200180831161124a57829003601f168201915b5050505050815260200160058201805461128090614d12565b80601f01602080910402602001604051908101604052809291908181526020018280546112ac90614d12565b80156112f95780601f106112ce576101008083540402835291602001916112f9565b820191906000526020600020905b8154815290600101906020018083116112dc57829003601f168201915b5050505050815260200160068201805461131290614d12565b80601f016020809104026020016040519081016040528092919081815260200182805461133e90614d12565b801561138b5780601f106113605761010080835404028352916020019161138b565b820191906000526020600020905b81548152906001019060200180831161136e57829003601f168201915b505050505081526020016007820160009054906101000a900460ff161515151581525050815260200160098201805480602002602001604051908101604052809291908181526020016000905b8282101561147457838290600052602060002090600302016040518060600160405290816000820160009054906101000a900473ffffffffffffffffffffffffffffffffffffffff1673ffffffffffffffffffffffffffffffffffffffff1673ffffffffffffffffffffffffffffffffffffffff16815260200160018201548152602001600282015481525050815260200190600101906113d8565b505050508152602001600a8201805480602002602001604051908101604052809291908181526020016000905b8282101561153d57838290600052602060002090600302016040518060600160405290816000820160009054906101000a900473ffffffffffffffffffffffffffffffffffffffff1673ffffffffffffffffffffffffffffffffffffffff1673ffffffffffffffffffffffffffffffffffffffff16815260200160018201548152602001600282015481525050815260200190600101906114a1565b505050508152602001600b8201548152602001600c8201548152602001600d8201548152602001600e820160009054906101000a900460ff16151515158152602001600e820160019054906101000a900460ff1615151515815250508684806115a590614fee565b9550815181106115b8576115b761513d565b5b602002602001018190525081806115ce90614fee565b925050878210156115ed575b80806115e590614fee565b915050611069565b856001826115fb919061516c565b9550955050505050935093915050565b600760003373ffffffffffffffffffffffffffffffffffffffff1673ffffffffffffffffffffffffffffffffffffffff16815260200190815260200160002060009054906101000a900460ff16611697576040517f08c379a000000000000000000000000000000000000000000000000000000000815260040161168e90614c89565b60405180910390fd5b81816004600086815260200190815260200160002060010160060191826116bf929190614eef565b50505050565b6000600760008373ffffffffffffffffffffffffffffffffffffffff1673ffffffffffffffffffffffffffffffffffffffff16815260200190815260200160002060009054906101000a900460ff169050919050565b600760003373ffffffffffffffffffffffffffffffffffffffff1673ffffffffffffffffffffffffffffffffffffffff16815260200190815260200160002060009054906101000a900460ff166117a7576040517f08c379a000000000000000000000000000000000000000000000000000000000815260040161179e90614c89565b60405180910390fd5b8060046000848152602001908152602001600020600101600201819055505050565b600760003373ffffffffffffffffffffffffffffffffffffffff1673ffffffffffffffffffffffffffffffffffffffff16815260200190815260200160002060009054906101000a900460ff16611855576040517f08c379a000000000000000000000000000000000000000000000000000000000815260040161184c90614c89565b60405180910390fd5b60006063905060006064905060006004600086815260200190815260200160002090508315611d0f576000828483600d015461189191906151a0565b61189b9190615211565b90506000805b8360090180549050811015611a9157600084600c01548560090183815481106118cd576118cc61513d565b5b906000526020600020906003020160010154856118ea91906151a0565b6118f49190615211565b90508083611902919061516c565b925084600901828154811061191a5761191961513d565b5b90600052602060002090600302016001015481611937919061516c565b600560008760090185815481106119515761195061513d565b5b906000526020600020906003020160000160009054906101000a900473ffffffffffffffffffffffffffffffffffffffff1673ffffffffffffffffffffffffffffffffffffffff1673ffffffffffffffffffffffffffffffffffffffff16815260200190815260200160002060008282546119cc919061516c565b9250508190555060068560090183815481106119eb576119ea61513d565b5b906000526020600020906003020160000160009054906101000a900473ffffffffffffffffffffffffffffffffffffffff169080600181540180825580915050600190039060005260206000200160009091909190916101000a81548173ffffffffffffffffffffffffffffffffffffffff021916908373ffffffffffffffffffffffffffffffffffffffff160217905550508080611a8990614fee565b9150506118a1565b5060005b600680549050811015611c1c57600060068281548110611ab857611ab761513d565b5b9060005260206000200160009054906101000a900473ffffffffffffffffffffffffffffffffffffffff169050600260009054906101000a900473ffffffffffffffffffffffffffffffffffffffff1673ffffffffffffffffffffffffffffffffffffffff1663a9059cbb82600560008573ffffffffffffffffffffffffffffffffffffffff1673ffffffffffffffffffffffffffffffffffffffff168152602001908152602001600020546040518363ffffffff1660e01b8152600401611b81929190615297565b6020604051808303816000875af1158015611ba0573d6000803e3d6000fd5b505050506040513d601f19601f82011682018060405250810190611bc491906152d5565b50600560008273ffffffffffffffffffffffffffffffffffffffff1673ffffffffffffffffffffffffffffffffffffffff16815260200190815260200160002060009055508080611c1490614fee565b915050611a95565b5060008184600d0154611c2f9190615302565b905060008060029054906101000a900473ffffffffffffffffffffffffffffffffffffffff169050600260009054906101000a900473ffffffffffffffffffffffffffffffffffffffff1673ffffffffffffffffffffffffffffffffffffffff1663a9059cbb82846040518363ffffffff1660e01b8152600401611cb4929190615297565b6020604051808303816000875af1158015611cd3573d6000803e3d6000fd5b505050506040513d601f19601f82011682018060405250810190611cf791906152d5565b5060066000611d069190613f4c565b5050505061219c565b6000828483600c0154611d2291906151a0565b611d2c9190615211565b90506000805b83600a0180549050811015611f2257600084600d015485600a018381548110611d5e57611d5d61513d565b5b90600052602060002090600302016001015485611d7b91906151a0565b611d859190615211565b90508083611d93919061516c565b925084600a018281548110611dab57611daa61513d565b5b90600052602060002090600302016001015481611dc8919061516c565b6005600087600a018581548110611de257611de161513d565b5b906000526020600020906003020160000160009054906101000a900473ffffffffffffffffffffffffffffffffffffffff1673ffffffffffffffffffffffffffffffffffffffff1673ffffffffffffffffffffffffffffffffffffffff1681526020019081526020016000206000828254611e5d919061516c565b92505081905550600685600a018381548110611e7c57611e7b61513d565b5b906000526020600020906003020160000160009054906101000a900473ffffffffffffffffffffffffffffffffffffffff169080600181540180825580915050600190039060005260206000200160009091909190916101000a81548173ffffffffffffffffffffffffffffffffffffffff021916908373ffffffffffffffffffffffffffffffffffffffff160217905550508080611f1a90614fee565b915050611d32565b5060005b6006805490508110156120ad57600060068281548110611f4957611f4861513d565b5b9060005260206000200160009054906101000a900473ffffffffffffffffffffffffffffffffffffffff169050600260009054906101000a900473ffffffffffffffffffffffffffffffffffffffff1673ffffffffffffffffffffffffffffffffffffffff1663a9059cbb82600560008573ffffffffffffffffffffffffffffffffffffffff1673ffffffffffffffffffffffffffffffffffffffff168152602001908152602001600020546040518363ffffffff1660e01b8152600401612012929190615297565b6020604051808303816000875af1158015612031573d6000803e3d6000fd5b505050506040513d601f19601f8201168201806040525081019061205591906152d5565b50600560008273ffffffffffffffffffffffffffffffffffffffff1673ffffffffffffffffffffffffffffffffffffffff168152602001908152602001600020600090555080806120a590614fee565b915050611f26565b5060008184600c01546120c09190615302565b905060008060029054906101000a900473ffffffffffffffffffffffffffffffffffffffff169050600260009054906101000a900473ffffffffffffffffffffffffffffffffffffffff1673ffffffffffffffffffffffffffffffffffffffff1663a9059cbb82846040518363ffffffff1660e01b8152600401612145929190615297565b6020604051808303816000875af1158015612164573d6000803e3d6000fd5b505050506040513d601f19601f8201168201806040525081019061218891906152d5565b50600660006121979190613f4c565b505050505b8381600e0160016101000a81548160ff021916908315150217905550600181600e0160006101000a81548160ff0219169083151502179055505050505050565b60035481565b600160009054906101000a900473ffffffffffffffffffffffffffffffffffffffff1681565b600060029054906101000a900473ffffffffffffffffffffffffffffffffffffffff1681565b600160009054906101000a900473ffffffffffffffffffffffffffffffffffffffff1673ffffffffffffffffffffffffffffffffffffffff163373ffffffffffffffffffffffffffffffffffffffff16146122be576040517f08c379a00000000000000000000000000000000000000000000000000000000081526004016122b590614c89565b60405180910390fd5b600760008273ffffffffffffffffffffffffffffffffffffffff1673ffffffffffffffffffffffffffffffffffffffff16815260200190815260200160002060009054906101000a900460ff16612368576001600760008373ffffffffffffffffffffffffffffffffffffffff1673ffffffffffffffffffffffffffffffffffffffff16815260200190815260200160002060006101000a81548160ff0219169083151502179055505b50565b600760003373ffffffffffffffffffffffffffffffffffffffff1673ffffffffffffffffffffffffffffffffffffffff16815260200190815260200160002060009054906101000a900460ff166123f7576040517f08c379a00000000000000000000000000000000000000000000000000000000081526004016123ee90614c89565b60405180910390fd5b818160046000868152602001908152602001600020600101600001918261241f929190614eef565b50505050565b600760003373ffffffffffffffffffffffffffffffffffffffff1673ffffffffffffffffffffffffffffffffffffffff16815260200190815260200160002060009054906101000a900460ff166124b1576040517f08c379a00000000000000000000000000000000000000000000000000000000081526004016124a890614c89565b60405180910390fd5b600060046000838152602001908152602001600020604051806101200160405290816000820154815260200160018201604051806101000160405290816000820180546124fd90614d12565b80601f016020809104026020016040519081016040528092919081815260200182805461252990614d12565b80156125765780601f1061254b57610100808354040283529160200191612576565b820191906000526020600020905b81548152906001019060200180831161255957829003601f168201915b5050505050815260200160018201548152602001600282015481526020016003820160009054906101000a900473ffffffffffffffffffffffffffffffffffffffff1673ffffffffffffffffffffffffffffffffffffffff1673ffffffffffffffffffffffffffffffffffffffff1681526020016004820180546125f990614d12565b80601f016020809104026020016040519081016040528092919081815260200182805461262590614d12565b80156126725780601f1061264757610100808354040283529160200191612672565b820191906000526020600020905b81548152906001019060200180831161265557829003601f168201915b5050505050815260200160058201805461268b90614d12565b80601f01602080910402602001604051908101604052809291908181526020018280546126b790614d12565b80156127045780601f106126d957610100808354040283529160200191612704565b820191906000526020600020905b8154815290600101906020018083116126e757829003601f168201915b5050505050815260200160068201805461271d90614d12565b80601f016020809104026020016040519081016040528092919081815260200182805461274990614d12565b80156127965780601f1061276b57610100808354040283529160200191612796565b820191906000526020600020905b81548152906001019060200180831161277957829003601f168201915b505050505081526020016007820160009054906101000a900460ff161515151581525050815260200160098201805480602002602001604051908101604052809291908181526020016000905b8282101561287f57838290600052602060002090600302016040518060600160405290816000820160009054906101000a900473ffffffffffffffffffffffffffffffffffffffff1673ffffffffffffffffffffffffffffffffffffffff1673ffffffffffffffffffffffffffffffffffffffff16815260200160018201548152602001600282015481525050815260200190600101906127e3565b505050508152602001600a8201805480602002602001604051908101604052809291908181526020016000905b8282101561294857838290600052602060002090600302016040518060600160405290816000820160009054906101000a900473ffffffffffffffffffffffffffffffffffffffff1673ffffffffffffffffffffffffffffffffffffffff1673ffffffffffffffffffffffffffffffffffffffff16815260200160018201548152602001600282015481525050815260200190600101906128ac565b505050508152602001600b8201548152602001600c8201548152602001600d8201548152602001600e820160009054906101000a900460ff16151515158152602001600e820160019054906101000a900460ff1615151515815250509050600860008473ffffffffffffffffffffffffffffffffffffffff1673ffffffffffffffffffffffffffffffffffffffff16815260200190815260200160002060008381526020019081526020016000206000612a029190613f6d565b60005b816040015151811015612b70578373ffffffffffffffffffffffffffffffffffffffff1682604001518281518110612a4057612a3f61513d565b5b60200260200101516000015173ffffffffffffffffffffffffffffffffffffffff1603612b5d57600860008573ffffffffffffffffffffffffffffffffffffffff1673ffffffffffffffffffffffffffffffffffffffff168152602001908152602001600020600084815260200190815260200160002082604001518281518110612ace57612acd61513d565b5b6020026020010151908060018154018082558091505060019003906000526020600020906003020160009091909190915060008201518160000160006101000a81548173ffffffffffffffffffffffffffffffffffffffff021916908373ffffffffffffffffffffffffffffffffffffffff160217905550602082015181600101556040820151816002015550505b8080612b6890614fee565b915050612a05565b50600960008473ffffffffffffffffffffffffffffffffffffffff1673ffffffffffffffffffffffffffffffffffffffff16815260200190815260200160002060008381526020019081526020016000206000612bcd9190613f6d565b60005b816060015151811015612d3b578373ffffffffffffffffffffffffffffffffffffffff1682606001518281518110612c0b57612c0a61513d565b5b60200260200101516000015173ffffffffffffffffffffffffffffffffffffffff1603612d2857600960008573ffffffffffffffffffffffffffffffffffffffff1673ffffffffffffffffffffffffffffffffffffffff168152602001908152602001600020600084815260200190815260200160002082606001518281518110612c9957612c9861513d565b5b6020026020010151908060018154018082558091505060019003906000526020600020906003020160009091909190915060008201518160000160006101000a81548173ffffffffffffffffffffffffffffffffffffffff021916908373ffffffffffffffffffffffffffffffffffffffff160217905550602082015181600101556040820151816002015550505b8080612d3390614fee565b915050612bd0565b50505050565b60046020528060005260406000206000915090508060000154908060010160405180610100016040529081600082018054612d7b90614d12565b80601f0160208091040260200160405190810160405280929190818152602001828054612da790614d12565b8015612df45780601f10612dc957610100808354040283529160200191612df4565b820191906000526020600020905b815481529060010190602001808311612dd757829003601f168201915b5050505050815260200160018201548152602001600282015481526020016003820160009054906101000a900473ffffffffffffffffffffffffffffffffffffffff1673ffffffffffffffffffffffffffffffffffffffff1673ffffffffffffffffffffffffffffffffffffffff168152602001600482018054612e7790614d12565b80601f0160208091040260200160405190810160405280929190818152602001828054612ea390614d12565b8015612ef05780601f10612ec557610100808354040283529160200191612ef0565b820191906000526020600020905b815481529060010190602001808311612ed357829003601f168201915b50505050508152602001600582018054612f0990614d12565b80601f0160208091040260200160405190810160405280929190818152602001828054612f3590614d12565b8015612f825780601f10612f5757610100808354040283529160200191612f82565b820191906000526020600020905b815481529060010190602001808311612f6557829003601f168201915b50505050508152602001600682018054612f9b90614d12565b80601f0160208091040260200160405190810160405280929190818152602001828054612fc790614d12565b80156130145780601f10612fe957610100808354040283529160200191613014565b820191906000526020600020905b815481529060010190602001808311612ff757829003601f168201915b505050505081526020016007820160009054906101000a900460ff1615151515815250509080600b01549080600c01549080600d01549080600e0160009054906101000a900460ff169080600e0160019054906101000a900460ff16905087565b600260009054906101000a900473ffffffffffffffffffffffffffffffffffffffff1673ffffffffffffffffffffffffffffffffffffffff1663dd62ed3e33306040518363ffffffff1660e01b81526004016130d2929190615336565b602060405180830381865afa1580156130ef573d6000803e3d6000fd5b505050506040513d601f19601f820116820180604052508101906131139190615374565b811115613155576040517f08c379a000000000000000000000000000000000000000000000000000000000815260040161314c90615413565b60405180910390fd5b6000600460008481526020019081526020016000209050600260009054906101000a900473ffffffffffffffffffffffffffffffffffffffff1673ffffffffffffffffffffffffffffffffffffffff166323b872dd3330856040518463ffffffff1660e01b81526004016131cb93929190615433565b6020604051808303816000875af11580156131ea573d6000803e3d6000fd5b505050506040513d601f19601f8201168201806040525081019061320e91906152d5565b50600060405180606001604052803373ffffffffffffffffffffffffffffffffffffffff1681526020018481526020014281525090508282600d016000828254613258919061516c565b925050819055508282600b016000828254613273919061516c565b9250508190555081600a0181908060018154018082558091505060019003906000526020600020906003020160009091909190915060008201518160000160006101000a81548173ffffffffffffffffffffffffffffffffffffffff021916908373ffffffffffffffffffffffffffffffffffffffff16021790555060208201518160010155604082015181600201555050600960003373ffffffffffffffffffffffffffffffffffffffff1673ffffffffffffffffffffffffffffffffffffffff168152602001908152602001600020600085815260200190815260200160002081908060018154018082558091505060019003906000526020600020906003020160009091909190915060008201518160000160006101000a81548173ffffffffffffffffffffffffffffffffffffffff021916908373ffffffffffffffffffffffffffffffffffffffff1602179055506020820151816001015560408201518160020155505050505050565b60008060019054906101000a900460ff161590508080156134135750600160008054906101000a900460ff1660ff16105b80613440575061342230613ed3565b15801561343f5750600160008054906101000a900460ff1660ff16145b5b61347f576040517f08c379a0000000000000000000000000000000000000000000000000000000008152600401613476906154dc565b60405180910390fd5b60016000806101000a81548160ff021916908360ff16021790555080156134bc576001600060016101000a81548160ff0219169083151502179055505b81600260006101000a81548173ffffffffffffffffffffffffffffffffffffffff021916908373ffffffffffffffffffffffffffffffffffffffff16021790555033600160006101000a81548173ffffffffffffffffffffffffffffffffffffffff021916908373ffffffffffffffffffffffffffffffffffffffff160217905550600160009054906101000a900473ffffffffffffffffffffffffffffffffffffffff16600060026101000a81548173ffffffffffffffffffffffffffffffffffffffff021916908373ffffffffffffffffffffffffffffffffffffffff160217905550600160076000600160009054906101000a900473ffffffffffffffffffffffffffffffffffffffff1673ffffffffffffffffffffffffffffffffffffffff1673ffffffffffffffffffffffffffffffffffffffff16815260200190815260200160002060006101000a81548160ff02191690831515021790555080156136745760008060016101000a81548160ff0219169083151502179055507f7f26b83ff96e1f2b6a682f133852f6798a09c465da95921460cefb3847402498600160405161366b9190615544565b60405180910390a15b5050565b600760003373ffffffffffffffffffffffffffffffffffffffff1673ffffffffffffffffffffffffffffffffffffffff16815260200190815260200160002060009054906101000a900460ff16613704576040517f08c379a00000000000000000000000000000000000000000000000000000000081526004016136fb90614c89565b60405180910390fd5b6000600460008d815260200190815260200160002090508a8a826001016000019182613731929190614eef565b508888826001016004019182613748929190614eef565b50868682600101600501918261375f929190614eef565b508484826001016006019182613776929190614eef565b50828160010160020181905550818160010160070160006101000a81548160ff021916908315150217905550505050505050505050505050565b606080600860008573ffffffffffffffffffffffffffffffffffffffff1673ffffffffffffffffffffffffffffffffffffffff1681526020019081526020016000206000848152602001908152602001600020600960008673ffffffffffffffffffffffffffffffffffffffff1673ffffffffffffffffffffffffffffffffffffffff168152602001908152602001600020600085815260200190815260200160002081805480602002602001604051908101604052809291908181526020016000905b8282101561391057838290600052602060002090600302016040518060600160405290816000820160009054906101000a900473ffffffffffffffffffffffffffffffffffffffff1673ffffffffffffffffffffffffffffffffffffffff1673ffffffffffffffffffffffffffffffffffffffff1681526020016001820154815260200160028201548152505081526020019060010190613874565b50505050915080805480602002602001604051908101604052809291908181526020016000905b828210156139d357838290600052602060002090600302016040518060600160405290816000820160009054906101000a900473ffffffffffffffffffffffffffffffffffffffff1673ffffffffffffffffffffffffffffffffffffffff1673ffffffffffffffffffffffffffffffffffffffff1681526020016001820154815260200160028201548152505081526020019060010190613937565b505050509050915091509250929050565b600260009054906101000a900473ffffffffffffffffffffffffffffffffffffffff1673ffffffffffffffffffffffffffffffffffffffff1663dd62ed3e33306040518363ffffffff1660e01b8152600401613a41929190615336565b602060405180830381865afa158015613a5e573d6000803e3d6000fd5b505050506040513d601f19601f82011682018060405250810190613a829190615374565b811115613ac4576040517f08c379a0000000000000000000000000000000000000000000000000000000008152600401613abb90615413565b60405180910390fd5b6000600460008481526020019081526020016000209050600260009054906101000a900473ffffffffffffffffffffffffffffffffffffffff1673ffffffffffffffffffffffffffffffffffffffff166323b872dd3330856040518463ffffffff1660e01b8152600401613b3a93929190615433565b6020604051808303816000875af1158015613b59573d6000803e3d6000fd5b505050506040513d601f19601f82011682018060405250810190613b7d91906152d5565b50600060405180606001604052803373ffffffffffffffffffffffffffffffffffffffff1681526020018481526020014281525090508282600c016000828254613bc7919061516c565b925050819055508282600b016000828254613be2919061516c565b925050819055508160090181908060018154018082558091505060019003906000526020600020906003020160009091909190915060008201518160000160006101000a81548173ffffffffffffffffffffffffffffffffffffffff021916908373ffffffffffffffffffffffffffffffffffffffff16021790555060208201518160010155604082015181600201555050600860003373ffffffffffffffffffffffffffffffffffffffff1673ffffffffffffffffffffffffffffffffffffffff168152602001908152602001600020600085815260200190815260200160002081908060018154018082558091505060019003906000526020600020906003020160009091909190915060008201518160000160006101000a81548173ffffffffffffffffffffffffffffffffffffffff021916908373ffffffffffffffffffffffffffffffffffffffff1602179055506020820151816001015560408201518160020155505050505050565b600260009054906101000a900473ffffffffffffffffffffffffffffffffffffffff1681565b600160009054906101000a900473ffffffffffffffffffffffffffffffffffffffff1673ffffffffffffffffffffffffffffffffffffffff163373ffffffffffffffffffffffffffffffffffffffff1614613e07576040517f08c379a0000000000000000000000000000000000000000000000000000000008152600401613dfe90614c89565b60405180910390fd5b80600160006101000a81548173ffffffffffffffffffffffffffffffffffffffff021916908373ffffffffffffffffffffffffffffffffffffffff16021790555050565b60008060008590505b600354811015613ec65783158015613e8f57506004600082815260200190815260200160002060010160070160009054906101000a900460ff165b613eb3578180613e9e90614fee565b925050848210613eb2578192505050613ecc565b5b8080613ebe90614fee565b915050613e54565b50809150505b9392505050565b6000808273ffffffffffffffffffffffffffffffffffffffff163b119050919050565b60405180610120016040528060008152602001613f11613f91565b815260200160608152602001606081526020016000815260200160008152602001600081526020016000151581526020016000151581525090565b5080546000825590600052602060002090810190613f6a9190613fee565b50565b5080546000825560030290600052602060002090810190613f8e919061400b565b50565b604051806101000160405280606081526020016000815260200160008152602001600073ffffffffffffffffffffffffffffffffffffffff1681526020016060815260200160608152602001606081526020016000151581525090565b5b80821115614007576000816000905550600101613fef565b5090565b5b8082111561405557600080820160006101000a81549073ffffffffffffffffffffffffffffffffffffffff0219169055600182016000905560028201600090555060030161400c565b5090565b600080fd5b600080fd5b6000819050919050565b61407681614063565b811461408157600080fd5b50565b6000813590506140938161406d565b92915050565b600080fd5b600080fd5b600080fd5b60008083601f8401126140be576140bd614099565b5b8235905067ffffffffffffffff8111156140db576140da61409e565b5b6020830191508360018202830111156140f7576140f66140a3565b5b9250929050565b60008060006040848603121561411757614116614059565b5b600061412586828701614084565b935050602084013567ffffffffffffffff8111156141465761414561405e565b5b614152868287016140a8565b92509250509250925092565b60008115159050919050565b6141738161415e565b811461417e57600080fd5b50565b6000813590506141908161416a565b92915050565b60008060008060008060008060008060c08b8d0312156141b9576141b8614059565b5b60008b013567ffffffffffffffff8111156141d7576141d661405e565b5b6141e38d828e016140a8565b9a509a505060208b013567ffffffffffffffff8111156142065761420561405e565b5b6142128d828e016140a8565b985098505060408b013567ffffffffffffffff8111156142355761423461405e565b5b6142418d828e016140a8565b965096505060608b013567ffffffffffffffff8111156142645761426361405e565b5b6142708d828e016140a8565b945094505060806142838d828e01614084565b92505060a06142948d828e01614181565b9150509295989b9194979a5092959850565b6000602082840312156142bc576142bb614059565b5b60006142ca84828501614084565b91505092915050565b600081519050919050565b600082825260208201905092915050565b6000819050602082019050919050565b600073ffffffffffffffffffffffffffffffffffffffff82169050919050565b600061432a826142ff565b9050919050565b61433a8161431f565b82525050565b61434981614063565b82525050565b6060820160008201516143656000850182614331565b5060208201516143786020850182614340565b50604082015161438b6040850182614340565b50505050565b600061439d838361434f565b60608301905092915050565b6000602082019050919050565b60006143c1826142d3565b6143cb81856142de565b93506143d6836142ef565b8060005b838110156144075781516143ee8882614391565b97506143f9836143a9565b9250506001810190506143da565b5085935050505092915050565b6000604082019050818103600083015261442e81856143b6565b9050818103602083015261444281846143b6565b90509392505050565b6144548161431f565b811461445f57600080fd5b50565b6000813590506144718161444b565b92915050565b60006020828403121561448d5761448c614059565b5b600061449b84828501614462565b91505092915050565b600080604083850312156144bb576144ba614059565b5b60006144c985828601614084565b92505060206144da85828601614181565b9150509250929050565b6000806000606084860312156144fd576144fc614059565b5b600061450b86828701614084565b935050602061451c86828701614084565b925050604061452d86828701614181565b9150509250925092565b600081519050919050565b600082825260208201905092915050565b6000819050602082019050919050565b600081519050919050565b600082825260208201905092915050565b60005b8381101561459d578082015181840152602081019050614582565b60008484015250505050565b6000601f19601f8301169050919050565b60006145c582614563565b6145cf818561456e565b93506145df81856020860161457f565b6145e8816145a9565b840191505092915050565b6145fc8161415e565b82525050565b600061010083016000830151848203600086015261462082826145ba565b91505060208301516146356020860182614340565b5060408301516146486040860182614340565b50606083015161465b6060860182614331565b506080830151848203608086015261467382826145ba565b91505060a083015184820360a086015261468d82826145ba565b91505060c083015184820360c08601526146a782826145ba565b91505060e08301516146bc60e08601826145f3565b508091505092915050565b600082825260208201905092915050565b60006146e3826142d3565b6146ed81856146c7565b93506146f8836142ef565b8060005b838110156147295781516147108882614391565b975061471b836143a9565b9250506001810190506146fc565b5085935050505092915050565b60006101208301600083015161474f6000860182614340565b50602083015184820360208601526147678282614602565b9150506040830151848203604086015261478182826146d8565b9150506060830151848203606086015261479b82826146d8565b91505060808301516147b06080860182614340565b5060a08301516147c360a0860182614340565b5060c08301516147d660c0860182614340565b5060e08301516147e960e08601826145f3565b506101008301516147fe6101008601826145f3565b508091505092915050565b60006148158383614736565b905092915050565b6000602082019050919050565b600061483582614537565b61483f8185614542565b93508360208202850161485185614553565b8060005b8581101561488d578484038952815161486e8582614809565b94506148798361481d565b925060208a01995050600181019050614855565b50829750879550505050505092915050565b6148a881614063565b82525050565b600060408201905081810360008301526148c8818561482a565b90506148d7602083018461489f565b9392505050565b6148e78161415e565b82525050565b600060208201905061490260008301846148de565b92915050565b6000806040838503121561491f5761491e614059565b5b600061492d85828601614084565b925050602061493e85828601614084565b9150509250929050565b600060208201905061495d600083018461489f565b92915050565b61496c8161431f565b82525050565b60006020820190506149876000830184614963565b92915050565b600080604083850312156149a4576149a3614059565b5b60006149b285828601614462565b92505060206149c385828601614084565b9150509250929050565b60006101008301600083015184820360008601526149eb82826145ba565b9150506020830151614a006020860182614340565b506040830151614a136040860182614340565b506060830151614a266060860182614331565b5060808301518482036080860152614a3e82826145ba565b91505060a083015184820360a0860152614a5882826145ba565b91505060c083015184820360c0860152614a7282826145ba565b91505060e0830151614a8760e08601826145f3565b508091505092915050565b600060e082019050614aa7600083018a61489f565b8181036020830152614ab981896149cd565b9050614ac8604083018861489f565b614ad5606083018761489f565b614ae2608083018661489f565b614aef60a08301856148de565b614afc60c08301846148de565b98975050505050505050565b600080600080600080600080600080600060e08c8e031215614b2d57614b2c614059565b5b6000614b3b8e828f01614084565b9b505060208c013567ffffffffffffffff811115614b5c57614b5b61405e565b5b614b688e828f016140a8565b9a509a505060408c013567ffffffffffffffff811115614b8b57614b8a61405e565b5b614b978e828f016140a8565b985098505060608c013567ffffffffffffffff811115614bba57614bb961405e565b5b614bc68e828f016140a8565b965096505060808c013567ffffffffffffffff811115614be957614be861405e565b5b614bf58e828f016140a8565b945094505060a0614c088e828f01614084565b92505060c0614c198e828f01614181565b9150509295989b509295989b9093969950565b600082825260208201905092915050565b7f556e617574686f72697a65640000000000000000000000000000000000000000600082015250565b6000614c73600c83614c2c565b9150614c7e82614c3d565b602082019050919050565b60006020820190508181036000830152614ca281614c66565b9050919050565b600082905092915050565b7f4e487b7100000000000000000000000000000000000000000000000000000000600052604160045260246000fd5b7f4e487b7100000000000000000000000000000000000000000000000000000000600052602260045260246000fd5b60006002820490506001821680614d2a57607f821691505b602082108103614d3d57614d3c614ce3565b5b50919050565b60008190508160005260206000209050919050565b60006020601f8301049050919050565b600082821b905092915050565b600060088302614da57fffffffffffffffffffffffffffffffffffffffffffffffffffffffffffffffff82614d68565b614daf8683614d68565b95508019841693508086168417925050509392505050565b6000819050919050565b6000614dec614de7614de284614063565b614dc7565b614063565b9050919050565b6000819050919050565b614e0683614dd1565b614e1a614e1282614df3565b848454614d75565b825550505050565b600090565b614e2f614e22565b614e3a818484614dfd565b505050565b5b81811015614e5e57614e53600082614e27565b600181019050614e40565b5050565b601f821115614ea357614e7481614d43565b614e7d84614d58565b81016020851015614e8c578190505b614ea0614e9885614d58565b830182614e3f565b50505b505050565b600082821c905092915050565b6000614ec660001984600802614ea8565b1980831691505092915050565b6000614edf8383614eb5565b9150826002028217905092915050565b614ef98383614ca9565b67ffffffffffffffff811115614f1257614f11614cb4565b5b614f1c8254614d12565b614f27828285614e62565b6000601f831160018114614f565760008415614f44578287013590505b614f4e8582614ed3565b865550614fb6565b601f198416614f6486614d43565b60005b82811015614f8c57848901358255600182019150602085019450602081019050614f67565b86831015614fa95784890135614fa5601f891682614eb5565b8355505b6001600288020188555050505b50505050505050565b7f4e487b7100000000000000000000000000000000000000000000000000000000600052601160045260246000fd5b6000614ff982614063565b91507fffffffffffffffffffffffffffffffffffffffffffffffffffffffffffffffff820361502b5761502a614fbf565b5b600182019050919050565b82818337600083830152505050565b60006150518385614c2c565b935061505e838584615036565b615067836145a9565b840190509392505050565b6000819050919050565b600061509761509261508d84615072565b614dc7565b614063565b9050919050565b6150a78161507c565b82525050565b6000610100820190506150c3600083018d61489f565b81810360208301526150d6818b8d615045565b90506150e5604083018a61489f565b6150f26060830189614963565b8181036080830152615105818789615045565b905061511460a083018661509e565b61512160c083018561509e565b61512e60e083018461509e565b9b9a5050505050505050505050565b7f4e487b7100000000000000000000000000000000000000000000000000000000600052603260045260246000fd5b600061517782614063565b915061518283614063565b925082820190508082111561519a57615199614fbf565b5b92915050565b60006151ab82614063565b91506151b683614063565b92508282026151c481614063565b915082820484148315176151db576151da614fbf565b5b5092915050565b7f4e487b7100000000000000000000000000000000000000000000000000000000600052601260045260246000fd5b600061521c82614063565b915061522783614063565b925082615237576152366151e2565b5b828204905092915050565b600061525d615258615253846142ff565b614dc7565b6142ff565b9050919050565b600061526f82615242565b9050919050565b600061528182615264565b9050919050565b61529181615276565b82525050565b60006040820190506152ac6000830185615288565b6152b9602083018461489f565b9392505050565b6000815190506152cf8161416a565b92915050565b6000602082840312156152eb576152ea614059565b5b60006152f9848285016152c0565b91505092915050565b600061530d82614063565b915061531883614063565b92508282039050818111156153305761532f614fbf565b5b92915050565b600060408201905061534b6000830185614963565b6153586020830184614963565b9392505050565b60008151905061536e8161406d565b92915050565b60006020828403121561538a57615389614059565b5b60006153988482850161535f565b91505092915050565b7f4e6f7420616c6c6f77656420746f207370656e64207468697320616d6f756e7460008201527f2e00000000000000000000000000000000000000000000000000000000000000602082015250565b60006153fd602183614c2c565b9150615408826153a1565b604082019050919050565b6000602082019050818103600083015261542c816153f0565b9050919050565b60006060820190506154486000830186614963565b6154556020830185614963565b615462604083018461489f565b949350505050565b7f496e697469616c697a61626c653a20636f6e747261637420697320616c72656160008201527f647920696e697469616c697a6564000000000000000000000000000000000000602082015250565b60006154c6602e83614c2c565b91506154d18261546a565b604082019050919050565b600060208201905081810360008301526154f5816154b9565b9050919050565b6000819050919050565b600060ff82169050919050565b600061552e615529615524846154fc565b614dc7565b615506565b9050919050565b61553e81615513565b82525050565b60006020820190506155596000830184615535565b9291505056fea26469706673582212202bb331236efc5b678749ceaf2249a2faf9aaf26b59779bf8b4bfa19cccbd20ed64736f6c63430008120033",
    "linkReferences": {},
    "deployedLinkReferences": {}
}