{
    "_format": "hh-sol-artifact-1",
    "contractName": "PredictionWorld4",
    "sourceName": "contracts/PredictionWorld4.sol",
    "abi": [
        {
            "inputs": [
                {
                    "internalType": "uint256",
                    "name": "r",
                    "type": "uint256"
                },
                {
                    "internalType": "uint256",
                    "name": "x",
                    "type": "uint256"
                },
                {
                    "internalType": "uint256",
                    "name": "y",
                    "type": "uint256"
                }
            ],
            "name": "Overflow",
            "type": "error"
        },
        {
            "anonymous": false,
            "inputs": [
                {
                    "indexed": false,
                    "internalType": "uint8",
                    "name": "version",
                    "type": "uint8"
                }
            ],
            "name": "Initialized",
            "type": "event"
        },
        {
            "anonymous": false,
            "inputs": [
                {
                    "indexed": false,
                    "internalType": "uint256",
                    "name": "id",
                    "type": "uint256"
                },
                {
                    "indexed": false,
                    "internalType": "string",
                    "name": "market",
                    "type": "string"
                },
                {
                    "indexed": false,
                    "internalType": "uint256",
                    "name": "timestamp",
                    "type": "uint256"
                },
                {
                    "indexed": false,
                    "internalType": "address",
                    "name": "createdBy",
                    "type": "address"
                },
                {
                    "indexed": false,
                    "internalType": "string",
                    "name": "creatorImageHash",
                    "type": "string"
                },
                {
                    "indexed": false,
                    "internalType": "uint256",
                    "name": "totalAmount",
                    "type": "uint256"
                },
                {
                    "indexed": false,
                    "internalType": "uint256",
                    "name": "totalYesAmount",
                    "type": "uint256"
                },
                {
                    "indexed": false,
                    "internalType": "uint256",
                    "name": "totalNoAmount",
                    "type": "uint256"
                }
            ],
            "name": "MarketCreated",
            "type": "event"
        },
        {
            "inputs": [
                {
                    "internalType": "address",
                    "name": "_address",
                    "type": "address"
                }
            ],
            "name": "addAdminUser",
            "outputs": [],
            "stateMutability": "nonpayable",
            "type": "function"
        },
        {
            "inputs": [
                {
                    "internalType": "uint256",
                    "name": "_marketId",
                    "type": "uint256"
                },
                {
                    "internalType": "uint256",
                    "name": "_value",
                    "type": "uint256"
                }
            ],
            "name": "addNoBet",
            "outputs": [],
            "stateMutability": "payable",
            "type": "function"
        },
        {
            "inputs": [
                {
                    "internalType": "uint256",
                    "name": "_marketId",
                    "type": "uint256"
                },
                {
                    "internalType": "uint256",
                    "name": "_value",
                    "type": "uint256"
                }
            ],
            "name": "addYesBet",
            "outputs": [],
            "stateMutability": "payable",
            "type": "function"
        },
        {
            "inputs": [],
            "name": "amountOfFreeTokenForEarlyBird",
            "outputs": [
                {
                    "internalType": "uint256",
                    "name": "",
                    "type": "uint256"
                }
            ],
            "stateMutability": "view",
            "type": "function"
        },
        {
            "inputs": [],
            "name": "checkEarlyBird",
            "outputs": [
                {
                    "internalType": "bool",
                    "name": "",
                    "type": "bool"
                }
            ],
            "stateMutability": "nonpayable",
            "type": "function"
        },
        {
            "inputs": [],
            "name": "commissionAddress",
            "outputs": [
                {
                    "internalType": "address",
                    "name": "",
                    "type": "address"
                }
            ],
            "stateMutability": "view",
            "type": "function"
        },
        {
            "inputs": [
                {
                    "internalType": "string",
                    "name": "_question",
                    "type": "string"
                },
                {
                    "internalType": "string",
                    "name": "_creatorImageHash",
                    "type": "string"
                },
                {
                    "internalType": "string",
                    "name": "_description",
                    "type": "string"
                },
                {
                    "internalType": "string",
                    "name": "_resolverUrl",
                    "type": "string"
                },
                {
                    "internalType": "uint256",
                    "name": "_endTimestamp",
                    "type": "uint256"
                }
            ],
            "name": "createMarket",
            "outputs": [],
            "stateMutability": "nonpayable",
            "type": "function"
        },
        {
            "inputs": [],
            "name": "currentEarlyBirdCount",
            "outputs": [
                {
                    "internalType": "uint32",
                    "name": "",
                    "type": "uint32"
                }
            ],
            "stateMutability": "view",
            "type": "function"
        },
        {
            "inputs": [
                {
                    "internalType": "uint256",
                    "name": "_marketId",
                    "type": "uint256"
                },
                {
                    "internalType": "bool",
                    "name": "_eventOutcome",
                    "type": "bool"
                }
            ],
            "name": "distributeWinningAmount",
            "outputs": [],
            "stateMutability": "payable",
            "type": "function"
        },
        {
            "inputs": [
                {
                    "internalType": "uint256",
                    "name": "_marketId",
                    "type": "uint256"
                }
            ],
            "name": "getBets",
            "outputs": [
                {
                    "components": [
                        {
                            "internalType": "address",
                            "name": "user",
                            "type": "address"
                        },
                        {
                            "internalType": "uint256",
                            "name": "amount",
                            "type": "uint256"
                        },
                        {
                            "internalType": "uint256",
                            "name": "timestamp",
                            "type": "uint256"
                        }
                    ],
                    "internalType": "struct PredictionWorld4.Bet[]",
                    "name": "",
                    "type": "tuple[]"
                },
                {
                    "components": [
                        {
                            "internalType": "address",
                            "name": "user",
                            "type": "address"
                        },
                        {
                            "internalType": "uint256",
                            "name": "amount",
                            "type": "uint256"
                        },
                        {
                            "internalType": "uint256",
                            "name": "timestamp",
                            "type": "uint256"
                        }
                    ],
                    "internalType": "struct PredictionWorld4.Bet[]",
                    "name": "",
                    "type": "tuple[]"
                }
            ],
            "stateMutability": "view",
            "type": "function"
        },
        {
            "inputs": [
                {
                    "internalType": "address",
                    "name": "_sureToken",
                    "type": "address"
                },
                {
                    "internalType": "uint32",
                    "name": "_numOfEarlyBirdsAllowed",
                    "type": "uint32"
                },
                {
                    "internalType": "uint256",
                    "name": "_amountOfFreeTokenForEarlyBird",
                    "type": "uint256"
                }
            ],
            "name": "initialize",
            "outputs": [],
            "stateMutability": "nonpayable",
            "type": "function"
        },
        {
            "inputs": [
                {
                    "internalType": "address",
                    "name": "_address",
                    "type": "address"
                }
            ],
            "name": "isAdminUser",
            "outputs": [
                {
                    "internalType": "bool",
                    "name": "",
                    "type": "bool"
                }
            ],
            "stateMutability": "view",
            "type": "function"
        },
        {
            "inputs": [
                {
                    "internalType": "uint256",
                    "name": "",
                    "type": "uint256"
                }
            ],
            "name": "markets",
            "outputs": [
                {
                    "internalType": "uint256",
                    "name": "id",
                    "type": "uint256"
                },
                {
                    "components": [
                        {
                            "internalType": "string",
                            "name": "question",
                            "type": "string"
                        },
                        {
                            "internalType": "uint256",
                            "name": "timestamp",
                            "type": "uint256"
                        },
                        {
                            "internalType": "uint256",
                            "name": "endTimestamp",
                            "type": "uint256"
                        },
                        {
                            "internalType": "address",
                            "name": "createdBy",
                            "type": "address"
                        },
                        {
                            "internalType": "string",
                            "name": "creatorImageHash",
                            "type": "string"
                        },
                        {
                            "internalType": "string",
                            "name": "description",
                            "type": "string"
                        },
                        {
                            "internalType": "string",
                            "name": "resolverUrl",
                            "type": "string"
                        }
                    ],
                    "internalType": "struct PredictionWorld4.Info",
                    "name": "info",
                    "type": "tuple"
                },
                {
                    "internalType": "uint256",
                    "name": "totalAmount",
                    "type": "uint256"
                },
                {
                    "internalType": "uint256",
                    "name": "totalYesAmount",
                    "type": "uint256"
                },
                {
                    "internalType": "uint256",
                    "name": "totalNoAmount",
                    "type": "uint256"
                },
                {
                    "internalType": "bool",
                    "name": "marketClosed",
                    "type": "bool"
                },
                {
                    "internalType": "bool",
                    "name": "outcome",
                    "type": "bool"
                }
            ],
            "stateMutability": "view",
            "type": "function"
        },
        {
            "inputs": [],
            "name": "numOfEarlyBirdsAllowed",
            "outputs": [
                {
                    "internalType": "uint32",
                    "name": "",
                    "type": "uint32"
                }
            ],
            "stateMutability": "view",
            "type": "function"
        },
        {
            "inputs": [],
            "name": "owner",
            "outputs": [
                {
                    "internalType": "address",
                    "name": "",
                    "type": "address"
                }
            ],
            "stateMutability": "view",
            "type": "function"
        },
        {
            "inputs": [
                {
                    "internalType": "address",
                    "name": "_address",
                    "type": "address"
                }
            ],
            "name": "removeAdminUser",
            "outputs": [],
            "stateMutability": "nonpayable",
            "type": "function"
        },
        {
            "inputs": [
                {
                    "internalType": "address",
                    "name": "_newOwner",
                    "type": "address"
                }
            ],
            "name": "setNewOwner",
            "outputs": [],
            "stateMutability": "nonpayable",
            "type": "function"
        },
        {
            "inputs": [],
            "name": "sureToken",
            "outputs": [
                {
                    "internalType": "address",
                    "name": "",
                    "type": "address"
                }
            ],
            "stateMutability": "view",
            "type": "function"
        },
        {
            "inputs": [],
            "name": "totalMarkets",
            "outputs": [
                {
                    "internalType": "uint256",
                    "name": "",
                    "type": "uint256"
                }
            ],
            "stateMutability": "view",
            "type": "function"
        }
    ],
    "bytecode": "0x608060405234801561001057600080fd5b50613573806100206000396000f3fe6080604052600436106101145760003560e01c8063931742d3116100a0578063e1215b7511610064578063e1215b751461038a578063e6ebee0f146103b5578063eb3f75e2146103e0578063ee81e4dd146103fc578063f5a1f5b41461042757610114565b8063931742d3146102ac57806394743ae8146102d7578063b1283e7714610300578063bf01fe0014610343578063da289c0b1461035f57610114565b80636323580d116100e75780636323580d146101d2578063724ba40b1461020f5780638162486b1461022b5780638da5cb5b14610256578063925fc14a1461028157610114565b80630f19aaef146101195780631ccf6955146101425780631de6ebd8146101805780633f4a5d0a146101a9575b600080fd5b34801561012557600080fd5b50610140600480360381019061013b91906124e7565b610450565b005b34801561014e57600080fd5b506101696004803603810190610164919061253a565b610710565b604051610177929190612676565b60405180910390f35b34801561018c57600080fd5b506101a760048036038101906101a291906126ad565b6108c2565b005b3480156101b557600080fd5b506101d060048036038101906101cb9190612820565b6109a4565b005b3480156101de57600080fd5b506101f960048036038101906101f491906126ad565b610b8f565b6040516102069190612926565b60405180910390f35b6102296004803603810190610224919061296d565b610be5565b005b34801561023757600080fd5b506102406115f8565b60405161024d91906129bc565b60405180910390f35b34801561026257600080fd5b5061026b6115fe565b60405161027891906129e6565b60405180910390f35b34801561028d57600080fd5b50610296611624565b6040516102a39190612a10565b60405180910390f35b3480156102b857600080fd5b506102c161163a565b6040516102ce91906129e6565b60405180910390f35b3480156102e357600080fd5b506102fe60048036038101906102f991906126ad565b611660565b005b34801561030c57600080fd5b506103276004803603810190610322919061253a565b61179d565b60405161033a9796959493929190612b5b565b60405180910390f35b61035d60048036038101906103589190612bd1565b611ab5565b005b34801561036b57600080fd5b50610374611e02565b60405161038191906129bc565b60405180910390f35b34801561039657600080fd5b5061039f611e08565b6040516103ac9190612926565b60405180910390f35b3480156103c157600080fd5b506103ca611f45565b6040516103d79190612a10565b60405180910390f35b6103fa60048036038101906103f59190612bd1565b611f5b565b005b34801561040857600080fd5b506104116122a8565b60405161041e91906129e6565b60405180910390f35b34801561043357600080fd5b5061044e600480360381019061044991906126ad565b6122ce565b005b60008060019054906101000a900460ff161590508080156104815750600160008054906101000a900460ff1660ff16105b806104ae5750610490306123a2565b1580156104ad5750600160008054906101000a900460ff1660ff16145b5b6104ed576040517f08c379a00000000000000000000000000000000000000000000000000000000081526004016104e490612c94565b60405180910390fd5b60016000806101000a81548160ff021916908360ff160217905550801561052a576001600060016101000a81548160ff0219169083151502179055505b83600260006101000a81548173ffffffffffffffffffffffffffffffffffffffff021916908373ffffffffffffffffffffffffffffffffffffffff16021790555082600460006101000a81548163ffffffff021916908363ffffffff1602179055508160058190555033600160006101000a81548173ffffffffffffffffffffffffffffffffffffffff021916908373ffffffffffffffffffffffffffffffffffffffff160217905550600160009054906101000a900473ffffffffffffffffffffffffffffffffffffffff16600060026101000a81548173ffffffffffffffffffffffffffffffffffffffff021916908373ffffffffffffffffffffffffffffffffffffffff1602179055506001600b6000600160009054906101000a900473ffffffffffffffffffffffffffffffffffffffff1673ffffffffffffffffffffffffffffffffffffffff1673ffffffffffffffffffffffffffffffffffffffff16815260200190815260200160002060006101000a81548160ff021916908315150217905550801561070a5760008060016101000a81548160ff0219169083151502179055507f7f26b83ff96e1f2b6a682f133852f6798a09c465da95921460cefb384740249860016040516107019190612d06565b60405180910390a15b50505050565b6060806000600760008581526020019081526020016000209050806008018160090181805480602002602001604051908101604052809291908181526020016000905b828210156107ef57838290600052602060002090600302016040518060600160405290816000820160009054906101000a900473ffffffffffffffffffffffffffffffffffffffff1673ffffffffffffffffffffffffffffffffffffffff1673ffffffffffffffffffffffffffffffffffffffff1681526020016001820154815260200160028201548152505081526020019060010190610753565b50505050915080805480602002602001604051908101604052809291908181526020016000905b828210156108b257838290600052602060002090600302016040518060600160405290816000820160009054906101000a900473ffffffffffffffffffffffffffffffffffffffff1673ffffffffffffffffffffffffffffffffffffffff1673ffffffffffffffffffffffffffffffffffffffff1681526020016001820154815260200160028201548152505081526020019060010190610816565b5050505090509250925050915091565b600160009054906101000a900473ffffffffffffffffffffffffffffffffffffffff1673ffffffffffffffffffffffffffffffffffffffff163373ffffffffffffffffffffffffffffffffffffffff1614610952576040517f08c379a000000000000000000000000000000000000000000000000000000000815260040161094990612d6d565b60405180910390fd5b600b60008273ffffffffffffffffffffffffffffffffffffffff1673ffffffffffffffffffffffffffffffffffffffff16815260200190815260200160002060006101000a81549060ff021916905550565b600b60003373ffffffffffffffffffffffffffffffffffffffff1673ffffffffffffffffffffffffffffffffffffffff16815260200190815260200160002060009054906101000a900460ff16610a30576040517f08c379a0000000000000000000000000000000000000000000000000000000008152600401610a2790612d6d565b60405180910390fd5b60004290506000600760006003548152602001908152602001600020905060036000815480929190610a6190612dbc565b91905055816000018190555086816001016000019081610a819190613006565b5085816001016004019081610a969190613006565b50818160010160010181905550338160010160030160006101000a81548173ffffffffffffffffffffffffffffffffffffffff021916908373ffffffffffffffffffffffffffffffffffffffff160217905550600081600a0181905550600081600b0181905550600081600c018190555084816001016005019081610b1b9190613006565b5083816001016006019081610b309190613006565b508281600101600201819055507fe51b4ce9e60c0c010fcdef22c23537f954e056004aed674362555a9d11d037386003548884338a6000806000604051610b7e98979695949392919061314c565b60405180910390a150505050505050565b6000600b60008373ffffffffffffffffffffffffffffffffffffffff1673ffffffffffffffffffffffffffffffffffffffff16815260200190815260200160002060009054906101000a900460ff169050919050565b600b60003373ffffffffffffffffffffffffffffffffffffffff1673ffffffffffffffffffffffffffffffffffffffff16815260200190815260200160002060009054906101000a900460ff16610c71576040517f08c379a0000000000000000000000000000000000000000000000000000000008152600401610c6890612d6d565b60405180910390fd5b6000606390506000606490506000600760008681526020019081526020016000209050831561112b576000828483600c0154610cad91906131d8565b610cb79190613249565b90506000805b8360080180549050811015610ead57600084600b0154856008018381548110610ce957610ce861327a565b5b90600052602060002090600302016001015485610d0691906131d8565b610d109190613249565b90508083610d1e91906132a9565b9250846008018281548110610d3657610d3561327a565b5b90600052602060002090600302016001015481610d5391906132a9565b60086000876008018581548110610d6d57610d6c61327a565b5b906000526020600020906003020160000160009054906101000a900473ffffffffffffffffffffffffffffffffffffffff1673ffffffffffffffffffffffffffffffffffffffff1673ffffffffffffffffffffffffffffffffffffffff1681526020019081526020016000206000828254610de891906132a9565b925050819055506009856008018381548110610e0757610e0661327a565b5b906000526020600020906003020160000160009054906101000a900473ffffffffffffffffffffffffffffffffffffffff169080600181540180825580915050600190039060005260206000200160009091909190916101000a81548173ffffffffffffffffffffffffffffffffffffffff021916908373ffffffffffffffffffffffffffffffffffffffff160217905550508080610ea590612dbc565b915050610cbd565b5060005b60098054905081101561103857600060098281548110610ed457610ed361327a565b5b9060005260206000200160009054906101000a900473ffffffffffffffffffffffffffffffffffffffff169050600260009054906101000a900473ffffffffffffffffffffffffffffffffffffffff1673ffffffffffffffffffffffffffffffffffffffff1663a9059cbb82600860008573ffffffffffffffffffffffffffffffffffffffff1673ffffffffffffffffffffffffffffffffffffffff168152602001908152602001600020546040518363ffffffff1660e01b8152600401610f9d929190613332565b6020604051808303816000875af1158015610fbc573d6000803e3d6000fd5b505050506040513d601f19601f82011682018060405250810190610fe09190613370565b50600860008273ffffffffffffffffffffffffffffffffffffffff1673ffffffffffffffffffffffffffffffffffffffff1681526020019081526020016000206000905550808061103090612dbc565b915050610eb1565b5060008184600c015461104b919061339d565b905060008060029054906101000a900473ffffffffffffffffffffffffffffffffffffffff169050600260009054906101000a900473ffffffffffffffffffffffffffffffffffffffff1673ffffffffffffffffffffffffffffffffffffffff1663a9059cbb82846040518363ffffffff1660e01b81526004016110d0929190613332565b6020604051808303816000875af11580156110ef573d6000803e3d6000fd5b505050506040513d601f19601f820116820180604052508101906111139190613370565b506009600061112291906123c5565b505050506115b8565b6000828483600b015461113e91906131d8565b6111489190613249565b90506000805b836009018054905081101561133e57600084600c015485600901838154811061117a5761117961327a565b5b9060005260206000209060030201600101548561119791906131d8565b6111a19190613249565b905080836111af91906132a9565b92508460090182815481106111c7576111c661327a565b5b906000526020600020906003020160010154816111e491906132a9565b600860008760090185815481106111fe576111fd61327a565b5b906000526020600020906003020160000160009054906101000a900473ffffffffffffffffffffffffffffffffffffffff1673ffffffffffffffffffffffffffffffffffffffff1673ffffffffffffffffffffffffffffffffffffffff168152602001908152602001600020600082825461127991906132a9565b9250508190555060098560090183815481106112985761129761327a565b5b906000526020600020906003020160000160009054906101000a900473ffffffffffffffffffffffffffffffffffffffff169080600181540180825580915050600190039060005260206000200160009091909190916101000a81548173ffffffffffffffffffffffffffffffffffffffff021916908373ffffffffffffffffffffffffffffffffffffffff16021790555050808061133690612dbc565b91505061114e565b5060005b6009805490508110156114c9576000600982815481106113655761136461327a565b5b9060005260206000200160009054906101000a900473ffffffffffffffffffffffffffffffffffffffff169050600260009054906101000a900473ffffffffffffffffffffffffffffffffffffffff1673ffffffffffffffffffffffffffffffffffffffff1663a9059cbb82600860008573ffffffffffffffffffffffffffffffffffffffff1673ffffffffffffffffffffffffffffffffffffffff168152602001908152602001600020546040518363ffffffff1660e01b815260040161142e929190613332565b6020604051808303816000875af115801561144d573d6000803e3d6000fd5b505050506040513d601f19601f820116820180604052508101906114719190613370565b50600860008273ffffffffffffffffffffffffffffffffffffffff1673ffffffffffffffffffffffffffffffffffffffff168152602001908152602001600020600090555080806114c190612dbc565b915050611342565b5060008184600b01546114dc919061339d565b905060008060029054906101000a900473ffffffffffffffffffffffffffffffffffffffff169050600260009054906101000a900473ffffffffffffffffffffffffffffffffffffffff1673ffffffffffffffffffffffffffffffffffffffff1663a9059cbb82846040518363ffffffff1660e01b8152600401611561929190613332565b6020604051808303816000875af1158015611580573d6000803e3d6000fd5b505050506040513d601f19601f820116820180604052508101906115a49190613370565b50600960006115b391906123c5565b505050505b8381600d0160016101000a81548160ff021916908315150217905550600181600d0160006101000a81548160ff0219169083151502179055505050505050565b60035481565b600160009054906101000a900473ffffffffffffffffffffffffffffffffffffffff1681565b600460009054906101000a900463ffffffff1681565b600060029054906101000a900473ffffffffffffffffffffffffffffffffffffffff1681565b600160009054906101000a900473ffffffffffffffffffffffffffffffffffffffff1673ffffffffffffffffffffffffffffffffffffffff163373ffffffffffffffffffffffffffffffffffffffff16146116f0576040517f08c379a00000000000000000000000000000000000000000000000000000000081526004016116e790612d6d565b60405180910390fd5b600b60008273ffffffffffffffffffffffffffffffffffffffff1673ffffffffffffffffffffffffffffffffffffffff16815260200190815260200160002060009054906101000a900460ff1661179a576001600b60008373ffffffffffffffffffffffffffffffffffffffff1673ffffffffffffffffffffffffffffffffffffffff16815260200190815260200160002060006101000a81548160ff0219169083151502179055505b50565b6007602052806000526040600020600091509050806000015490806001016040518060e00160405290816000820180546117d690612e33565b80601f016020809104026020016040519081016040528092919081815260200182805461180290612e33565b801561184f5780601f106118245761010080835404028352916020019161184f565b820191906000526020600020905b81548152906001019060200180831161183257829003601f168201915b5050505050815260200160018201548152602001600282015481526020016003820160009054906101000a900473ffffffffffffffffffffffffffffffffffffffff1673ffffffffffffffffffffffffffffffffffffffff1673ffffffffffffffffffffffffffffffffffffffff1681526020016004820180546118d290612e33565b80601f01602080910402602001604051908101604052809291908181526020018280546118fe90612e33565b801561194b5780601f106119205761010080835404028352916020019161194b565b820191906000526020600020905b81548152906001019060200180831161192e57829003601f168201915b5050505050815260200160058201805461196490612e33565b80601f016020809104026020016040519081016040528092919081815260200182805461199090612e33565b80156119dd5780601f106119b2576101008083540402835291602001916119dd565b820191906000526020600020905b8154815290600101906020018083116119c057829003601f168201915b505050505081526020016006820180546119f690612e33565b80601f0160208091040260200160405190810160405280929190818152602001828054611a2290612e33565b8015611a6f5780601f10611a4457610100808354040283529160200191611a6f565b820191906000526020600020905b815481529060010190602001808311611a5257829003601f168201915b5050505050815250509080600a01549080600b01549080600c01549080600d0160009054906101000a900460ff169080600d0160019054906101000a900460ff16905087565b600260009054906101000a900473ffffffffffffffffffffffffffffffffffffffff1673ffffffffffffffffffffffffffffffffffffffff1663dd62ed3e33306040518363ffffffff1660e01b8152600401611b129291906133d1565b602060405180830381865afa158015611b2f573d6000803e3d6000fd5b505050506040513d601f19601f82011682018060405250810190611b53919061340f565b811115611b95576040517f08c379a0000000000000000000000000000000000000000000000000000000008152600401611b8c906134ae565b60405180910390fd5b611b9d611e08565b15611c4c576000339050600260009054906101000a900473ffffffffffffffffffffffffffffffffffffffff1673ffffffffffffffffffffffffffffffffffffffff1663a9059cbb826005546040518363ffffffff1660e01b8152600401611c06929190613332565b6020604051808303816000875af1158015611c25573d6000803e3d6000fd5b505050506040513d601f19601f82011682018060405250810190611c499190613370565b50505b6000600760008481526020019081526020016000209050600260009054906101000a900473ffffffffffffffffffffffffffffffffffffffff1673ffffffffffffffffffffffffffffffffffffffff166323b872dd3330856040518463ffffffff1660e01b8152600401611cc2939291906134ce565b6020604051808303816000875af1158015611ce1573d6000803e3d6000fd5b505050506040513d601f19601f82011682018060405250810190611d059190613370565b50600060405180606001604052803373ffffffffffffffffffffffffffffffffffffffff1681526020018481526020014281525090508282600c016000828254611d4f91906132a9565b925050819055508282600a016000828254611d6a91906132a9565b925050819055508160090181908060018154018082558091505060019003906000526020600020906003020160009091909190915060008201518160000160006101000a81548173ffffffffffffffffffffffffffffffffffffffff021916908373ffffffffffffffffffffffffffffffffffffffff1602179055506020820151816001015560408201518160020155505050505050565b60055481565b6000600460009054906101000a900463ffffffff1663ffffffff16600660009054906101000a900463ffffffff1663ffffffff1610611e4a5760009050611f42565b600a60003373ffffffffffffffffffffffffffffffffffffffff1673ffffffffffffffffffffffffffffffffffffffff16815260200190815260200160002060009054906101000a900460ff1615611ea55760009050611f42565b6001600660008282829054906101000a900463ffffffff16611ec79190613505565b92506101000a81548163ffffffff021916908363ffffffff1602179055506001600a60003373ffffffffffffffffffffffffffffffffffffffff1673ffffffffffffffffffffffffffffffffffffffff16815260200190815260200160002060006101000a81548160ff021916908315150217905550600190505b90565b600660009054906101000a900463ffffffff1681565b600260009054906101000a900473ffffffffffffffffffffffffffffffffffffffff1673ffffffffffffffffffffffffffffffffffffffff1663dd62ed3e33306040518363ffffffff1660e01b8152600401611fb89291906133d1565b602060405180830381865afa158015611fd5573d6000803e3d6000fd5b505050506040513d601f19601f82011682018060405250810190611ff9919061340f565b81111561203b576040517f08c379a0000000000000000000000000000000000000000000000000000000008152600401612032906134ae565b60405180910390fd5b612043611e08565b156120f2576000339050600260009054906101000a900473ffffffffffffffffffffffffffffffffffffffff1673ffffffffffffffffffffffffffffffffffffffff1663a9059cbb826005546040518363ffffffff1660e01b81526004016120ac929190613332565b6020604051808303816000875af11580156120cb573d6000803e3d6000fd5b505050506040513d601f19601f820116820180604052508101906120ef9190613370565b50505b6000600760008481526020019081526020016000209050600260009054906101000a900473ffffffffffffffffffffffffffffffffffffffff1673ffffffffffffffffffffffffffffffffffffffff166323b872dd3330856040518463ffffffff1660e01b8152600401612168939291906134ce565b6020604051808303816000875af1158015612187573d6000803e3d6000fd5b505050506040513d601f19601f820116820180604052508101906121ab9190613370565b50600060405180606001604052803373ffffffffffffffffffffffffffffffffffffffff1681526020018481526020014281525090508282600b0160008282546121f591906132a9565b925050819055508282600a01600082825461221091906132a9565b925050819055508160080181908060018154018082558091505060019003906000526020600020906003020160009091909190915060008201518160000160006101000a81548173ffffffffffffffffffffffffffffffffffffffff021916908373ffffffffffffffffffffffffffffffffffffffff1602179055506020820151816001015560408201518160020155505050505050565b600260009054906101000a900473ffffffffffffffffffffffffffffffffffffffff1681565b600160009054906101000a900473ffffffffffffffffffffffffffffffffffffffff1673ffffffffffffffffffffffffffffffffffffffff163373ffffffffffffffffffffffffffffffffffffffff161461235e576040517f08c379a000000000000000000000000000000000000000000000000000000000815260040161235590612d6d565b60405180910390fd5b80600160006101000a81548173ffffffffffffffffffffffffffffffffffffffff021916908373ffffffffffffffffffffffffffffffffffffffff16021790555050565b6000808273ffffffffffffffffffffffffffffffffffffffff163b119050919050565b50805460008255906000526020600020908101906123e391906123e6565b50565b5b808211156123ff5760008160009055506001016123e7565b5090565b6000604051905090565b600080fd5b600080fd5b600073ffffffffffffffffffffffffffffffffffffffff82169050919050565b600061244282612417565b9050919050565b61245281612437565b811461245d57600080fd5b50565b60008135905061246f81612449565b92915050565b600063ffffffff82169050919050565b61248e81612475565b811461249957600080fd5b50565b6000813590506124ab81612485565b92915050565b6000819050919050565b6124c4816124b1565b81146124cf57600080fd5b50565b6000813590506124e1816124bb565b92915050565b600080600060608486031215612500576124ff61240d565b5b600061250e86828701612460565b935050602061251f8682870161249c565b9250506040612530868287016124d2565b9150509250925092565b6000602082840312156125505761254f61240d565b5b600061255e848285016124d2565b91505092915050565b600081519050919050565b600082825260208201905092915050565b6000819050602082019050919050565b61259c81612437565b82525050565b6125ab816124b1565b82525050565b6060820160008201516125c76000850182612593565b5060208201516125da60208501826125a2565b5060408201516125ed60408501826125a2565b50505050565b60006125ff83836125b1565b60608301905092915050565b6000602082019050919050565b600061262382612567565b61262d8185612572565b935061263883612583565b8060005b8381101561266957815161265088826125f3565b975061265b8361260b565b92505060018101905061263c565b5085935050505092915050565b600060408201905081810360008301526126908185612618565b905081810360208301526126a48184612618565b90509392505050565b6000602082840312156126c3576126c261240d565b5b60006126d184828501612460565b91505092915050565b600080fd5b600080fd5b6000601f19601f8301169050919050565b7f4e487b7100000000000000000000000000000000000000000000000000000000600052604160045260246000fd5b61272d826126e4565b810181811067ffffffffffffffff8211171561274c5761274b6126f5565b5b80604052505050565b600061275f612403565b905061276b8282612724565b919050565b600067ffffffffffffffff82111561278b5761278a6126f5565b5b612794826126e4565b9050602081019050919050565b82818337600083830152505050565b60006127c36127be84612770565b612755565b9050828152602081018484840111156127df576127de6126df565b5b6127ea8482856127a1565b509392505050565b600082601f830112612807576128066126da565b5b81356128178482602086016127b0565b91505092915050565b600080600080600060a0868803121561283c5761283b61240d565b5b600086013567ffffffffffffffff81111561285a57612859612412565b5b612866888289016127f2565b955050602086013567ffffffffffffffff81111561288757612886612412565b5b612893888289016127f2565b945050604086013567ffffffffffffffff8111156128b4576128b3612412565b5b6128c0888289016127f2565b935050606086013567ffffffffffffffff8111156128e1576128e0612412565b5b6128ed888289016127f2565b92505060806128fe888289016124d2565b9150509295509295909350565b60008115159050919050565b6129208161290b565b82525050565b600060208201905061293b6000830184612917565b92915050565b61294a8161290b565b811461295557600080fd5b50565b60008135905061296781612941565b92915050565b600080604083850312156129845761298361240d565b5b6000612992858286016124d2565b92505060206129a385828601612958565b9150509250929050565b6129b6816124b1565b82525050565b60006020820190506129d160008301846129ad565b92915050565b6129e081612437565b82525050565b60006020820190506129fb60008301846129d7565b92915050565b612a0a81612475565b82525050565b6000602082019050612a256000830184612a01565b92915050565b600081519050919050565b600082825260208201905092915050565b60005b83811015612a65578082015181840152602081019050612a4a565b60008484015250505050565b6000612a7c82612a2b565b612a868185612a36565b9350612a96818560208601612a47565b612a9f816126e4565b840191505092915050565b600060e0830160008301518482036000860152612ac78282612a71565b9150506020830151612adc60208601826125a2565b506040830151612aef60408601826125a2565b506060830151612b026060860182612593565b5060808301518482036080860152612b1a8282612a71565b91505060a083015184820360a0860152612b348282612a71565b91505060c083015184820360c0860152612b4e8282612a71565b9150508091505092915050565b600060e082019050612b70600083018a6129ad565b8181036020830152612b828189612aaa565b9050612b9160408301886129ad565b612b9e60608301876129ad565b612bab60808301866129ad565b612bb860a0830185612917565b612bc560c0830184612917565b98975050505050505050565b60008060408385031215612be857612be761240d565b5b6000612bf6858286016124d2565b9250506020612c07858286016124d2565b9150509250929050565b600082825260208201905092915050565b7f496e697469616c697a61626c653a20636f6e747261637420697320616c72656160008201527f647920696e697469616c697a6564000000000000000000000000000000000000602082015250565b6000612c7e602e83612c11565b9150612c8982612c22565b604082019050919050565b60006020820190508181036000830152612cad81612c71565b9050919050565b6000819050919050565b600060ff82169050919050565b6000819050919050565b6000612cf0612ceb612ce684612cb4565b612ccb565b612cbe565b9050919050565b612d0081612cd5565b82525050565b6000602082019050612d1b6000830184612cf7565b92915050565b7f556e617574686f72697a65640000000000000000000000000000000000000000600082015250565b6000612d57600c83612c11565b9150612d6282612d21565b602082019050919050565b60006020820190508181036000830152612d8681612d4a565b9050919050565b7f4e487b7100000000000000000000000000000000000000000000000000000000600052601160045260246000fd5b6000612dc7826124b1565b91507fffffffffffffffffffffffffffffffffffffffffffffffffffffffffffffffff8203612df957612df8612d8d565b5b600182019050919050565b7f4e487b7100000000000000000000000000000000000000000000000000000000600052602260045260246000fd5b60006002820490506001821680612e4b57607f821691505b602082108103612e5e57612e5d612e04565b5b50919050565b60008190508160005260206000209050919050565b60006020601f8301049050919050565b600082821b905092915050565b600060088302612ec67fffffffffffffffffffffffffffffffffffffffffffffffffffffffffffffffff82612e89565b612ed08683612e89565b95508019841693508086168417925050509392505050565b6000612f03612efe612ef9846124b1565b612ccb565b6124b1565b9050919050565b6000819050919050565b612f1d83612ee8565b612f31612f2982612f0a565b848454612e96565b825550505050565b600090565b612f46612f39565b612f51818484612f14565b505050565b5b81811015612f7557612f6a600082612f3e565b600181019050612f57565b5050565b601f821115612fba57612f8b81612e64565b612f9484612e79565b81016020851015612fa3578190505b612fb7612faf85612e79565b830182612f56565b50505b505050565b600082821c905092915050565b6000612fdd60001984600802612fbf565b1980831691505092915050565b6000612ff68383612fcc565b9150826002028217905092915050565b61300f82612a2b565b67ffffffffffffffff811115613028576130276126f5565b5b6130328254612e33565b61303d828285612f79565b600060209050601f831160018114613070576000841561305e578287015190505b6130688582612fea565b8655506130d0565b601f19841661307e86612e64565b60005b828110156130a657848901518255600182019150602085019450602081019050613081565b868310156130c357848901516130bf601f891682612fcc565b8355505b6001600288020188555050505b505050505050565b60006130e382612a2b565b6130ed8185612c11565b93506130fd818560208601612a47565b613106816126e4565b840191505092915050565b6000819050919050565b600061313661313161312c84613111565b612ccb565b6124b1565b9050919050565b6131468161311b565b82525050565b600061010082019050613162600083018b6129ad565b8181036020830152613174818a6130d8565b905061318360408301896129ad565b61319060608301886129d7565b81810360808301526131a281876130d8565b90506131b160a083018661313d565b6131be60c083018561313d565b6131cb60e083018461313d565b9998505050505050505050565b60006131e3826124b1565b91506131ee836124b1565b92508282026131fc816124b1565b9150828204841483151761321357613212612d8d565b5b5092915050565b7f4e487b7100000000000000000000000000000000000000000000000000000000600052601260045260246000fd5b6000613254826124b1565b915061325f836124b1565b92508261326f5761326e61321a565b5b828204905092915050565b7f4e487b7100000000000000000000000000000000000000000000000000000000600052603260045260246000fd5b60006132b4826124b1565b91506132bf836124b1565b92508282019050808211156132d7576132d6612d8d565b5b92915050565b60006132f86132f36132ee84612417565b612ccb565b612417565b9050919050565b600061330a826132dd565b9050919050565b600061331c826132ff565b9050919050565b61332c81613311565b82525050565b60006040820190506133476000830185613323565b61335460208301846129ad565b9392505050565b60008151905061336a81612941565b92915050565b6000602082840312156133865761338561240d565b5b60006133948482850161335b565b91505092915050565b60006133a8826124b1565b91506133b3836124b1565b92508282039050818111156133cb576133ca612d8d565b5b92915050565b60006040820190506133e660008301856129d7565b6133f360208301846129d7565b9392505050565b600081519050613409816124bb565b92915050565b6000602082840312156134255761342461240d565b5b6000613433848285016133fa565b91505092915050565b7f4e6f7420616c6c6f77656420746f207370656e64207468697320616d6f756e7460008201527f2e00000000000000000000000000000000000000000000000000000000000000602082015250565b6000613498602183612c11565b91506134a38261343c565b604082019050919050565b600060208201905081810360008301526134c78161348b565b9050919050565b60006060820190506134e360008301866129d7565b6134f060208301856129d7565b6134fd60408301846129ad565b949350505050565b600061351082612475565b915061351b83612475565b9250828201905063ffffffff81111561353757613536612d8d565b5b9291505056fea26469706673582212206313d19772066ecde910d36924f482069121353d12277f240aa77c8bf9d2ef6164736f6c63430008120033",
    "linkReferences": {},
    "deployedLinkReferences": {}
}