{
    "_format": "hh-sol-artifact-1",
    "contractName": "PredictionWorld7",
    "sourceName": "contracts/PredictionWorld7.sol",
    "abi": [
        {
            "inputs": [],
            "name": "MarketClosed",
            "type": "error"
        },
        {
            "inputs": [],
            "name": "MarketEnded",
            "type": "error"
        },
        {
            "inputs": [],
            "name": "MarketSuspended",
            "type": "error"
        },
        {
            "anonymous": false,
            "inputs": [
                {
                    "indexed": false,
                    "internalType": "uint8",
                    "name": "version",
                    "type": "uint8"
                }
            ],
            "name": "Initialized",
            "type": "event"
        },
        {
            "anonymous": false,
            "inputs": [
                {
                    "indexed": false,
                    "internalType": "uint256",
                    "name": "id",
                    "type": "uint256"
                },
                {
                    "indexed": false,
                    "internalType": "string",
                    "name": "market",
                    "type": "string"
                },
                {
                    "indexed": false,
                    "internalType": "uint256",
                    "name": "timestamp",
                    "type": "uint256"
                },
                {
                    "indexed": false,
                    "internalType": "address",
                    "name": "createdBy",
                    "type": "address"
                },
                {
                    "indexed": false,
                    "internalType": "string",
                    "name": "creatorImageHash",
                    "type": "string"
                },
                {
                    "indexed": false,
                    "internalType": "uint256",
                    "name": "totalAmount",
                    "type": "uint256"
                },
                {
                    "indexed": false,
                    "internalType": "uint256",
                    "name": "totalYesAmount",
                    "type": "uint256"
                },
                {
                    "indexed": false,
                    "internalType": "uint256",
                    "name": "totalNoAmount",
                    "type": "uint256"
                }
            ],
            "name": "MarketCreated",
            "type": "event"
        },
        {
            "inputs": [
                {
                    "internalType": "address",
                    "name": "_address",
                    "type": "address"
                }
            ],
            "name": "addAdminUser",
            "outputs": [],
            "stateMutability": "nonpayable",
            "type": "function"
        },
        {
            "inputs": [
                {
                    "internalType": "uint256",
                    "name": "_marketId",
                    "type": "uint256"
                },
                {
                    "internalType": "uint256",
                    "name": "_value",
                    "type": "uint256"
                }
            ],
            "name": "addNoBet",
            "outputs": [],
            "stateMutability": "payable",
            "type": "function"
        },
        {
            "inputs": [
                {
                    "internalType": "uint256",
                    "name": "_marketId",
                    "type": "uint256"
                },
                {
                    "internalType": "uint256",
                    "name": "_value",
                    "type": "uint256"
                }
            ],
            "name": "addYesBet",
            "outputs": [],
            "stateMutability": "payable",
            "type": "function"
        },
        {
            "inputs": [],
            "name": "commissionAddress",
            "outputs": [
                {
                    "internalType": "address",
                    "name": "",
                    "type": "address"
                }
            ],
            "stateMutability": "view",
            "type": "function"
        },
        {
            "inputs": [
                {
                    "internalType": "string",
                    "name": "_question",
                    "type": "string"
                },
                {
                    "internalType": "string",
                    "name": "_creatorImageHash",
                    "type": "string"
                },
                {
                    "internalType": "string",
                    "name": "_description",
                    "type": "string"
                },
                {
                    "internalType": "string",
                    "name": "_resolverUrl",
                    "type": "string"
                },
                {
                    "internalType": "uint256",
                    "name": "_endTimestamp",
                    "type": "uint256"
                },
                {
                    "internalType": "bool",
                    "name": "_isTest",
                    "type": "bool"
                }
            ],
            "name": "createMarket",
            "outputs": [],
            "stateMutability": "nonpayable",
            "type": "function"
        },
        {
            "inputs": [
                {
                    "internalType": "uint256",
                    "name": "_marketId",
                    "type": "uint256"
                },
                {
                    "internalType": "bool",
                    "name": "_eventOutcome",
                    "type": "bool"
                }
            ],
            "name": "distributeWinningAmount",
            "outputs": [],
            "stateMutability": "payable",
            "type": "function"
        },
        {
            "inputs": [
                {
                    "internalType": "uint256",
                    "name": "cursor",
                    "type": "uint256"
                },
                {
                    "internalType": "uint256",
                    "name": "size",
                    "type": "uint256"
                },
                {
                    "internalType": "uint8",
                    "name": "status",
                    "type": "uint8"
                },
                {
                    "internalType": "bool",
                    "name": "withTest",
                    "type": "bool"
                },
                {
                    "internalType": "bool",
                    "name": "isDescendOrder",
                    "type": "bool"
                }
            ],
            "name": "fetchMarkets",
            "outputs": [
                {
                    "components": [
                        {
                            "internalType": "uint256",
                            "name": "id",
                            "type": "uint256"
                        },
                        {
                            "components": [
                                {
                                    "internalType": "string",
                                    "name": "question",
                                    "type": "string"
                                },
                                {
                                    "internalType": "uint256",
                                    "name": "timestamp",
                                    "type": "uint256"
                                },
                                {
                                    "internalType": "uint256",
                                    "name": "endTimestamp",
                                    "type": "uint256"
                                },
                                {
                                    "internalType": "address",
                                    "name": "createdBy",
                                    "type": "address"
                                },
                                {
                                    "internalType": "string",
                                    "name": "creatorImageHash",
                                    "type": "string"
                                },
                                {
                                    "internalType": "string",
                                    "name": "description",
                                    "type": "string"
                                },
                                {
                                    "internalType": "string",
                                    "name": "resolverUrl",
                                    "type": "string"
                                },
                                {
                                    "internalType": "bool",
                                    "name": "isTest",
                                    "type": "bool"
                                }
                            ],
                            "internalType": "struct PredictionWorld7.Info",
                            "name": "info",
                            "type": "tuple"
                        },
                        {
                            "components": [
                                {
                                    "internalType": "address",
                                    "name": "user",
                                    "type": "address"
                                },
                                {
                                    "internalType": "uint256",
                                    "name": "amount",
                                    "type": "uint256"
                                },
                                {
                                    "internalType": "uint256",
                                    "name": "timestamp",
                                    "type": "uint256"
                                }
                            ],
                            "internalType": "struct PredictionWorld7.Bet[]",
                            "name": "yesBets",
                            "type": "tuple[]"
                        },
                        {
                            "components": [
                                {
                                    "internalType": "address",
                                    "name": "user",
                                    "type": "address"
                                },
                                {
                                    "internalType": "uint256",
                                    "name": "amount",
                                    "type": "uint256"
                                },
                                {
                                    "internalType": "uint256",
                                    "name": "timestamp",
                                    "type": "uint256"
                                }
                            ],
                            "internalType": "struct PredictionWorld7.Bet[]",
                            "name": "noBets",
                            "type": "tuple[]"
                        },
                        {
                            "internalType": "uint256",
                            "name": "totalAmount",
                            "type": "uint256"
                        },
                        {
                            "internalType": "uint256",
                            "name": "totalYesAmount",
                            "type": "uint256"
                        },
                        {
                            "internalType": "uint256",
                            "name": "totalNoAmount",
                            "type": "uint256"
                        },
                        {
                            "internalType": "bool",
                            "name": "marketClosed",
                            "type": "bool"
                        },
                        {
                            "internalType": "bool",
                            "name": "outcome",
                            "type": "bool"
                        },
                        {
                            "internalType": "bool",
                            "name": "isSuspended",
                            "type": "bool"
                        }
                    ],
                    "internalType": "struct PredictionWorld7.Market[]",
                    "name": "values",
                    "type": "tuple[]"
                },
                {
                    "internalType": "uint256",
                    "name": "nextCursor",
                    "type": "uint256"
                }
            ],
            "stateMutability": "view",
            "type": "function"
        },
        {
            "inputs": [
                {
                    "internalType": "uint256",
                    "name": "_marketId",
                    "type": "uint256"
                }
            ],
            "name": "getBets",
            "outputs": [
                {
                    "components": [
                        {
                            "internalType": "address",
                            "name": "user",
                            "type": "address"
                        },
                        {
                            "internalType": "uint256",
                            "name": "amount",
                            "type": "uint256"
                        },
                        {
                            "internalType": "uint256",
                            "name": "timestamp",
                            "type": "uint256"
                        }
                    ],
                    "internalType": "struct PredictionWorld7.Bet[]",
                    "name": "yesBets",
                    "type": "tuple[]"
                },
                {
                    "components": [
                        {
                            "internalType": "address",
                            "name": "user",
                            "type": "address"
                        },
                        {
                            "internalType": "uint256",
                            "name": "amount",
                            "type": "uint256"
                        },
                        {
                            "internalType": "uint256",
                            "name": "timestamp",
                            "type": "uint256"
                        }
                    ],
                    "internalType": "struct PredictionWorld7.Bet[]",
                    "name": "noBets",
                    "type": "tuple[]"
                }
            ],
            "stateMutability": "view",
            "type": "function"
        },
        {
            "inputs": [
                {
                    "internalType": "address",
                    "name": "_userAddress",
                    "type": "address"
                },
                {
                    "internalType": "uint256",
                    "name": "_marketId",
                    "type": "uint256"
                }
            ],
            "name": "getUserBets",
            "outputs": [
                {
                    "components": [
                        {
                            "internalType": "address",
                            "name": "user",
                            "type": "address"
                        },
                        {
                            "internalType": "uint256",
                            "name": "amount",
                            "type": "uint256"
                        },
                        {
                            "internalType": "uint256",
                            "name": "timestamp",
                            "type": "uint256"
                        }
                    ],
                    "internalType": "struct PredictionWorld7.Bet[]",
                    "name": "yesBets",
                    "type": "tuple[]"
                },
                {
                    "components": [
                        {
                            "internalType": "address",
                            "name": "user",
                            "type": "address"
                        },
                        {
                            "internalType": "uint256",
                            "name": "amount",
                            "type": "uint256"
                        },
                        {
                            "internalType": "uint256",
                            "name": "timestamp",
                            "type": "uint256"
                        }
                    ],
                    "internalType": "struct PredictionWorld7.Bet[]",
                    "name": "noBets",
                    "type": "tuple[]"
                }
            ],
            "stateMutability": "view",
            "type": "function"
        },
        {
            "inputs": [
                {
                    "internalType": "address",
                    "name": "_sureToken",
                    "type": "address"
                }
            ],
            "name": "initialize",
            "outputs": [],
            "stateMutability": "nonpayable",
            "type": "function"
        },
        {
            "inputs": [
                {
                    "internalType": "address",
                    "name": "_address",
                    "type": "address"
                }
            ],
            "name": "isAdminUser",
            "outputs": [
                {
                    "internalType": "bool",
                    "name": "",
                    "type": "bool"
                }
            ],
            "stateMutability": "view",
            "type": "function"
        },
        {
            "inputs": [
                {
                    "internalType": "uint256",
                    "name": "",
                    "type": "uint256"
                }
            ],
            "name": "markets",
            "outputs": [
                {
                    "internalType": "uint256",
                    "name": "id",
                    "type": "uint256"
                },
                {
                    "components": [
                        {
                            "internalType": "string",
                            "name": "question",
                            "type": "string"
                        },
                        {
                            "internalType": "uint256",
                            "name": "timestamp",
                            "type": "uint256"
                        },
                        {
                            "internalType": "uint256",
                            "name": "endTimestamp",
                            "type": "uint256"
                        },
                        {
                            "internalType": "address",
                            "name": "createdBy",
                            "type": "address"
                        },
                        {
                            "internalType": "string",
                            "name": "creatorImageHash",
                            "type": "string"
                        },
                        {
                            "internalType": "string",
                            "name": "description",
                            "type": "string"
                        },
                        {
                            "internalType": "string",
                            "name": "resolverUrl",
                            "type": "string"
                        },
                        {
                            "internalType": "bool",
                            "name": "isTest",
                            "type": "bool"
                        }
                    ],
                    "internalType": "struct PredictionWorld7.Info",
                    "name": "info",
                    "type": "tuple"
                },
                {
                    "internalType": "uint256",
                    "name": "totalAmount",
                    "type": "uint256"
                },
                {
                    "internalType": "uint256",
                    "name": "totalYesAmount",
                    "type": "uint256"
                },
                {
                    "internalType": "uint256",
                    "name": "totalNoAmount",
                    "type": "uint256"
                },
                {
                    "internalType": "bool",
                    "name": "marketClosed",
                    "type": "bool"
                },
                {
                    "internalType": "bool",
                    "name": "outcome",
                    "type": "bool"
                },
                {
                    "internalType": "bool",
                    "name": "isSuspended",
                    "type": "bool"
                }
            ],
            "stateMutability": "view",
            "type": "function"
        },
        {
            "inputs": [],
            "name": "owner",
            "outputs": [
                {
                    "internalType": "address",
                    "name": "",
                    "type": "address"
                }
            ],
            "stateMutability": "view",
            "type": "function"
        },
        {
            "inputs": [
                {
                    "internalType": "address",
                    "name": "_address",
                    "type": "address"
                }
            ],
            "name": "removeAdminUser",
            "outputs": [],
            "stateMutability": "nonpayable",
            "type": "function"
        },
        {
            "inputs": [
                {
                    "internalType": "uint256",
                    "name": "_marketId",
                    "type": "uint256"
                },
                {
                    "internalType": "string",
                    "name": "_question",
                    "type": "string"
                },
                {
                    "internalType": "string",
                    "name": "_creatorImageHash",
                    "type": "string"
                },
                {
                    "internalType": "string",
                    "name": "_description",
                    "type": "string"
                },
                {
                    "internalType": "string",
                    "name": "_resolverUrl",
                    "type": "string"
                },
                {
                    "internalType": "uint256",
                    "name": "_endTimestamp",
                    "type": "uint256"
                },
                {
                    "internalType": "bool",
                    "name": "_isTest",
                    "type": "bool"
                }
            ],
            "name": "setMarketInfo",
            "outputs": [],
            "stateMutability": "nonpayable",
            "type": "function"
        },
        {
            "inputs": [
                {
                    "internalType": "uint256",
                    "name": "_marketId",
                    "type": "uint256"
                },
                {
                    "internalType": "string",
                    "name": "_description",
                    "type": "string"
                }
            ],
            "name": "setMarketInfoDescription",
            "outputs": [],
            "stateMutability": "nonpayable",
            "type": "function"
        },
        {
            "inputs": [
                {
                    "internalType": "uint256",
                    "name": "_marketId",
                    "type": "uint256"
                },
                {
                    "internalType": "uint256",
                    "name": "_endTimestamp",
                    "type": "uint256"
                }
            ],
            "name": "setMarketInfoEndTimestamp",
            "outputs": [],
            "stateMutability": "nonpayable",
            "type": "function"
        },
        {
            "inputs": [
                {
                    "internalType": "uint256",
                    "name": "_marketId",
                    "type": "uint256"
                },
                {
                    "internalType": "string",
                    "name": "_Image",
                    "type": "string"
                }
            ],
            "name": "setMarketInfoImage",
            "outputs": [],
            "stateMutability": "nonpayable",
            "type": "function"
        },
        {
            "inputs": [
                {
                    "internalType": "uint256",
                    "name": "_marketId",
                    "type": "uint256"
                },
                {
                    "internalType": "bool",
                    "name": "_isTest",
                    "type": "bool"
                }
            ],
            "name": "setMarketInfoIsTest",
            "outputs": [],
            "stateMutability": "nonpayable",
            "type": "function"
        },
        {
            "inputs": [
                {
                    "internalType": "uint256",
                    "name": "_marketId",
                    "type": "uint256"
                },
                {
                    "internalType": "string",
                    "name": "_question",
                    "type": "string"
                }
            ],
            "name": "setMarketInfoQuestion",
            "outputs": [],
            "stateMutability": "nonpayable",
            "type": "function"
        },
        {
            "inputs": [
                {
                    "internalType": "uint256",
                    "name": "_marketId",
                    "type": "uint256"
                },
                {
                    "internalType": "string",
                    "name": "_resolverUrl",
                    "type": "string"
                }
            ],
            "name": "setMarketInfoResolverUrl",
            "outputs": [],
            "stateMutability": "nonpayable",
            "type": "function"
        },
        {
            "inputs": [
                {
                    "internalType": "uint256",
                    "name": "_marketId",
                    "type": "uint256"
                },
                {
                    "internalType": "bool",
                    "name": "_isSuspended",
                    "type": "bool"
                }
            ],
            "name": "setMarketIsSuspended",
            "outputs": [],
            "stateMutability": "nonpayable",
            "type": "function"
        },
        {
            "inputs": [
                {
                    "internalType": "address",
                    "name": "_newOwner",
                    "type": "address"
                }
            ],
            "name": "setNewOwner",
            "outputs": [],
            "stateMutability": "nonpayable",
            "type": "function"
        },
        {
            "inputs": [],
            "name": "sureToken",
            "outputs": [
                {
                    "internalType": "address",
                    "name": "",
                    "type": "address"
                }
            ],
            "stateMutability": "view",
            "type": "function"
        },
        {
            "inputs": [],
            "name": "totalMarkets",
            "outputs": [
                {
                    "internalType": "uint256",
                    "name": "",
                    "type": "uint256"
                }
            ],
            "stateMutability": "view",
            "type": "function"
        },
        {
            "inputs": [
                {
                    "internalType": "address",
                    "name": "_userAddress",
                    "type": "address"
                },
                {
                    "internalType": "uint256",
                    "name": "_marketId",
                    "type": "uint256"
                }
            ],
            "name": "updateUserBets",
            "outputs": [],
            "stateMutability": "nonpayable",
            "type": "function"
        }
    ],
    "bytecode": "0x608060405234801561001057600080fd5b50615bec80620000216000396000f3fe6080604052600436106101805760003560e01c80638da5cb5b116100d1578063bf01fe001161008a578063cd811c2511610064578063cd811c2514610550578063eb3f75e21461058e578063ee81e4dd146105aa578063f5a1f5b4146105d557610180565b8063bf01fe00146104e2578063c4d66de8146104fe578063c985649d1461052757610180565b80638da5cb5b146103cd578063931742d3146103f857806394743ae814610423578063a2023c8b1461044c578063a937df6314610475578063b1283e771461049e57610180565b80635034a6471161013e5780636919567311610118578063691956731461031f5780636dc84ad81461035d578063724ba40b146103865780638162486b146103a257610180565b80635034a647146102905780635cc993ba146102b95780636323580d146102e257610180565b806203369814610185578063053550fa146101ae5780630aa69fa1146101d75780631ccf6955146102005780631de6ebd81461023e578063303cd7ca14610267575b600080fd5b34801561019157600080fd5b506101ac60048036038101906101a79190614687565b6105fe565b005b3480156101ba57600080fd5b506101d560048036038101906101d0919061472c565b6106bc565b005b3480156101e357600080fd5b506101fe60048036038101906101f9919061478c565b610776565b005b34801561020c57600080fd5b506102276004803603810190610222919061489c565b610991565b604051610235929190614a0a565b60405180910390f35b34801561024a57600080fd5b5061026560048036038101906102609190614a6d565b610eb8565b005b34801561027357600080fd5b5061028e6004803603810190610289919061472c565b610f9a565b005b34801561029c57600080fd5b506102b760048036038101906102b29190614687565b611054565b005b3480156102c557600080fd5b506102e060048036038101906102db919061472c565b611115565b005b3480156102ee57600080fd5b5061030960048036038101906103049190614a6d565b6111cf565b6040516103169190614aa9565b60405180910390f35b34801561032b57600080fd5b5061034660048036038101906103419190614afd565b611225565b604051610354929190614f04565b60405180910390f35b34801561036957600080fd5b50610384600480360381019061037f9190614f34565b61196a565b005b6103a0600480360381019061039b9190614687565b611a18565b005b3480156103ae57600080fd5b506103b7612474565b6040516103c49190614f74565b60405180910390f35b3480156103d957600080fd5b506103e261247a565b6040516103ef9190614f9e565b60405180910390f35b34801561040457600080fd5b5061040d6124a0565b60405161041a9190614f9e565b60405180910390f35b34801561042f57600080fd5b5061044a60048036038101906104459190614a6d565b6124c6565b005b34801561045857600080fd5b50610473600480360381019061046e919061472c565b612603565b005b34801561048157600080fd5b5061049c60048036038101906104979190614fb9565b6126bd565b005b3480156104aa57600080fd5b506104c560048036038101906104c0919061489c565b612ff4565b6040516104d99897969594939291906150be565b60405180910390f35b6104fc60048036038101906104f79190614f34565b61333b565b005b34801561050a57600080fd5b5061052560048036038101906105209190614a6d565b613788565b005b34801561053357600080fd5b5061054e60048036038101906105499190615143565b613a1e565b005b34801561055c57600080fd5b5061057760048036038101906105729190614fb9565b613b56565b604051610585929190614a0a565b60405180910390f35b6105a860048036038101906105a39190614f34565b613d8a565b005b3480156105b657600080fd5b506105bf6141d7565b6040516105cc9190614f9e565b60405180910390f35b3480156105e157600080fd5b506105fc60048036038101906105f79190614a6d565b6141fd565b005b600760003373ffffffffffffffffffffffffffffffffffffffff1673ffffffffffffffffffffffffffffffffffffffff16815260200190815260200160002060009054906101000a900460ff1661068a576040517f08c379a0000000000000000000000000000000000000000000000000000000008152600401610681906152c4565b60405180910390fd5b8060046000848152602001908152602001600020600e0160026101000a81548160ff0219169083151502179055505050565b600760003373ffffffffffffffffffffffffffffffffffffffff1673ffffffffffffffffffffffffffffffffffffffff16815260200190815260200160002060009054906101000a900460ff16610748576040517f08c379a000000000000000000000000000000000000000000000000000000000815260040161073f906152c4565b60405180910390fd5b818160046000868152602001908152602001600020600101600401918261077092919061552a565b50505050565b600760003373ffffffffffffffffffffffffffffffffffffffff1673ffffffffffffffffffffffffffffffffffffffff16815260200190815260200160002060009054906101000a900460ff16610802576040517f08c379a00000000000000000000000000000000000000000000000000000000081526004016107f9906152c4565b60405180910390fd5b6000429050600060046000600354815260200190815260200160002090506003600081548092919061083390615629565b9190505581600001819055508b8b82600101600001918261085592919061552a565b50898982600101600401918261086c92919061552a565b50818160010160010181905550338160010160030160006101000a81548173ffffffffffffffffffffffffffffffffffffffff021916908373ffffffffffffffffffffffffffffffffffffffff160217905550828160010160070160006101000a81548160ff021916908315150217905550600081600b0181905550600081600c0181905550600081600d0181905550878782600101600501918261091292919061552a565b50858582600101600601918261092992919061552a565b508381600101600201819055507fe51b4ce9e60c0c010fcdef22c23537f954e056004aed674362555a9d11d037386003548d8d85338f8f600080600060405161097b9a999897969594939291906156e8565b60405180910390a1505050505050505050505050565b606080600060046000858152602001908152602001600020604051806101400160405290816000820154815260200160018201604051806101000160405290816000820180546109e09061534d565b80601f0160208091040260200160405190810160405280929190818152602001828054610a0c9061534d565b8015610a595780601f10610a2e57610100808354040283529160200191610a59565b820191906000526020600020905b815481529060010190602001808311610a3c57829003601f168201915b5050505050815260200160018201548152602001600282015481526020016003820160009054906101000a900473ffffffffffffffffffffffffffffffffffffffff1673ffffffffffffffffffffffffffffffffffffffff1673ffffffffffffffffffffffffffffffffffffffff168152602001600482018054610adc9061534d565b80601f0160208091040260200160405190810160405280929190818152602001828054610b089061534d565b8015610b555780601f10610b2a57610100808354040283529160200191610b55565b820191906000526020600020905b815481529060010190602001808311610b3857829003601f168201915b50505050508152602001600582018054610b6e9061534d565b80601f0160208091040260200160405190810160405280929190818152602001828054610b9a9061534d565b8015610be75780601f10610bbc57610100808354040283529160200191610be7565b820191906000526020600020905b815481529060010190602001808311610bca57829003601f168201915b50505050508152602001600682018054610c009061534d565b80601f0160208091040260200160405190810160405280929190818152602001828054610c2c9061534d565b8015610c795780601f10610c4e57610100808354040283529160200191610c79565b820191906000526020600020905b815481529060010190602001808311610c5c57829003601f168201915b505050505081526020016007820160009054906101000a900460ff161515151581525050815260200160098201805480602002602001604051908101604052809291908181526020016000905b82821015610d6257838290600052602060002090600302016040518060600160405290816000820160009054906101000a900473ffffffffffffffffffffffffffffffffffffffff1673ffffffffffffffffffffffffffffffffffffffff1673ffffffffffffffffffffffffffffffffffffffff1681526020016001820154815260200160028201548152505081526020019060010190610cc6565b505050508152602001600a8201805480602002602001604051908101604052809291908181526020016000905b82821015610e2b57838290600052602060002090600302016040518060600160405290816000820160009054906101000a900473ffffffffffffffffffffffffffffffffffffffff1673ffffffffffffffffffffffffffffffffffffffff1673ffffffffffffffffffffffffffffffffffffffff1681526020016001820154815260200160028201548152505081526020019060010190610d8f565b505050508152602001600b8201548152602001600c8201548152602001600d8201548152602001600e820160009054906101000a900460ff16151515158152602001600e820160019054906101000a900460ff16151515158152602001600e820160029054906101000a900460ff1615151515815250509050806040015181606001519250925050915091565b600160009054906101000a900473ffffffffffffffffffffffffffffffffffffffff1673ffffffffffffffffffffffffffffffffffffffff163373ffffffffffffffffffffffffffffffffffffffff1614610f48576040517f08c379a0000000000000000000000000000000000000000000000000000000008152600401610f3f906152c4565b60405180910390fd5b600760008273ffffffffffffffffffffffffffffffffffffffff1673ffffffffffffffffffffffffffffffffffffffff16815260200190815260200160002060006101000a81549060ff021916905550565b600760003373ffffffffffffffffffffffffffffffffffffffff1673ffffffffffffffffffffffffffffffffffffffff16815260200190815260200160002060009054906101000a900460ff16611026576040517f08c379a000000000000000000000000000000000000000000000000000000000815260040161101d906152c4565b60405180910390fd5b818160046000868152602001908152602001600020600101600501918261104e92919061552a565b50505050565b600760003373ffffffffffffffffffffffffffffffffffffffff1673ffffffffffffffffffffffffffffffffffffffff16815260200190815260200160002060009054906101000a900460ff166110e0576040517f08c379a00000000000000000000000000000000000000000000000000000000081526004016110d7906152c4565b60405180910390fd5b806004600084815260200190815260200160002060010160070160006101000a81548160ff0219169083151502179055505050565b600760003373ffffffffffffffffffffffffffffffffffffffff1673ffffffffffffffffffffffffffffffffffffffff16815260200190815260200160002060009054906101000a900460ff166111a1576040517f08c379a0000000000000000000000000000000000000000000000000000000008152600401611198906152c4565b60405180910390fd5b81816004600086815260200190815260200160002060010160060191826111c992919061552a565b50505050565b6000600760008373ffffffffffffffffffffffffffffffffffffffff1673ffffffffffffffffffffffffffffffffffffffff16815260200190815260200160002060009054906101000a900460ff169050919050565b606060008061123788888888886142d1565b90506000810361124e578260009250925050611960565b8067ffffffffffffffff811115611268576112676152ef565b5b6040519080825280602002602001820160405280156112a157816020015b61128e6144a3565b8152602001906001900390816112865790505b5092506000806000861580156112b7575060008b145b156112c557600090506112f0565b86156112df5760018b6112d89190615778565b90506112ef565b60018b6112ec91906157ac565b90505b5b5b86611300576003548110611306565b60008110155b156119555760018960ff1614801561133e575060046000828152602001908152602001600020600e0160009054906101000a900460ff165b80611379575060028960ff16148015611378575060046000828152602001908152602001600020600e0160009054906101000a900460ff16155b5b806113b15750871580156113b057506004600082815260200190815260200160002060010160070160009054906101000a900460ff165b5b156113cc578680156113c35750600081145b6119555761192a565b60046000828152602001908152602001600020604051806101400160405290816000820154815260200160018201604051806101000160405290816000820180546114169061534d565b80601f01602080910402602001604051908101604052809291908181526020018280546114429061534d565b801561148f5780601f106114645761010080835404028352916020019161148f565b820191906000526020600020905b81548152906001019060200180831161147257829003601f168201915b5050505050815260200160018201548152602001600282015481526020016003820160009054906101000a900473ffffffffffffffffffffffffffffffffffffffff1673ffffffffffffffffffffffffffffffffffffffff1673ffffffffffffffffffffffffffffffffffffffff1681526020016004820180546115129061534d565b80601f016020809104026020016040519081016040528092919081815260200182805461153e9061534d565b801561158b5780601f106115605761010080835404028352916020019161158b565b820191906000526020600020905b81548152906001019060200180831161156e57829003601f168201915b505050505081526020016005820180546115a49061534d565b80601f01602080910402602001604051908101604052809291908181526020018280546115d09061534d565b801561161d5780601f106115f25761010080835404028352916020019161161d565b820191906000526020600020905b81548152906001019060200180831161160057829003601f168201915b505050505081526020016006820180546116369061534d565b80601f01602080910402602001604051908101604052809291908181526020018280546116629061534d565b80156116af5780601f10611684576101008083540402835291602001916116af565b820191906000526020600020905b81548152906001019060200180831161169257829003601f168201915b505050505081526020016007820160009054906101000a900460ff161515151581525050815260200160098201805480602002602001604051908101604052809291908181526020016000905b8282101561179857838290600052602060002090600302016040518060600160405290816000820160009054906101000a900473ffffffffffffffffffffffffffffffffffffffff1673ffffffffffffffffffffffffffffffffffffffff1673ffffffffffffffffffffffffffffffffffffffff16815260200160018201548152602001600282015481525050815260200190600101906116fc565b505050508152602001600a8201805480602002602001604051908101604052809291908181526020016000905b8282101561186157838290600052602060002090600302016040518060600160405290816000820160009054906101000a900473ffffffffffffffffffffffffffffffffffffffff1673ffffffffffffffffffffffffffffffffffffffff1673ffffffffffffffffffffffffffffffffffffffff16815260200160018201548152602001600282015481525050815260200190600101906117c5565b505050508152602001600b8201548152602001600c8201548152602001600d8201548152602001600e820160009054906101000a900460ff16151515158152602001600e820160019054906101000a900460ff16151515158152602001600e820160029054906101000a900460ff1615151515815250508684806118e490615629565b9550815181106118f7576118f66157e0565b5b6020026020010181905250818061190d90615629565b92505089821015611955578680156119255750600081145b611955575b8661194157808061193a90615629565b915061194f565b808061194c9061580f565b91505b506112f1565b858195509550505050505b9550959350505050565b600760003373ffffffffffffffffffffffffffffffffffffffff1673ffffffffffffffffffffffffffffffffffffffff16815260200190815260200160002060009054906101000a900460ff166119f6576040517f08c379a00000000000000000000000000000000000000000000000000000000081526004016119ed906152c4565b60405180910390fd5b8060046000848152602001908152602001600020600101600201819055505050565b600760003373ffffffffffffffffffffffffffffffffffffffff1673ffffffffffffffffffffffffffffffffffffffff16815260200190815260200160002060009054906101000a900460ff16611aa4576040517f08c379a0000000000000000000000000000000000000000000000000000000008152600401611a9b906152c4565b60405180910390fd5b600060639050600060649050600060046000868152602001908152602001600020905080600e0160009054906101000a900460ff1615611b10576040517f0b5f6bf000000000000000000000000000000000000000000000000000000000815260040160405180910390fd5b8315611fa7576000828483600d0154611b299190615838565b611b3391906158a9565b90506000805b8360090180549050811015611d2957600084600c0154856009018381548110611b6557611b646157e0565b5b90600052602060002090600302016001015485611b829190615838565b611b8c91906158a9565b90508083611b9a91906157ac565b9250846009018281548110611bb257611bb16157e0565b5b90600052602060002090600302016001015481611bcf91906157ac565b60056000876009018581548110611be957611be86157e0565b5b906000526020600020906003020160000160009054906101000a900473ffffffffffffffffffffffffffffffffffffffff1673ffffffffffffffffffffffffffffffffffffffff1673ffffffffffffffffffffffffffffffffffffffff1681526020019081526020016000206000828254611c6491906157ac565b925050819055506006856009018381548110611c8357611c826157e0565b5b906000526020600020906003020160000160009054906101000a900473ffffffffffffffffffffffffffffffffffffffff169080600181540180825580915050600190039060005260206000200160009091909190916101000a81548173ffffffffffffffffffffffffffffffffffffffff021916908373ffffffffffffffffffffffffffffffffffffffff160217905550508080611d2190615629565b915050611b39565b5060005b600680549050811015611eb457600060068281548110611d5057611d4f6157e0565b5b9060005260206000200160009054906101000a900473ffffffffffffffffffffffffffffffffffffffff169050600260009054906101000a900473ffffffffffffffffffffffffffffffffffffffff1673ffffffffffffffffffffffffffffffffffffffff1663a9059cbb82600560008573ffffffffffffffffffffffffffffffffffffffff1673ffffffffffffffffffffffffffffffffffffffff168152602001908152602001600020546040518363ffffffff1660e01b8152600401611e1992919061592f565b6020604051808303816000875af1158015611e38573d6000803e3d6000fd5b505050506040513d601f19601f82011682018060405250810190611e5c919061596d565b50600560008273ffffffffffffffffffffffffffffffffffffffff1673ffffffffffffffffffffffffffffffffffffffff16815260200190815260200160002060009055508080611eac90615629565b915050611d2d565b5060008184600d0154611ec79190615778565b905060008060029054906101000a900473ffffffffffffffffffffffffffffffffffffffff169050600260009054906101000a900473ffffffffffffffffffffffffffffffffffffffff1673ffffffffffffffffffffffffffffffffffffffff1663a9059cbb82846040518363ffffffff1660e01b8152600401611f4c92919061592f565b6020604051808303816000875af1158015611f6b573d6000803e3d6000fd5b505050506040513d601f19601f82011682018060405250810190611f8f919061596d565b5060066000611f9e9190614502565b50505050612434565b6000828483600c0154611fba9190615838565b611fc491906158a9565b90506000805b83600a01805490508110156121ba57600084600d015485600a018381548110611ff657611ff56157e0565b5b906000526020600020906003020160010154856120139190615838565b61201d91906158a9565b9050808361202b91906157ac565b925084600a018281548110612043576120426157e0565b5b9060005260206000209060030201600101548161206091906157ac565b6005600087600a01858154811061207a576120796157e0565b5b906000526020600020906003020160000160009054906101000a900473ffffffffffffffffffffffffffffffffffffffff1673ffffffffffffffffffffffffffffffffffffffff1673ffffffffffffffffffffffffffffffffffffffff16815260200190815260200160002060008282546120f591906157ac565b92505081905550600685600a018381548110612114576121136157e0565b5b906000526020600020906003020160000160009054906101000a900473ffffffffffffffffffffffffffffffffffffffff169080600181540180825580915050600190039060005260206000200160009091909190916101000a81548173ffffffffffffffffffffffffffffffffffffffff021916908373ffffffffffffffffffffffffffffffffffffffff1602179055505080806121b290615629565b915050611fca565b5060005b600680549050811015612345576000600682815481106121e1576121e06157e0565b5b9060005260206000200160009054906101000a900473ffffffffffffffffffffffffffffffffffffffff169050600260009054906101000a900473ffffffffffffffffffffffffffffffffffffffff1673ffffffffffffffffffffffffffffffffffffffff1663a9059cbb82600560008573ffffffffffffffffffffffffffffffffffffffff1673ffffffffffffffffffffffffffffffffffffffff168152602001908152602001600020546040518363ffffffff1660e01b81526004016122aa92919061592f565b6020604051808303816000875af11580156122c9573d6000803e3d6000fd5b505050506040513d601f19601f820116820180604052508101906122ed919061596d565b50600560008273ffffffffffffffffffffffffffffffffffffffff1673ffffffffffffffffffffffffffffffffffffffff1681526020019081526020016000206000905550808061233d90615629565b9150506121be565b5060008184600c01546123589190615778565b905060008060029054906101000a900473ffffffffffffffffffffffffffffffffffffffff169050600260009054906101000a900473ffffffffffffffffffffffffffffffffffffffff1673ffffffffffffffffffffffffffffffffffffffff1663a9059cbb82846040518363ffffffff1660e01b81526004016123dd92919061592f565b6020604051808303816000875af11580156123fc573d6000803e3d6000fd5b505050506040513d601f19601f82011682018060405250810190612420919061596d565b506006600061242f9190614502565b505050505b8381600e0160016101000a81548160ff021916908315150217905550600181600e0160006101000a81548160ff0219169083151502179055505050505050565b60035481565b600160009054906101000a900473ffffffffffffffffffffffffffffffffffffffff1681565b600060029054906101000a900473ffffffffffffffffffffffffffffffffffffffff1681565b600160009054906101000a900473ffffffffffffffffffffffffffffffffffffffff1673ffffffffffffffffffffffffffffffffffffffff163373ffffffffffffffffffffffffffffffffffffffff1614612556576040517f08c379a000000000000000000000000000000000000000000000000000000000815260040161254d906152c4565b60405180910390fd5b600760008273ffffffffffffffffffffffffffffffffffffffff1673ffffffffffffffffffffffffffffffffffffffff16815260200190815260200160002060009054906101000a900460ff16612600576001600760008373ffffffffffffffffffffffffffffffffffffffff1673ffffffffffffffffffffffffffffffffffffffff16815260200190815260200160002060006101000a81548160ff0219169083151502179055505b50565b600760003373ffffffffffffffffffffffffffffffffffffffff1673ffffffffffffffffffffffffffffffffffffffff16815260200190815260200160002060009054906101000a900460ff1661268f576040517f08c379a0000000000000000000000000000000000000000000000000000000008152600401612686906152c4565b60405180910390fd5b81816004600086815260200190815260200160002060010160000191826126b792919061552a565b50505050565b600760003373ffffffffffffffffffffffffffffffffffffffff1673ffffffffffffffffffffffffffffffffffffffff16815260200190815260200160002060009054906101000a900460ff16612749576040517f08c379a0000000000000000000000000000000000000000000000000000000008152600401612740906152c4565b60405180910390fd5b600060046000838152602001908152602001600020604051806101400160405290816000820154815260200160018201604051806101000160405290816000820180546127959061534d565b80601f01602080910402602001604051908101604052809291908181526020018280546127c19061534d565b801561280e5780601f106127e35761010080835404028352916020019161280e565b820191906000526020600020905b8154815290600101906020018083116127f157829003601f168201915b5050505050815260200160018201548152602001600282015481526020016003820160009054906101000a900473ffffffffffffffffffffffffffffffffffffffff1673ffffffffffffffffffffffffffffffffffffffff1673ffffffffffffffffffffffffffffffffffffffff1681526020016004820180546128919061534d565b80601f01602080910402602001604051908101604052809291908181526020018280546128bd9061534d565b801561290a5780601f106128df5761010080835404028352916020019161290a565b820191906000526020600020905b8154815290600101906020018083116128ed57829003601f168201915b505050505081526020016005820180546129239061534d565b80601f016020809104026020016040519081016040528092919081815260200182805461294f9061534d565b801561299c5780601f106129715761010080835404028352916020019161299c565b820191906000526020600020905b81548152906001019060200180831161297f57829003601f168201915b505050505081526020016006820180546129b59061534d565b80601f01602080910402602001604051908101604052809291908181526020018280546129e19061534d565b8015612a2e5780601f10612a0357610100808354040283529160200191612a2e565b820191906000526020600020905b815481529060010190602001808311612a1157829003601f168201915b505050505081526020016007820160009054906101000a900460ff161515151581525050815260200160098201805480602002602001604051908101604052809291908181526020016000905b82821015612b1757838290600052602060002090600302016040518060600160405290816000820160009054906101000a900473ffffffffffffffffffffffffffffffffffffffff1673ffffffffffffffffffffffffffffffffffffffff1673ffffffffffffffffffffffffffffffffffffffff1681526020016001820154815260200160028201548152505081526020019060010190612a7b565b505050508152602001600a8201805480602002602001604051908101604052809291908181526020016000905b82821015612be057838290600052602060002090600302016040518060600160405290816000820160009054906101000a900473ffffffffffffffffffffffffffffffffffffffff1673ffffffffffffffffffffffffffffffffffffffff1673ffffffffffffffffffffffffffffffffffffffff1681526020016001820154815260200160028201548152505081526020019060010190612b44565b505050508152602001600b8201548152602001600c8201548152602001600d8201548152602001600e820160009054906101000a900460ff16151515158152602001600e820160019054906101000a900460ff16151515158152602001600e820160029054906101000a900460ff1615151515815250509050600860008473ffffffffffffffffffffffffffffffffffffffff1673ffffffffffffffffffffffffffffffffffffffff16815260200190815260200160002060008381526020019081526020016000206000612cb59190614523565b60005b816040015151811015612e23578373ffffffffffffffffffffffffffffffffffffffff1682604001518281518110612cf357612cf26157e0565b5b60200260200101516000015173ffffffffffffffffffffffffffffffffffffffff1603612e1057600860008573ffffffffffffffffffffffffffffffffffffffff1673ffffffffffffffffffffffffffffffffffffffff168152602001908152602001600020600084815260200190815260200160002082604001518281518110612d8157612d806157e0565b5b6020026020010151908060018154018082558091505060019003906000526020600020906003020160009091909190915060008201518160000160006101000a81548173ffffffffffffffffffffffffffffffffffffffff021916908373ffffffffffffffffffffffffffffffffffffffff160217905550602082015181600101556040820151816002015550505b8080612e1b90615629565b915050612cb8565b50600960008473ffffffffffffffffffffffffffffffffffffffff1673ffffffffffffffffffffffffffffffffffffffff16815260200190815260200160002060008381526020019081526020016000206000612e809190614523565b60005b816060015151811015612fee578373ffffffffffffffffffffffffffffffffffffffff1682606001518281518110612ebe57612ebd6157e0565b5b60200260200101516000015173ffffffffffffffffffffffffffffffffffffffff1603612fdb57600960008573ffffffffffffffffffffffffffffffffffffffff1673ffffffffffffffffffffffffffffffffffffffff168152602001908152602001600020600084815260200190815260200160002082606001518281518110612f4c57612f4b6157e0565b5b6020026020010151908060018154018082558091505060019003906000526020600020906003020160009091909190915060008201518160000160006101000a81548173ffffffffffffffffffffffffffffffffffffffff021916908373ffffffffffffffffffffffffffffffffffffffff160217905550602082015181600101556040820151816002015550505b8080612fe690615629565b915050612e83565b50505050565b6004602052806000526040600020600091509050806000015490806001016040518061010001604052908160008201805461302e9061534d565b80601f016020809104026020016040519081016040528092919081815260200182805461305a9061534d565b80156130a75780601f1061307c576101008083540402835291602001916130a7565b820191906000526020600020905b81548152906001019060200180831161308a57829003601f168201915b5050505050815260200160018201548152602001600282015481526020016003820160009054906101000a900473ffffffffffffffffffffffffffffffffffffffff1673ffffffffffffffffffffffffffffffffffffffff1673ffffffffffffffffffffffffffffffffffffffff16815260200160048201805461312a9061534d565b80601f01602080910402602001604051908101604052809291908181526020018280546131569061534d565b80156131a35780601f10613178576101008083540402835291602001916131a3565b820191906000526020600020905b81548152906001019060200180831161318657829003601f168201915b505050505081526020016005820180546131bc9061534d565b80601f01602080910402602001604051908101604052809291908181526020018280546131e89061534d565b80156132355780601f1061320a57610100808354040283529160200191613235565b820191906000526020600020905b81548152906001019060200180831161321857829003601f168201915b5050505050815260200160068201805461324e9061534d565b80601f016020809104026020016040519081016040528092919081815260200182805461327a9061534d565b80156132c75780601f1061329c576101008083540402835291602001916132c7565b820191906000526020600020905b8154815290600101906020018083116132aa57829003601f168201915b505050505081526020016007820160009054906101000a900460ff1615151515815250509080600b01549080600c01549080600d01549080600e0160009054906101000a900460ff169080600e0160019054906101000a900460ff169080600e0160029054906101000a900460ff16905088565b600260009054906101000a900473ffffffffffffffffffffffffffffffffffffffff1673ffffffffffffffffffffffffffffffffffffffff1663dd62ed3e33306040518363ffffffff1660e01b815260040161339892919061599a565b602060405180830381865afa1580156133b5573d6000803e3d6000fd5b505050506040513d601f19601f820116820180604052508101906133d991906159d8565b81111561341b576040517f08c379a000000000000000000000000000000000000000000000000000000000815260040161341290615a77565b60405180910390fd5b600060046000848152602001908152602001600020905080600e0160009054906101000a900460ff161561347b576040517f0b5f6bf000000000000000000000000000000000000000000000000000000000815260040160405180910390fd5b80600e0160029054906101000a900460ff16156134c4576040517f1160214300000000000000000000000000000000000000000000000000000000815260040160405180910390fd5b6103e8426134d29190615838565b81600101600201541015613512576040517f98add4c400000000000000000000000000000000000000000000000000000000815260040160405180910390fd5b600260009054906101000a900473ffffffffffffffffffffffffffffffffffffffff1673ffffffffffffffffffffffffffffffffffffffff166323b872dd3330856040518463ffffffff1660e01b815260040161357193929190615a97565b6020604051808303816000875af1158015613590573d6000803e3d6000fd5b505050506040513d601f19601f820116820180604052508101906135b4919061596d565b50600060405180606001604052803373ffffffffffffffffffffffffffffffffffffffff1681526020018481526020014281525090508282600d0160008282546135fe91906157ac565b925050819055508282600b01600082825461361991906157ac565b9250508190555081600a0181908060018154018082558091505060019003906000526020600020906003020160009091909190915060008201518160000160006101000a81548173ffffffffffffffffffffffffffffffffffffffff021916908373ffffffffffffffffffffffffffffffffffffffff16021790555060208201518160010155604082015181600201555050600960003373ffffffffffffffffffffffffffffffffffffffff1673ffffffffffffffffffffffffffffffffffffffff168152602001908152602001600020600085815260200190815260200160002081908060018154018082558091505060019003906000526020600020906003020160009091909190915060008201518160000160006101000a81548173ffffffffffffffffffffffffffffffffffffffff021916908373ffffffffffffffffffffffffffffffffffffffff1602179055506020820151816001015560408201518160020155505050505050565b60008060019054906101000a900460ff161590508080156137b95750600160008054906101000a900460ff1660ff16105b806137e657506137c830614480565b1580156137e55750600160008054906101000a900460ff1660ff16145b5b613825576040517f08c379a000000000000000000000000000000000000000000000000000000000815260040161381c90615b40565b60405180910390fd5b60016000806101000a81548160ff021916908360ff1602179055508015613862576001600060016101000a81548160ff0219169083151502179055505b81600260006101000a81548173ffffffffffffffffffffffffffffffffffffffff021916908373ffffffffffffffffffffffffffffffffffffffff16021790555033600160006101000a81548173ffffffffffffffffffffffffffffffffffffffff021916908373ffffffffffffffffffffffffffffffffffffffff160217905550600160009054906101000a900473ffffffffffffffffffffffffffffffffffffffff16600060026101000a81548173ffffffffffffffffffffffffffffffffffffffff021916908373ffffffffffffffffffffffffffffffffffffffff160217905550600160076000600160009054906101000a900473ffffffffffffffffffffffffffffffffffffffff1673ffffffffffffffffffffffffffffffffffffffff1673ffffffffffffffffffffffffffffffffffffffff16815260200190815260200160002060006101000a81548160ff0219169083151502179055508015613a1a5760008060016101000a81548160ff0219169083151502179055507f7f26b83ff96e1f2b6a682f133852f6798a09c465da95921460cefb38474024986001604051613a119190615b9b565b60405180910390a15b5050565b600760003373ffffffffffffffffffffffffffffffffffffffff1673ffffffffffffffffffffffffffffffffffffffff16815260200190815260200160002060009054906101000a900460ff16613aaa576040517f08c379a0000000000000000000000000000000000000000000000000000000008152600401613aa1906152c4565b60405180910390fd5b6000600460008d815260200190815260200160002090508a8a826001016000019182613ad792919061552a565b508888826001016004019182613aee92919061552a565b508686826001016005019182613b0592919061552a565b508484826001016006019182613b1c92919061552a565b50828160010160020181905550818160010160070160006101000a81548160ff021916908315150217905550505050505050505050505050565b606080600860008573ffffffffffffffffffffffffffffffffffffffff1673ffffffffffffffffffffffffffffffffffffffff1681526020019081526020016000206000848152602001908152602001600020600960008673ffffffffffffffffffffffffffffffffffffffff1673ffffffffffffffffffffffffffffffffffffffff168152602001908152602001600020600085815260200190815260200160002081805480602002602001604051908101604052809291908181526020016000905b82821015613cb657838290600052602060002090600302016040518060600160405290816000820160009054906101000a900473ffffffffffffffffffffffffffffffffffffffff1673ffffffffffffffffffffffffffffffffffffffff1673ffffffffffffffffffffffffffffffffffffffff1681526020016001820154815260200160028201548152505081526020019060010190613c1a565b50505050915080805480602002602001604051908101604052809291908181526020016000905b82821015613d7957838290600052602060002090600302016040518060600160405290816000820160009054906101000a900473ffffffffffffffffffffffffffffffffffffffff1673ffffffffffffffffffffffffffffffffffffffff1673ffffffffffffffffffffffffffffffffffffffff1681526020016001820154815260200160028201548152505081526020019060010190613cdd565b505050509050915091509250929050565b600260009054906101000a900473ffffffffffffffffffffffffffffffffffffffff1673ffffffffffffffffffffffffffffffffffffffff1663dd62ed3e33306040518363ffffffff1660e01b8152600401613de792919061599a565b602060405180830381865afa158015613e04573d6000803e3d6000fd5b505050506040513d601f19601f82011682018060405250810190613e2891906159d8565b811115613e6a576040517f08c379a0000000000000000000000000000000000000000000000000000000008152600401613e6190615a77565b60405180910390fd5b600060046000848152602001908152602001600020905080600e0160009054906101000a900460ff1615613eca576040517f0b5f6bf000000000000000000000000000000000000000000000000000000000815260040160405180910390fd5b80600e0160029054906101000a900460ff1615613f13576040517f1160214300000000000000000000000000000000000000000000000000000000815260040160405180910390fd5b6103e842613f219190615838565b81600101600201541015613f61576040517f98add4c400000000000000000000000000000000000000000000000000000000815260040160405180910390fd5b600260009054906101000a900473ffffffffffffffffffffffffffffffffffffffff1673ffffffffffffffffffffffffffffffffffffffff166323b872dd3330856040518463ffffffff1660e01b8152600401613fc093929190615a97565b6020604051808303816000875af1158015613fdf573d6000803e3d6000fd5b505050506040513d601f19601f82011682018060405250810190614003919061596d565b50600060405180606001604052803373ffffffffffffffffffffffffffffffffffffffff1681526020018481526020014281525090508282600c01600082825461404d91906157ac565b925050819055508282600b01600082825461406891906157ac565b925050819055508160090181908060018154018082558091505060019003906000526020600020906003020160009091909190915060008201518160000160006101000a81548173ffffffffffffffffffffffffffffffffffffffff021916908373ffffffffffffffffffffffffffffffffffffffff16021790555060208201518160010155604082015181600201555050600860003373ffffffffffffffffffffffffffffffffffffffff1673ffffffffffffffffffffffffffffffffffffffff168152602001908152602001600020600085815260200190815260200160002081908060018154018082558091505060019003906000526020600020906003020160009091909190915060008201518160000160006101000a81548173ffffffffffffffffffffffffffffffffffffffff021916908373ffffffffffffffffffffffffffffffffffffffff1602179055506020820151816001015560408201518160020155505050505050565b600260009054906101000a900473ffffffffffffffffffffffffffffffffffffffff1681565b600160009054906101000a900473ffffffffffffffffffffffffffffffffffffffff1673ffffffffffffffffffffffffffffffffffffffff163373ffffffffffffffffffffffffffffffffffffffff161461428d576040517f08c379a0000000000000000000000000000000000000000000000000000000008152600401614284906152c4565b60405180910390fd5b80600160006101000a81548173ffffffffffffffffffffffffffffffffffffffff021916908373ffffffffffffffffffffffffffffffffffffffff16021790555050565b60008180156142e1575060008611155b156142ef5760009050614477565b600080831580156143005750600088145b1561430e5760009050614339565b8315614328576001886143219190615778565b9050614338565b60018861433591906157ac565b90505b5b5b8361434957600354811061434f565b60008110155b156144715760018660ff16148015614387575060046000828152602001908152602001600020600e0160009054906101000a900460ff165b806143c2575060028660ff161480156143c1575060046000828152602001908152602001600020600e0160009054906101000a900460ff16155b5b806143fa5750841580156143f957506004600082815260200190815260200160002060010160070160009054906101000a900460ff165b5b156144155783801561440c5750600081145b61447157614446565b818061442090615629565b925050868210614434578192505050614477565b8380156144415750600081145b614471575b8361445d57808061445690615629565b915061446b565b80806144689061580f565b91505b5061433a565b81925050505b95945050505050565b6000808273ffffffffffffffffffffffffffffffffffffffff163b119050919050565b604051806101400160405280600081526020016144be614547565b815260200160608152602001606081526020016000815260200160008152602001600081526020016000151581526020016000151581526020016000151581525090565b508054600082559060005260206000209081019061452091906145a4565b50565b508054600082556003029060005260206000209081019061454491906145c1565b50565b604051806101000160405280606081526020016000815260200160008152602001600073ffffffffffffffffffffffffffffffffffffffff1681526020016060815260200160608152602001606081526020016000151581525090565b5b808211156145bd5760008160009055506001016145a5565b5090565b5b8082111561460b57600080820160006101000a81549073ffffffffffffffffffffffffffffffffffffffff021916905560018201600090556002820160009055506003016145c2565b5090565b600080fd5b600080fd5b6000819050919050565b61462c81614619565b811461463757600080fd5b50565b60008135905061464981614623565b92915050565b60008115159050919050565b6146648161464f565b811461466f57600080fd5b50565b6000813590506146818161465b565b92915050565b6000806040838503121561469e5761469d61460f565b5b60006146ac8582860161463a565b92505060206146bd85828601614672565b9150509250929050565b600080fd5b600080fd5b600080fd5b60008083601f8401126146ec576146eb6146c7565b5b8235905067ffffffffffffffff811115614709576147086146cc565b5b602083019150836001820283011115614725576147246146d1565b5b9250929050565b6000806000604084860312156147455761474461460f565b5b60006147538682870161463a565b935050602084013567ffffffffffffffff81111561477457614773614614565b5b614780868287016146d6565b92509250509250925092565b60008060008060008060008060008060c08b8d0312156147af576147ae61460f565b5b60008b013567ffffffffffffffff8111156147cd576147cc614614565b5b6147d98d828e016146d6565b9a509a505060208b013567ffffffffffffffff8111156147fc576147fb614614565b5b6148088d828e016146d6565b985098505060408b013567ffffffffffffffff81111561482b5761482a614614565b5b6148378d828e016146d6565b965096505060608b013567ffffffffffffffff81111561485a57614859614614565b5b6148668d828e016146d6565b945094505060806148798d828e0161463a565b92505060a061488a8d828e01614672565b9150509295989b9194979a5092959850565b6000602082840312156148b2576148b161460f565b5b60006148c08482850161463a565b91505092915050565b600081519050919050565b600082825260208201905092915050565b6000819050602082019050919050565b600073ffffffffffffffffffffffffffffffffffffffff82169050919050565b6000614920826148f5565b9050919050565b61493081614915565b82525050565b61493f81614619565b82525050565b60608201600082015161495b6000850182614927565b50602082015161496e6020850182614936565b5060408201516149816040850182614936565b50505050565b60006149938383614945565b60608301905092915050565b6000602082019050919050565b60006149b7826148c9565b6149c181856148d4565b93506149cc836148e5565b8060005b838110156149fd5781516149e48882614987565b97506149ef8361499f565b9250506001810190506149d0565b5085935050505092915050565b60006040820190508181036000830152614a2481856149ac565b90508181036020830152614a3881846149ac565b90509392505050565b614a4a81614915565b8114614a5557600080fd5b50565b600081359050614a6781614a41565b92915050565b600060208284031215614a8357614a8261460f565b5b6000614a9184828501614a58565b91505092915050565b614aa38161464f565b82525050565b6000602082019050614abe6000830184614a9a565b92915050565b600060ff82169050919050565b614ada81614ac4565b8114614ae557600080fd5b50565b600081359050614af781614ad1565b92915050565b600080600080600060a08688031215614b1957614b1861460f565b5b6000614b278882890161463a565b9550506020614b388882890161463a565b9450506040614b4988828901614ae8565b9350506060614b5a88828901614672565b9250506080614b6b88828901614672565b9150509295509295909350565b600081519050919050565b600082825260208201905092915050565b6000819050602082019050919050565b600081519050919050565b600082825260208201905092915050565b60005b83811015614bde578082015181840152602081019050614bc3565b60008484015250505050565b6000601f19601f8301169050919050565b6000614c0682614ba4565b614c108185614baf565b9350614c20818560208601614bc0565b614c2981614bea565b840191505092915050565b614c3d8161464f565b82525050565b6000610100830160008301518482036000860152614c618282614bfb565b9150506020830151614c766020860182614936565b506040830151614c896040860182614936565b506060830151614c9c6060860182614927565b5060808301518482036080860152614cb48282614bfb565b91505060a083015184820360a0860152614cce8282614bfb565b91505060c083015184820360c0860152614ce88282614bfb565b91505060e0830151614cfd60e0860182614c34565b508091505092915050565b600082825260208201905092915050565b6000614d24826148c9565b614d2e8185614d08565b9350614d39836148e5565b8060005b83811015614d6a578151614d518882614987565b9750614d5c8361499f565b925050600181019050614d3d565b5085935050505092915050565b600061014083016000830151614d906000860182614936565b5060208301518482036020860152614da88282614c43565b91505060408301518482036040860152614dc28282614d19565b91505060608301518482036060860152614ddc8282614d19565b9150506080830151614df16080860182614936565b5060a0830151614e0460a0860182614936565b5060c0830151614e1760c0860182614936565b5060e0830151614e2a60e0860182614c34565b50610100830151614e3f610100860182614c34565b50610120830151614e54610120860182614c34565b508091505092915050565b6000614e6b8383614d77565b905092915050565b6000602082019050919050565b6000614e8b82614b78565b614e958185614b83565b935083602082028501614ea785614b94565b8060005b85811015614ee35784840389528151614ec48582614e5f565b9450614ecf83614e73565b925060208a01995050600181019050614eab565b50829750879550505050505092915050565b614efe81614619565b82525050565b60006040820190508181036000830152614f1e8185614e80565b9050614f2d6020830184614ef5565b9392505050565b60008060408385031215614f4b57614f4a61460f565b5b6000614f598582860161463a565b9250506020614f6a8582860161463a565b9150509250929050565b6000602082019050614f896000830184614ef5565b92915050565b614f9881614915565b82525050565b6000602082019050614fb36000830184614f8f565b92915050565b60008060408385031215614fd057614fcf61460f565b5b6000614fde85828601614a58565b9250506020614fef8582860161463a565b9150509250929050565b60006101008301600083015184820360008601526150178282614bfb565b915050602083015161502c6020860182614936565b50604083015161503f6040860182614936565b5060608301516150526060860182614927565b506080830151848203608086015261506a8282614bfb565b91505060a083015184820360a08601526150848282614bfb565b91505060c083015184820360c086015261509e8282614bfb565b91505060e08301516150b360e0860182614c34565b508091505092915050565b6000610100820190506150d4600083018b614ef5565b81810360208301526150e6818a614ff9565b90506150f56040830189614ef5565b6151026060830188614ef5565b61510f6080830187614ef5565b61511c60a0830186614a9a565b61512960c0830185614a9a565b61513660e0830184614a9a565b9998505050505050505050565b600080600080600080600080600080600060e08c8e0312156151685761516761460f565b5b60006151768e828f0161463a565b9b505060208c013567ffffffffffffffff81111561519757615196614614565b5b6151a38e828f016146d6565b9a509a505060408c013567ffffffffffffffff8111156151c6576151c5614614565b5b6151d28e828f016146d6565b985098505060608c013567ffffffffffffffff8111156151f5576151f4614614565b5b6152018e828f016146d6565b965096505060808c013567ffffffffffffffff81111561522457615223614614565b5b6152308e828f016146d6565b945094505060a06152438e828f0161463a565b92505060c06152548e828f01614672565b9150509295989b509295989b9093969950565b600082825260208201905092915050565b7f556e617574686f72697a65640000000000000000000000000000000000000000600082015250565b60006152ae600c83615267565b91506152b982615278565b602082019050919050565b600060208201905081810360008301526152dd816152a1565b9050919050565b600082905092915050565b7f4e487b7100000000000000000000000000000000000000000000000000000000600052604160045260246000fd5b7f4e487b7100000000000000000000000000000000000000000000000000000000600052602260045260246000fd5b6000600282049050600182168061536557607f821691505b6020821081036153785761537761531e565b5b50919050565b60008190508160005260206000209050919050565b60006020601f8301049050919050565b600082821b905092915050565b6000600883026153e07fffffffffffffffffffffffffffffffffffffffffffffffffffffffffffffffff826153a3565b6153ea86836153a3565b95508019841693508086168417925050509392505050565b6000819050919050565b600061542761542261541d84614619565b615402565b614619565b9050919050565b6000819050919050565b6154418361540c565b61545561544d8261542e565b8484546153b0565b825550505050565b600090565b61546a61545d565b615475818484615438565b505050565b5b818110156154995761548e600082615462565b60018101905061547b565b5050565b601f8211156154de576154af8161537e565b6154b884615393565b810160208510156154c7578190505b6154db6154d385615393565b83018261547a565b50505b505050565b600082821c905092915050565b6000615501600019846008026154e3565b1980831691505092915050565b600061551a83836154f0565b9150826002028217905092915050565b61553483836152e4565b67ffffffffffffffff81111561554d5761554c6152ef565b5b615557825461534d565b61556282828561549d565b6000601f831160018114615591576000841561557f578287013590505b615589858261550e565b8655506155f1565b601f19841661559f8661537e565b60005b828110156155c7578489013582556001820191506020850194506020810190506155a2565b868310156155e457848901356155e0601f8916826154f0565b8355505b6001600288020188555050505b50505050505050565b7f4e487b7100000000000000000000000000000000000000000000000000000000600052601160045260246000fd5b600061563482614619565b91507fffffffffffffffffffffffffffffffffffffffffffffffffffffffffffffffff8203615666576156656155fa565b5b600182019050919050565b82818337600083830152505050565b600061568c8385615267565b9350615699838584615671565b6156a283614bea565b840190509392505050565b6000819050919050565b60006156d26156cd6156c8846156ad565b615402565b614619565b9050919050565b6156e2816156b7565b82525050565b6000610100820190506156fe600083018d614ef5565b8181036020830152615711818b8d615680565b9050615720604083018a614ef5565b61572d6060830189614f8f565b8181036080830152615740818789615680565b905061574f60a08301866156d9565b61575c60c08301856156d9565b61576960e08301846156d9565b9b9a5050505050505050505050565b600061578382614619565b915061578e83614619565b92508282039050818111156157a6576157a56155fa565b5b92915050565b60006157b782614619565b91506157c283614619565b92508282019050808211156157da576157d96155fa565b5b92915050565b7f4e487b7100000000000000000000000000000000000000000000000000000000600052603260045260246000fd5b600061581a82614619565b91506000820361582d5761582c6155fa565b5b600182039050919050565b600061584382614619565b915061584e83614619565b925082820261585c81614619565b91508282048414831517615873576158726155fa565b5b5092915050565b7f4e487b7100000000000000000000000000000000000000000000000000000000600052601260045260246000fd5b60006158b482614619565b91506158bf83614619565b9250826158cf576158ce61587a565b5b828204905092915050565b60006158f56158f06158eb846148f5565b615402565b6148f5565b9050919050565b6000615907826158da565b9050919050565b6000615919826158fc565b9050919050565b6159298161590e565b82525050565b60006040820190506159446000830185615920565b6159516020830184614ef5565b9392505050565b6000815190506159678161465b565b92915050565b6000602082840312156159835761598261460f565b5b600061599184828501615958565b91505092915050565b60006040820190506159af6000830185614f8f565b6159bc6020830184614f8f565b9392505050565b6000815190506159d281614623565b92915050565b6000602082840312156159ee576159ed61460f565b5b60006159fc848285016159c3565b91505092915050565b7f4e6f7420616c6c6f77656420746f207370656e64207468697320616d6f756e7460008201527f2e00000000000000000000000000000000000000000000000000000000000000602082015250565b6000615a61602183615267565b9150615a6c82615a05565b604082019050919050565b60006020820190508181036000830152615a9081615a54565b9050919050565b6000606082019050615aac6000830186614f8f565b615ab96020830185614f8f565b615ac66040830184614ef5565b949350505050565b7f496e697469616c697a61626c653a20636f6e747261637420697320616c72656160008201527f647920696e697469616c697a6564000000000000000000000000000000000000602082015250565b6000615b2a602e83615267565b9150615b3582615ace565b604082019050919050565b60006020820190508181036000830152615b5981615b1d565b9050919050565b6000819050919050565b6000615b85615b80615b7b84615b60565b615402565b614ac4565b9050919050565b615b9581615b6a565b82525050565b6000602082019050615bb06000830184615b8c565b9291505056fea2646970667358221220687fc0ab8ae0e4c1fb6076cc48c48a92c7a731678e6aa6b9b27dc9be776be26364736f6c63430008120033",
    "linkReferences": {},
    "deployedLinkReferences": {}
}